{
	"data": {
		"bytecode": {
			"linkReferences": {},
			"object": "6080604052600280546001600160a01b03199081167378c1b0c915c4faa5fffa6cabf0219da63d7f4cb81790915560038054821673201eba5cc46d216ce6dc03f6a759e8e766e956ae17905560048054821673eaee7ee68874218c3558b40063c42b82d3e7232a17905560058054821673f6c9020c9e915808481757779edb53daceae241517905560068054821673013e138ef6008ae5fdfde29700e3f2bc61d21e3a1790556007805482167308a62eb0ef6dbe762774abf5e18f49671559285b179055600880548216734515a45337f461a11ff0fe8abf3c606ae5dc00c91790556009805490911673094f2f617eef73e87a29f27f571375374d18a5fb17905534801561010b575f80fd5b505f80546001600160a01b031916331790556104c18061012a5f395ff3fe608060405260043610610036575f3560e01c80637d7c2a1c1461004157806385cd14ba1461004b5780638cbc5cff14610073575f80fd5b3661003d57005b5f80fd5b610049610086565b005b348015610056575f80fd5b5061005f610210565b604051901515815260200160405180910390f35b610049610081366004610428565b610307565b73094f2f617eef73e87a29f27f571375374d18a5fb6001600160a01b031663b298bcf56040518163ffffffff1660e01b81526004015f604051808303815f87803b1580156100d2575f80fd5b505af11580156100e4573d5f803e3d5ffd5b5050505073094f2f617eef73e87a29f27f571375374d18a5fb6001600160a01b03166370bb45b36040518163ffffffff1660e01b81526004015f604051808303815f87803b158015610134575f80fd5b505af1158015610146573d5f803e3d5ffd5b5050505073094f2f617eef73e87a29f27f571375374d18a5fb6001600160a01b03166303c7685c6040518163ffffffff1660e01b81526004015f604051808303815f87803b158015610196575f80fd5b505af11580156101a8573d5f803e3d5ffd5b5050505073094f2f617eef73e87a29f27f571375374d18a5fb6001600160a01b0316630bc488c56040518163ffffffff1660e01b81526004015f604051808303815f87803b1580156101f8575f80fd5b505af115801561020a573d5f803e3d5ffd5b50505050565b5f8073094f2f617eef73e87a29f27f571375374d18a5fb6001600160a01b031663ecbd45336040518163ffffffff1660e01b8152600401602060405180830381865afa158015610262573d5f803e3d5ffd5b505050506040513d601f19601f820116820180604052508101906102869190610455565b90505f73094f2f617eef73e87a29f27f571375374d18a5fb6001600160a01b0316631c75cfb46040518163ffffffff1660e01b8152600401602060405180830381865afa1580156102d9573d5f803e3d5ffd5b505050506040513d601f19601f820116820180604052508101906102fd9190610455565b9190911492915050565b6040517f70a082310000000000000000000000000000000000000000000000000000000081523060048201525f906001600160a01b038316906370a0823190602401602060405180830381865afa158015610364573d5f803e3d5ffd5b505050506040513d601f19601f820116820180604052508101906103889190610455565b6040517fa9059cbb000000000000000000000000000000000000000000000000000000008152730b9bc785fd2bea7bf9cb81065cfaba2fc5d0286b60048201819052602482018390529192506001600160a01b0384169063a9059cbb906044016020604051808303815f875af1158015610404573d5f803e3d5ffd5b505050506040513d601f19601f8201168201806040525081019061020a919061046c565b5f60208284031215610438575f80fd5b81356001600160a01b038116811461044e575f80fd5b9392505050565b5f60208284031215610465575f80fd5b5051919050565b5f6020828403121561047c575f80fd5b8151801515811461044e575f80fdfea26469706673582212206b7c49897523746bdce2ee1a59ffb4149e807171c2092f15ede183b851dd9b3364736f6c634300081a0033",
			"opcodes": "PUSH1 0x80 PUSH1 0x40 MSTORE PUSH1 0x2 DUP1 SLOAD PUSH1 0x1 PUSH1 0x1 PUSH1 0xA0 SHL SUB NOT SWAP1 DUP2 AND PUSH20 0x78C1B0C915C4FAA5FFFA6CABF0219DA63D7F4CB8 OR SWAP1 SWAP2 SSTORE PUSH1 0x3 DUP1 SLOAD DUP3 AND PUSH20 0x201EBA5CC46D216CE6DC03F6A759E8E766E956AE OR SWAP1 SSTORE PUSH1 0x4 DUP1 SLOAD DUP3 AND PUSH20 0xEAEE7EE68874218C3558B40063C42B82D3E7232A OR SWAP1 SSTORE PUSH1 0x5 DUP1 SLOAD DUP3 AND PUSH20 0xF6C9020C9E915808481757779EDB53DACEAE2415 OR SWAP1 SSTORE PUSH1 0x6 DUP1 SLOAD DUP3 AND PUSH20 0x13E138EF6008AE5FDFDE29700E3F2BC61D21E3A OR SWAP1 SSTORE PUSH1 0x7 DUP1 SLOAD DUP3 AND PUSH20 0x8A62EB0EF6DBE762774ABF5E18F49671559285B OR SWAP1 SSTORE PUSH1 0x8 DUP1 SLOAD DUP3 AND PUSH20 0x4515A45337F461A11FF0FE8ABF3C606AE5DC00C9 OR SWAP1 SSTORE PUSH1 0x9 DUP1 SLOAD SWAP1 SWAP2 AND PUSH20 0x94F2F617EEF73E87A29F27F571375374D18A5FB OR SWAP1 SSTORE CALLVALUE DUP1 ISZERO PUSH2 0x10B JUMPI PUSH0 DUP1 REVERT JUMPDEST POP PUSH0 DUP1 SLOAD PUSH1 0x1 PUSH1 0x1 PUSH1 0xA0 SHL SUB NOT AND CALLER OR SWAP1 SSTORE PUSH2 0x4C1 DUP1 PUSH2 0x12A PUSH0 CODECOPY PUSH0 RETURN INVALID PUSH1 0x80 PUSH1 0x40 MSTORE PUSH1 0x4 CALLDATASIZE LT PUSH2 0x36 JUMPI PUSH0 CALLDATALOAD PUSH1 0xE0 SHR DUP1 PUSH4 0x7D7C2A1C EQ PUSH2 0x41 JUMPI DUP1 PUSH4 0x85CD14BA EQ PUSH2 0x4B JUMPI DUP1 PUSH4 0x8CBC5CFF EQ PUSH2 0x73 JUMPI PUSH0 DUP1 REVERT JUMPDEST CALLDATASIZE PUSH2 0x3D JUMPI STOP JUMPDEST PUSH0 DUP1 REVERT JUMPDEST PUSH2 0x49 PUSH2 0x86 JUMP JUMPDEST STOP JUMPDEST CALLVALUE DUP1 ISZERO PUSH2 0x56 JUMPI PUSH0 DUP1 REVERT JUMPDEST POP PUSH2 0x5F PUSH2 0x210 JUMP JUMPDEST PUSH1 0x40 MLOAD SWAP1 ISZERO ISZERO DUP2 MSTORE PUSH1 0x20 ADD PUSH1 0x40 MLOAD DUP1 SWAP2 SUB SWAP1 RETURN JUMPDEST PUSH2 0x49 PUSH2 0x81 CALLDATASIZE PUSH1 0x4 PUSH2 0x428 JUMP JUMPDEST PUSH2 0x307 JUMP JUMPDEST PUSH20 0x94F2F617EEF73E87A29F27F571375374D18A5FB PUSH1 0x1 PUSH1 0x1 PUSH1 0xA0 SHL SUB AND PUSH4 0xB298BCF5 PUSH1 0x40 MLOAD DUP2 PUSH4 0xFFFFFFFF AND PUSH1 0xE0 SHL DUP2 MSTORE PUSH1 0x4 ADD PUSH0 PUSH1 0x40 MLOAD DUP1 DUP4 SUB DUP2 PUSH0 DUP8 DUP1 EXTCODESIZE ISZERO DUP1 ISZERO PUSH2 0xD2 JUMPI PUSH0 DUP1 REVERT JUMPDEST POP GAS CALL ISZERO DUP1 ISZERO PUSH2 0xE4 JUMPI RETURNDATASIZE PUSH0 DUP1 RETURNDATACOPY RETURNDATASIZE PUSH0 REVERT JUMPDEST POP POP POP POP PUSH20 0x94F2F617EEF73E87A29F27F571375374D18A5FB PUSH1 0x1 PUSH1 0x1 PUSH1 0xA0 SHL SUB AND PUSH4 0x70BB45B3 PUSH1 0x40 MLOAD DUP2 PUSH4 0xFFFFFFFF AND PUSH1 0xE0 SHL DUP2 MSTORE PUSH1 0x4 ADD PUSH0 PUSH1 0x40 MLOAD DUP1 DUP4 SUB DUP2 PUSH0 DUP8 DUP1 EXTCODESIZE ISZERO DUP1 ISZERO PUSH2 0x134 JUMPI PUSH0 DUP1 REVERT JUMPDEST POP GAS CALL ISZERO DUP1 ISZERO PUSH2 0x146 JUMPI RETURNDATASIZE PUSH0 DUP1 RETURNDATACOPY RETURNDATASIZE PUSH0 REVERT JUMPDEST POP POP POP POP PUSH20 0x94F2F617EEF73E87A29F27F571375374D18A5FB PUSH1 0x1 PUSH1 0x1 PUSH1 0xA0 SHL SUB AND PUSH4 0x3C7685C PUSH1 0x40 MLOAD DUP2 PUSH4 0xFFFFFFFF AND PUSH1 0xE0 SHL DUP2 MSTORE PUSH1 0x4 ADD PUSH0 PUSH1 0x40 MLOAD DUP1 DUP4 SUB DUP2 PUSH0 DUP8 DUP1 EXTCODESIZE ISZERO DUP1 ISZERO PUSH2 0x196 JUMPI PUSH0 DUP1 REVERT JUMPDEST POP GAS CALL ISZERO DUP1 ISZERO PUSH2 0x1A8 JUMPI RETURNDATASIZE PUSH0 DUP1 RETURNDATACOPY RETURNDATASIZE PUSH0 REVERT JUMPDEST POP POP POP POP PUSH20 0x94F2F617EEF73E87A29F27F571375374D18A5FB PUSH1 0x1 PUSH1 0x1 PUSH1 0xA0 SHL SUB AND PUSH4 0xBC488C5 PUSH1 0x40 MLOAD DUP2 PUSH4 0xFFFFFFFF AND PUSH1 0xE0 SHL DUP2 MSTORE PUSH1 0x4 ADD PUSH0 PUSH1 0x40 MLOAD DUP1 DUP4 SUB DUP2 PUSH0 DUP8 DUP1 EXTCODESIZE ISZERO DUP1 ISZERO PUSH2 0x1F8 JUMPI PUSH0 DUP1 REVERT JUMPDEST POP GAS CALL ISZERO DUP1 ISZERO PUSH2 0x20A JUMPI RETURNDATASIZE PUSH0 DUP1 RETURNDATACOPY RETURNDATASIZE PUSH0 REVERT JUMPDEST POP POP POP POP JUMP JUMPDEST PUSH0 DUP1 PUSH20 0x94F2F617EEF73E87A29F27F571375374D18A5FB PUSH1 0x1 PUSH1 0x1 PUSH1 0xA0 SHL SUB AND PUSH4 0xECBD4533 PUSH1 0x40 MLOAD DUP2 PUSH4 0xFFFFFFFF AND PUSH1 0xE0 SHL DUP2 MSTORE PUSH1 0x4 ADD PUSH1 0x20 PUSH1 0x40 MLOAD DUP1 DUP4 SUB DUP2 DUP7 GAS STATICCALL ISZERO DUP1 ISZERO PUSH2 0x262 JUMPI RETURNDATASIZE PUSH0 DUP1 RETURNDATACOPY RETURNDATASIZE PUSH0 REVERT JUMPDEST POP POP POP POP PUSH1 0x40 MLOAD RETURNDATASIZE PUSH1 0x1F NOT PUSH1 0x1F DUP3 ADD AND DUP3 ADD DUP1 PUSH1 0x40 MSTORE POP DUP2 ADD SWAP1 PUSH2 0x286 SWAP2 SWAP1 PUSH2 0x455 JUMP JUMPDEST SWAP1 POP PUSH0 PUSH20 0x94F2F617EEF73E87A29F27F571375374D18A5FB PUSH1 0x1 PUSH1 0x1 PUSH1 0xA0 SHL SUB AND PUSH4 0x1C75CFB4 PUSH1 0x40 MLOAD DUP2 PUSH4 0xFFFFFFFF AND PUSH1 0xE0 SHL DUP2 MSTORE PUSH1 0x4 ADD PUSH1 0x20 PUSH1 0x40 MLOAD DUP1 DUP4 SUB DUP2 DUP7 GAS STATICCALL ISZERO DUP1 ISZERO PUSH2 0x2D9 JUMPI RETURNDATASIZE PUSH0 DUP1 RETURNDATACOPY RETURNDATASIZE PUSH0 REVERT JUMPDEST POP POP POP POP PUSH1 0x40 MLOAD RETURNDATASIZE PUSH1 0x1F NOT PUSH1 0x1F DUP3 ADD AND DUP3 ADD DUP1 PUSH1 0x40 MSTORE POP DUP2 ADD SWAP1 PUSH2 0x2FD SWAP2 SWAP1 PUSH2 0x455 JUMP JUMPDEST SWAP2 SWAP1 SWAP2 EQ SWAP3 SWAP2 POP POP JUMP JUMPDEST PUSH1 0x40 MLOAD PUSH32 0x70A0823100000000000000000000000000000000000000000000000000000000 DUP2 MSTORE ADDRESS PUSH1 0x4 DUP3 ADD MSTORE PUSH0 SWAP1 PUSH1 0x1 PUSH1 0x1 PUSH1 0xA0 SHL SUB DUP4 AND SWAP1 PUSH4 0x70A08231 SWAP1 PUSH1 0x24 ADD PUSH1 0x20 PUSH1 0x40 MLOAD DUP1 DUP4 SUB DUP2 DUP7 GAS STATICCALL ISZERO DUP1 ISZERO PUSH2 0x364 JUMPI RETURNDATASIZE PUSH0 DUP1 RETURNDATACOPY RETURNDATASIZE PUSH0 REVERT JUMPDEST POP POP POP POP PUSH1 0x40 MLOAD RETURNDATASIZE PUSH1 0x1F NOT PUSH1 0x1F DUP3 ADD AND DUP3 ADD DUP1 PUSH1 0x40 MSTORE POP DUP2 ADD SWAP1 PUSH2 0x388 SWAP2 SWAP1 PUSH2 0x455 JUMP JUMPDEST PUSH1 0x40 MLOAD PUSH32 0xA9059CBB00000000000000000000000000000000000000000000000000000000 DUP2 MSTORE PUSH20 0xB9BC785FD2BEA7BF9CB81065CFABA2FC5D0286B PUSH1 0x4 DUP3 ADD DUP2 SWAP1 MSTORE PUSH1 0x24 DUP3 ADD DUP4 SWAP1 MSTORE SWAP2 SWAP3 POP PUSH1 0x1 PUSH1 0x1 PUSH1 0xA0 SHL SUB DUP5 AND SWAP1 PUSH4 0xA9059CBB SWAP1 PUSH1 0x44 ADD PUSH1 0x20 PUSH1 0x40 MLOAD DUP1 DUP4 SUB DUP2 PUSH0 DUP8 GAS CALL ISZERO DUP1 ISZERO PUSH2 0x404 JUMPI RETURNDATASIZE PUSH0 DUP1 RETURNDATACOPY RETURNDATASIZE PUSH0 REVERT JUMPDEST POP POP POP POP PUSH1 0x40 MLOAD RETURNDATASIZE PUSH1 0x1F NOT PUSH1 0x1F DUP3 ADD AND DUP3 ADD DUP1 PUSH1 0x40 MSTORE POP DUP2 ADD SWAP1 PUSH2 0x20A SWAP2 SWAP1 PUSH2 0x46C JUMP JUMPDEST PUSH0 PUSH1 0x20 DUP3 DUP5 SUB SLT ISZERO PUSH2 0x438 JUMPI PUSH0 DUP1 REVERT JUMPDEST DUP2 CALLDATALOAD PUSH1 0x1 PUSH1 0x1 PUSH1 0xA0 SHL SUB DUP2 AND DUP2 EQ PUSH2 0x44E JUMPI PUSH0 DUP1 REVERT JUMPDEST SWAP4 SWAP3 POP POP POP JUMP JUMPDEST PUSH0 PUSH1 0x20 DUP3 DUP5 SUB SLT ISZERO PUSH2 0x465 JUMPI PUSH0 DUP1 REVERT JUMPDEST POP MLOAD SWAP2 SWAP1 POP JUMP JUMPDEST PUSH0 PUSH1 0x20 DUP3 DUP5 SUB SLT ISZERO PUSH2 0x47C JUMPI PUSH0 DUP1 REVERT JUMPDEST DUP2 MLOAD DUP1 ISZERO ISZERO DUP2 EQ PUSH2 0x44E JUMPI PUSH0 DUP1 REVERT INVALID LOG2 PUSH5 0x6970667358 0x22 SLT KECCAK256 PUSH12 0x7C49897523746BDCE2EE1A59 SELFDESTRUCT 0xB4 EQ SWAP15 DUP1 PUSH18 0x71C2092F15EDE183B851DD9B3364736F6C63 NUMBER STOP ADDMOD BYTE STOP CALLER "
		},
		"gasEstimates": {
			"creation": {
				"codeDepositCost": "243400",
				"executionCost": "218314",
				"totalCost": "461714"
			},
			"external": {
				"checkFarm()": "infinite",
				"rebalance()": "infinite",
				"transferToAdmin(address)": "infinite"
			}
		},
		"methodIdentifiers": {
			"checkFarm()": "85cd14ba",
			"rebalance()": "7d7c2a1c",
			"transferToAdmin(address)": "8cbc5cff"
		}
	},
	"abi": [
		{
			"inputs": [],
			"stateMutability": "nonpayable",
			"type": "constructor"
		},
		{
			"inputs": [],
			"name": "checkFarm",
			"outputs": [
				{
					"internalType": "bool",
					"name": "",
					"type": "bool"
				}
			],
			"stateMutability": "view",
			"type": "function"
		},
		{
			"inputs": [],
			"name": "rebalance",
			"outputs": [],
			"stateMutability": "payable",
			"type": "function"
		},
		{
			"inputs": [
				{
					"internalType": "address",
					"name": "Token",
					"type": "address"
				}
			],
			"name": "transferToAdmin",
			"outputs": [],
			"stateMutability": "payable",
			"type": "function"
		},
		{
			"stateMutability": "payable",
			"type": "receive"
		}
	]
}