{
	"data": {
		"bytecode": {
			"linkReferences": {},
			"object": "610140604052348015610010575f80fd5b5060405161514038038061514083398101604081905261002f91610076565b6001600160a01b0395861660805290851660a05292841660c05290831660e05282166101005216610120526100f9565b6001600160a01b0381168114610073575f80fd5b50565b5f805f805f8060c0878903121561008b575f80fd5b86516100968161005f565b60208801519096506100a78161005f565b60408801519095506100b88161005f565b60608801519094506100c98161005f565b60808801519093506100da8161005f565b60a08801519092506100eb8161005f565b809150509295509295509295565b60805160a05160c05160e0516101005161012051614f586101e85f395f818161018e0152818161031301528181610659015281816107330152818161080b0152818161094c01528181610cc9015281816112c50152818161135e015281816114c1015281816115440152818161187d01528181611b0901528181611de4015281816127b301528181612cbd0152612d3701525f81816104da0152612a6501525f8181610345015261369401525f818161050c0152613ef301525f818161028f015261374701525f81816103ab015281816110760152818161121c01528181611fd301526137970152614f585ff3fe60806040526004361061017e575f3560e01c806392fe8e70116100cd578063ba84652311610087578063d0e380f211610062578063d0e380f21461054f578063e038e6dc1461056e578063e9361c0814610581578063f96fe925146105a0575f80fd5b8063ba846523146104cc578063bb558a9f146104fe578063c22159b614610530575f80fd5b806392fe8e70146103f4578063964f987c146104135780639ab6156b1461045c578063a0d376cf1461047b578063a3c7271a1461049a578063b066ea7c146104b9575f80fd5b806362c067671161013857806371d1974a1161011357806371d1974a1461033757806381c2fdfb1461036957806388cc58e41461039d5780638efc2b2c146103cf575f80fd5b806362c06767146102c7578063659ac74b146102e65780636c9c007814610305575f80fd5b80631a24f9a9146101d25780632075ad22146102045780632a443fae146102245780633dc8f8ec146102435780634b801870146102625780635c5035cb14610281575f80fd5b366101ce57336001600160a01b037f000000000000000000000000000000000000000000000000000000000000000016146101cc57604051636c8cb79360e01b815260040160405180910390fd5b005b5f80fd5b3480156101dd575f80fd5b506101f16101ec3660046144a4565b6105d3565b6040519081526020015b60405180910390f35b610217610212366004614509565b6108ca565b6040516101fb919061459f565b34801561022f575f80fd5b506101f161023e3660046144a4565b610b1f565b34801561024e575f80fd5b5061021761025d3660046144a4565b610c47565b34801561026d575f80fd5b506101f161027c3660046144a4565b610e44565b34801561028c575f80fd5b507f00000000000000000000000000000000000000000000000000000000000000005b6040516001600160a01b0390911681526020016101fb565b3480156102d2575f80fd5b506101cc6102e13660046145b1565b611074565b3480156102f1575f80fd5b506102af610300366004614619565b6111de565b348015610310575f80fd5b507f00000000000000000000000000000000000000000000000000000000000000006102af565b348015610342575f80fd5b507f00000000000000000000000000000000000000000000000000000000000000006102af565b348015610374575f80fd5b50610388610383366004614672565b611291565b604080519283526020830191909152016101fb565b3480156103a8575f80fd5b507f00000000000000000000000000000000000000000000000000000000000000006102af565b6103e26103dd366004614729565b6113e4565b6040516101fb96959493929190614767565b3480156103ff575f80fd5b5061021761040e3660046144a4565b611630565b34801561041e575f80fd5b5061043261042d3660046147d1565b61176f565b604080516001600160801b03948516815292841660208401529216918101919091526060016101fb565b348015610467575f80fd5b506101f16104763660046144a4565b6117fc565b348015610486575f80fd5b506104326104953660046147d1565b61196b565b3480156104a5575f80fd5b506103e26104b4366004614729565b6119ae565b6101f16104c7366004614509565b611a88565b3480156104d7575f80fd5b507f00000000000000000000000000000000000000000000000000000000000000006102af565b348015610509575f80fd5b507f00000000000000000000000000000000000000000000000000000000000000006102af565b34801561053b575f80fd5b5061038861054a366004614819565b611bfc565b34801561055a575f80fd5b506101f16105693660046148dd565b611ced565b6101f161057c366004614509565b611d63565b34801561058c575f80fd5b506101cc61059b36600461495b565b611fd1565b3480156105ab575f80fd5b506105bf6105ba3660046149ed565b6120ed565b60405162ffffff90911681526020016101fb565b5f81804211156106045760405163dae7ca7d60e01b8152600481018290524260248201526044015b60405180910390fd5b8451518590158061061c575080515160208201515114155b806106395750604081015151815151610636906001614a2b565b14155b156106575760405163b91b4d4d60e01b815260040160405180910390fd5b7f00000000000000000000000000000000000000000000000000000000000000006001600160a01b03168660400151875f0151518151811061069b5761069b614a3e565b60200260200101516001600160a01b0316146106fa576040860151865151815181106106c9576106c9614a3e565b602002602001015160405163cfec0e0160e01b81526004016105fb91906001600160a01b0391909116815260200190565b5f610711875f015188602001518960400151612156565b6040516370a0823160e01b81523060048201529091505f906001600160a01b037f000000000000000000000000000000000000000000000000000000000000000016906370a0823190602401602060405180830381865afa158015610778573d5f803e3d5ffd5b505050506040513d601f19601f8201168201806040525081019061079c9190614a52565b90506107e088604001515f815181106107b7576107b7614a3e565b602002602001015133845f815181106107d2576107d2614a3e565b60200260200101518d612262565b6107f48289602001518a6040015130612283565b6040516370a0823160e01b815230600482015281907f00000000000000000000000000000000000000000000000000000000000000006001600160a01b0316906370a0823190602401602060405180830381865afa158015610858573d5f803e3d5ffd5b505050506040513d601f19601f8201168201806040525081019061087c9190614a52565b6108869190614a69565b9450848911156108b3576040516313fab00360e21b8152600481018a9052602481018690526044016105fb565b6108bd8786612792565b5050505095945050505050565b606081804211156108f75760405163dae7ca7d60e01b8152600481018290524260248201526044016105fb565b8451518590158061090f575080515160208201515114155b8061092c5750604081015151815151610929906001614a2b565b14155b1561094a5760405163b91b4d4d60e01b815260040160405180910390fd5b7f00000000000000000000000000000000000000000000000000000000000000006001600160a01b031686604001515f8151811061098a5761098a614a3e565b60200260200101516001600160a01b0316146109b65785604001515f815181106106c9576106c9614a3e565b5f6109cd875f015188602001518960400151612156565b90506109e387602001518289604001518b612820565b935034845f815181106109f8576109f8614a3e565b60200260200101511115610a455734845f81518110610a1957610a19614a3e565b602002602001015160405163194ee21960e31b81526004016105fb929190918252602082015260400190565b610a81815f81518110610a5a57610a5a614a3e565b6020026020010151855f81518110610a7457610a74614a3e565b6020026020010151612cb0565b5f610a978289602001518a60400151888b612d62565b905088811015610ac4576040516313fab00360e21b8152600481018a9052602481018290526044016105fb565b845f81518110610ad657610ad6614a3e565b6020026020010151341115610b1357610b1333865f81518110610afb57610afb614a3e565b602002602001015134610b0e9190614a69565b61314c565b50505050949350505050565b5f8180421115610b4b5760405163dae7ca7d60e01b8152600481018290524260248201526044016105fb565b84515185901580610b63575080515160208201515114155b80610b805750604081015151815151610b7d906001614a2b565b14155b15610b9e5760405163b91b4d4d60e01b815260040160405180910390fd5b5f610bb5875f015188602001518960400151612156565b9050610bf987604001515f81518110610bd057610bd0614a3e565b602002602001015133835f81518110610beb57610beb614a3e565b60200260200101518c612262565b610c0e898289602001518a604001518a6131d9565b935083881115610c3b576040516313fab00360e21b815260048101899052602481018590526044016105fb565b50505095945050505050565b60608180421115610c745760405163dae7ca7d60e01b8152600481018290524260248201526044016105fb565b84515185901580610c8c575080515160208201515114155b80610ca95750604081015151815151610ca6906001614a2b565b14155b15610cc75760405163b91b4d4d60e01b815260040160405180910390fd5b7f00000000000000000000000000000000000000000000000000000000000000006001600160a01b03168660400151875f01515181518110610d0b57610d0b614a3e565b60200260200101516001600160a01b031614610d39576040860151865151815181106106c9576106c9614a3e565b5f610d50875f015188602001518960400151612156565b9050610d6687602001518289604001518c612820565b935087845f81518110610d7b57610d7b614a3e565b60200260200101511115610d9c5787845f81518110610a1957610a19614a3e565b610df787604001515f81518110610db557610db5614a3e565b602002602001015133835f81518110610dd057610dd0614a3e565b6020026020010151875f81518110610dea57610dea614a3e565b6020026020010151612262565b5f610e0d8289602001518a604001518830612d62565b905089811015610e3a576040516313fab00360e21b8152600481018b9052602481018290526044016105fb565b6108bd8782612792565b5f8180421115610e705760405163dae7ca7d60e01b8152600481018290524260248201526044016105fb565b84515185901580610e88575080515160208201515114155b80610ea55750604081015151815151610ea2906001614a2b565b14155b15610ec35760405163b91b4d4d60e01b815260040160405180910390fd5b5f610eda875f015188602001518960400151612156565b90505f8760400151825181518110610ef457610ef4614a3e565b60209081029190910101516040516370a0823160e01b81526001600160a01b0389811660048301529192505f918316906370a0823190602401602060405180830381865afa158015610f48573d5f803e3d5ffd5b505050506040513d601f19601f82011682018060405250810190610f6c9190614a52565b9050610fb089604001515f81518110610f8757610f87614a3e565b602002602001015133855f81518110610fa257610fa2614a3e565b60200260200101518e612262565b610fc4838a602001518b604001518b612283565b6040516370a0823160e01b81526001600160a01b0389811660048301528291908416906370a0823190602401602060405180830381865afa15801561100b573d5f803e3d5ffd5b505050506040513d601f19601f8201168201806040525081019061102f9190614a52565b6110399190614a69565b9550858a1115611066576040516313fab00360e21b8152600481018b9052602481018790526044016105fb565b505050505095945050505050565b7f00000000000000000000000000000000000000000000000000000000000000006001600160a01b0316638da5cb5b6040518163ffffffff1660e01b8152600401602060405180830381865afa1580156110d0573d5f803e3d5ffd5b505050506040513d601f19601f820116820180604052508101906110f49190614a7c565b6001600160a01b0316336001600160a01b03161461112557604051635d9515b960e11b815260040160405180910390fd5b6001600160a01b038316611154575f1981146111415780611143565b475b905061114f828261314c565b505050565b5f19811461116257806111c8565b6040516370a0823160e01b81523060048201526001600160a01b038416906370a0823190602401602060405180830381865afa1580156111a4573d5f803e3d5ffd5b505050506040513d601f19601f820116820180604052508101906111c89190614a52565b905061114f6001600160a01b0384168383613612565b60405163659ac74b60e01b81526001600160a01b038581166004830152848116602483015262ffffff8416604483015261ffff831660648301525f917f00000000000000000000000000000000000000000000000000000000000000009091169063659ac74b906084016020604051808303815f875af1158015611264573d5f803e3d5ffd5b505050506040513d601f19601f820116820180604052508101906112889190614a7c565b95945050505050565b5f8082804211156112be5760405163dae7ca7d60e01b8152600481018290524260248201526044016105fb565b5f6112f08c7f00000000000000000000000000000000000000000000000000000000000000008d61ffff166003613663565b90505f816001600160a01b031663da10610c6040518163ffffffff1660e01b8152600401602060405180830381865afa15801561132f573d5f803e3d5ffd5b505050506040513d601f19601f820116820180604052508101906113539190614a7c565b6001600160a01b03167f00000000000000000000000000000000000000000000000000000000000000006001600160a01b031614905080611392579899985b5f806113a2848e8e8e8e3061384b565b91509150826113b25780826113b5565b81815b80975081985050505050506113cb8c878661399d565b6113d58684612792565b50509850989650505050505050565b5f808080606080826114186113fc60208a018a614a97565b61140c60408b0160208c01614a97565b8a604001356003613663565b9050806001600160a01b03166305e8746d6040518163ffffffff1660e01b8152600401602060405180830381865afa158015611456573d5f803e3d5ffd5b505050506040513d601f19601f8201168201806040525081019061147a9190614a7c565b6001600160a01b031661149060208a018a614a97565b6001600160a01b0316146114b75760405163b33f8ab960e01b815260040160405180910390fd5b6001600160a01b037f0000000000000000000000000000000000000000000000000000000000000000166114ee60208a018a614a97565b6001600160a01b03161480156115075750348860600135145b1561153a5761152b61151f60408a0160208b01614a97565b33838b60800135612262565b6115358134612cb0565b611611565b6001600160a01b037f00000000000000000000000000000000000000000000000000000000000000001661157460408a0160208b01614a97565b6001600160a01b031614801561158d5750348860800135145b156115ae5761152b6115a260208a018a614a97565b33838b60600135612262565b6115bb6020890189614a97565b6115cb60408a0160208b01614a97565b60405163d0a4f13b60e01b81526001600160a01b03928316600482015291166024820152606089013560448201526080890135606482015234608482015260a4016105fb565b61161b88826139bd565b949d939c50919a509850965090945092505050565b6060818042111561165d5760405163dae7ca7d60e01b8152600481018290524260248201526044016105fb565b84515185901580611675575080515160208201515114155b80611692575060408101515181515161168f906001614a2b565b14155b156116b05760405163b91b4d4d60e01b815260040160405180910390fd5b5f6116c7875f015188602001518960400151612156565b90506116dd87602001518289604001518c612820565b935087845f815181106116f2576116f2614a3e565b602002602001015111156117135787845f81518110610a1957610a19614a3e565b61172c87604001515f81518110610db557610db5614a3e565b5f6117428289602001518a60400151888b612d62565b9050898110156108bd576040516313fab00360e21b8152600481018b9052602481018290526044016105fb565b604051630abcd78360e41b81526001600160801b038316600482015281151560248201525f90819081906001600160a01b0387169063abcd7830906044015b606060405180830381865afa1580156117c9573d5f803e3d5ffd5b505050506040513d601f19601f820116820180604052508101906117ed9190614ab2565b91989097509095509350505050565b5f81804211156118285760405163dae7ca7d60e01b8152600481018290524260248201526044016105fb565b84515185901580611840575080515160208201515114155b8061185d575060408101515181515161185a906001614a2b565b14155b1561187b5760405163b91b4d4d60e01b815260040160405180910390fd5b7f00000000000000000000000000000000000000000000000000000000000000006001600160a01b03168660400151875f015151815181106118bf576118bf614a3e565b60200260200101516001600160a01b0316146118ed576040860151865151815181106106c9576106c9614a3e565b5f611904875f015188602001518960400151612156565b905061191f87604001515f81518110610bd057610bd0614a3e565b611934898289602001518a60400151306131d9565b935083881115611961576040516313fab00360e21b815260048101899052602481018590526044016105fb565b610c3b8685612792565b604051631cee6cdf60e31b81526001600160801b038316600482015281151560248201525f90819081906001600160a01b0387169063e77366f8906044016117ae565b5f808080606080826119c66113fc60208a018a614a97565b9050806001600160a01b03166305e8746d6040518163ffffffff1660e01b8152600401602060405180830381865afa158015611a04573d5f803e3d5ffd5b505050506040513d601f19601f82011682018060405250810190611a289190614a7c565b6001600160a01b0316611a3e60208a018a614a97565b6001600160a01b031614611a655760405163b33f8ab960e01b815260040160405180910390fd5b611a756115a260208a018a614a97565b61161161151f60408a0160208b01614a97565b5f8180421115611ab45760405163dae7ca7d60e01b8152600481018290524260248201526044016105fb565b84515185901580611acc575080515160208201515114155b80611ae95750604081015151815151611ae6906001614a2b565b14155b15611b075760405163b91b4d4d60e01b815260040160405180910390fd5b7f00000000000000000000000000000000000000000000000000000000000000006001600160a01b031686604001515f81518110611b4757611b47614a3e565b60200260200101516001600160a01b031614611b735785604001515f815181106106c9576106c9614a3e565b5f611b8a875f015188602001518960400151612156565b9050611baf815f81518110611ba157611ba1614a3e565b602002602001015134612cb0565b611bc4348289602001518a604001518a6131d9565b935083881115611bf1576040516313fab00360e21b815260048101899052602481018590526044016105fb565b505050949350505050565b5f808280421115611c295760405163dae7ca7d60e01b8152600481018290524260248201526044016105fb565b5f611c3b8d8d8d61ffff166003613663565b90505f816001600160a01b03166305e8746d6040518163ffffffff1660e01b8152600401602060405180830381865afa158015611c7a573d5f803e3d5ffd5b505050506040513d601f19601f82011682018060405250810190611c9e9190614a7c565b6001600160a01b03168e6001600160a01b0316141590508015611cbf579899985b611ccd828c8c8c8c8c61384b565b90955093508015611cdc579293925b505050995099975050505050505050565b604051634c7cffbd60e01b815262ffffff821660048201525f906001600160a01b03841690634c7cffbd90602401602060405180830381865afa158015611d36573d5f803e3d5ffd5b505050506040513d601f19601f82011682018060405250810190611d5a9190614a52565b90505b92915050565b5f8180421115611d8f5760405163dae7ca7d60e01b8152600481018290524260248201526044016105fb565b84515185901580611da7575080515160208201515114155b80611dc45750604081015151815151611dc1906001614a2b565b14155b15611de25760405163b91b4d4d60e01b815260040160405180910390fd5b7f00000000000000000000000000000000000000000000000000000000000000006001600160a01b031686604001515f81518110611e2257611e22614a3e565b60200260200101516001600160a01b031614611e4e5785604001515f815181106106c9576106c9614a3e565b5f611e65875f015188602001518960400151612156565b90505f8760400151825181518110611e7f57611e7f614a3e565b60209081029190910101516040516370a0823160e01b81526001600160a01b0389811660048301529192505f918316906370a0823190602401602060405180830381865afa158015611ed3573d5f803e3d5ffd5b505050506040513d601f19601f82011682018060405250810190611ef79190614a52565b9050611f0e835f81518110611ba157611ba1614a3e565b611f22838a602001518b604001518b612283565b6040516370a0823160e01b81526001600160a01b0389811660048301528291908416906370a0823190602401602060405180830381865afa158015611f69573d5f803e3d5ffd5b505050506040513d601f19601f82011682018060405250810190611f8d9190614a52565b611f979190614a69565b9550858a1115611fc4576040516313fab00360e21b8152600481018b9052602481018790526044016105fb565b5050505050949350505050565b7f00000000000000000000000000000000000000000000000000000000000000006001600160a01b0316638da5cb5b6040518163ffffffff1660e01b8152600401602060405180830381865afa15801561202d573d5f803e3d5ffd5b505050506040513d601f19601f820116820180604052508101906120519190614a7c565b6001600160a01b0316336001600160a01b03161461208257604051635d9515b960e11b815260040160405180910390fd5b6040516305feb5ff60e21b81526001600160a01b038716906317fad7fc906120b890309089908990899089908990600401614b21565b5f604051808303815f87803b1580156120cf575f80fd5b505af11580156120e1573d5f803e3d5ffd5b50505050505050505050565b60405163f5e2932960e01b8152600481018290525f906001600160a01b0384169063f5e2932990602401602060405180830381865afa158015612132573d5f803e3d5ffd5b505050506040513d601f19601f82011682018060405250810190611d5a9190614b60565b606083516001600160401b0381111561217157612171614204565b60405190808252806020026020018201604052801561219a578160200160208202803683370190505b5090505f80835f815181106121b1576121b1614a3e565b602002602001015190505f5b8351811015612258578192508481600101815181106121de576121de614a3e565b6020026020010151915061222683838984815181106121ff576121ff614a3e565b602002602001015189858151811061221957612219614a3e565b6020026020010151613eb3565b84828151811061223857612238614a3e565b6001600160a01b03909216602092830291909101909101526001016121bd565b5050509392505050565b801561227d5761227d6001600160a01b038516848484613f9c565b50505050565b5f805f805f865f8151811061229a5761229a614a3e565b602002602001015190505f5b89518110156120e1578981815181106122c1576122c1614a3e565b602002602001015192508881815181106122dd576122dd614a3e565b602002602001015194508195508781600101815181106122ff576122ff614a3e565b60200260200101519150895181600101146123365789816001018151811061232957612329614a3e565b6020026020010151612338565b865b93505f85600381111561234d5761234d614b7b565b036125ac575f80846001600160a01b0316630902f1ac6040518163ffffffff1660e01b8152600401606060405180830381865afa158015612390573d5f803e3d5ffd5b505050506040513d601f19601f820116820180604052508101906123b49190614ba5565b506001600160701b031691506001600160701b03169150836001600160a01b0316886001600160a01b031610156124c7576040516370a0823160e01b81526001600160a01b0386811660048301525f9184918b16906370a0823190602401602060405180830381865afa15801561242d573d5f803e3d5ffd5b505050506040513d601f19601f820116820180604052508101906124519190614a52565b0390505f612460828585613fff565b60405163022c0d9f60e01b81529091506001600160a01b0388169063022c0d9f90612493905f9085908d90600401614be6565b5f604051808303815f87803b1580156124aa575f80fd5b505af11580156124bc573d5f803e3d5ffd5b5050505050506125a5565b6040516370a0823160e01b81526001600160a01b0386811660048301525f9183918b16906370a0823190602401602060405180830381865afa15801561250f573d5f803e3d5ffd5b505050506040513d601f19601f820116820180604052508101906125339190614a52565b0390505f612542828486613fff565b60405163022c0d9f60e01b81529091506001600160a01b0388169063022c0d9f906125759084905f908d90600401614be6565b5f604051808303815f87803b15801561258c575f80fd5b505af115801561259e573d5f803e3d5ffd5b5050505050505b505061278a565b60018560038111156125c0576125c0614b7b565b036126a657826001600160a01b03166353c059a0846001600160a01b031663b7d19fc46040518163ffffffff1660e01b8152600401602060405180830381865afa158015612610573d5f803e3d5ffd5b505050506040513d601f19601f820116820180604052508101906126349190614a7c565b60405160e083901b6001600160e01b03191681526001600160a01b03918216868316146004820152908716602482015260440160408051808303815f875af1158015612682573d5f803e3d5ffd5b505050506040513d601f19601f820116820180604052508101906125a59190614c13565b826001600160a01b03166353c059a0846001600160a01b031663da10610c6040518163ffffffff1660e01b8152600401602060405180830381865afa1580156126f1573d5f803e3d5ffd5b505050506040513d601f19601f820116820180604052508101906127159190614a7c565b60405160e083901b6001600160e01b03191681526001600160a01b0391821686831614600482015290871660248201526044016020604051808303815f875af1158015612764573d5f803e3d5ffd5b505050506040513d601f19601f820116820180604052508101906127889190614a52565b505b6001016122a6565b805f0361279d575050565b604051632e1a7d4d60e01b8152600481018290527f00000000000000000000000000000000000000000000000000000000000000006001600160a01b031690632e1a7d4d906024015f604051808303815f87803b1580156127fc575f80fd5b505af115801561280e573d5f803e3d5ffd5b5050505061281c828261314c565b5050565b606082516001600160401b0381111561283b5761283b614204565b604051908082528060200260200182016040528015612864578160200160208202803683370190505b509050818185518151811061287b5761287b614a3e565b602090810291909101015283515b8015612ca7575f8461289c600184614a69565b815181106128ac576128ac614a3e565b602002602001015190505f876001846128c59190614a69565b815181106128d5576128d5614a3e565b602002602001015190505f876001856128ee9190614a69565b815181106128fe576128fe614a3e565b602002602001015190505f600381111561291a5761291a614b7b565b82600381111561292c5761292c614b7b565b03612a4a575f80826001600160a01b0316630902f1ac6040518163ffffffff1660e01b8152600401606060405180830381865afa15801561296f573d5f803e3d5ffd5b505050506040513d601f19601f820116820180604052508101906129939190614ba5565b506001600160701b031691506001600160701b031691508886815181106129bc576129bc614a3e565b60200260200101516001600160a01b0316856001600160a01b031611156129df57905b5f8787815181106129f2576129f2614a3e565b60200260200101519050612a118383836140949092919063ffffffff16565b6001600160801b031688612a2660018a614a69565b81518110612a3657612a36614a3e565b602002602001018181525050505050612c91565b6001826003811115612a5e57612a5e614b7b565b03612bc6577f00000000000000000000000000000000000000000000000000000000000000006001600160a01b0316635bdd4b7c82878781518110612aa557612aa5614a3e565b6020026020010151866001600160a01b0316856001600160a01b03166316dc165b6040518163ffffffff1660e01b8152600401602060405180830381865afa158015612af3573d5f803e3d5ffd5b505050506040513d601f19601f82011682018060405250810190612b179190614a7c565b6040516001600160e01b031960e087901b1681526001600160a01b0394851660048201526001600160801b0390931660248401529092169190911460448201526064016040805180830381865afa158015612b74573d5f803e3d5ffd5b505050506040513d601f19601f82011682018060405250810190612b989190614c13565b5085612ba5600187614a69565b81518110612bb557612bb5614a3e565b602002602001018181525050612c91565b612c5d81868681518110612bdc57612bdc614a3e565b6020026020010151856001600160a01b0316846001600160a01b03166305e8746d6040518163ffffffff1660e01b8152600401602060405180830381865afa158015612c2a573d5f803e3d5ffd5b505050506040513d601f19601f82011682018060405250810190612c4e9190614a7c565b6001600160a01b03161461176f565b50506001600160801b031685612c74600187614a69565b81518110612c8457612c84614a3e565b6020026020010181815250505b5050508080612c9f90614c35565b915050612889565b50949350505050565b805f03612cbb575050565b7f00000000000000000000000000000000000000000000000000000000000000006001600160a01b031663d0e30db0826040518263ffffffff1660e01b81526004015f604051808303818588803b158015612d14575f80fd5b505af1158015612d26573d5f803e3d5ffd5b5061281c9350506001600160a01b037f000000000000000000000000000000000000000000000000000000000000000016915084905083613612565b5f805f805f80885f81518110612d7a57612d7a614a3e565b602002602001015190505f5b8b5181101561313d578b8181518110612da157612da1614a3e565b602002602001015193508a8181518110612dbd57612dbd614a3e565b60200260200101519250819550898160010181518110612ddf57612ddf614a3e565b602002602001015191508b518160010114612e16578b8160010181518110612e0957612e09614a3e565b6020026020010151612e18565b875b94505f836003811115612e2d57612e2d614b7b565b03612efd57888160010181518110612e4757612e47614a3e565b60200260200101519650816001600160a01b0316866001600160a01b03161015612ecd5760405163022c0d9f60e01b81526001600160a01b0385169063022c0d9f90612e9b905f908b908a90600401614be6565b5f604051808303815f87803b158015612eb2575f80fd5b505af1158015612ec4573d5f803e3d5ffd5b50505050613135565b60405163022c0d9f60e01b81526001600160a01b0385169063022c0d9f90612e9b908a905f908a90600401614be6565b6001836003811115612f1157612f11614b7b565b03613012575f846001600160a01b031663b7d19fc46040518163ffffffff1660e01b8152600401602060405180830381865afa158015612f53573d5f803e3d5ffd5b505050506040513d601f19601f82011682018060405250810190612f779190614a7c565b60405163029e02cd60e51b81526001600160a01b039182168583161460048201819052888316602483015292505f918291908816906353c059a09060440160408051808303815f875af1158015612fd0573d5f803e3d5ffd5b505050506040513d601f19601f82011682018060405250810190612ff49190614c13565b9150915082156130065780995061300a565b8199505b505050613135565b5f846001600160a01b031663da10610c6040518163ffffffff1660e01b8152600401602060405180830381865afa15801561304f573d5f803e3d5ffd5b505050506040513d601f19601f820116820180604052508101906130739190614a7c565b60405163029e02cd60e51b81526001600160a01b039182168583161460048201819052888316602483015292505f918291613109918916906353c059a0906044015b6020604051808303815f875af11580156130d1573d5f803e3d5ffd5b505050506040513d601f19601f820116820180604052508101906130f59190614a52565b6001600160801b0381169160809190911c90565b6001600160801b031691506001600160801b03169150821561312d57809950613131565b8199505b5050505b600101612d86565b50505050505095945050505050565b805f03613157575050565b5f826001600160a01b0316826040515f6040518083038185875af1925050503d805f81146131a0576040519150601f19603f3d011682016040523d82523d5f602084013e6131a5565b606091505b505090508061114f5760405163047b96f760e41b81526001600160a01b0384166004820152602481018390526044016105fb565b5f805f805f80875f815181106131f1576131f1614a3e565b602002602001015190508a95505f5b8a5181101561313d578a818151811061321b5761321b614a3e565b6020026020010151925089818151811061323757613237614a3e565b6020026020010151945081955088816001018151811061325957613259614a3e565b602002602001015191508a518160010114613290578a816001018151811061328357613283614a3e565b6020026020010151613292565b875b93505f8560038111156132a7576132a7614b7b565b03613422575f80846001600160a01b0316630902f1ac6040518163ffffffff1660e01b8152600401606060405180830381865afa1580156132ea573d5f803e3d5ffd5b505050506040513d601f19601f8201168201806040525081019061330e9190614ba5565b506001600160701b031691506001600160701b03169150836001600160a01b0316886001600160a01b031610156133af5761334a898383613fff565b60405163022c0d9f60e01b81529099506001600160a01b0386169063022c0d9f9061337d905f908d908b90600401614be6565b5f604051808303815f87803b158015613394575f80fd5b505af11580156133a6573d5f803e3d5ffd5b5050505061341b565b6133ba898284613fff565b60405163022c0d9f60e01b81529099506001600160a01b0386169063022c0d9f906133ed908c905f908b90600401614be6565b5f604051808303815f87803b158015613404575f80fd5b505af1158015613416573d5f803e3d5ffd5b505050505b505061360a565b600185600381111561343657613436614b7b565b03613537575f836001600160a01b031663b7d19fc46040518163ffffffff1660e01b8152600401602060405180830381865afa158015613478573d5f803e3d5ffd5b505050506040513d601f19601f8201168201806040525081019061349c9190614a7c565b60405163029e02cd60e51b81526001600160a01b039182168583161460048201819052878316602483015292505f918291908716906353c059a09060440160408051808303815f875af11580156134f5573d5f803e3d5ffd5b505050506040513d601f19601f820116820180604052508101906135199190614c13565b91509150821561352b5780995061352f565b8199505b50505061360a565b5f836001600160a01b031663da10610c6040518163ffffffff1660e01b8152600401602060405180830381865afa158015613574573d5f803e3d5ffd5b505050506040513d601f19601f820116820180604052508101906135989190614a7c565b60405163029e02cd60e51b81526001600160a01b039182168583161460048201819052878316602483015292505f9182916135de918816906353c059a0906044016130b5565b6001600160801b031691506001600160801b03169150821561360257809950613606565b8199505b5050505b600101613200565b604080516001600160a01b038416602482015260448082018490528251808303909101815260649091019091526020810180516001600160e01b031663a9059cbb60e01b17905261227d848261412f565b5f600182600381111561367857613678614b7b565b036137175760405163704037bd60e01b81526001600160a01b037f0000000000000000000000000000000000000000000000000000000000000000169063704037bd906136cd90889088908890600401614c4a565b608060405180830381865afa1580156136e8573d5f803e3d5ffd5b505050506040513d601f19601f8201168201806040525081019061370c9190614c6e565b602001519050613816565b600282600381111561372b5761372b614b7b565b036137805760405163704037bd60e01b81526001600160a01b037f0000000000000000000000000000000000000000000000000000000000000000169063704037bd906136cd90889088908890600401614c4a565b60405163704037bd60e01b81526001600160a01b037f0000000000000000000000000000000000000000000000000000000000000000169063704037bd906137d090889088908890600401614c4a565b608060405180830381865afa1580156137eb573d5f803e3d5ffd5b505050506040513d601f19601f8201168201806040525081019061380f9190614c6e565b6020015190505b6001600160a01b03811661384357848484604051636b2471d160e11b81526004016105fb93929190614c4a565b949350505050565b5f805f886001600160a01b031663c9939f5e338689896040518563ffffffff1660e01b81526004016138809493929190614cd5565b5f604051808303815f875af115801561389b573d5f803e3d5ffd5b505050506040513d5f823e601f3d908101601f191682016040526138c29190810190614d12565b90505f5b815181101561394d576138f88282815181106138e4576138e4614a3e565b60200260200101516001600160801b031690565b61390b906001600160801b031685614a2b565b935061393082828151811061392257613922614a3e565b602002602001015160801c90565b613943906001600160801b031684614a2b565b92506001016138c6565b508783108061395b57508682105b15613991576040516318ccfb7760e11b8152600481018990526024810184905260448101889052606481018390526084016105fb565b50965096945050505050565b805f036139a957505050565b61114f6001600160a01b0384168383613612565b5f805f80606080876101c00135804211156139f45760405163dae7ca7d60e01b8152600481018290524260248201526044016105fb565b613a026101408a018a614d98565b9050613a126101208b018b614d98565b9050141580613a3f5750613a2a6101608a018a614d98565b9050613a3a6101208b018b614d98565b905014155b15613a5d5760405163b91b4d4d60e01b815260040160405180910390fd5b62ffffff60e08a01351180613a79575062ffffff6101008a0135115b15613aa85760405163197a55c760e11b815260e08a013560048201526101008a013560248201526044016105fb565b5f613ab76101208b018b614d98565b90506001600160401b03811115613ad057613ad0614204565b604051908082528060200260200182016040528015613af9578160200160208202803683370190505b509050613b0a6101208b018b614d98565b90506001600160401b03811115613b2357613b23614204565b604051908082528060200260200182016040528015613b4c578160200160208202803683370190505b5093505f896001600160a01b031663dbe65edc6040518163ffffffff1660e01b8152600401602060405180830381865afa158015613b8c573d5f803e3d5ffd5b505050506040513d601f19601f82011682018060405250810190613bb09190614b60565b62ffffff169050808b61010001358c60e00135011080613bda57508a60e001358b61010001358201105b15613c1057604051637d50edab60e11b815260e08c013560048201526101008c01356024820152604481018290526064016105fb565b5f5b8251811015613d10575f613c2a6101208e018e614d98565b83818110613c3a57613c3a614a3e565b90506020020135830190505f811280613c55575062ffffff81115b15613c76576040516370a82e6160e11b8152600481018290526024016105fb565b80878381518110613c8957613c89614a3e565b6020908102919091010152613cea613ca56101408f018f614d98565b84818110613cb557613cb5614a3e565b905060200201358e806101600190613ccd9190614d98565b85818110613cdd57613cdd614a3e565b9050602002013583614198565b848381518110613cfc57613cfc614a3e565b602090810291909101015250600101613c12565b50505f808a6001600160a01b031663383d15c58d610180016020810190613d379190614a97565b858f6101a0016020810190613d4c9190614a97565b6040518463ffffffff1660e01b8152600401613d6a93929190614ddd565b5f604051808303815f875af1158015613d85573d5f803e3d5ffd5b505050506040513d5f823e601f3d908101601f19168201604052613dac9190810190614e47565b965090925090505f613dbe83836141ca565b6001600160801b0381169b50608081901c9a50905060a08d01358b1080613de857508c60c001358a105b15613e24576040516318ccfb7760e11b815260a08e01356004820152602481018c905260c08e01356044820152606481018b90526084016105fb565b6001600160801b0382169850608082901c97505f5b8751811015613ea3576103e8878281518110613e5757613e57614a3e565b60200260200101511015613e9b57868181518110613e7757613e77614a3e565b6020026020010151604051631851777d60e11b81526004016105fb91815260200190565b600101613e39565b5050505050509295509295509295565b5f80826003811115613ec757613ec7614b7b565b03613f905760405163e6a4390560e01b81526001600160a01b03868116600483015285811660248301527f0000000000000000000000000000000000000000000000000000000000000000169063e6a4390590604401602060405180830381865afa158015613f38573d5f803e3d5ffd5b505050506040513d601f19601f82011682018060405250810190613f5c9190614a7c565b90506001600160a01b038116613f8b57848484604051636b2471d160e11b81526004016105fb93929190614c4a565b613843565b61128885858585613663565b5f6323b872dd60e01b848484604051602401613fba93929190614c4a565b60408051601f198184030181529190526020810180516001600160e01b03166001600160e01b0319909316929092179091529050613ff8858261412f565b5050505050565b5f835f036140205760405163b229ed3360e01b815260040160405180910390fd5b82158061402b575081155b15614049576040516398c59a2960e01b815260040160405180910390fd5b5f614056856103e5614eec565b90505f6140638483614eec565b90505f82614073876103e8614eec565b61407d9190614a2b565b90506140898183614f03565b979650505050505050565b5f835f036140b55760405163b229ed3360e01b815260040160405180910390fd5b8215806140c0575081155b156140de576040516398c59a2960e01b815260040160405180910390fd5b5f6140e98585614eec565b6140f5906103e8614eec565b90505f6141028685614a69565b61410e906103e5614eec565b905061411a8183614f03565b614125906001614a2b565b9695505050505050565b5f805f5260205f8351602085015f875af1905080801561416b573d801561415e5760015f511483169250614165565b843b151592505b50614179565b3d15614179573d5f803e3d5ffd5b508061114f5760405163197138bd60e11b815260040160405180910390fd5b601882901b6affffffffffffffff00000016605884901b67ffffffffffffffff60581b161762ffffff82168117613843565b808203828111806141e657506001600160801b03808416908216115b15611d5d5760405163e599af5560e01b815260040160405180910390fd5b634e487b7160e01b5f52604160045260245ffd5b604051606081016001600160401b038111828210171561423a5761423a614204565b60405290565b604051608081016001600160401b038111828210171561423a5761423a614204565b604051601f8201601f191681016001600160401b038111828210171561428a5761428a614204565b604052919050565b5f6001600160401b038211156142aa576142aa614204565b5060051b60200190565b5f82601f8301126142c3575f80fd5b81356142d66142d182614292565b614262565b8082825260208201915060208360051b8601019250858311156142f7575f80fd5b602085015b838110156143145780358352602092830192016142fc565b5095945050505050565b6001600160a01b0381168114614332575f80fd5b50565b80356143408161431e565b919050565b5f82601f830112614354575f80fd5b81356143626142d182614292565b8082825260208201915060208360051b860101925085831115614383575f80fd5b602085015b8381101561431457803561439b8161431e565b835260209283019201614388565b5f606082840312156143b9575f80fd5b6143c1614218565b905081356001600160401b038111156143d8575f80fd5b6143e4848285016142b4565b82525060208201356001600160401b038111156143ff575f80fd5b8201601f8101841361440f575f80fd5b803561441d6142d182614292565b8082825260208201915060208360051b85010192508683111561443e575f80fd5b6020840193505b8284101561446c5783356004811061445b575f80fd5b825260209384019390910190614445565b602085015250505060408201356001600160401b0381111561448c575f80fd5b61449884828501614345565b60408301525092915050565b5f805f805f60a086880312156144b8575f80fd5b853594506020860135935060408601356001600160401b038111156144db575f80fd5b6144e7888289016143a9565b93505060608601356144f88161431e565b949793965091946080013592915050565b5f805f806080858703121561451c575f80fd5b8435935060208501356001600160401b03811115614538575f80fd5b614544878288016143a9565b93505060408501356145558161431e565b9396929550929360600135925050565b5f8151808452602084019350602083015f5b82811015614595578151865260209586019590910190600101614577565b5093949350505050565b602081525f611d5a6020830184614565565b5f805f606084860312156145c3575f80fd5b83356145ce8161431e565b925060208401356145de8161431e565b929592945050506040919091013590565b62ffffff81168114614332575f80fd5b61ffff81168114614332575f80fd5b8035614340816145ff565b5f805f806080858703121561462c575f80fd5b84356146378161431e565b935060208501356146478161431e565b92506040850135614657816145ef565b91506060850135614667816145ff565b939692955090935050565b5f805f805f805f80610100898b03121561468a575f80fd5b88356146958161431e565b975060208901356146a5816145ff565b9650604089013595506060890135945060808901356001600160401b038111156146cd575f80fd5b6146d98b828c016142b4565b94505060a08901356001600160401b038111156146f4575f80fd5b6147008b828c016142b4565b93505060c08901356147118161431e565b979a969950949793969295919450919260e001359150565b5f60208284031215614739575f80fd5b81356001600160401b0381111561474e575f80fd5b82016101e08185031215614760575f80fd5b9392505050565b86815285602082015284604082015283606082015260c060808201525f61479160c0830185614565565b82810360a08401526147a38185614565565b9998505050505050505050565b6001600160801b0381168114614332575f80fd5b8015158114614332575f80fd5b5f805f606084860312156147e3575f80fd5b83356147ee8161431e565b925060208401356147fe816147b0565b9150604084013561480e816147c4565b809150509250925092565b5f805f805f805f805f6101208a8c031215614832575f80fd5b893561483d8161431e565b985061484b60208b01614335565b975061485960408b0161460e565b965060608a0135955060808a0135945060a08a01356001600160401b03811115614881575f80fd5b61488d8c828d016142b4565b94505060c08a01356001600160401b038111156148a8575f80fd5b6148b48c828d016142b4565b9350506148c360e08b01614335565b989b979a5095989497939692955090936101000135919050565b5f80604083850312156148ee575f80fd5b82356148f98161431e565b91506020830135614909816145ef565b809150509250929050565b5f8083601f840112614924575f80fd5b5081356001600160401b0381111561493a575f80fd5b6020830191508360208260051b8501011115614954575f80fd5b9250929050565b5f805f805f8060808789031215614970575f80fd5b863561497b8161431e565b9550602087013561498b8161431e565b945060408701356001600160401b038111156149a5575f80fd5b6149b189828a01614914565b90955093505060608701356001600160401b038111156149cf575f80fd5b6149db89828a01614914565b979a9699509497509295939492505050565b5f80604083850312156149fe575f80fd5b8235614a098161431e565b946020939093013593505050565b634e487b7160e01b5f52601160045260245ffd5b80820180821115611d5d57611d5d614a17565b634e487b7160e01b5f52603260045260245ffd5b5f60208284031215614a62575f80fd5b5051919050565b81810381811115611d5d57611d5d614a17565b5f60208284031215614a8c575f80fd5b81516147608161431e565b5f60208284031215614aa7575f80fd5b81356147608161431e565b5f805f60608486031215614ac4575f80fd5b8351614acf816147b0565b6020850151909350614ae0816147b0565b604085015190925061480e816147b0565b8183525f6001600160fb1b03831115614b08575f80fd5b8260051b80836020870137939093016020019392505050565b6001600160a01b038781168252861660208201526080604082018190525f90614b4d9083018688614af1565b82810360608401526147a3818587614af1565b5f60208284031215614b70575f80fd5b8151614760816145ef565b634e487b7160e01b5f52602160045260245ffd5b80516001600160701b0381168114614340575f80fd5b5f805f60608486031215614bb7575f80fd5b614bc084614b8f565b9250614bce60208501614b8f565b9150604084015163ffffffff8116811461480e575f80fd5b92835260208301919091526001600160a01b031660408201526080606082018190525f9082015260a00190565b5f8060408385031215614c24575f80fd5b505080516020909101519092909150565b5f81614c4357614c43614a17565b505f190190565b6001600160a01b039384168152919092166020820152604081019190915260600190565b5f6080828403128015614c7f575f80fd5b50614c88614240565b8251614c93816145ff565b81526020830151614ca38161431e565b60208201526040830151614cb6816147c4565b60408201526060830151614cc9816147c4565b60608201529392505050565b6001600160a01b038581168252841660208201526080604082018190525f90614d0090830185614565565b82810360608401526140898185614565565b5f60208284031215614d22575f80fd5b81516001600160401b03811115614d37575f80fd5b8201601f81018413614d47575f80fd5b8051614d556142d182614292565b8082825260208201915060208360051b850101925086831115614d76575f80fd5b6020840193505b82841015614125578351825260209384019390910190614d7d565b5f808335601e19843603018112614dad575f80fd5b8301803591506001600160401b03821115614dc6575f80fd5b6020019150600581901b3603821315614954575f80fd5b6001600160a01b03841681526060602080830182905284519183018290525f91908501906080840190835b81811015614e26578351835260209384019390920191600101614e08565b50506001600160a01b03949094166040939093019290925250909392505050565b5f805f60608486031215614e59575f80fd5b83516020850151604086015191945092506001600160401b03811115614e7d575f80fd5b8401601f81018613614e8d575f80fd5b8051614e9b6142d182614292565b8082825260208201915060208360051b850101925088831115614ebc575f80fd5b6020840193505b82841015614ede578351825260209384019390910190614ec3565b809450505050509250925092565b8082028115828204841417611d5d57611d5d614a17565b5f82614f1d57634e487b7160e01b5f52601260045260245ffd5b50049056fea2646970667358221220a4f3bd5e476c93f95447829cd55ef640e6285c7deecf2f2b589c0154ca57cead64736f6c634300081a0033",
			"opcodes": "PUSH2 0x140 PUSH1 0x40 MSTORE CALLVALUE DUP1 ISZERO PUSH2 0x10 JUMPI PUSH0 DUP1 REVERT JUMPDEST POP PUSH1 0x40 MLOAD PUSH2 0x5140 CODESIZE SUB DUP1 PUSH2 0x5140 DUP4 CODECOPY DUP2 ADD PUSH1 0x40 DUP2 SWAP1 MSTORE PUSH2 0x2F SWAP2 PUSH2 0x76 JUMP JUMPDEST PUSH1 0x1 PUSH1 0x1 PUSH1 0xA0 SHL SUB SWAP6 DUP7 AND PUSH1 0x80 MSTORE SWAP1 DUP6 AND PUSH1 0xA0 MSTORE SWAP3 DUP5 AND PUSH1 0xC0 MSTORE SWAP1 DUP4 AND PUSH1 0xE0 MSTORE DUP3 AND PUSH2 0x100 MSTORE AND PUSH2 0x120 MSTORE PUSH2 0xF9 JUMP JUMPDEST PUSH1 0x1 PUSH1 0x1 PUSH1 0xA0 SHL SUB DUP2 AND DUP2 EQ PUSH2 0x73 JUMPI PUSH0 DUP1 REVERT JUMPDEST POP JUMP JUMPDEST PUSH0 DUP1 PUSH0 DUP1 PUSH0 DUP1 PUSH1 0xC0 DUP8 DUP10 SUB SLT ISZERO PUSH2 0x8B JUMPI PUSH0 DUP1 REVERT JUMPDEST DUP7 MLOAD PUSH2 0x96 DUP2 PUSH2 0x5F JUMP JUMPDEST PUSH1 0x20 DUP9 ADD MLOAD SWAP1 SWAP7 POP PUSH2 0xA7 DUP2 PUSH2 0x5F JUMP JUMPDEST PUSH1 0x40 DUP9 ADD MLOAD SWAP1 SWAP6 POP PUSH2 0xB8 DUP2 PUSH2 0x5F JUMP JUMPDEST PUSH1 0x60 DUP9 ADD MLOAD SWAP1 SWAP5 POP PUSH2 0xC9 DUP2 PUSH2 0x5F JUMP JUMPDEST PUSH1 0x80 DUP9 ADD MLOAD SWAP1 SWAP4 POP PUSH2 0xDA DUP2 PUSH2 0x5F JUMP JUMPDEST PUSH1 0xA0 DUP9 ADD MLOAD SWAP1 SWAP3 POP PUSH2 0xEB DUP2 PUSH2 0x5F JUMP JUMPDEST DUP1 SWAP2 POP POP SWAP3 SWAP6 POP SWAP3 SWAP6 POP SWAP3 SWAP6 JUMP JUMPDEST PUSH1 0x80 MLOAD PUSH1 0xA0 MLOAD PUSH1 0xC0 MLOAD PUSH1 0xE0 MLOAD PUSH2 0x100 MLOAD PUSH2 0x120 MLOAD PUSH2 0x4F58 PUSH2 0x1E8 PUSH0 CODECOPY PUSH0 DUP2 DUP2 PUSH2 0x18E ADD MSTORE DUP2 DUP2 PUSH2 0x313 ADD MSTORE DUP2 DUP2 PUSH2 0x659 ADD MSTORE DUP2 DUP2 PUSH2 0x733 ADD MSTORE DUP2 DUP2 PUSH2 0x80B ADD MSTORE DUP2 DUP2 PUSH2 0x94C ADD MSTORE DUP2 DUP2 PUSH2 0xCC9 ADD MSTORE DUP2 DUP2 PUSH2 0x12C5 ADD MSTORE DUP2 DUP2 PUSH2 0x135E ADD MSTORE DUP2 DUP2 PUSH2 0x14C1 ADD MSTORE DUP2 DUP2 PUSH2 0x1544 ADD MSTORE DUP2 DUP2 PUSH2 0x187D ADD MSTORE DUP2 DUP2 PUSH2 0x1B09 ADD MSTORE DUP2 DUP2 PUSH2 0x1DE4 ADD MSTORE DUP2 DUP2 PUSH2 0x27B3 ADD MSTORE DUP2 DUP2 PUSH2 0x2CBD ADD MSTORE PUSH2 0x2D37 ADD MSTORE PUSH0 DUP2 DUP2 PUSH2 0x4DA ADD MSTORE PUSH2 0x2A65 ADD MSTORE PUSH0 DUP2 DUP2 PUSH2 0x345 ADD MSTORE PUSH2 0x3694 ADD MSTORE PUSH0 DUP2 DUP2 PUSH2 0x50C ADD MSTORE PUSH2 0x3EF3 ADD MSTORE PUSH0 DUP2 DUP2 PUSH2 0x28F ADD MSTORE PUSH2 0x3747 ADD MSTORE PUSH0 DUP2 DUP2 PUSH2 0x3AB ADD MSTORE DUP2 DUP2 PUSH2 0x1076 ADD MSTORE DUP2 DUP2 PUSH2 0x121C ADD MSTORE DUP2 DUP2 PUSH2 0x1FD3 ADD MSTORE PUSH2 0x3797 ADD MSTORE PUSH2 0x4F58 PUSH0 RETURN INVALID PUSH1 0x80 PUSH1 0x40 MSTORE PUSH1 0x4 CALLDATASIZE LT PUSH2 0x17E JUMPI PUSH0 CALLDATALOAD PUSH1 0xE0 SHR DUP1 PUSH4 0x92FE8E70 GT PUSH2 0xCD JUMPI DUP1 PUSH4 0xBA846523 GT PUSH2 0x87 JUMPI DUP1 PUSH4 0xD0E380F2 GT PUSH2 0x62 JUMPI DUP1 PUSH4 0xD0E380F2 EQ PUSH2 0x54F JUMPI DUP1 PUSH4 0xE038E6DC EQ PUSH2 0x56E JUMPI DUP1 PUSH4 0xE9361C08 EQ PUSH2 0x581 JUMPI DUP1 PUSH4 0xF96FE925 EQ PUSH2 0x5A0 JUMPI PUSH0 DUP1 REVERT JUMPDEST DUP1 PUSH4 0xBA846523 EQ PUSH2 0x4CC JUMPI DUP1 PUSH4 0xBB558A9F EQ PUSH2 0x4FE JUMPI DUP1 PUSH4 0xC22159B6 EQ PUSH2 0x530 JUMPI PUSH0 DUP1 REVERT JUMPDEST DUP1 PUSH4 0x92FE8E70 EQ PUSH2 0x3F4 JUMPI DUP1 PUSH4 0x964F987C EQ PUSH2 0x413 JUMPI DUP1 PUSH4 0x9AB6156B EQ PUSH2 0x45C JUMPI DUP1 PUSH4 0xA0D376CF EQ PUSH2 0x47B JUMPI DUP1 PUSH4 0xA3C7271A EQ PUSH2 0x49A JUMPI DUP1 PUSH4 0xB066EA7C EQ PUSH2 0x4B9 JUMPI PUSH0 DUP1 REVERT JUMPDEST DUP1 PUSH4 0x62C06767 GT PUSH2 0x138 JUMPI DUP1 PUSH4 0x71D1974A GT PUSH2 0x113 JUMPI DUP1 PUSH4 0x71D1974A EQ PUSH2 0x337 JUMPI DUP1 PUSH4 0x81C2FDFB EQ PUSH2 0x369 JUMPI DUP1 PUSH4 0x88CC58E4 EQ PUSH2 0x39D JUMPI DUP1 PUSH4 0x8EFC2B2C EQ PUSH2 0x3CF JUMPI PUSH0 DUP1 REVERT JUMPDEST DUP1 PUSH4 0x62C06767 EQ PUSH2 0x2C7 JUMPI DUP1 PUSH4 0x659AC74B EQ PUSH2 0x2E6 JUMPI DUP1 PUSH4 0x6C9C0078 EQ PUSH2 0x305 JUMPI PUSH0 DUP1 REVERT JUMPDEST DUP1 PUSH4 0x1A24F9A9 EQ PUSH2 0x1D2 JUMPI DUP1 PUSH4 0x2075AD22 EQ PUSH2 0x204 JUMPI DUP1 PUSH4 0x2A443FAE EQ PUSH2 0x224 JUMPI DUP1 PUSH4 0x3DC8F8EC EQ PUSH2 0x243 JUMPI DUP1 PUSH4 0x4B801870 EQ PUSH2 0x262 JUMPI DUP1 PUSH4 0x5C5035CB EQ PUSH2 0x281 JUMPI PUSH0 DUP1 REVERT JUMPDEST CALLDATASIZE PUSH2 0x1CE JUMPI CALLER PUSH1 0x1 PUSH1 0x1 PUSH1 0xA0 SHL SUB PUSH32 0x0 AND EQ PUSH2 0x1CC JUMPI PUSH1 0x40 MLOAD PUSH4 0x6C8CB793 PUSH1 0xE0 SHL DUP2 MSTORE PUSH1 0x4 ADD PUSH1 0x40 MLOAD DUP1 SWAP2 SUB SWAP1 REVERT JUMPDEST STOP JUMPDEST PUSH0 DUP1 REVERT JUMPDEST CALLVALUE DUP1 ISZERO PUSH2 0x1DD JUMPI PUSH0 DUP1 REVERT JUMPDEST POP PUSH2 0x1F1 PUSH2 0x1EC CALLDATASIZE PUSH1 0x4 PUSH2 0x44A4 JUMP JUMPDEST PUSH2 0x5D3 JUMP JUMPDEST PUSH1 0x40 MLOAD SWAP1 DUP2 MSTORE PUSH1 0x20 ADD JUMPDEST PUSH1 0x40 MLOAD DUP1 SWAP2 SUB SWAP1 RETURN JUMPDEST PUSH2 0x217 PUSH2 0x212 CALLDATASIZE PUSH1 0x4 PUSH2 0x4509 JUMP JUMPDEST PUSH2 0x8CA JUMP JUMPDEST PUSH1 0x40 MLOAD PUSH2 0x1FB SWAP2 SWAP1 PUSH2 0x459F JUMP JUMPDEST CALLVALUE DUP1 ISZERO PUSH2 0x22F JUMPI PUSH0 DUP1 REVERT JUMPDEST POP PUSH2 0x1F1 PUSH2 0x23E CALLDATASIZE PUSH1 0x4 PUSH2 0x44A4 JUMP JUMPDEST PUSH2 0xB1F JUMP JUMPDEST CALLVALUE DUP1 ISZERO PUSH2 0x24E JUMPI PUSH0 DUP1 REVERT JUMPDEST POP PUSH2 0x217 PUSH2 0x25D CALLDATASIZE PUSH1 0x4 PUSH2 0x44A4 JUMP JUMPDEST PUSH2 0xC47 JUMP JUMPDEST CALLVALUE DUP1 ISZERO PUSH2 0x26D JUMPI PUSH0 DUP1 REVERT JUMPDEST POP PUSH2 0x1F1 PUSH2 0x27C CALLDATASIZE PUSH1 0x4 PUSH2 0x44A4 JUMP JUMPDEST PUSH2 0xE44 JUMP JUMPDEST CALLVALUE DUP1 ISZERO PUSH2 0x28C JUMPI PUSH0 DUP1 REVERT JUMPDEST POP PUSH32 0x0 JUMPDEST PUSH1 0x40 MLOAD PUSH1 0x1 PUSH1 0x1 PUSH1 0xA0 SHL SUB SWAP1 SWAP2 AND DUP2 MSTORE PUSH1 0x20 ADD PUSH2 0x1FB JUMP JUMPDEST CALLVALUE DUP1 ISZERO PUSH2 0x2D2 JUMPI PUSH0 DUP1 REVERT JUMPDEST POP PUSH2 0x1CC PUSH2 0x2E1 CALLDATASIZE PUSH1 0x4 PUSH2 0x45B1 JUMP JUMPDEST PUSH2 0x1074 JUMP JUMPDEST CALLVALUE DUP1 ISZERO PUSH2 0x2F1 JUMPI PUSH0 DUP1 REVERT JUMPDEST POP PUSH2 0x2AF PUSH2 0x300 CALLDATASIZE PUSH1 0x4 PUSH2 0x4619 JUMP JUMPDEST PUSH2 0x11DE JUMP JUMPDEST CALLVALUE DUP1 ISZERO PUSH2 0x310 JUMPI PUSH0 DUP1 REVERT JUMPDEST POP PUSH32 0x0 PUSH2 0x2AF JUMP JUMPDEST CALLVALUE DUP1 ISZERO PUSH2 0x342 JUMPI PUSH0 DUP1 REVERT JUMPDEST POP PUSH32 0x0 PUSH2 0x2AF JUMP JUMPDEST CALLVALUE DUP1 ISZERO PUSH2 0x374 JUMPI PUSH0 DUP1 REVERT JUMPDEST POP PUSH2 0x388 PUSH2 0x383 CALLDATASIZE PUSH1 0x4 PUSH2 0x4672 JUMP JUMPDEST PUSH2 0x1291 JUMP JUMPDEST PUSH1 0x40 DUP1 MLOAD SWAP3 DUP4 MSTORE PUSH1 0x20 DUP4 ADD SWAP2 SWAP1 SWAP2 MSTORE ADD PUSH2 0x1FB JUMP JUMPDEST CALLVALUE DUP1 ISZERO PUSH2 0x3A8 JUMPI PUSH0 DUP1 REVERT JUMPDEST POP PUSH32 0x0 PUSH2 0x2AF JUMP JUMPDEST PUSH2 0x3E2 PUSH2 0x3DD CALLDATASIZE PUSH1 0x4 PUSH2 0x4729 JUMP JUMPDEST PUSH2 0x13E4 JUMP JUMPDEST PUSH1 0x40 MLOAD PUSH2 0x1FB SWAP7 SWAP6 SWAP5 SWAP4 SWAP3 SWAP2 SWAP1 PUSH2 0x4767 JUMP JUMPDEST CALLVALUE DUP1 ISZERO PUSH2 0x3FF JUMPI PUSH0 DUP1 REVERT JUMPDEST POP PUSH2 0x217 PUSH2 0x40E CALLDATASIZE PUSH1 0x4 PUSH2 0x44A4 JUMP JUMPDEST PUSH2 0x1630 JUMP JUMPDEST CALLVALUE DUP1 ISZERO PUSH2 0x41E JUMPI PUSH0 DUP1 REVERT JUMPDEST POP PUSH2 0x432 PUSH2 0x42D CALLDATASIZE PUSH1 0x4 PUSH2 0x47D1 JUMP JUMPDEST PUSH2 0x176F JUMP JUMPDEST PUSH1 0x40 DUP1 MLOAD PUSH1 0x1 PUSH1 0x1 PUSH1 0x80 SHL SUB SWAP5 DUP6 AND DUP2 MSTORE SWAP3 DUP5 AND PUSH1 0x20 DUP5 ADD MSTORE SWAP3 AND SWAP2 DUP2 ADD SWAP2 SWAP1 SWAP2 MSTORE PUSH1 0x60 ADD PUSH2 0x1FB JUMP JUMPDEST CALLVALUE DUP1 ISZERO PUSH2 0x467 JUMPI PUSH0 DUP1 REVERT JUMPDEST POP PUSH2 0x1F1 PUSH2 0x476 CALLDATASIZE PUSH1 0x4 PUSH2 0x44A4 JUMP JUMPDEST PUSH2 0x17FC JUMP JUMPDEST CALLVALUE DUP1 ISZERO PUSH2 0x486 JUMPI PUSH0 DUP1 REVERT JUMPDEST POP PUSH2 0x432 PUSH2 0x495 CALLDATASIZE PUSH1 0x4 PUSH2 0x47D1 JUMP JUMPDEST PUSH2 0x196B JUMP JUMPDEST CALLVALUE DUP1 ISZERO PUSH2 0x4A5 JUMPI PUSH0 DUP1 REVERT JUMPDEST POP PUSH2 0x3E2 PUSH2 0x4B4 CALLDATASIZE PUSH1 0x4 PUSH2 0x4729 JUMP JUMPDEST PUSH2 0x19AE JUMP JUMPDEST PUSH2 0x1F1 PUSH2 0x4C7 CALLDATASIZE PUSH1 0x4 PUSH2 0x4509 JUMP JUMPDEST PUSH2 0x1A88 JUMP JUMPDEST CALLVALUE DUP1 ISZERO PUSH2 0x4D7 JUMPI PUSH0 DUP1 REVERT JUMPDEST POP PUSH32 0x0 PUSH2 0x2AF JUMP JUMPDEST CALLVALUE DUP1 ISZERO PUSH2 0x509 JUMPI PUSH0 DUP1 REVERT JUMPDEST POP PUSH32 0x0 PUSH2 0x2AF JUMP JUMPDEST CALLVALUE DUP1 ISZERO PUSH2 0x53B JUMPI PUSH0 DUP1 REVERT JUMPDEST POP PUSH2 0x388 PUSH2 0x54A CALLDATASIZE PUSH1 0x4 PUSH2 0x4819 JUMP JUMPDEST PUSH2 0x1BFC JUMP JUMPDEST CALLVALUE DUP1 ISZERO PUSH2 0x55A JUMPI PUSH0 DUP1 REVERT JUMPDEST POP PUSH2 0x1F1 PUSH2 0x569 CALLDATASIZE PUSH1 0x4 PUSH2 0x48DD JUMP JUMPDEST PUSH2 0x1CED JUMP JUMPDEST PUSH2 0x1F1 PUSH2 0x57C CALLDATASIZE PUSH1 0x4 PUSH2 0x4509 JUMP JUMPDEST PUSH2 0x1D63 JUMP JUMPDEST CALLVALUE DUP1 ISZERO PUSH2 0x58C JUMPI PUSH0 DUP1 REVERT JUMPDEST POP PUSH2 0x1CC PUSH2 0x59B CALLDATASIZE PUSH1 0x4 PUSH2 0x495B JUMP JUMPDEST PUSH2 0x1FD1 JUMP JUMPDEST CALLVALUE DUP1 ISZERO PUSH2 0x5AB JUMPI PUSH0 DUP1 REVERT JUMPDEST POP PUSH2 0x5BF PUSH2 0x5BA CALLDATASIZE PUSH1 0x4 PUSH2 0x49ED JUMP JUMPDEST PUSH2 0x20ED JUMP JUMPDEST PUSH1 0x40 MLOAD PUSH3 0xFFFFFF SWAP1 SWAP2 AND DUP2 MSTORE PUSH1 0x20 ADD PUSH2 0x1FB JUMP JUMPDEST PUSH0 DUP2 DUP1 TIMESTAMP GT ISZERO PUSH2 0x604 JUMPI PUSH1 0x40 MLOAD PUSH4 0xDAE7CA7D PUSH1 0xE0 SHL DUP2 MSTORE PUSH1 0x4 DUP2 ADD DUP3 SWAP1 MSTORE TIMESTAMP PUSH1 0x24 DUP3 ADD MSTORE PUSH1 0x44 ADD JUMPDEST PUSH1 0x40 MLOAD DUP1 SWAP2 SUB SWAP1 REVERT JUMPDEST DUP5 MLOAD MLOAD DUP6 SWAP1 ISZERO DUP1 PUSH2 0x61C JUMPI POP DUP1 MLOAD MLOAD PUSH1 0x20 DUP3 ADD MLOAD MLOAD EQ ISZERO JUMPDEST DUP1 PUSH2 0x639 JUMPI POP PUSH1 0x40 DUP2 ADD MLOAD MLOAD DUP2 MLOAD MLOAD PUSH2 0x636 SWAP1 PUSH1 0x1 PUSH2 0x4A2B JUMP JUMPDEST EQ ISZERO JUMPDEST ISZERO PUSH2 0x657 JUMPI PUSH1 0x40 MLOAD PUSH4 0xB91B4D4D PUSH1 0xE0 SHL DUP2 MSTORE PUSH1 0x4 ADD PUSH1 0x40 MLOAD DUP1 SWAP2 SUB SWAP1 REVERT JUMPDEST PUSH32 0x0 PUSH1 0x1 PUSH1 0x1 PUSH1 0xA0 SHL SUB AND DUP7 PUSH1 0x40 ADD MLOAD DUP8 PUSH0 ADD MLOAD MLOAD DUP2 MLOAD DUP2 LT PUSH2 0x69B JUMPI PUSH2 0x69B PUSH2 0x4A3E JUMP JUMPDEST PUSH1 0x20 MUL PUSH1 0x20 ADD ADD MLOAD PUSH1 0x1 PUSH1 0x1 PUSH1 0xA0 SHL SUB AND EQ PUSH2 0x6FA JUMPI PUSH1 0x40 DUP7 ADD MLOAD DUP7 MLOAD MLOAD DUP2 MLOAD DUP2 LT PUSH2 0x6C9 JUMPI PUSH2 0x6C9 PUSH2 0x4A3E JUMP JUMPDEST PUSH1 0x20 MUL PUSH1 0x20 ADD ADD MLOAD PUSH1 0x40 MLOAD PUSH4 0xCFEC0E01 PUSH1 0xE0 SHL DUP2 MSTORE PUSH1 0x4 ADD PUSH2 0x5FB SWAP2 SWAP1 PUSH1 0x1 PUSH1 0x1 PUSH1 0xA0 SHL SUB SWAP2 SWAP1 SWAP2 AND DUP2 MSTORE PUSH1 0x20 ADD SWAP1 JUMP JUMPDEST PUSH0 PUSH2 0x711 DUP8 PUSH0 ADD MLOAD DUP9 PUSH1 0x20 ADD MLOAD DUP10 PUSH1 0x40 ADD MLOAD PUSH2 0x2156 JUMP JUMPDEST PUSH1 0x40 MLOAD PUSH4 0x70A08231 PUSH1 0xE0 SHL DUP2 MSTORE ADDRESS PUSH1 0x4 DUP3 ADD MSTORE SWAP1 SWAP2 POP PUSH0 SWAP1 PUSH1 0x1 PUSH1 0x1 PUSH1 0xA0 SHL SUB PUSH32 0x0 AND SWAP1 PUSH4 0x70A08231 SWAP1 PUSH1 0x24 ADD PUSH1 0x20 PUSH1 0x40 MLOAD DUP1 DUP4 SUB DUP2 DUP7 GAS STATICCALL ISZERO DUP1 ISZERO PUSH2 0x778 JUMPI RETURNDATASIZE PUSH0 DUP1 RETURNDATACOPY RETURNDATASIZE PUSH0 REVERT JUMPDEST POP POP POP POP PUSH1 0x40 MLOAD RETURNDATASIZE PUSH1 0x1F NOT PUSH1 0x1F DUP3 ADD AND DUP3 ADD DUP1 PUSH1 0x40 MSTORE POP DUP2 ADD SWAP1 PUSH2 0x79C SWAP2 SWAP1 PUSH2 0x4A52 JUMP JUMPDEST SWAP1 POP PUSH2 0x7E0 DUP9 PUSH1 0x40 ADD MLOAD PUSH0 DUP2 MLOAD DUP2 LT PUSH2 0x7B7 JUMPI PUSH2 0x7B7 PUSH2 0x4A3E JUMP JUMPDEST PUSH1 0x20 MUL PUSH1 0x20 ADD ADD MLOAD CALLER DUP5 PUSH0 DUP2 MLOAD DUP2 LT PUSH2 0x7D2 JUMPI PUSH2 0x7D2 PUSH2 0x4A3E JUMP JUMPDEST PUSH1 0x20 MUL PUSH1 0x20 ADD ADD MLOAD DUP14 PUSH2 0x2262 JUMP JUMPDEST PUSH2 0x7F4 DUP3 DUP10 PUSH1 0x20 ADD MLOAD DUP11 PUSH1 0x40 ADD MLOAD ADDRESS PUSH2 0x2283 JUMP JUMPDEST PUSH1 0x40 MLOAD PUSH4 0x70A08231 PUSH1 0xE0 SHL DUP2 MSTORE ADDRESS PUSH1 0x4 DUP3 ADD MSTORE DUP2 SWAP1 PUSH32 0x0 PUSH1 0x1 PUSH1 0x1 PUSH1 0xA0 SHL SUB AND SWAP1 PUSH4 0x70A08231 SWAP1 PUSH1 0x24 ADD PUSH1 0x20 PUSH1 0x40 MLOAD DUP1 DUP4 SUB DUP2 DUP7 GAS STATICCALL ISZERO DUP1 ISZERO PUSH2 0x858 JUMPI RETURNDATASIZE PUSH0 DUP1 RETURNDATACOPY RETURNDATASIZE PUSH0 REVERT JUMPDEST POP POP POP POP PUSH1 0x40 MLOAD RETURNDATASIZE PUSH1 0x1F NOT PUSH1 0x1F DUP3 ADD AND DUP3 ADD DUP1 PUSH1 0x40 MSTORE POP DUP2 ADD SWAP1 PUSH2 0x87C SWAP2 SWAP1 PUSH2 0x4A52 JUMP JUMPDEST PUSH2 0x886 SWAP2 SWAP1 PUSH2 0x4A69 JUMP JUMPDEST SWAP5 POP DUP5 DUP10 GT ISZERO PUSH2 0x8B3 JUMPI PUSH1 0x40 MLOAD PUSH4 0x13FAB003 PUSH1 0xE2 SHL DUP2 MSTORE PUSH1 0x4 DUP2 ADD DUP11 SWAP1 MSTORE PUSH1 0x24 DUP2 ADD DUP7 SWAP1 MSTORE PUSH1 0x44 ADD PUSH2 0x5FB JUMP JUMPDEST PUSH2 0x8BD DUP8 DUP7 PUSH2 0x2792 JUMP JUMPDEST POP POP POP POP SWAP6 SWAP5 POP POP POP POP POP JUMP JUMPDEST PUSH1 0x60 DUP2 DUP1 TIMESTAMP GT ISZERO PUSH2 0x8F7 JUMPI PUSH1 0x40 MLOAD PUSH4 0xDAE7CA7D PUSH1 0xE0 SHL DUP2 MSTORE PUSH1 0x4 DUP2 ADD DUP3 SWAP1 MSTORE TIMESTAMP PUSH1 0x24 DUP3 ADD MSTORE PUSH1 0x44 ADD PUSH2 0x5FB JUMP JUMPDEST DUP5 MLOAD MLOAD DUP6 SWAP1 ISZERO DUP1 PUSH2 0x90F JUMPI POP DUP1 MLOAD MLOAD PUSH1 0x20 DUP3 ADD MLOAD MLOAD EQ ISZERO JUMPDEST DUP1 PUSH2 0x92C JUMPI POP PUSH1 0x40 DUP2 ADD MLOAD MLOAD DUP2 MLOAD MLOAD PUSH2 0x929 SWAP1 PUSH1 0x1 PUSH2 0x4A2B JUMP JUMPDEST EQ ISZERO JUMPDEST ISZERO PUSH2 0x94A JUMPI PUSH1 0x40 MLOAD PUSH4 0xB91B4D4D PUSH1 0xE0 SHL DUP2 MSTORE PUSH1 0x4 ADD PUSH1 0x40 MLOAD DUP1 SWAP2 SUB SWAP1 REVERT JUMPDEST PUSH32 0x0 PUSH1 0x1 PUSH1 0x1 PUSH1 0xA0 SHL SUB AND DUP7 PUSH1 0x40 ADD MLOAD PUSH0 DUP2 MLOAD DUP2 LT PUSH2 0x98A JUMPI PUSH2 0x98A PUSH2 0x4A3E JUMP JUMPDEST PUSH1 0x20 MUL PUSH1 0x20 ADD ADD MLOAD PUSH1 0x1 PUSH1 0x1 PUSH1 0xA0 SHL SUB AND EQ PUSH2 0x9B6 JUMPI DUP6 PUSH1 0x40 ADD MLOAD PUSH0 DUP2 MLOAD DUP2 LT PUSH2 0x6C9 JUMPI PUSH2 0x6C9 PUSH2 0x4A3E JUMP JUMPDEST PUSH0 PUSH2 0x9CD DUP8 PUSH0 ADD MLOAD DUP9 PUSH1 0x20 ADD MLOAD DUP10 PUSH1 0x40 ADD MLOAD PUSH2 0x2156 JUMP JUMPDEST SWAP1 POP PUSH2 0x9E3 DUP8 PUSH1 0x20 ADD MLOAD DUP3 DUP10 PUSH1 0x40 ADD MLOAD DUP12 PUSH2 0x2820 JUMP JUMPDEST SWAP4 POP CALLVALUE DUP5 PUSH0 DUP2 MLOAD DUP2 LT PUSH2 0x9F8 JUMPI PUSH2 0x9F8 PUSH2 0x4A3E JUMP JUMPDEST PUSH1 0x20 MUL PUSH1 0x20 ADD ADD MLOAD GT ISZERO PUSH2 0xA45 JUMPI CALLVALUE DUP5 PUSH0 DUP2 MLOAD DUP2 LT PUSH2 0xA19 JUMPI PUSH2 0xA19 PUSH2 0x4A3E JUMP JUMPDEST PUSH1 0x20 MUL PUSH1 0x20 ADD ADD MLOAD PUSH1 0x40 MLOAD PUSH4 0x194EE219 PUSH1 0xE3 SHL DUP2 MSTORE PUSH1 0x4 ADD PUSH2 0x5FB SWAP3 SWAP2 SWAP1 SWAP2 DUP3 MSTORE PUSH1 0x20 DUP3 ADD MSTORE PUSH1 0x40 ADD SWAP1 JUMP JUMPDEST PUSH2 0xA81 DUP2 PUSH0 DUP2 MLOAD DUP2 LT PUSH2 0xA5A JUMPI PUSH2 0xA5A PUSH2 0x4A3E JUMP JUMPDEST PUSH1 0x20 MUL PUSH1 0x20 ADD ADD MLOAD DUP6 PUSH0 DUP2 MLOAD DUP2 LT PUSH2 0xA74 JUMPI PUSH2 0xA74 PUSH2 0x4A3E JUMP JUMPDEST PUSH1 0x20 MUL PUSH1 0x20 ADD ADD MLOAD PUSH2 0x2CB0 JUMP JUMPDEST PUSH0 PUSH2 0xA97 DUP3 DUP10 PUSH1 0x20 ADD MLOAD DUP11 PUSH1 0x40 ADD MLOAD DUP9 DUP12 PUSH2 0x2D62 JUMP JUMPDEST SWAP1 POP DUP9 DUP2 LT ISZERO PUSH2 0xAC4 JUMPI PUSH1 0x40 MLOAD PUSH4 0x13FAB003 PUSH1 0xE2 SHL DUP2 MSTORE PUSH1 0x4 DUP2 ADD DUP11 SWAP1 MSTORE PUSH1 0x24 DUP2 ADD DUP3 SWAP1 MSTORE PUSH1 0x44 ADD PUSH2 0x5FB JUMP JUMPDEST DUP5 PUSH0 DUP2 MLOAD DUP2 LT PUSH2 0xAD6 JUMPI PUSH2 0xAD6 PUSH2 0x4A3E JUMP JUMPDEST PUSH1 0x20 MUL PUSH1 0x20 ADD ADD MLOAD CALLVALUE GT ISZERO PUSH2 0xB13 JUMPI PUSH2 0xB13 CALLER DUP7 PUSH0 DUP2 MLOAD DUP2 LT PUSH2 0xAFB JUMPI PUSH2 0xAFB PUSH2 0x4A3E JUMP JUMPDEST PUSH1 0x20 MUL PUSH1 0x20 ADD ADD MLOAD CALLVALUE PUSH2 0xB0E SWAP2 SWAP1 PUSH2 0x4A69 JUMP JUMPDEST PUSH2 0x314C JUMP JUMPDEST POP POP POP POP SWAP5 SWAP4 POP POP POP POP JUMP JUMPDEST PUSH0 DUP2 DUP1 TIMESTAMP GT ISZERO PUSH2 0xB4B JUMPI PUSH1 0x40 MLOAD PUSH4 0xDAE7CA7D PUSH1 0xE0 SHL DUP2 MSTORE PUSH1 0x4 DUP2 ADD DUP3 SWAP1 MSTORE TIMESTAMP PUSH1 0x24 DUP3 ADD MSTORE PUSH1 0x44 ADD PUSH2 0x5FB JUMP JUMPDEST DUP5 MLOAD MLOAD DUP6 SWAP1 ISZERO DUP1 PUSH2 0xB63 JUMPI POP DUP1 MLOAD MLOAD PUSH1 0x20 DUP3 ADD MLOAD MLOAD EQ ISZERO JUMPDEST DUP1 PUSH2 0xB80 JUMPI POP PUSH1 0x40 DUP2 ADD MLOAD MLOAD DUP2 MLOAD MLOAD PUSH2 0xB7D SWAP1 PUSH1 0x1 PUSH2 0x4A2B JUMP JUMPDEST EQ ISZERO JUMPDEST ISZERO PUSH2 0xB9E JUMPI PUSH1 0x40 MLOAD PUSH4 0xB91B4D4D PUSH1 0xE0 SHL DUP2 MSTORE PUSH1 0x4 ADD PUSH1 0x40 MLOAD DUP1 SWAP2 SUB SWAP1 REVERT JUMPDEST PUSH0 PUSH2 0xBB5 DUP8 PUSH0 ADD MLOAD DUP9 PUSH1 0x20 ADD MLOAD DUP10 PUSH1 0x40 ADD MLOAD PUSH2 0x2156 JUMP JUMPDEST SWAP1 POP PUSH2 0xBF9 DUP8 PUSH1 0x40 ADD MLOAD PUSH0 DUP2 MLOAD DUP2 LT PUSH2 0xBD0 JUMPI PUSH2 0xBD0 PUSH2 0x4A3E JUMP JUMPDEST PUSH1 0x20 MUL PUSH1 0x20 ADD ADD MLOAD CALLER DUP4 PUSH0 DUP2 MLOAD DUP2 LT PUSH2 0xBEB JUMPI PUSH2 0xBEB PUSH2 0x4A3E JUMP JUMPDEST PUSH1 0x20 MUL PUSH1 0x20 ADD ADD MLOAD DUP13 PUSH2 0x2262 JUMP JUMPDEST PUSH2 0xC0E DUP10 DUP3 DUP10 PUSH1 0x20 ADD MLOAD DUP11 PUSH1 0x40 ADD MLOAD DUP11 PUSH2 0x31D9 JUMP JUMPDEST SWAP4 POP DUP4 DUP9 GT ISZERO PUSH2 0xC3B JUMPI PUSH1 0x40 MLOAD PUSH4 0x13FAB003 PUSH1 0xE2 SHL DUP2 MSTORE PUSH1 0x4 DUP2 ADD DUP10 SWAP1 MSTORE PUSH1 0x24 DUP2 ADD DUP6 SWAP1 MSTORE PUSH1 0x44 ADD PUSH2 0x5FB JUMP JUMPDEST POP POP POP SWAP6 SWAP5 POP POP POP POP POP JUMP JUMPDEST PUSH1 0x60 DUP2 DUP1 TIMESTAMP GT ISZERO PUSH2 0xC74 JUMPI PUSH1 0x40 MLOAD PUSH4 0xDAE7CA7D PUSH1 0xE0 SHL DUP2 MSTORE PUSH1 0x4 DUP2 ADD DUP3 SWAP1 MSTORE TIMESTAMP PUSH1 0x24 DUP3 ADD MSTORE PUSH1 0x44 ADD PUSH2 0x5FB JUMP JUMPDEST DUP5 MLOAD MLOAD DUP6 SWAP1 ISZERO DUP1 PUSH2 0xC8C JUMPI POP DUP1 MLOAD MLOAD PUSH1 0x20 DUP3 ADD MLOAD MLOAD EQ ISZERO JUMPDEST DUP1 PUSH2 0xCA9 JUMPI POP PUSH1 0x40 DUP2 ADD MLOAD MLOAD DUP2 MLOAD MLOAD PUSH2 0xCA6 SWAP1 PUSH1 0x1 PUSH2 0x4A2B JUMP JUMPDEST EQ ISZERO JUMPDEST ISZERO PUSH2 0xCC7 JUMPI PUSH1 0x40 MLOAD PUSH4 0xB91B4D4D PUSH1 0xE0 SHL DUP2 MSTORE PUSH1 0x4 ADD PUSH1 0x40 MLOAD DUP1 SWAP2 SUB SWAP1 REVERT JUMPDEST PUSH32 0x0 PUSH1 0x1 PUSH1 0x1 PUSH1 0xA0 SHL SUB AND DUP7 PUSH1 0x40 ADD MLOAD DUP8 PUSH0 ADD MLOAD MLOAD DUP2 MLOAD DUP2 LT PUSH2 0xD0B JUMPI PUSH2 0xD0B PUSH2 0x4A3E JUMP JUMPDEST PUSH1 0x20 MUL PUSH1 0x20 ADD ADD MLOAD PUSH1 0x1 PUSH1 0x1 PUSH1 0xA0 SHL SUB AND EQ PUSH2 0xD39 JUMPI PUSH1 0x40 DUP7 ADD MLOAD DUP7 MLOAD MLOAD DUP2 MLOAD DUP2 LT PUSH2 0x6C9 JUMPI PUSH2 0x6C9 PUSH2 0x4A3E JUMP JUMPDEST PUSH0 PUSH2 0xD50 DUP8 PUSH0 ADD MLOAD DUP9 PUSH1 0x20 ADD MLOAD DUP10 PUSH1 0x40 ADD MLOAD PUSH2 0x2156 JUMP JUMPDEST SWAP1 POP PUSH2 0xD66 DUP8 PUSH1 0x20 ADD MLOAD DUP3 DUP10 PUSH1 0x40 ADD MLOAD DUP13 PUSH2 0x2820 JUMP JUMPDEST SWAP4 POP DUP8 DUP5 PUSH0 DUP2 MLOAD DUP2 LT PUSH2 0xD7B JUMPI PUSH2 0xD7B PUSH2 0x4A3E JUMP JUMPDEST PUSH1 0x20 MUL PUSH1 0x20 ADD ADD MLOAD GT ISZERO PUSH2 0xD9C JUMPI DUP8 DUP5 PUSH0 DUP2 MLOAD DUP2 LT PUSH2 0xA19 JUMPI PUSH2 0xA19 PUSH2 0x4A3E JUMP JUMPDEST PUSH2 0xDF7 DUP8 PUSH1 0x40 ADD MLOAD PUSH0 DUP2 MLOAD DUP2 LT PUSH2 0xDB5 JUMPI PUSH2 0xDB5 PUSH2 0x4A3E JUMP JUMPDEST PUSH1 0x20 MUL PUSH1 0x20 ADD ADD MLOAD CALLER DUP4 PUSH0 DUP2 MLOAD DUP2 LT PUSH2 0xDD0 JUMPI PUSH2 0xDD0 PUSH2 0x4A3E JUMP JUMPDEST PUSH1 0x20 MUL PUSH1 0x20 ADD ADD MLOAD DUP8 PUSH0 DUP2 MLOAD DUP2 LT PUSH2 0xDEA JUMPI PUSH2 0xDEA PUSH2 0x4A3E JUMP JUMPDEST PUSH1 0x20 MUL PUSH1 0x20 ADD ADD MLOAD PUSH2 0x2262 JUMP JUMPDEST PUSH0 PUSH2 0xE0D DUP3 DUP10 PUSH1 0x20 ADD MLOAD DUP11 PUSH1 0x40 ADD MLOAD DUP9 ADDRESS PUSH2 0x2D62 JUMP JUMPDEST SWAP1 POP DUP10 DUP2 LT ISZERO PUSH2 0xE3A JUMPI PUSH1 0x40 MLOAD PUSH4 0x13FAB003 PUSH1 0xE2 SHL DUP2 MSTORE PUSH1 0x4 DUP2 ADD DUP12 SWAP1 MSTORE PUSH1 0x24 DUP2 ADD DUP3 SWAP1 MSTORE PUSH1 0x44 ADD PUSH2 0x5FB JUMP JUMPDEST PUSH2 0x8BD DUP8 DUP3 PUSH2 0x2792 JUMP JUMPDEST PUSH0 DUP2 DUP1 TIMESTAMP GT ISZERO PUSH2 0xE70 JUMPI PUSH1 0x40 MLOAD PUSH4 0xDAE7CA7D PUSH1 0xE0 SHL DUP2 MSTORE PUSH1 0x4 DUP2 ADD DUP3 SWAP1 MSTORE TIMESTAMP PUSH1 0x24 DUP3 ADD MSTORE PUSH1 0x44 ADD PUSH2 0x5FB JUMP JUMPDEST DUP5 MLOAD MLOAD DUP6 SWAP1 ISZERO DUP1 PUSH2 0xE88 JUMPI POP DUP1 MLOAD MLOAD PUSH1 0x20 DUP3 ADD MLOAD MLOAD EQ ISZERO JUMPDEST DUP1 PUSH2 0xEA5 JUMPI POP PUSH1 0x40 DUP2 ADD MLOAD MLOAD DUP2 MLOAD MLOAD PUSH2 0xEA2 SWAP1 PUSH1 0x1 PUSH2 0x4A2B JUMP JUMPDEST EQ ISZERO JUMPDEST ISZERO PUSH2 0xEC3 JUMPI PUSH1 0x40 MLOAD PUSH4 0xB91B4D4D PUSH1 0xE0 SHL DUP2 MSTORE PUSH1 0x4 ADD PUSH1 0x40 MLOAD DUP1 SWAP2 SUB SWAP1 REVERT JUMPDEST PUSH0 PUSH2 0xEDA DUP8 PUSH0 ADD MLOAD DUP9 PUSH1 0x20 ADD MLOAD DUP10 PUSH1 0x40 ADD MLOAD PUSH2 0x2156 JUMP JUMPDEST SWAP1 POP PUSH0 DUP8 PUSH1 0x40 ADD MLOAD DUP3 MLOAD DUP2 MLOAD DUP2 LT PUSH2 0xEF4 JUMPI PUSH2 0xEF4 PUSH2 0x4A3E JUMP JUMPDEST PUSH1 0x20 SWAP1 DUP2 MUL SWAP2 SWAP1 SWAP2 ADD ADD MLOAD PUSH1 0x40 MLOAD PUSH4 0x70A08231 PUSH1 0xE0 SHL DUP2 MSTORE PUSH1 0x1 PUSH1 0x1 PUSH1 0xA0 SHL SUB DUP10 DUP2 AND PUSH1 0x4 DUP4 ADD MSTORE SWAP2 SWAP3 POP PUSH0 SWAP2 DUP4 AND SWAP1 PUSH4 0x70A08231 SWAP1 PUSH1 0x24 ADD PUSH1 0x20 PUSH1 0x40 MLOAD DUP1 DUP4 SUB DUP2 DUP7 GAS STATICCALL ISZERO DUP1 ISZERO PUSH2 0xF48 JUMPI RETURNDATASIZE PUSH0 DUP1 RETURNDATACOPY RETURNDATASIZE PUSH0 REVERT JUMPDEST POP POP POP POP PUSH1 0x40 MLOAD RETURNDATASIZE PUSH1 0x1F NOT PUSH1 0x1F DUP3 ADD AND DUP3 ADD DUP1 PUSH1 0x40 MSTORE POP DUP2 ADD SWAP1 PUSH2 0xF6C SWAP2 SWAP1 PUSH2 0x4A52 JUMP JUMPDEST SWAP1 POP PUSH2 0xFB0 DUP10 PUSH1 0x40 ADD MLOAD PUSH0 DUP2 MLOAD DUP2 LT PUSH2 0xF87 JUMPI PUSH2 0xF87 PUSH2 0x4A3E JUMP JUMPDEST PUSH1 0x20 MUL PUSH1 0x20 ADD ADD MLOAD CALLER DUP6 PUSH0 DUP2 MLOAD DUP2 LT PUSH2 0xFA2 JUMPI PUSH2 0xFA2 PUSH2 0x4A3E JUMP JUMPDEST PUSH1 0x20 MUL PUSH1 0x20 ADD ADD MLOAD DUP15 PUSH2 0x2262 JUMP JUMPDEST PUSH2 0xFC4 DUP4 DUP11 PUSH1 0x20 ADD MLOAD DUP12 PUSH1 0x40 ADD MLOAD DUP12 PUSH2 0x2283 JUMP JUMPDEST PUSH1 0x40 MLOAD PUSH4 0x70A08231 PUSH1 0xE0 SHL DUP2 MSTORE PUSH1 0x1 PUSH1 0x1 PUSH1 0xA0 SHL SUB DUP10 DUP2 AND PUSH1 0x4 DUP4 ADD MSTORE DUP3 SWAP2 SWAP1 DUP5 AND SWAP1 PUSH4 0x70A08231 SWAP1 PUSH1 0x24 ADD PUSH1 0x20 PUSH1 0x40 MLOAD DUP1 DUP4 SUB DUP2 DUP7 GAS STATICCALL ISZERO DUP1 ISZERO PUSH2 0x100B JUMPI RETURNDATASIZE PUSH0 DUP1 RETURNDATACOPY RETURNDATASIZE PUSH0 REVERT JUMPDEST POP POP POP POP PUSH1 0x40 MLOAD RETURNDATASIZE PUSH1 0x1F NOT PUSH1 0x1F DUP3 ADD AND DUP3 ADD DUP1 PUSH1 0x40 MSTORE POP DUP2 ADD SWAP1 PUSH2 0x102F SWAP2 SWAP1 PUSH2 0x4A52 JUMP JUMPDEST PUSH2 0x1039 SWAP2 SWAP1 PUSH2 0x4A69 JUMP JUMPDEST SWAP6 POP DUP6 DUP11 GT ISZERO PUSH2 0x1066 JUMPI PUSH1 0x40 MLOAD PUSH4 0x13FAB003 PUSH1 0xE2 SHL DUP2 MSTORE PUSH1 0x4 DUP2 ADD DUP12 SWAP1 MSTORE PUSH1 0x24 DUP2 ADD DUP8 SWAP1 MSTORE PUSH1 0x44 ADD PUSH2 0x5FB JUMP JUMPDEST POP POP POP POP POP SWAP6 SWAP5 POP POP POP POP POP JUMP JUMPDEST PUSH32 0x0 PUSH1 0x1 PUSH1 0x1 PUSH1 0xA0 SHL SUB AND PUSH4 0x8DA5CB5B PUSH1 0x40 MLOAD DUP2 PUSH4 0xFFFFFFFF AND PUSH1 0xE0 SHL DUP2 MSTORE PUSH1 0x4 ADD PUSH1 0x20 PUSH1 0x40 MLOAD DUP1 DUP4 SUB DUP2 DUP7 GAS STATICCALL ISZERO DUP1 ISZERO PUSH2 0x10D0 JUMPI RETURNDATASIZE PUSH0 DUP1 RETURNDATACOPY RETURNDATASIZE PUSH0 REVERT JUMPDEST POP POP POP POP PUSH1 0x40 MLOAD RETURNDATASIZE PUSH1 0x1F NOT PUSH1 0x1F DUP3 ADD AND DUP3 ADD DUP1 PUSH1 0x40 MSTORE POP DUP2 ADD SWAP1 PUSH2 0x10F4 SWAP2 SWAP1 PUSH2 0x4A7C JUMP JUMPDEST PUSH1 0x1 PUSH1 0x1 PUSH1 0xA0 SHL SUB AND CALLER PUSH1 0x1 PUSH1 0x1 PUSH1 0xA0 SHL SUB AND EQ PUSH2 0x1125 JUMPI PUSH1 0x40 MLOAD PUSH4 0x5D9515B9 PUSH1 0xE1 SHL DUP2 MSTORE PUSH1 0x4 ADD PUSH1 0x40 MLOAD DUP1 SWAP2 SUB SWAP1 REVERT JUMPDEST PUSH1 0x1 PUSH1 0x1 PUSH1 0xA0 SHL SUB DUP4 AND PUSH2 0x1154 JUMPI PUSH0 NOT DUP2 EQ PUSH2 0x1141 JUMPI DUP1 PUSH2 0x1143 JUMP JUMPDEST SELFBALANCE JUMPDEST SWAP1 POP PUSH2 0x114F DUP3 DUP3 PUSH2 0x314C JUMP JUMPDEST POP POP POP JUMP JUMPDEST PUSH0 NOT DUP2 EQ PUSH2 0x1162 JUMPI DUP1 PUSH2 0x11C8 JUMP JUMPDEST PUSH1 0x40 MLOAD PUSH4 0x70A08231 PUSH1 0xE0 SHL DUP2 MSTORE ADDRESS PUSH1 0x4 DUP3 ADD MSTORE PUSH1 0x1 PUSH1 0x1 PUSH1 0xA0 SHL SUB DUP5 AND SWAP1 PUSH4 0x70A08231 SWAP1 PUSH1 0x24 ADD PUSH1 0x20 PUSH1 0x40 MLOAD DUP1 DUP4 SUB DUP2 DUP7 GAS STATICCALL ISZERO DUP1 ISZERO PUSH2 0x11A4 JUMPI RETURNDATASIZE PUSH0 DUP1 RETURNDATACOPY RETURNDATASIZE PUSH0 REVERT JUMPDEST POP POP POP POP PUSH1 0x40 MLOAD RETURNDATASIZE PUSH1 0x1F NOT PUSH1 0x1F DUP3 ADD AND DUP3 ADD DUP1 PUSH1 0x40 MSTORE POP DUP2 ADD SWAP1 PUSH2 0x11C8 SWAP2 SWAP1 PUSH2 0x4A52 JUMP JUMPDEST SWAP1 POP PUSH2 0x114F PUSH1 0x1 PUSH1 0x1 PUSH1 0xA0 SHL SUB DUP5 AND DUP4 DUP4 PUSH2 0x3612 JUMP JUMPDEST PUSH1 0x40 MLOAD PUSH4 0x659AC74B PUSH1 0xE0 SHL DUP2 MSTORE PUSH1 0x1 PUSH1 0x1 PUSH1 0xA0 SHL SUB DUP6 DUP2 AND PUSH1 0x4 DUP4 ADD MSTORE DUP5 DUP2 AND PUSH1 0x24 DUP4 ADD MSTORE PUSH3 0xFFFFFF DUP5 AND PUSH1 0x44 DUP4 ADD MSTORE PUSH2 0xFFFF DUP4 AND PUSH1 0x64 DUP4 ADD MSTORE PUSH0 SWAP2 PUSH32 0x0 SWAP1 SWAP2 AND SWAP1 PUSH4 0x659AC74B SWAP1 PUSH1 0x84 ADD PUSH1 0x20 PUSH1 0x40 MLOAD DUP1 DUP4 SUB DUP2 PUSH0 DUP8 GAS CALL ISZERO DUP1 ISZERO PUSH2 0x1264 JUMPI RETURNDATASIZE PUSH0 DUP1 RETURNDATACOPY RETURNDATASIZE PUSH0 REVERT JUMPDEST POP POP POP POP PUSH1 0x40 MLOAD RETURNDATASIZE PUSH1 0x1F NOT PUSH1 0x1F DUP3 ADD AND DUP3 ADD DUP1 PUSH1 0x40 MSTORE POP DUP2 ADD SWAP1 PUSH2 0x1288 SWAP2 SWAP1 PUSH2 0x4A7C JUMP JUMPDEST SWAP6 SWAP5 POP POP POP POP POP JUMP JUMPDEST PUSH0 DUP1 DUP3 DUP1 TIMESTAMP GT ISZERO PUSH2 0x12BE JUMPI PUSH1 0x40 MLOAD PUSH4 0xDAE7CA7D PUSH1 0xE0 SHL DUP2 MSTORE PUSH1 0x4 DUP2 ADD DUP3 SWAP1 MSTORE TIMESTAMP PUSH1 0x24 DUP3 ADD MSTORE PUSH1 0x44 ADD PUSH2 0x5FB JUMP JUMPDEST PUSH0 PUSH2 0x12F0 DUP13 PUSH32 0x0 DUP14 PUSH2 0xFFFF AND PUSH1 0x3 PUSH2 0x3663 JUMP JUMPDEST SWAP1 POP PUSH0 DUP2 PUSH1 0x1 PUSH1 0x1 PUSH1 0xA0 SHL SUB AND PUSH4 0xDA10610C PUSH1 0x40 MLOAD DUP2 PUSH4 0xFFFFFFFF AND PUSH1 0xE0 SHL DUP2 MSTORE PUSH1 0x4 ADD PUSH1 0x20 PUSH1 0x40 MLOAD DUP1 DUP4 SUB DUP2 DUP7 GAS STATICCALL ISZERO DUP1 ISZERO PUSH2 0x132F JUMPI RETURNDATASIZE PUSH0 DUP1 RETURNDATACOPY RETURNDATASIZE PUSH0 REVERT JUMPDEST POP POP POP POP PUSH1 0x40 MLOAD RETURNDATASIZE PUSH1 0x1F NOT PUSH1 0x1F DUP3 ADD AND DUP3 ADD DUP1 PUSH1 0x40 MSTORE POP DUP2 ADD SWAP1 PUSH2 0x1353 SWAP2 SWAP1 PUSH2 0x4A7C JUMP JUMPDEST PUSH1 0x1 PUSH1 0x1 PUSH1 0xA0 SHL SUB AND PUSH32 0x0 PUSH1 0x1 PUSH1 0x1 PUSH1 0xA0 SHL SUB AND EQ SWAP1 POP DUP1 PUSH2 0x1392 JUMPI SWAP9 SWAP10 SWAP9 JUMPDEST PUSH0 DUP1 PUSH2 0x13A2 DUP5 DUP15 DUP15 DUP15 DUP15 ADDRESS PUSH2 0x384B JUMP JUMPDEST SWAP2 POP SWAP2 POP DUP3 PUSH2 0x13B2 JUMPI DUP1 DUP3 PUSH2 0x13B5 JUMP JUMPDEST DUP2 DUP2 JUMPDEST DUP1 SWAP8 POP DUP2 SWAP9 POP POP POP POP POP POP PUSH2 0x13CB DUP13 DUP8 DUP7 PUSH2 0x399D JUMP JUMPDEST PUSH2 0x13D5 DUP7 DUP5 PUSH2 0x2792 JUMP JUMPDEST POP POP SWAP9 POP SWAP9 SWAP7 POP POP POP POP POP POP POP JUMP JUMPDEST PUSH0 DUP1 DUP1 DUP1 PUSH1 0x60 DUP1 DUP3 PUSH2 0x1418 PUSH2 0x13FC PUSH1 0x20 DUP11 ADD DUP11 PUSH2 0x4A97 JUMP JUMPDEST PUSH2 0x140C PUSH1 0x40 DUP12 ADD PUSH1 0x20 DUP13 ADD PUSH2 0x4A97 JUMP JUMPDEST DUP11 PUSH1 0x40 ADD CALLDATALOAD PUSH1 0x3 PUSH2 0x3663 JUMP JUMPDEST SWAP1 POP DUP1 PUSH1 0x1 PUSH1 0x1 PUSH1 0xA0 SHL SUB AND PUSH4 0x5E8746D PUSH1 0x40 MLOAD DUP2 PUSH4 0xFFFFFFFF AND PUSH1 0xE0 SHL DUP2 MSTORE PUSH1 0x4 ADD PUSH1 0x20 PUSH1 0x40 MLOAD DUP1 DUP4 SUB DUP2 DUP7 GAS STATICCALL ISZERO DUP1 ISZERO PUSH2 0x1456 JUMPI RETURNDATASIZE PUSH0 DUP1 RETURNDATACOPY RETURNDATASIZE PUSH0 REVERT JUMPDEST POP POP POP POP PUSH1 0x40 MLOAD RETURNDATASIZE PUSH1 0x1F NOT PUSH1 0x1F DUP3 ADD AND DUP3 ADD DUP1 PUSH1 0x40 MSTORE POP DUP2 ADD SWAP1 PUSH2 0x147A SWAP2 SWAP1 PUSH2 0x4A7C JUMP JUMPDEST PUSH1 0x1 PUSH1 0x1 PUSH1 0xA0 SHL SUB AND PUSH2 0x1490 PUSH1 0x20 DUP11 ADD DUP11 PUSH2 0x4A97 JUMP JUMPDEST PUSH1 0x1 PUSH1 0x1 PUSH1 0xA0 SHL SUB AND EQ PUSH2 0x14B7 JUMPI PUSH1 0x40 MLOAD PUSH4 0xB33F8AB9 PUSH1 0xE0 SHL DUP2 MSTORE PUSH1 0x4 ADD PUSH1 0x40 MLOAD DUP1 SWAP2 SUB SWAP1 REVERT JUMPDEST PUSH1 0x1 PUSH1 0x1 PUSH1 0xA0 SHL SUB PUSH32 0x0 AND PUSH2 0x14EE PUSH1 0x20 DUP11 ADD DUP11 PUSH2 0x4A97 JUMP JUMPDEST PUSH1 0x1 PUSH1 0x1 PUSH1 0xA0 SHL SUB AND EQ DUP1 ISZERO PUSH2 0x1507 JUMPI POP CALLVALUE DUP9 PUSH1 0x60 ADD CALLDATALOAD EQ JUMPDEST ISZERO PUSH2 0x153A JUMPI PUSH2 0x152B PUSH2 0x151F PUSH1 0x40 DUP11 ADD PUSH1 0x20 DUP12 ADD PUSH2 0x4A97 JUMP JUMPDEST CALLER DUP4 DUP12 PUSH1 0x80 ADD CALLDATALOAD PUSH2 0x2262 JUMP JUMPDEST PUSH2 0x1535 DUP2 CALLVALUE PUSH2 0x2CB0 JUMP JUMPDEST PUSH2 0x1611 JUMP JUMPDEST PUSH1 0x1 PUSH1 0x1 PUSH1 0xA0 SHL SUB PUSH32 0x0 AND PUSH2 0x1574 PUSH1 0x40 DUP11 ADD PUSH1 0x20 DUP12 ADD PUSH2 0x4A97 JUMP JUMPDEST PUSH1 0x1 PUSH1 0x1 PUSH1 0xA0 SHL SUB AND EQ DUP1 ISZERO PUSH2 0x158D JUMPI POP CALLVALUE DUP9 PUSH1 0x80 ADD CALLDATALOAD EQ JUMPDEST ISZERO PUSH2 0x15AE JUMPI PUSH2 0x152B PUSH2 0x15A2 PUSH1 0x20 DUP11 ADD DUP11 PUSH2 0x4A97 JUMP JUMPDEST CALLER DUP4 DUP12 PUSH1 0x60 ADD CALLDATALOAD PUSH2 0x2262 JUMP JUMPDEST PUSH2 0x15BB PUSH1 0x20 DUP10 ADD DUP10 PUSH2 0x4A97 JUMP JUMPDEST PUSH2 0x15CB PUSH1 0x40 DUP11 ADD PUSH1 0x20 DUP12 ADD PUSH2 0x4A97 JUMP JUMPDEST PUSH1 0x40 MLOAD PUSH4 0xD0A4F13B PUSH1 0xE0 SHL DUP2 MSTORE PUSH1 0x1 PUSH1 0x1 PUSH1 0xA0 SHL SUB SWAP3 DUP4 AND PUSH1 0x4 DUP3 ADD MSTORE SWAP2 AND PUSH1 0x24 DUP3 ADD MSTORE PUSH1 0x60 DUP10 ADD CALLDATALOAD PUSH1 0x44 DUP3 ADD MSTORE PUSH1 0x80 DUP10 ADD CALLDATALOAD PUSH1 0x64 DUP3 ADD MSTORE CALLVALUE PUSH1 0x84 DUP3 ADD MSTORE PUSH1 0xA4 ADD PUSH2 0x5FB JUMP JUMPDEST PUSH2 0x161B DUP9 DUP3 PUSH2 0x39BD JUMP JUMPDEST SWAP5 SWAP14 SWAP4 SWAP13 POP SWAP2 SWAP11 POP SWAP9 POP SWAP7 POP SWAP1 SWAP5 POP SWAP3 POP POP POP JUMP JUMPDEST PUSH1 0x60 DUP2 DUP1 TIMESTAMP GT ISZERO PUSH2 0x165D JUMPI PUSH1 0x40 MLOAD PUSH4 0xDAE7CA7D PUSH1 0xE0 SHL DUP2 MSTORE PUSH1 0x4 DUP2 ADD DUP3 SWAP1 MSTORE TIMESTAMP PUSH1 0x24 DUP3 ADD MSTORE PUSH1 0x44 ADD PUSH2 0x5FB JUMP JUMPDEST DUP5 MLOAD MLOAD DUP6 SWAP1 ISZERO DUP1 PUSH2 0x1675 JUMPI POP DUP1 MLOAD MLOAD PUSH1 0x20 DUP3 ADD MLOAD MLOAD EQ ISZERO JUMPDEST DUP1 PUSH2 0x1692 JUMPI POP PUSH1 0x40 DUP2 ADD MLOAD MLOAD DUP2 MLOAD MLOAD PUSH2 0x168F SWAP1 PUSH1 0x1 PUSH2 0x4A2B JUMP JUMPDEST EQ ISZERO JUMPDEST ISZERO PUSH2 0x16B0 JUMPI PUSH1 0x40 MLOAD PUSH4 0xB91B4D4D PUSH1 0xE0 SHL DUP2 MSTORE PUSH1 0x4 ADD PUSH1 0x40 MLOAD DUP1 SWAP2 SUB SWAP1 REVERT JUMPDEST PUSH0 PUSH2 0x16C7 DUP8 PUSH0 ADD MLOAD DUP9 PUSH1 0x20 ADD MLOAD DUP10 PUSH1 0x40 ADD MLOAD PUSH2 0x2156 JUMP JUMPDEST SWAP1 POP PUSH2 0x16DD DUP8 PUSH1 0x20 ADD MLOAD DUP3 DUP10 PUSH1 0x40 ADD MLOAD DUP13 PUSH2 0x2820 JUMP JUMPDEST SWAP4 POP DUP8 DUP5 PUSH0 DUP2 MLOAD DUP2 LT PUSH2 0x16F2 JUMPI PUSH2 0x16F2 PUSH2 0x4A3E JUMP JUMPDEST PUSH1 0x20 MUL PUSH1 0x20 ADD ADD MLOAD GT ISZERO PUSH2 0x1713 JUMPI DUP8 DUP5 PUSH0 DUP2 MLOAD DUP2 LT PUSH2 0xA19 JUMPI PUSH2 0xA19 PUSH2 0x4A3E JUMP JUMPDEST PUSH2 0x172C DUP8 PUSH1 0x40 ADD MLOAD PUSH0 DUP2 MLOAD DUP2 LT PUSH2 0xDB5 JUMPI PUSH2 0xDB5 PUSH2 0x4A3E JUMP JUMPDEST PUSH0 PUSH2 0x1742 DUP3 DUP10 PUSH1 0x20 ADD MLOAD DUP11 PUSH1 0x40 ADD MLOAD DUP9 DUP12 PUSH2 0x2D62 JUMP JUMPDEST SWAP1 POP DUP10 DUP2 LT ISZERO PUSH2 0x8BD JUMPI PUSH1 0x40 MLOAD PUSH4 0x13FAB003 PUSH1 0xE2 SHL DUP2 MSTORE PUSH1 0x4 DUP2 ADD DUP12 SWAP1 MSTORE PUSH1 0x24 DUP2 ADD DUP3 SWAP1 MSTORE PUSH1 0x44 ADD PUSH2 0x5FB JUMP JUMPDEST PUSH1 0x40 MLOAD PUSH4 0xABCD783 PUSH1 0xE4 SHL DUP2 MSTORE PUSH1 0x1 PUSH1 0x1 PUSH1 0x80 SHL SUB DUP4 AND PUSH1 0x4 DUP3 ADD MSTORE DUP2 ISZERO ISZERO PUSH1 0x24 DUP3 ADD MSTORE PUSH0 SWAP1 DUP2 SWAP1 DUP2 SWAP1 PUSH1 0x1 PUSH1 0x1 PUSH1 0xA0 SHL SUB DUP8 AND SWAP1 PUSH4 0xABCD7830 SWAP1 PUSH1 0x44 ADD JUMPDEST PUSH1 0x60 PUSH1 0x40 MLOAD DUP1 DUP4 SUB DUP2 DUP7 GAS STATICCALL ISZERO DUP1 ISZERO PUSH2 0x17C9 JUMPI RETURNDATASIZE PUSH0 DUP1 RETURNDATACOPY RETURNDATASIZE PUSH0 REVERT JUMPDEST POP POP POP POP PUSH1 0x40 MLOAD RETURNDATASIZE PUSH1 0x1F NOT PUSH1 0x1F DUP3 ADD AND DUP3 ADD DUP1 PUSH1 0x40 MSTORE POP DUP2 ADD SWAP1 PUSH2 0x17ED SWAP2 SWAP1 PUSH2 0x4AB2 JUMP JUMPDEST SWAP2 SWAP9 SWAP1 SWAP8 POP SWAP1 SWAP6 POP SWAP4 POP POP POP POP JUMP JUMPDEST PUSH0 DUP2 DUP1 TIMESTAMP GT ISZERO PUSH2 0x1828 JUMPI PUSH1 0x40 MLOAD PUSH4 0xDAE7CA7D PUSH1 0xE0 SHL DUP2 MSTORE PUSH1 0x4 DUP2 ADD DUP3 SWAP1 MSTORE TIMESTAMP PUSH1 0x24 DUP3 ADD MSTORE PUSH1 0x44 ADD PUSH2 0x5FB JUMP JUMPDEST DUP5 MLOAD MLOAD DUP6 SWAP1 ISZERO DUP1 PUSH2 0x1840 JUMPI POP DUP1 MLOAD MLOAD PUSH1 0x20 DUP3 ADD MLOAD MLOAD EQ ISZERO JUMPDEST DUP1 PUSH2 0x185D JUMPI POP PUSH1 0x40 DUP2 ADD MLOAD MLOAD DUP2 MLOAD MLOAD PUSH2 0x185A SWAP1 PUSH1 0x1 PUSH2 0x4A2B JUMP JUMPDEST EQ ISZERO JUMPDEST ISZERO PUSH2 0x187B JUMPI PUSH1 0x40 MLOAD PUSH4 0xB91B4D4D PUSH1 0xE0 SHL DUP2 MSTORE PUSH1 0x4 ADD PUSH1 0x40 MLOAD DUP1 SWAP2 SUB SWAP1 REVERT JUMPDEST PUSH32 0x0 PUSH1 0x1 PUSH1 0x1 PUSH1 0xA0 SHL SUB AND DUP7 PUSH1 0x40 ADD MLOAD DUP8 PUSH0 ADD MLOAD MLOAD DUP2 MLOAD DUP2 LT PUSH2 0x18BF JUMPI PUSH2 0x18BF PUSH2 0x4A3E JUMP JUMPDEST PUSH1 0x20 MUL PUSH1 0x20 ADD ADD MLOAD PUSH1 0x1 PUSH1 0x1 PUSH1 0xA0 SHL SUB AND EQ PUSH2 0x18ED JUMPI PUSH1 0x40 DUP7 ADD MLOAD DUP7 MLOAD MLOAD DUP2 MLOAD DUP2 LT PUSH2 0x6C9 JUMPI PUSH2 0x6C9 PUSH2 0x4A3E JUMP JUMPDEST PUSH0 PUSH2 0x1904 DUP8 PUSH0 ADD MLOAD DUP9 PUSH1 0x20 ADD MLOAD DUP10 PUSH1 0x40 ADD MLOAD PUSH2 0x2156 JUMP JUMPDEST SWAP1 POP PUSH2 0x191F DUP8 PUSH1 0x40 ADD MLOAD PUSH0 DUP2 MLOAD DUP2 LT PUSH2 0xBD0 JUMPI PUSH2 0xBD0 PUSH2 0x4A3E JUMP JUMPDEST PUSH2 0x1934 DUP10 DUP3 DUP10 PUSH1 0x20 ADD MLOAD DUP11 PUSH1 0x40 ADD MLOAD ADDRESS PUSH2 0x31D9 JUMP JUMPDEST SWAP4 POP DUP4 DUP9 GT ISZERO PUSH2 0x1961 JUMPI PUSH1 0x40 MLOAD PUSH4 0x13FAB003 PUSH1 0xE2 SHL DUP2 MSTORE PUSH1 0x4 DUP2 ADD DUP10 SWAP1 MSTORE PUSH1 0x24 DUP2 ADD DUP6 SWAP1 MSTORE PUSH1 0x44 ADD PUSH2 0x5FB JUMP JUMPDEST PUSH2 0xC3B DUP7 DUP6 PUSH2 0x2792 JUMP JUMPDEST PUSH1 0x40 MLOAD PUSH4 0x1CEE6CDF PUSH1 0xE3 SHL DUP2 MSTORE PUSH1 0x1 PUSH1 0x1 PUSH1 0x80 SHL SUB DUP4 AND PUSH1 0x4 DUP3 ADD MSTORE DUP2 ISZERO ISZERO PUSH1 0x24 DUP3 ADD MSTORE PUSH0 SWAP1 DUP2 SWAP1 DUP2 SWAP1 PUSH1 0x1 PUSH1 0x1 PUSH1 0xA0 SHL SUB DUP8 AND SWAP1 PUSH4 0xE77366F8 SWAP1 PUSH1 0x44 ADD PUSH2 0x17AE JUMP JUMPDEST PUSH0 DUP1 DUP1 DUP1 PUSH1 0x60 DUP1 DUP3 PUSH2 0x19C6 PUSH2 0x13FC PUSH1 0x20 DUP11 ADD DUP11 PUSH2 0x4A97 JUMP JUMPDEST SWAP1 POP DUP1 PUSH1 0x1 PUSH1 0x1 PUSH1 0xA0 SHL SUB AND PUSH4 0x5E8746D PUSH1 0x40 MLOAD DUP2 PUSH4 0xFFFFFFFF AND PUSH1 0xE0 SHL DUP2 MSTORE PUSH1 0x4 ADD PUSH1 0x20 PUSH1 0x40 MLOAD DUP1 DUP4 SUB DUP2 DUP7 GAS STATICCALL ISZERO DUP1 ISZERO PUSH2 0x1A04 JUMPI RETURNDATASIZE PUSH0 DUP1 RETURNDATACOPY RETURNDATASIZE PUSH0 REVERT JUMPDEST POP POP POP POP PUSH1 0x40 MLOAD RETURNDATASIZE PUSH1 0x1F NOT PUSH1 0x1F DUP3 ADD AND DUP3 ADD DUP1 PUSH1 0x40 MSTORE POP DUP2 ADD SWAP1 PUSH2 0x1A28 SWAP2 SWAP1 PUSH2 0x4A7C JUMP JUMPDEST PUSH1 0x1 PUSH1 0x1 PUSH1 0xA0 SHL SUB AND PUSH2 0x1A3E PUSH1 0x20 DUP11 ADD DUP11 PUSH2 0x4A97 JUMP JUMPDEST PUSH1 0x1 PUSH1 0x1 PUSH1 0xA0 SHL SUB AND EQ PUSH2 0x1A65 JUMPI PUSH1 0x40 MLOAD PUSH4 0xB33F8AB9 PUSH1 0xE0 SHL DUP2 MSTORE PUSH1 0x4 ADD PUSH1 0x40 MLOAD DUP1 SWAP2 SUB SWAP1 REVERT JUMPDEST PUSH2 0x1A75 PUSH2 0x15A2 PUSH1 0x20 DUP11 ADD DUP11 PUSH2 0x4A97 JUMP JUMPDEST PUSH2 0x1611 PUSH2 0x151F PUSH1 0x40 DUP11 ADD PUSH1 0x20 DUP12 ADD PUSH2 0x4A97 JUMP JUMPDEST PUSH0 DUP2 DUP1 TIMESTAMP GT ISZERO PUSH2 0x1AB4 JUMPI PUSH1 0x40 MLOAD PUSH4 0xDAE7CA7D PUSH1 0xE0 SHL DUP2 MSTORE PUSH1 0x4 DUP2 ADD DUP3 SWAP1 MSTORE TIMESTAMP PUSH1 0x24 DUP3 ADD MSTORE PUSH1 0x44 ADD PUSH2 0x5FB JUMP JUMPDEST DUP5 MLOAD MLOAD DUP6 SWAP1 ISZERO DUP1 PUSH2 0x1ACC JUMPI POP DUP1 MLOAD MLOAD PUSH1 0x20 DUP3 ADD MLOAD MLOAD EQ ISZERO JUMPDEST DUP1 PUSH2 0x1AE9 JUMPI POP PUSH1 0x40 DUP2 ADD MLOAD MLOAD DUP2 MLOAD MLOAD PUSH2 0x1AE6 SWAP1 PUSH1 0x1 PUSH2 0x4A2B JUMP JUMPDEST EQ ISZERO JUMPDEST ISZERO PUSH2 0x1B07 JUMPI PUSH1 0x40 MLOAD PUSH4 0xB91B4D4D PUSH1 0xE0 SHL DUP2 MSTORE PUSH1 0x4 ADD PUSH1 0x40 MLOAD DUP1 SWAP2 SUB SWAP1 REVERT JUMPDEST PUSH32 0x0 PUSH1 0x1 PUSH1 0x1 PUSH1 0xA0 SHL SUB AND DUP7 PUSH1 0x40 ADD MLOAD PUSH0 DUP2 MLOAD DUP2 LT PUSH2 0x1B47 JUMPI PUSH2 0x1B47 PUSH2 0x4A3E JUMP JUMPDEST PUSH1 0x20 MUL PUSH1 0x20 ADD ADD MLOAD PUSH1 0x1 PUSH1 0x1 PUSH1 0xA0 SHL SUB AND EQ PUSH2 0x1B73 JUMPI DUP6 PUSH1 0x40 ADD MLOAD PUSH0 DUP2 MLOAD DUP2 LT PUSH2 0x6C9 JUMPI PUSH2 0x6C9 PUSH2 0x4A3E JUMP JUMPDEST PUSH0 PUSH2 0x1B8A DUP8 PUSH0 ADD MLOAD DUP9 PUSH1 0x20 ADD MLOAD DUP10 PUSH1 0x40 ADD MLOAD PUSH2 0x2156 JUMP JUMPDEST SWAP1 POP PUSH2 0x1BAF DUP2 PUSH0 DUP2 MLOAD DUP2 LT PUSH2 0x1BA1 JUMPI PUSH2 0x1BA1 PUSH2 0x4A3E JUMP JUMPDEST PUSH1 0x20 MUL PUSH1 0x20 ADD ADD MLOAD CALLVALUE PUSH2 0x2CB0 JUMP JUMPDEST PUSH2 0x1BC4 CALLVALUE DUP3 DUP10 PUSH1 0x20 ADD MLOAD DUP11 PUSH1 0x40 ADD MLOAD DUP11 PUSH2 0x31D9 JUMP JUMPDEST SWAP4 POP DUP4 DUP9 GT ISZERO PUSH2 0x1BF1 JUMPI PUSH1 0x40 MLOAD PUSH4 0x13FAB003 PUSH1 0xE2 SHL DUP2 MSTORE PUSH1 0x4 DUP2 ADD DUP10 SWAP1 MSTORE PUSH1 0x24 DUP2 ADD DUP6 SWAP1 MSTORE PUSH1 0x44 ADD PUSH2 0x5FB JUMP JUMPDEST POP POP POP SWAP5 SWAP4 POP POP POP POP JUMP JUMPDEST PUSH0 DUP1 DUP3 DUP1 TIMESTAMP GT ISZERO PUSH2 0x1C29 JUMPI PUSH1 0x40 MLOAD PUSH4 0xDAE7CA7D PUSH1 0xE0 SHL DUP2 MSTORE PUSH1 0x4 DUP2 ADD DUP3 SWAP1 MSTORE TIMESTAMP PUSH1 0x24 DUP3 ADD MSTORE PUSH1 0x44 ADD PUSH2 0x5FB JUMP JUMPDEST PUSH0 PUSH2 0x1C3B DUP14 DUP14 DUP14 PUSH2 0xFFFF AND PUSH1 0x3 PUSH2 0x3663 JUMP JUMPDEST SWAP1 POP PUSH0 DUP2 PUSH1 0x1 PUSH1 0x1 PUSH1 0xA0 SHL SUB AND PUSH4 0x5E8746D PUSH1 0x40 MLOAD DUP2 PUSH4 0xFFFFFFFF AND PUSH1 0xE0 SHL DUP2 MSTORE PUSH1 0x4 ADD PUSH1 0x20 PUSH1 0x40 MLOAD DUP1 DUP4 SUB DUP2 DUP7 GAS STATICCALL ISZERO DUP1 ISZERO PUSH2 0x1C7A JUMPI RETURNDATASIZE PUSH0 DUP1 RETURNDATACOPY RETURNDATASIZE PUSH0 REVERT JUMPDEST POP POP POP POP PUSH1 0x40 MLOAD RETURNDATASIZE PUSH1 0x1F NOT PUSH1 0x1F DUP3 ADD AND DUP3 ADD DUP1 PUSH1 0x40 MSTORE POP DUP2 ADD SWAP1 PUSH2 0x1C9E SWAP2 SWAP1 PUSH2 0x4A7C JUMP JUMPDEST PUSH1 0x1 PUSH1 0x1 PUSH1 0xA0 SHL SUB AND DUP15 PUSH1 0x1 PUSH1 0x1 PUSH1 0xA0 SHL SUB AND EQ ISZERO SWAP1 POP DUP1 ISZERO PUSH2 0x1CBF JUMPI SWAP9 SWAP10 SWAP9 JUMPDEST PUSH2 0x1CCD DUP3 DUP13 DUP13 DUP13 DUP13 DUP13 PUSH2 0x384B JUMP JUMPDEST SWAP1 SWAP6 POP SWAP4 POP DUP1 ISZERO PUSH2 0x1CDC JUMPI SWAP3 SWAP4 SWAP3 JUMPDEST POP POP POP SWAP10 POP SWAP10 SWAP8 POP POP POP POP POP POP POP POP JUMP JUMPDEST PUSH1 0x40 MLOAD PUSH4 0x4C7CFFBD PUSH1 0xE0 SHL DUP2 MSTORE PUSH3 0xFFFFFF DUP3 AND PUSH1 0x4 DUP3 ADD MSTORE PUSH0 SWAP1 PUSH1 0x1 PUSH1 0x1 PUSH1 0xA0 SHL SUB DUP5 AND SWAP1 PUSH4 0x4C7CFFBD SWAP1 PUSH1 0x24 ADD PUSH1 0x20 PUSH1 0x40 MLOAD DUP1 DUP4 SUB DUP2 DUP7 GAS STATICCALL ISZERO DUP1 ISZERO PUSH2 0x1D36 JUMPI RETURNDATASIZE PUSH0 DUP1 RETURNDATACOPY RETURNDATASIZE PUSH0 REVERT JUMPDEST POP POP POP POP PUSH1 0x40 MLOAD RETURNDATASIZE PUSH1 0x1F NOT PUSH1 0x1F DUP3 ADD AND DUP3 ADD DUP1 PUSH1 0x40 MSTORE POP DUP2 ADD SWAP1 PUSH2 0x1D5A SWAP2 SWAP1 PUSH2 0x4A52 JUMP JUMPDEST SWAP1 POP JUMPDEST SWAP3 SWAP2 POP POP JUMP JUMPDEST PUSH0 DUP2 DUP1 TIMESTAMP GT ISZERO PUSH2 0x1D8F JUMPI PUSH1 0x40 MLOAD PUSH4 0xDAE7CA7D PUSH1 0xE0 SHL DUP2 MSTORE PUSH1 0x4 DUP2 ADD DUP3 SWAP1 MSTORE TIMESTAMP PUSH1 0x24 DUP3 ADD MSTORE PUSH1 0x44 ADD PUSH2 0x5FB JUMP JUMPDEST DUP5 MLOAD MLOAD DUP6 SWAP1 ISZERO DUP1 PUSH2 0x1DA7 JUMPI POP DUP1 MLOAD MLOAD PUSH1 0x20 DUP3 ADD MLOAD MLOAD EQ ISZERO JUMPDEST DUP1 PUSH2 0x1DC4 JUMPI POP PUSH1 0x40 DUP2 ADD MLOAD MLOAD DUP2 MLOAD MLOAD PUSH2 0x1DC1 SWAP1 PUSH1 0x1 PUSH2 0x4A2B JUMP JUMPDEST EQ ISZERO JUMPDEST ISZERO PUSH2 0x1DE2 JUMPI PUSH1 0x40 MLOAD PUSH4 0xB91B4D4D PUSH1 0xE0 SHL DUP2 MSTORE PUSH1 0x4 ADD PUSH1 0x40 MLOAD DUP1 SWAP2 SUB SWAP1 REVERT JUMPDEST PUSH32 0x0 PUSH1 0x1 PUSH1 0x1 PUSH1 0xA0 SHL SUB AND DUP7 PUSH1 0x40 ADD MLOAD PUSH0 DUP2 MLOAD DUP2 LT PUSH2 0x1E22 JUMPI PUSH2 0x1E22 PUSH2 0x4A3E JUMP JUMPDEST PUSH1 0x20 MUL PUSH1 0x20 ADD ADD MLOAD PUSH1 0x1 PUSH1 0x1 PUSH1 0xA0 SHL SUB AND EQ PUSH2 0x1E4E JUMPI DUP6 PUSH1 0x40 ADD MLOAD PUSH0 DUP2 MLOAD DUP2 LT PUSH2 0x6C9 JUMPI PUSH2 0x6C9 PUSH2 0x4A3E JUMP JUMPDEST PUSH0 PUSH2 0x1E65 DUP8 PUSH0 ADD MLOAD DUP9 PUSH1 0x20 ADD MLOAD DUP10 PUSH1 0x40 ADD MLOAD PUSH2 0x2156 JUMP JUMPDEST SWAP1 POP PUSH0 DUP8 PUSH1 0x40 ADD MLOAD DUP3 MLOAD DUP2 MLOAD DUP2 LT PUSH2 0x1E7F JUMPI PUSH2 0x1E7F PUSH2 0x4A3E JUMP JUMPDEST PUSH1 0x20 SWAP1 DUP2 MUL SWAP2 SWAP1 SWAP2 ADD ADD MLOAD PUSH1 0x40 MLOAD PUSH4 0x70A08231 PUSH1 0xE0 SHL DUP2 MSTORE PUSH1 0x1 PUSH1 0x1 PUSH1 0xA0 SHL SUB DUP10 DUP2 AND PUSH1 0x4 DUP4 ADD MSTORE SWAP2 SWAP3 POP PUSH0 SWAP2 DUP4 AND SWAP1 PUSH4 0x70A08231 SWAP1 PUSH1 0x24 ADD PUSH1 0x20 PUSH1 0x40 MLOAD DUP1 DUP4 SUB DUP2 DUP7 GAS STATICCALL ISZERO DUP1 ISZERO PUSH2 0x1ED3 JUMPI RETURNDATASIZE PUSH0 DUP1 RETURNDATACOPY RETURNDATASIZE PUSH0 REVERT JUMPDEST POP POP POP POP PUSH1 0x40 MLOAD RETURNDATASIZE PUSH1 0x1F NOT PUSH1 0x1F DUP3 ADD AND DUP3 ADD DUP1 PUSH1 0x40 MSTORE POP DUP2 ADD SWAP1 PUSH2 0x1EF7 SWAP2 SWAP1 PUSH2 0x4A52 JUMP JUMPDEST SWAP1 POP PUSH2 0x1F0E DUP4 PUSH0 DUP2 MLOAD DUP2 LT PUSH2 0x1BA1 JUMPI PUSH2 0x1BA1 PUSH2 0x4A3E JUMP JUMPDEST PUSH2 0x1F22 DUP4 DUP11 PUSH1 0x20 ADD MLOAD DUP12 PUSH1 0x40 ADD MLOAD DUP12 PUSH2 0x2283 JUMP JUMPDEST PUSH1 0x40 MLOAD PUSH4 0x70A08231 PUSH1 0xE0 SHL DUP2 MSTORE PUSH1 0x1 PUSH1 0x1 PUSH1 0xA0 SHL SUB DUP10 DUP2 AND PUSH1 0x4 DUP4 ADD MSTORE DUP3 SWAP2 SWAP1 DUP5 AND SWAP1 PUSH4 0x70A08231 SWAP1 PUSH1 0x24 ADD PUSH1 0x20 PUSH1 0x40 MLOAD DUP1 DUP4 SUB DUP2 DUP7 GAS STATICCALL ISZERO DUP1 ISZERO PUSH2 0x1F69 JUMPI RETURNDATASIZE PUSH0 DUP1 RETURNDATACOPY RETURNDATASIZE PUSH0 REVERT JUMPDEST POP POP POP POP PUSH1 0x40 MLOAD RETURNDATASIZE PUSH1 0x1F NOT PUSH1 0x1F DUP3 ADD AND DUP3 ADD DUP1 PUSH1 0x40 MSTORE POP DUP2 ADD SWAP1 PUSH2 0x1F8D SWAP2 SWAP1 PUSH2 0x4A52 JUMP JUMPDEST PUSH2 0x1F97 SWAP2 SWAP1 PUSH2 0x4A69 JUMP JUMPDEST SWAP6 POP DUP6 DUP11 GT ISZERO PUSH2 0x1FC4 JUMPI PUSH1 0x40 MLOAD PUSH4 0x13FAB003 PUSH1 0xE2 SHL DUP2 MSTORE PUSH1 0x4 DUP2 ADD DUP12 SWAP1 MSTORE PUSH1 0x24 DUP2 ADD DUP8 SWAP1 MSTORE PUSH1 0x44 ADD PUSH2 0x5FB JUMP JUMPDEST POP POP POP POP POP SWAP5 SWAP4 POP POP POP POP JUMP JUMPDEST PUSH32 0x0 PUSH1 0x1 PUSH1 0x1 PUSH1 0xA0 SHL SUB AND PUSH4 0x8DA5CB5B PUSH1 0x40 MLOAD DUP2 PUSH4 0xFFFFFFFF AND PUSH1 0xE0 SHL DUP2 MSTORE PUSH1 0x4 ADD PUSH1 0x20 PUSH1 0x40 MLOAD DUP1 DUP4 SUB DUP2 DUP7 GAS STATICCALL ISZERO DUP1 ISZERO PUSH2 0x202D JUMPI RETURNDATASIZE PUSH0 DUP1 RETURNDATACOPY RETURNDATASIZE PUSH0 REVERT JUMPDEST POP POP POP POP PUSH1 0x40 MLOAD RETURNDATASIZE PUSH1 0x1F NOT PUSH1 0x1F DUP3 ADD AND DUP3 ADD DUP1 PUSH1 0x40 MSTORE POP DUP2 ADD SWAP1 PUSH2 0x2051 SWAP2 SWAP1 PUSH2 0x4A7C JUMP JUMPDEST PUSH1 0x1 PUSH1 0x1 PUSH1 0xA0 SHL SUB AND CALLER PUSH1 0x1 PUSH1 0x1 PUSH1 0xA0 SHL SUB AND EQ PUSH2 0x2082 JUMPI PUSH1 0x40 MLOAD PUSH4 0x5D9515B9 PUSH1 0xE1 SHL DUP2 MSTORE PUSH1 0x4 ADD PUSH1 0x40 MLOAD DUP1 SWAP2 SUB SWAP1 REVERT JUMPDEST PUSH1 0x40 MLOAD PUSH4 0x5FEB5FF PUSH1 0xE2 SHL DUP2 MSTORE PUSH1 0x1 PUSH1 0x1 PUSH1 0xA0 SHL SUB DUP8 AND SWAP1 PUSH4 0x17FAD7FC SWAP1 PUSH2 0x20B8 SWAP1 ADDRESS SWAP1 DUP10 SWAP1 DUP10 SWAP1 DUP10 SWAP1 DUP10 SWAP1 DUP10 SWAP1 PUSH1 0x4 ADD PUSH2 0x4B21 JUMP JUMPDEST PUSH0 PUSH1 0x40 MLOAD DUP1 DUP4 SUB DUP2 PUSH0 DUP8 DUP1 EXTCODESIZE ISZERO DUP1 ISZERO PUSH2 0x20CF JUMPI PUSH0 DUP1 REVERT JUMPDEST POP GAS CALL ISZERO DUP1 ISZERO PUSH2 0x20E1 JUMPI RETURNDATASIZE PUSH0 DUP1 RETURNDATACOPY RETURNDATASIZE PUSH0 REVERT JUMPDEST POP POP POP POP POP POP POP POP POP POP JUMP JUMPDEST PUSH1 0x40 MLOAD PUSH4 0xF5E29329 PUSH1 0xE0 SHL DUP2 MSTORE PUSH1 0x4 DUP2 ADD DUP3 SWAP1 MSTORE PUSH0 SWAP1 PUSH1 0x1 PUSH1 0x1 PUSH1 0xA0 SHL SUB DUP5 AND SWAP1 PUSH4 0xF5E29329 SWAP1 PUSH1 0x24 ADD PUSH1 0x20 PUSH1 0x40 MLOAD DUP1 DUP4 SUB DUP2 DUP7 GAS STATICCALL ISZERO DUP1 ISZERO PUSH2 0x2132 JUMPI RETURNDATASIZE PUSH0 DUP1 RETURNDATACOPY RETURNDATASIZE PUSH0 REVERT JUMPDEST POP POP POP POP PUSH1 0x40 MLOAD RETURNDATASIZE PUSH1 0x1F NOT PUSH1 0x1F DUP3 ADD AND DUP3 ADD DUP1 PUSH1 0x40 MSTORE POP DUP2 ADD SWAP1 PUSH2 0x1D5A SWAP2 SWAP1 PUSH2 0x4B60 JUMP JUMPDEST PUSH1 0x60 DUP4 MLOAD PUSH1 0x1 PUSH1 0x1 PUSH1 0x40 SHL SUB DUP2 GT ISZERO PUSH2 0x2171 JUMPI PUSH2 0x2171 PUSH2 0x4204 JUMP JUMPDEST PUSH1 0x40 MLOAD SWAP1 DUP1 DUP3 MSTORE DUP1 PUSH1 0x20 MUL PUSH1 0x20 ADD DUP3 ADD PUSH1 0x40 MSTORE DUP1 ISZERO PUSH2 0x219A JUMPI DUP2 PUSH1 0x20 ADD PUSH1 0x20 DUP3 MUL DUP1 CALLDATASIZE DUP4 CALLDATACOPY ADD SWAP1 POP JUMPDEST POP SWAP1 POP PUSH0 DUP1 DUP4 PUSH0 DUP2 MLOAD DUP2 LT PUSH2 0x21B1 JUMPI PUSH2 0x21B1 PUSH2 0x4A3E JUMP JUMPDEST PUSH1 0x20 MUL PUSH1 0x20 ADD ADD MLOAD SWAP1 POP PUSH0 JUMPDEST DUP4 MLOAD DUP2 LT ISZERO PUSH2 0x2258 JUMPI DUP2 SWAP3 POP DUP5 DUP2 PUSH1 0x1 ADD DUP2 MLOAD DUP2 LT PUSH2 0x21DE JUMPI PUSH2 0x21DE PUSH2 0x4A3E JUMP JUMPDEST PUSH1 0x20 MUL PUSH1 0x20 ADD ADD MLOAD SWAP2 POP PUSH2 0x2226 DUP4 DUP4 DUP10 DUP5 DUP2 MLOAD DUP2 LT PUSH2 0x21FF JUMPI PUSH2 0x21FF PUSH2 0x4A3E JUMP JUMPDEST PUSH1 0x20 MUL PUSH1 0x20 ADD ADD MLOAD DUP10 DUP6 DUP2 MLOAD DUP2 LT PUSH2 0x2219 JUMPI PUSH2 0x2219 PUSH2 0x4A3E JUMP JUMPDEST PUSH1 0x20 MUL PUSH1 0x20 ADD ADD MLOAD PUSH2 0x3EB3 JUMP JUMPDEST DUP5 DUP3 DUP2 MLOAD DUP2 LT PUSH2 0x2238 JUMPI PUSH2 0x2238 PUSH2 0x4A3E JUMP JUMPDEST PUSH1 0x1 PUSH1 0x1 PUSH1 0xA0 SHL SUB SWAP1 SWAP3 AND PUSH1 0x20 SWAP3 DUP4 MUL SWAP2 SWAP1 SWAP2 ADD SWAP1 SWAP2 ADD MSTORE PUSH1 0x1 ADD PUSH2 0x21BD JUMP JUMPDEST POP POP POP SWAP4 SWAP3 POP POP POP JUMP JUMPDEST DUP1 ISZERO PUSH2 0x227D JUMPI PUSH2 0x227D PUSH1 0x1 PUSH1 0x1 PUSH1 0xA0 SHL SUB DUP6 AND DUP5 DUP5 DUP5 PUSH2 0x3F9C JUMP JUMPDEST POP POP POP POP JUMP JUMPDEST PUSH0 DUP1 PUSH0 DUP1 PUSH0 DUP7 PUSH0 DUP2 MLOAD DUP2 LT PUSH2 0x229A JUMPI PUSH2 0x229A PUSH2 0x4A3E JUMP JUMPDEST PUSH1 0x20 MUL PUSH1 0x20 ADD ADD MLOAD SWAP1 POP PUSH0 JUMPDEST DUP10 MLOAD DUP2 LT ISZERO PUSH2 0x20E1 JUMPI DUP10 DUP2 DUP2 MLOAD DUP2 LT PUSH2 0x22C1 JUMPI PUSH2 0x22C1 PUSH2 0x4A3E JUMP JUMPDEST PUSH1 0x20 MUL PUSH1 0x20 ADD ADD MLOAD SWAP3 POP DUP9 DUP2 DUP2 MLOAD DUP2 LT PUSH2 0x22DD JUMPI PUSH2 0x22DD PUSH2 0x4A3E JUMP JUMPDEST PUSH1 0x20 MUL PUSH1 0x20 ADD ADD MLOAD SWAP5 POP DUP2 SWAP6 POP DUP8 DUP2 PUSH1 0x1 ADD DUP2 MLOAD DUP2 LT PUSH2 0x22FF JUMPI PUSH2 0x22FF PUSH2 0x4A3E JUMP JUMPDEST PUSH1 0x20 MUL PUSH1 0x20 ADD ADD MLOAD SWAP2 POP DUP10 MLOAD DUP2 PUSH1 0x1 ADD EQ PUSH2 0x2336 JUMPI DUP10 DUP2 PUSH1 0x1 ADD DUP2 MLOAD DUP2 LT PUSH2 0x2329 JUMPI PUSH2 0x2329 PUSH2 0x4A3E JUMP JUMPDEST PUSH1 0x20 MUL PUSH1 0x20 ADD ADD MLOAD PUSH2 0x2338 JUMP JUMPDEST DUP7 JUMPDEST SWAP4 POP PUSH0 DUP6 PUSH1 0x3 DUP2 GT ISZERO PUSH2 0x234D JUMPI PUSH2 0x234D PUSH2 0x4B7B JUMP JUMPDEST SUB PUSH2 0x25AC JUMPI PUSH0 DUP1 DUP5 PUSH1 0x1 PUSH1 0x1 PUSH1 0xA0 SHL SUB AND PUSH4 0x902F1AC PUSH1 0x40 MLOAD DUP2 PUSH4 0xFFFFFFFF AND PUSH1 0xE0 SHL DUP2 MSTORE PUSH1 0x4 ADD PUSH1 0x60 PUSH1 0x40 MLOAD DUP1 DUP4 SUB DUP2 DUP7 GAS STATICCALL ISZERO DUP1 ISZERO PUSH2 0x2390 JUMPI RETURNDATASIZE PUSH0 DUP1 RETURNDATACOPY RETURNDATASIZE PUSH0 REVERT JUMPDEST POP POP POP POP PUSH1 0x40 MLOAD RETURNDATASIZE PUSH1 0x1F NOT PUSH1 0x1F DUP3 ADD AND DUP3 ADD DUP1 PUSH1 0x40 MSTORE POP DUP2 ADD SWAP1 PUSH2 0x23B4 SWAP2 SWAP1 PUSH2 0x4BA5 JUMP JUMPDEST POP PUSH1 0x1 PUSH1 0x1 PUSH1 0x70 SHL SUB AND SWAP2 POP PUSH1 0x1 PUSH1 0x1 PUSH1 0x70 SHL SUB AND SWAP2 POP DUP4 PUSH1 0x1 PUSH1 0x1 PUSH1 0xA0 SHL SUB AND DUP9 PUSH1 0x1 PUSH1 0x1 PUSH1 0xA0 SHL SUB AND LT ISZERO PUSH2 0x24C7 JUMPI PUSH1 0x40 MLOAD PUSH4 0x70A08231 PUSH1 0xE0 SHL DUP2 MSTORE PUSH1 0x1 PUSH1 0x1 PUSH1 0xA0 SHL SUB DUP7 DUP2 AND PUSH1 0x4 DUP4 ADD MSTORE PUSH0 SWAP2 DUP5 SWAP2 DUP12 AND SWAP1 PUSH4 0x70A08231 SWAP1 PUSH1 0x24 ADD PUSH1 0x20 PUSH1 0x40 MLOAD DUP1 DUP4 SUB DUP2 DUP7 GAS STATICCALL ISZERO DUP1 ISZERO PUSH2 0x242D JUMPI RETURNDATASIZE PUSH0 DUP1 RETURNDATACOPY RETURNDATASIZE PUSH0 REVERT JUMPDEST POP POP POP POP PUSH1 0x40 MLOAD RETURNDATASIZE PUSH1 0x1F NOT PUSH1 0x1F DUP3 ADD AND DUP3 ADD DUP1 PUSH1 0x40 MSTORE POP DUP2 ADD SWAP1 PUSH2 0x2451 SWAP2 SWAP1 PUSH2 0x4A52 JUMP JUMPDEST SUB SWAP1 POP PUSH0 PUSH2 0x2460 DUP3 DUP6 DUP6 PUSH2 0x3FFF JUMP JUMPDEST PUSH1 0x40 MLOAD PUSH4 0x22C0D9F PUSH1 0xE0 SHL DUP2 MSTORE SWAP1 SWAP2 POP PUSH1 0x1 PUSH1 0x1 PUSH1 0xA0 SHL SUB DUP9 AND SWAP1 PUSH4 0x22C0D9F SWAP1 PUSH2 0x2493 SWAP1 PUSH0 SWAP1 DUP6 SWAP1 DUP14 SWAP1 PUSH1 0x4 ADD PUSH2 0x4BE6 JUMP JUMPDEST PUSH0 PUSH1 0x40 MLOAD DUP1 DUP4 SUB DUP2 PUSH0 DUP8 DUP1 EXTCODESIZE ISZERO DUP1 ISZERO PUSH2 0x24AA JUMPI PUSH0 DUP1 REVERT JUMPDEST POP GAS CALL ISZERO DUP1 ISZERO PUSH2 0x24BC JUMPI RETURNDATASIZE PUSH0 DUP1 RETURNDATACOPY RETURNDATASIZE PUSH0 REVERT JUMPDEST POP POP POP POP POP POP PUSH2 0x25A5 JUMP JUMPDEST PUSH1 0x40 MLOAD PUSH4 0x70A08231 PUSH1 0xE0 SHL DUP2 MSTORE PUSH1 0x1 PUSH1 0x1 PUSH1 0xA0 SHL SUB DUP7 DUP2 AND PUSH1 0x4 DUP4 ADD MSTORE PUSH0 SWAP2 DUP4 SWAP2 DUP12 AND SWAP1 PUSH4 0x70A08231 SWAP1 PUSH1 0x24 ADD PUSH1 0x20 PUSH1 0x40 MLOAD DUP1 DUP4 SUB DUP2 DUP7 GAS STATICCALL ISZERO DUP1 ISZERO PUSH2 0x250F JUMPI RETURNDATASIZE PUSH0 DUP1 RETURNDATACOPY RETURNDATASIZE PUSH0 REVERT JUMPDEST POP POP POP POP PUSH1 0x40 MLOAD RETURNDATASIZE PUSH1 0x1F NOT PUSH1 0x1F DUP3 ADD AND DUP3 ADD DUP1 PUSH1 0x40 MSTORE POP DUP2 ADD SWAP1 PUSH2 0x2533 SWAP2 SWAP1 PUSH2 0x4A52 JUMP JUMPDEST SUB SWAP1 POP PUSH0 PUSH2 0x2542 DUP3 DUP5 DUP7 PUSH2 0x3FFF JUMP JUMPDEST PUSH1 0x40 MLOAD PUSH4 0x22C0D9F PUSH1 0xE0 SHL DUP2 MSTORE SWAP1 SWAP2 POP PUSH1 0x1 PUSH1 0x1 PUSH1 0xA0 SHL SUB DUP9 AND SWAP1 PUSH4 0x22C0D9F SWAP1 PUSH2 0x2575 SWAP1 DUP5 SWAP1 PUSH0 SWAP1 DUP14 SWAP1 PUSH1 0x4 ADD PUSH2 0x4BE6 JUMP JUMPDEST PUSH0 PUSH1 0x40 MLOAD DUP1 DUP4 SUB DUP2 PUSH0 DUP8 DUP1 EXTCODESIZE ISZERO DUP1 ISZERO PUSH2 0x258C JUMPI PUSH0 DUP1 REVERT JUMPDEST POP GAS CALL ISZERO DUP1 ISZERO PUSH2 0x259E JUMPI RETURNDATASIZE PUSH0 DUP1 RETURNDATACOPY RETURNDATASIZE PUSH0 REVERT JUMPDEST POP POP POP POP POP POP JUMPDEST POP POP PUSH2 0x278A JUMP JUMPDEST PUSH1 0x1 DUP6 PUSH1 0x3 DUP2 GT ISZERO PUSH2 0x25C0 JUMPI PUSH2 0x25C0 PUSH2 0x4B7B JUMP JUMPDEST SUB PUSH2 0x26A6 JUMPI DUP3 PUSH1 0x1 PUSH1 0x1 PUSH1 0xA0 SHL SUB AND PUSH4 0x53C059A0 DUP5 PUSH1 0x1 PUSH1 0x1 PUSH1 0xA0 SHL SUB AND PUSH4 0xB7D19FC4 PUSH1 0x40 MLOAD DUP2 PUSH4 0xFFFFFFFF AND PUSH1 0xE0 SHL DUP2 MSTORE PUSH1 0x4 ADD PUSH1 0x20 PUSH1 0x40 MLOAD DUP1 DUP4 SUB DUP2 DUP7 GAS STATICCALL ISZERO DUP1 ISZERO PUSH2 0x2610 JUMPI RETURNDATASIZE PUSH0 DUP1 RETURNDATACOPY RETURNDATASIZE PUSH0 REVERT JUMPDEST POP POP POP POP PUSH1 0x40 MLOAD RETURNDATASIZE PUSH1 0x1F NOT PUSH1 0x1F DUP3 ADD AND DUP3 ADD DUP1 PUSH1 0x40 MSTORE POP DUP2 ADD SWAP1 PUSH2 0x2634 SWAP2 SWAP1 PUSH2 0x4A7C JUMP JUMPDEST PUSH1 0x40 MLOAD PUSH1 0xE0 DUP4 SWAP1 SHL PUSH1 0x1 PUSH1 0x1 PUSH1 0xE0 SHL SUB NOT AND DUP2 MSTORE PUSH1 0x1 PUSH1 0x1 PUSH1 0xA0 SHL SUB SWAP2 DUP3 AND DUP7 DUP4 AND EQ PUSH1 0x4 DUP3 ADD MSTORE SWAP1 DUP8 AND PUSH1 0x24 DUP3 ADD MSTORE PUSH1 0x44 ADD PUSH1 0x40 DUP1 MLOAD DUP1 DUP4 SUB DUP2 PUSH0 DUP8 GAS CALL ISZERO DUP1 ISZERO PUSH2 0x2682 JUMPI RETURNDATASIZE PUSH0 DUP1 RETURNDATACOPY RETURNDATASIZE PUSH0 REVERT JUMPDEST POP POP POP POP PUSH1 0x40 MLOAD RETURNDATASIZE PUSH1 0x1F NOT PUSH1 0x1F DUP3 ADD AND DUP3 ADD DUP1 PUSH1 0x40 MSTORE POP DUP2 ADD SWAP1 PUSH2 0x25A5 SWAP2 SWAP1 PUSH2 0x4C13 JUMP JUMPDEST DUP3 PUSH1 0x1 PUSH1 0x1 PUSH1 0xA0 SHL SUB AND PUSH4 0x53C059A0 DUP5 PUSH1 0x1 PUSH1 0x1 PUSH1 0xA0 SHL SUB AND PUSH4 0xDA10610C PUSH1 0x40 MLOAD DUP2 PUSH4 0xFFFFFFFF AND PUSH1 0xE0 SHL DUP2 MSTORE PUSH1 0x4 ADD PUSH1 0x20 PUSH1 0x40 MLOAD DUP1 DUP4 SUB DUP2 DUP7 GAS STATICCALL ISZERO DUP1 ISZERO PUSH2 0x26F1 JUMPI RETURNDATASIZE PUSH0 DUP1 RETURNDATACOPY RETURNDATASIZE PUSH0 REVERT JUMPDEST POP POP POP POP PUSH1 0x40 MLOAD RETURNDATASIZE PUSH1 0x1F NOT PUSH1 0x1F DUP3 ADD AND DUP3 ADD DUP1 PUSH1 0x40 MSTORE POP DUP2 ADD SWAP1 PUSH2 0x2715 SWAP2 SWAP1 PUSH2 0x4A7C JUMP JUMPDEST PUSH1 0x40 MLOAD PUSH1 0xE0 DUP4 SWAP1 SHL PUSH1 0x1 PUSH1 0x1 PUSH1 0xE0 SHL SUB NOT AND DUP2 MSTORE PUSH1 0x1 PUSH1 0x1 PUSH1 0xA0 SHL SUB SWAP2 DUP3 AND DUP7 DUP4 AND EQ PUSH1 0x4 DUP3 ADD MSTORE SWAP1 DUP8 AND PUSH1 0x24 DUP3 ADD MSTORE PUSH1 0x44 ADD PUSH1 0x20 PUSH1 0x40 MLOAD DUP1 DUP4 SUB DUP2 PUSH0 DUP8 GAS CALL ISZERO DUP1 ISZERO PUSH2 0x2764 JUMPI RETURNDATASIZE PUSH0 DUP1 RETURNDATACOPY RETURNDATASIZE PUSH0 REVERT JUMPDEST POP POP POP POP PUSH1 0x40 MLOAD RETURNDATASIZE PUSH1 0x1F NOT PUSH1 0x1F DUP3 ADD AND DUP3 ADD DUP1 PUSH1 0x40 MSTORE POP DUP2 ADD SWAP1 PUSH2 0x2788 SWAP2 SWAP1 PUSH2 0x4A52 JUMP JUMPDEST POP JUMPDEST PUSH1 0x1 ADD PUSH2 0x22A6 JUMP JUMPDEST DUP1 PUSH0 SUB PUSH2 0x279D JUMPI POP POP JUMP JUMPDEST PUSH1 0x40 MLOAD PUSH4 0x2E1A7D4D PUSH1 0xE0 SHL DUP2 MSTORE PUSH1 0x4 DUP2 ADD DUP3 SWAP1 MSTORE PUSH32 0x0 PUSH1 0x1 PUSH1 0x1 PUSH1 0xA0 SHL SUB AND SWAP1 PUSH4 0x2E1A7D4D SWAP1 PUSH1 0x24 ADD PUSH0 PUSH1 0x40 MLOAD DUP1 DUP4 SUB DUP2 PUSH0 DUP8 DUP1 EXTCODESIZE ISZERO DUP1 ISZERO PUSH2 0x27FC JUMPI PUSH0 DUP1 REVERT JUMPDEST POP GAS CALL ISZERO DUP1 ISZERO PUSH2 0x280E JUMPI RETURNDATASIZE PUSH0 DUP1 RETURNDATACOPY RETURNDATASIZE PUSH0 REVERT JUMPDEST POP POP POP POP PUSH2 0x281C DUP3 DUP3 PUSH2 0x314C JUMP JUMPDEST POP POP JUMP JUMPDEST PUSH1 0x60 DUP3 MLOAD PUSH1 0x1 PUSH1 0x1 PUSH1 0x40 SHL SUB DUP2 GT ISZERO PUSH2 0x283B JUMPI PUSH2 0x283B PUSH2 0x4204 JUMP JUMPDEST PUSH1 0x40 MLOAD SWAP1 DUP1 DUP3 MSTORE DUP1 PUSH1 0x20 MUL PUSH1 0x20 ADD DUP3 ADD PUSH1 0x40 MSTORE DUP1 ISZERO PUSH2 0x2864 JUMPI DUP2 PUSH1 0x20 ADD PUSH1 0x20 DUP3 MUL DUP1 CALLDATASIZE DUP4 CALLDATACOPY ADD SWAP1 POP JUMPDEST POP SWAP1 POP DUP2 DUP2 DUP6 MLOAD DUP2 MLOAD DUP2 LT PUSH2 0x287B JUMPI PUSH2 0x287B PUSH2 0x4A3E JUMP JUMPDEST PUSH1 0x20 SWAP1 DUP2 MUL SWAP2 SWAP1 SWAP2 ADD ADD MSTORE DUP4 MLOAD JUMPDEST DUP1 ISZERO PUSH2 0x2CA7 JUMPI PUSH0 DUP5 PUSH2 0x289C PUSH1 0x1 DUP5 PUSH2 0x4A69 JUMP JUMPDEST DUP2 MLOAD DUP2 LT PUSH2 0x28AC JUMPI PUSH2 0x28AC PUSH2 0x4A3E JUMP JUMPDEST PUSH1 0x20 MUL PUSH1 0x20 ADD ADD MLOAD SWAP1 POP PUSH0 DUP8 PUSH1 0x1 DUP5 PUSH2 0x28C5 SWAP2 SWAP1 PUSH2 0x4A69 JUMP JUMPDEST DUP2 MLOAD DUP2 LT PUSH2 0x28D5 JUMPI PUSH2 0x28D5 PUSH2 0x4A3E JUMP JUMPDEST PUSH1 0x20 MUL PUSH1 0x20 ADD ADD MLOAD SWAP1 POP PUSH0 DUP8 PUSH1 0x1 DUP6 PUSH2 0x28EE SWAP2 SWAP1 PUSH2 0x4A69 JUMP JUMPDEST DUP2 MLOAD DUP2 LT PUSH2 0x28FE JUMPI PUSH2 0x28FE PUSH2 0x4A3E JUMP JUMPDEST PUSH1 0x20 MUL PUSH1 0x20 ADD ADD MLOAD SWAP1 POP PUSH0 PUSH1 0x3 DUP2 GT ISZERO PUSH2 0x291A JUMPI PUSH2 0x291A PUSH2 0x4B7B JUMP JUMPDEST DUP3 PUSH1 0x3 DUP2 GT ISZERO PUSH2 0x292C JUMPI PUSH2 0x292C PUSH2 0x4B7B JUMP JUMPDEST SUB PUSH2 0x2A4A JUMPI PUSH0 DUP1 DUP3 PUSH1 0x1 PUSH1 0x1 PUSH1 0xA0 SHL SUB AND PUSH4 0x902F1AC PUSH1 0x40 MLOAD DUP2 PUSH4 0xFFFFFFFF AND PUSH1 0xE0 SHL DUP2 MSTORE PUSH1 0x4 ADD PUSH1 0x60 PUSH1 0x40 MLOAD DUP1 DUP4 SUB DUP2 DUP7 GAS STATICCALL ISZERO DUP1 ISZERO PUSH2 0x296F JUMPI RETURNDATASIZE PUSH0 DUP1 RETURNDATACOPY RETURNDATASIZE PUSH0 REVERT JUMPDEST POP POP POP POP PUSH1 0x40 MLOAD RETURNDATASIZE PUSH1 0x1F NOT PUSH1 0x1F DUP3 ADD AND DUP3 ADD DUP1 PUSH1 0x40 MSTORE POP DUP2 ADD SWAP1 PUSH2 0x2993 SWAP2 SWAP1 PUSH2 0x4BA5 JUMP JUMPDEST POP PUSH1 0x1 PUSH1 0x1 PUSH1 0x70 SHL SUB AND SWAP2 POP PUSH1 0x1 PUSH1 0x1 PUSH1 0x70 SHL SUB AND SWAP2 POP DUP9 DUP7 DUP2 MLOAD DUP2 LT PUSH2 0x29BC JUMPI PUSH2 0x29BC PUSH2 0x4A3E JUMP JUMPDEST PUSH1 0x20 MUL PUSH1 0x20 ADD ADD MLOAD PUSH1 0x1 PUSH1 0x1 PUSH1 0xA0 SHL SUB AND DUP6 PUSH1 0x1 PUSH1 0x1 PUSH1 0xA0 SHL SUB AND GT ISZERO PUSH2 0x29DF JUMPI SWAP1 JUMPDEST PUSH0 DUP8 DUP8 DUP2 MLOAD DUP2 LT PUSH2 0x29F2 JUMPI PUSH2 0x29F2 PUSH2 0x4A3E JUMP JUMPDEST PUSH1 0x20 MUL PUSH1 0x20 ADD ADD MLOAD SWAP1 POP PUSH2 0x2A11 DUP4 DUP4 DUP4 PUSH2 0x4094 SWAP1 SWAP3 SWAP2 SWAP1 PUSH4 0xFFFFFFFF AND JUMP JUMPDEST PUSH1 0x1 PUSH1 0x1 PUSH1 0x80 SHL SUB AND DUP9 PUSH2 0x2A26 PUSH1 0x1 DUP11 PUSH2 0x4A69 JUMP JUMPDEST DUP2 MLOAD DUP2 LT PUSH2 0x2A36 JUMPI PUSH2 0x2A36 PUSH2 0x4A3E JUMP JUMPDEST PUSH1 0x20 MUL PUSH1 0x20 ADD ADD DUP2 DUP2 MSTORE POP POP POP POP POP PUSH2 0x2C91 JUMP JUMPDEST PUSH1 0x1 DUP3 PUSH1 0x3 DUP2 GT ISZERO PUSH2 0x2A5E JUMPI PUSH2 0x2A5E PUSH2 0x4B7B JUMP JUMPDEST SUB PUSH2 0x2BC6 JUMPI PUSH32 0x0 PUSH1 0x1 PUSH1 0x1 PUSH1 0xA0 SHL SUB AND PUSH4 0x5BDD4B7C DUP3 DUP8 DUP8 DUP2 MLOAD DUP2 LT PUSH2 0x2AA5 JUMPI PUSH2 0x2AA5 PUSH2 0x4A3E JUMP JUMPDEST PUSH1 0x20 MUL PUSH1 0x20 ADD ADD MLOAD DUP7 PUSH1 0x1 PUSH1 0x1 PUSH1 0xA0 SHL SUB AND DUP6 PUSH1 0x1 PUSH1 0x1 PUSH1 0xA0 SHL SUB AND PUSH4 0x16DC165B PUSH1 0x40 MLOAD DUP2 PUSH4 0xFFFFFFFF AND PUSH1 0xE0 SHL DUP2 MSTORE PUSH1 0x4 ADD PUSH1 0x20 PUSH1 0x40 MLOAD DUP1 DUP4 SUB DUP2 DUP7 GAS STATICCALL ISZERO DUP1 ISZERO PUSH2 0x2AF3 JUMPI RETURNDATASIZE PUSH0 DUP1 RETURNDATACOPY RETURNDATASIZE PUSH0 REVERT JUMPDEST POP POP POP POP PUSH1 0x40 MLOAD RETURNDATASIZE PUSH1 0x1F NOT PUSH1 0x1F DUP3 ADD AND DUP3 ADD DUP1 PUSH1 0x40 MSTORE POP DUP2 ADD SWAP1 PUSH2 0x2B17 SWAP2 SWAP1 PUSH2 0x4A7C JUMP JUMPDEST PUSH1 0x40 MLOAD PUSH1 0x1 PUSH1 0x1 PUSH1 0xE0 SHL SUB NOT PUSH1 0xE0 DUP8 SWAP1 SHL AND DUP2 MSTORE PUSH1 0x1 PUSH1 0x1 PUSH1 0xA0 SHL SUB SWAP5 DUP6 AND PUSH1 0x4 DUP3 ADD MSTORE PUSH1 0x1 PUSH1 0x1 PUSH1 0x80 SHL SUB SWAP1 SWAP4 AND PUSH1 0x24 DUP5 ADD MSTORE SWAP1 SWAP3 AND SWAP2 SWAP1 SWAP2 EQ PUSH1 0x44 DUP3 ADD MSTORE PUSH1 0x64 ADD PUSH1 0x40 DUP1 MLOAD DUP1 DUP4 SUB DUP2 DUP7 GAS STATICCALL ISZERO DUP1 ISZERO PUSH2 0x2B74 JUMPI RETURNDATASIZE PUSH0 DUP1 RETURNDATACOPY RETURNDATASIZE PUSH0 REVERT JUMPDEST POP POP POP POP PUSH1 0x40 MLOAD RETURNDATASIZE PUSH1 0x1F NOT PUSH1 0x1F DUP3 ADD AND DUP3 ADD DUP1 PUSH1 0x40 MSTORE POP DUP2 ADD SWAP1 PUSH2 0x2B98 SWAP2 SWAP1 PUSH2 0x4C13 JUMP JUMPDEST POP DUP6 PUSH2 0x2BA5 PUSH1 0x1 DUP8 PUSH2 0x4A69 JUMP JUMPDEST DUP2 MLOAD DUP2 LT PUSH2 0x2BB5 JUMPI PUSH2 0x2BB5 PUSH2 0x4A3E JUMP JUMPDEST PUSH1 0x20 MUL PUSH1 0x20 ADD ADD DUP2 DUP2 MSTORE POP POP PUSH2 0x2C91 JUMP JUMPDEST PUSH2 0x2C5D DUP2 DUP7 DUP7 DUP2 MLOAD DUP2 LT PUSH2 0x2BDC JUMPI PUSH2 0x2BDC PUSH2 0x4A3E JUMP JUMPDEST PUSH1 0x20 MUL PUSH1 0x20 ADD ADD MLOAD DUP6 PUSH1 0x1 PUSH1 0x1 PUSH1 0xA0 SHL SUB AND DUP5 PUSH1 0x1 PUSH1 0x1 PUSH1 0xA0 SHL SUB AND PUSH4 0x5E8746D PUSH1 0x40 MLOAD DUP2 PUSH4 0xFFFFFFFF AND PUSH1 0xE0 SHL DUP2 MSTORE PUSH1 0x4 ADD PUSH1 0x20 PUSH1 0x40 MLOAD DUP1 DUP4 SUB DUP2 DUP7 GAS STATICCALL ISZERO DUP1 ISZERO PUSH2 0x2C2A JUMPI RETURNDATASIZE PUSH0 DUP1 RETURNDATACOPY RETURNDATASIZE PUSH0 REVERT JUMPDEST POP POP POP POP PUSH1 0x40 MLOAD RETURNDATASIZE PUSH1 0x1F NOT PUSH1 0x1F DUP3 ADD AND DUP3 ADD DUP1 PUSH1 0x40 MSTORE POP DUP2 ADD SWAP1 PUSH2 0x2C4E SWAP2 SWAP1 PUSH2 0x4A7C JUMP JUMPDEST PUSH1 0x1 PUSH1 0x1 PUSH1 0xA0 SHL SUB AND EQ PUSH2 0x176F JUMP JUMPDEST POP POP PUSH1 0x1 PUSH1 0x1 PUSH1 0x80 SHL SUB AND DUP6 PUSH2 0x2C74 PUSH1 0x1 DUP8 PUSH2 0x4A69 JUMP JUMPDEST DUP2 MLOAD DUP2 LT PUSH2 0x2C84 JUMPI PUSH2 0x2C84 PUSH2 0x4A3E JUMP JUMPDEST PUSH1 0x20 MUL PUSH1 0x20 ADD ADD DUP2 DUP2 MSTORE POP POP JUMPDEST POP POP POP DUP1 DUP1 PUSH2 0x2C9F SWAP1 PUSH2 0x4C35 JUMP JUMPDEST SWAP2 POP POP PUSH2 0x2889 JUMP JUMPDEST POP SWAP5 SWAP4 POP POP POP POP JUMP JUMPDEST DUP1 PUSH0 SUB PUSH2 0x2CBB JUMPI POP POP JUMP JUMPDEST PUSH32 0x0 PUSH1 0x1 PUSH1 0x1 PUSH1 0xA0 SHL SUB AND PUSH4 0xD0E30DB0 DUP3 PUSH1 0x40 MLOAD DUP3 PUSH4 0xFFFFFFFF AND PUSH1 0xE0 SHL DUP2 MSTORE PUSH1 0x4 ADD PUSH0 PUSH1 0x40 MLOAD DUP1 DUP4 SUB DUP2 DUP6 DUP9 DUP1 EXTCODESIZE ISZERO DUP1 ISZERO PUSH2 0x2D14 JUMPI PUSH0 DUP1 REVERT JUMPDEST POP GAS CALL ISZERO DUP1 ISZERO PUSH2 0x2D26 JUMPI RETURNDATASIZE PUSH0 DUP1 RETURNDATACOPY RETURNDATASIZE PUSH0 REVERT JUMPDEST POP PUSH2 0x281C SWAP4 POP POP PUSH1 0x1 PUSH1 0x1 PUSH1 0xA0 SHL SUB PUSH32 0x0 AND SWAP2 POP DUP5 SWAP1 POP DUP4 PUSH2 0x3612 JUMP JUMPDEST PUSH0 DUP1 PUSH0 DUP1 PUSH0 DUP1 DUP9 PUSH0 DUP2 MLOAD DUP2 LT PUSH2 0x2D7A JUMPI PUSH2 0x2D7A PUSH2 0x4A3E JUMP JUMPDEST PUSH1 0x20 MUL PUSH1 0x20 ADD ADD MLOAD SWAP1 POP PUSH0 JUMPDEST DUP12 MLOAD DUP2 LT ISZERO PUSH2 0x313D JUMPI DUP12 DUP2 DUP2 MLOAD DUP2 LT PUSH2 0x2DA1 JUMPI PUSH2 0x2DA1 PUSH2 0x4A3E JUMP JUMPDEST PUSH1 0x20 MUL PUSH1 0x20 ADD ADD MLOAD SWAP4 POP DUP11 DUP2 DUP2 MLOAD DUP2 LT PUSH2 0x2DBD JUMPI PUSH2 0x2DBD PUSH2 0x4A3E JUMP JUMPDEST PUSH1 0x20 MUL PUSH1 0x20 ADD ADD MLOAD SWAP3 POP DUP2 SWAP6 POP DUP10 DUP2 PUSH1 0x1 ADD DUP2 MLOAD DUP2 LT PUSH2 0x2DDF JUMPI PUSH2 0x2DDF PUSH2 0x4A3E JUMP JUMPDEST PUSH1 0x20 MUL PUSH1 0x20 ADD ADD MLOAD SWAP2 POP DUP12 MLOAD DUP2 PUSH1 0x1 ADD EQ PUSH2 0x2E16 JUMPI DUP12 DUP2 PUSH1 0x1 ADD DUP2 MLOAD DUP2 LT PUSH2 0x2E09 JUMPI PUSH2 0x2E09 PUSH2 0x4A3E JUMP JUMPDEST PUSH1 0x20 MUL PUSH1 0x20 ADD ADD MLOAD PUSH2 0x2E18 JUMP JUMPDEST DUP8 JUMPDEST SWAP5 POP PUSH0 DUP4 PUSH1 0x3 DUP2 GT ISZERO PUSH2 0x2E2D JUMPI PUSH2 0x2E2D PUSH2 0x4B7B JUMP JUMPDEST SUB PUSH2 0x2EFD JUMPI DUP9 DUP2 PUSH1 0x1 ADD DUP2 MLOAD DUP2 LT PUSH2 0x2E47 JUMPI PUSH2 0x2E47 PUSH2 0x4A3E JUMP JUMPDEST PUSH1 0x20 MUL PUSH1 0x20 ADD ADD MLOAD SWAP7 POP DUP2 PUSH1 0x1 PUSH1 0x1 PUSH1 0xA0 SHL SUB AND DUP7 PUSH1 0x1 PUSH1 0x1 PUSH1 0xA0 SHL SUB AND LT ISZERO PUSH2 0x2ECD JUMPI PUSH1 0x40 MLOAD PUSH4 0x22C0D9F PUSH1 0xE0 SHL DUP2 MSTORE PUSH1 0x1 PUSH1 0x1 PUSH1 0xA0 SHL SUB DUP6 AND SWAP1 PUSH4 0x22C0D9F SWAP1 PUSH2 0x2E9B SWAP1 PUSH0 SWAP1 DUP12 SWAP1 DUP11 SWAP1 PUSH1 0x4 ADD PUSH2 0x4BE6 JUMP JUMPDEST PUSH0 PUSH1 0x40 MLOAD DUP1 DUP4 SUB DUP2 PUSH0 DUP8 DUP1 EXTCODESIZE ISZERO DUP1 ISZERO PUSH2 0x2EB2 JUMPI PUSH0 DUP1 REVERT JUMPDEST POP GAS CALL ISZERO DUP1 ISZERO PUSH2 0x2EC4 JUMPI RETURNDATASIZE PUSH0 DUP1 RETURNDATACOPY RETURNDATASIZE PUSH0 REVERT JUMPDEST POP POP POP POP PUSH2 0x3135 JUMP JUMPDEST PUSH1 0x40 MLOAD PUSH4 0x22C0D9F PUSH1 0xE0 SHL DUP2 MSTORE PUSH1 0x1 PUSH1 0x1 PUSH1 0xA0 SHL SUB DUP6 AND SWAP1 PUSH4 0x22C0D9F SWAP1 PUSH2 0x2E9B SWAP1 DUP11 SWAP1 PUSH0 SWAP1 DUP11 SWAP1 PUSH1 0x4 ADD PUSH2 0x4BE6 JUMP JUMPDEST PUSH1 0x1 DUP4 PUSH1 0x3 DUP2 GT ISZERO PUSH2 0x2F11 JUMPI PUSH2 0x2F11 PUSH2 0x4B7B JUMP JUMPDEST SUB PUSH2 0x3012 JUMPI PUSH0 DUP5 PUSH1 0x1 PUSH1 0x1 PUSH1 0xA0 SHL SUB AND PUSH4 0xB7D19FC4 PUSH1 0x40 MLOAD DUP2 PUSH4 0xFFFFFFFF AND PUSH1 0xE0 SHL DUP2 MSTORE PUSH1 0x4 ADD PUSH1 0x20 PUSH1 0x40 MLOAD DUP1 DUP4 SUB DUP2 DUP7 GAS STATICCALL ISZERO DUP1 ISZERO PUSH2 0x2F53 JUMPI RETURNDATASIZE PUSH0 DUP1 RETURNDATACOPY RETURNDATASIZE PUSH0 REVERT JUMPDEST POP POP POP POP PUSH1 0x40 MLOAD RETURNDATASIZE PUSH1 0x1F NOT PUSH1 0x1F DUP3 ADD AND DUP3 ADD DUP1 PUSH1 0x40 MSTORE POP DUP2 ADD SWAP1 PUSH2 0x2F77 SWAP2 SWAP1 PUSH2 0x4A7C JUMP JUMPDEST PUSH1 0x40 MLOAD PUSH4 0x29E02CD PUSH1 0xE5 SHL DUP2 MSTORE PUSH1 0x1 PUSH1 0x1 PUSH1 0xA0 SHL SUB SWAP2 DUP3 AND DUP6 DUP4 AND EQ PUSH1 0x4 DUP3 ADD DUP2 SWAP1 MSTORE DUP9 DUP4 AND PUSH1 0x24 DUP4 ADD MSTORE SWAP3 POP PUSH0 SWAP2 DUP3 SWAP2 SWAP1 DUP9 AND SWAP1 PUSH4 0x53C059A0 SWAP1 PUSH1 0x44 ADD PUSH1 0x40 DUP1 MLOAD DUP1 DUP4 SUB DUP2 PUSH0 DUP8 GAS CALL ISZERO DUP1 ISZERO PUSH2 0x2FD0 JUMPI RETURNDATASIZE PUSH0 DUP1 RETURNDATACOPY RETURNDATASIZE PUSH0 REVERT JUMPDEST POP POP POP POP PUSH1 0x40 MLOAD RETURNDATASIZE PUSH1 0x1F NOT PUSH1 0x1F DUP3 ADD AND DUP3 ADD DUP1 PUSH1 0x40 MSTORE POP DUP2 ADD SWAP1 PUSH2 0x2FF4 SWAP2 SWAP1 PUSH2 0x4C13 JUMP JUMPDEST SWAP2 POP SWAP2 POP DUP3 ISZERO PUSH2 0x3006 JUMPI DUP1 SWAP10 POP PUSH2 0x300A JUMP JUMPDEST DUP2 SWAP10 POP JUMPDEST POP POP POP PUSH2 0x3135 JUMP JUMPDEST PUSH0 DUP5 PUSH1 0x1 PUSH1 0x1 PUSH1 0xA0 SHL SUB AND PUSH4 0xDA10610C PUSH1 0x40 MLOAD DUP2 PUSH4 0xFFFFFFFF AND PUSH1 0xE0 SHL DUP2 MSTORE PUSH1 0x4 ADD PUSH1 0x20 PUSH1 0x40 MLOAD DUP1 DUP4 SUB DUP2 DUP7 GAS STATICCALL ISZERO DUP1 ISZERO PUSH2 0x304F JUMPI RETURNDATASIZE PUSH0 DUP1 RETURNDATACOPY RETURNDATASIZE PUSH0 REVERT JUMPDEST POP POP POP POP PUSH1 0x40 MLOAD RETURNDATASIZE PUSH1 0x1F NOT PUSH1 0x1F DUP3 ADD AND DUP3 ADD DUP1 PUSH1 0x40 MSTORE POP DUP2 ADD SWAP1 PUSH2 0x3073 SWAP2 SWAP1 PUSH2 0x4A7C JUMP JUMPDEST PUSH1 0x40 MLOAD PUSH4 0x29E02CD PUSH1 0xE5 SHL DUP2 MSTORE PUSH1 0x1 PUSH1 0x1 PUSH1 0xA0 SHL SUB SWAP2 DUP3 AND DUP6 DUP4 AND EQ PUSH1 0x4 DUP3 ADD DUP2 SWAP1 MSTORE DUP9 DUP4 AND PUSH1 0x24 DUP4 ADD MSTORE SWAP3 POP PUSH0 SWAP2 DUP3 SWAP2 PUSH2 0x3109 SWAP2 DUP10 AND SWAP1 PUSH4 0x53C059A0 SWAP1 PUSH1 0x44 ADD JUMPDEST PUSH1 0x20 PUSH1 0x40 MLOAD DUP1 DUP4 SUB DUP2 PUSH0 DUP8 GAS CALL ISZERO DUP1 ISZERO PUSH2 0x30D1 JUMPI RETURNDATASIZE PUSH0 DUP1 RETURNDATACOPY RETURNDATASIZE PUSH0 REVERT JUMPDEST POP POP POP POP PUSH1 0x40 MLOAD RETURNDATASIZE PUSH1 0x1F NOT PUSH1 0x1F DUP3 ADD AND DUP3 ADD DUP1 PUSH1 0x40 MSTORE POP DUP2 ADD SWAP1 PUSH2 0x30F5 SWAP2 SWAP1 PUSH2 0x4A52 JUMP JUMPDEST PUSH1 0x1 PUSH1 0x1 PUSH1 0x80 SHL SUB DUP2 AND SWAP2 PUSH1 0x80 SWAP2 SWAP1 SWAP2 SHR SWAP1 JUMP JUMPDEST PUSH1 0x1 PUSH1 0x1 PUSH1 0x80 SHL SUB AND SWAP2 POP PUSH1 0x1 PUSH1 0x1 PUSH1 0x80 SHL SUB AND SWAP2 POP DUP3 ISZERO PUSH2 0x312D JUMPI DUP1 SWAP10 POP PUSH2 0x3131 JUMP JUMPDEST DUP2 SWAP10 POP JUMPDEST POP POP POP JUMPDEST PUSH1 0x1 ADD PUSH2 0x2D86 JUMP JUMPDEST POP POP POP POP POP POP SWAP6 SWAP5 POP POP POP POP POP JUMP JUMPDEST DUP1 PUSH0 SUB PUSH2 0x3157 JUMPI POP POP JUMP JUMPDEST PUSH0 DUP3 PUSH1 0x1 PUSH1 0x1 PUSH1 0xA0 SHL SUB AND DUP3 PUSH1 0x40 MLOAD PUSH0 PUSH1 0x40 MLOAD DUP1 DUP4 SUB DUP2 DUP6 DUP8 GAS CALL SWAP3 POP POP POP RETURNDATASIZE DUP1 PUSH0 DUP2 EQ PUSH2 0x31A0 JUMPI PUSH1 0x40 MLOAD SWAP2 POP PUSH1 0x1F NOT PUSH1 0x3F RETURNDATASIZE ADD AND DUP3 ADD PUSH1 0x40 MSTORE RETURNDATASIZE DUP3 MSTORE RETURNDATASIZE PUSH0 PUSH1 0x20 DUP5 ADD RETURNDATACOPY PUSH2 0x31A5 JUMP JUMPDEST PUSH1 0x60 SWAP2 POP JUMPDEST POP POP SWAP1 POP DUP1 PUSH2 0x114F JUMPI PUSH1 0x40 MLOAD PUSH4 0x47B96F7 PUSH1 0xE4 SHL DUP2 MSTORE PUSH1 0x1 PUSH1 0x1 PUSH1 0xA0 SHL SUB DUP5 AND PUSH1 0x4 DUP3 ADD MSTORE PUSH1 0x24 DUP2 ADD DUP4 SWAP1 MSTORE PUSH1 0x44 ADD PUSH2 0x5FB JUMP JUMPDEST PUSH0 DUP1 PUSH0 DUP1 PUSH0 DUP1 DUP8 PUSH0 DUP2 MLOAD DUP2 LT PUSH2 0x31F1 JUMPI PUSH2 0x31F1 PUSH2 0x4A3E JUMP JUMPDEST PUSH1 0x20 MUL PUSH1 0x20 ADD ADD MLOAD SWAP1 POP DUP11 SWAP6 POP PUSH0 JUMPDEST DUP11 MLOAD DUP2 LT ISZERO PUSH2 0x313D JUMPI DUP11 DUP2 DUP2 MLOAD DUP2 LT PUSH2 0x321B JUMPI PUSH2 0x321B PUSH2 0x4A3E JUMP JUMPDEST PUSH1 0x20 MUL PUSH1 0x20 ADD ADD MLOAD SWAP3 POP DUP10 DUP2 DUP2 MLOAD DUP2 LT PUSH2 0x3237 JUMPI PUSH2 0x3237 PUSH2 0x4A3E JUMP JUMPDEST PUSH1 0x20 MUL PUSH1 0x20 ADD ADD MLOAD SWAP5 POP DUP2 SWAP6 POP DUP9 DUP2 PUSH1 0x1 ADD DUP2 MLOAD DUP2 LT PUSH2 0x3259 JUMPI PUSH2 0x3259 PUSH2 0x4A3E JUMP JUMPDEST PUSH1 0x20 MUL PUSH1 0x20 ADD ADD MLOAD SWAP2 POP DUP11 MLOAD DUP2 PUSH1 0x1 ADD EQ PUSH2 0x3290 JUMPI DUP11 DUP2 PUSH1 0x1 ADD DUP2 MLOAD DUP2 LT PUSH2 0x3283 JUMPI PUSH2 0x3283 PUSH2 0x4A3E JUMP JUMPDEST PUSH1 0x20 MUL PUSH1 0x20 ADD ADD MLOAD PUSH2 0x3292 JUMP JUMPDEST DUP8 JUMPDEST SWAP4 POP PUSH0 DUP6 PUSH1 0x3 DUP2 GT ISZERO PUSH2 0x32A7 JUMPI PUSH2 0x32A7 PUSH2 0x4B7B JUMP JUMPDEST SUB PUSH2 0x3422 JUMPI PUSH0 DUP1 DUP5 PUSH1 0x1 PUSH1 0x1 PUSH1 0xA0 SHL SUB AND PUSH4 0x902F1AC PUSH1 0x40 MLOAD DUP2 PUSH4 0xFFFFFFFF AND PUSH1 0xE0 SHL DUP2 MSTORE PUSH1 0x4 ADD PUSH1 0x60 PUSH1 0x40 MLOAD DUP1 DUP4 SUB DUP2 DUP7 GAS STATICCALL ISZERO DUP1 ISZERO PUSH2 0x32EA JUMPI RETURNDATASIZE PUSH0 DUP1 RETURNDATACOPY RETURNDATASIZE PUSH0 REVERT JUMPDEST POP POP POP POP PUSH1 0x40 MLOAD RETURNDATASIZE PUSH1 0x1F NOT PUSH1 0x1F DUP3 ADD AND DUP3 ADD DUP1 PUSH1 0x40 MSTORE POP DUP2 ADD SWAP1 PUSH2 0x330E SWAP2 SWAP1 PUSH2 0x4BA5 JUMP JUMPDEST POP PUSH1 0x1 PUSH1 0x1 PUSH1 0x70 SHL SUB AND SWAP2 POP PUSH1 0x1 PUSH1 0x1 PUSH1 0x70 SHL SUB AND SWAP2 POP DUP4 PUSH1 0x1 PUSH1 0x1 PUSH1 0xA0 SHL SUB AND DUP9 PUSH1 0x1 PUSH1 0x1 PUSH1 0xA0 SHL SUB AND LT ISZERO PUSH2 0x33AF JUMPI PUSH2 0x334A DUP10 DUP4 DUP4 PUSH2 0x3FFF JUMP JUMPDEST PUSH1 0x40 MLOAD PUSH4 0x22C0D9F PUSH1 0xE0 SHL DUP2 MSTORE SWAP1 SWAP10 POP PUSH1 0x1 PUSH1 0x1 PUSH1 0xA0 SHL SUB DUP7 AND SWAP1 PUSH4 0x22C0D9F SWAP1 PUSH2 0x337D SWAP1 PUSH0 SWAP1 DUP14 SWAP1 DUP12 SWAP1 PUSH1 0x4 ADD PUSH2 0x4BE6 JUMP JUMPDEST PUSH0 PUSH1 0x40 MLOAD DUP1 DUP4 SUB DUP2 PUSH0 DUP8 DUP1 EXTCODESIZE ISZERO DUP1 ISZERO PUSH2 0x3394 JUMPI PUSH0 DUP1 REVERT JUMPDEST POP GAS CALL ISZERO DUP1 ISZERO PUSH2 0x33A6 JUMPI RETURNDATASIZE PUSH0 DUP1 RETURNDATACOPY RETURNDATASIZE PUSH0 REVERT JUMPDEST POP POP POP POP PUSH2 0x341B JUMP JUMPDEST PUSH2 0x33BA DUP10 DUP3 DUP5 PUSH2 0x3FFF JUMP JUMPDEST PUSH1 0x40 MLOAD PUSH4 0x22C0D9F PUSH1 0xE0 SHL DUP2 MSTORE SWAP1 SWAP10 POP PUSH1 0x1 PUSH1 0x1 PUSH1 0xA0 SHL SUB DUP7 AND SWAP1 PUSH4 0x22C0D9F SWAP1 PUSH2 0x33ED SWAP1 DUP13 SWAP1 PUSH0 SWAP1 DUP12 SWAP1 PUSH1 0x4 ADD PUSH2 0x4BE6 JUMP JUMPDEST PUSH0 PUSH1 0x40 MLOAD DUP1 DUP4 SUB DUP2 PUSH0 DUP8 DUP1 EXTCODESIZE ISZERO DUP1 ISZERO PUSH2 0x3404 JUMPI PUSH0 DUP1 REVERT JUMPDEST POP GAS CALL ISZERO DUP1 ISZERO PUSH2 0x3416 JUMPI RETURNDATASIZE PUSH0 DUP1 RETURNDATACOPY RETURNDATASIZE PUSH0 REVERT JUMPDEST POP POP POP POP JUMPDEST POP POP PUSH2 0x360A JUMP JUMPDEST PUSH1 0x1 DUP6 PUSH1 0x3 DUP2 GT ISZERO PUSH2 0x3436 JUMPI PUSH2 0x3436 PUSH2 0x4B7B JUMP JUMPDEST SUB PUSH2 0x3537 JUMPI PUSH0 DUP4 PUSH1 0x1 PUSH1 0x1 PUSH1 0xA0 SHL SUB AND PUSH4 0xB7D19FC4 PUSH1 0x40 MLOAD DUP2 PUSH4 0xFFFFFFFF AND PUSH1 0xE0 SHL DUP2 MSTORE PUSH1 0x4 ADD PUSH1 0x20 PUSH1 0x40 MLOAD DUP1 DUP4 SUB DUP2 DUP7 GAS STATICCALL ISZERO DUP1 ISZERO PUSH2 0x3478 JUMPI RETURNDATASIZE PUSH0 DUP1 RETURNDATACOPY RETURNDATASIZE PUSH0 REVERT JUMPDEST POP POP POP POP PUSH1 0x40 MLOAD RETURNDATASIZE PUSH1 0x1F NOT PUSH1 0x1F DUP3 ADD AND DUP3 ADD DUP1 PUSH1 0x40 MSTORE POP DUP2 ADD SWAP1 PUSH2 0x349C SWAP2 SWAP1 PUSH2 0x4A7C JUMP JUMPDEST PUSH1 0x40 MLOAD PUSH4 0x29E02CD PUSH1 0xE5 SHL DUP2 MSTORE PUSH1 0x1 PUSH1 0x1 PUSH1 0xA0 SHL SUB SWAP2 DUP3 AND DUP6 DUP4 AND EQ PUSH1 0x4 DUP3 ADD DUP2 SWAP1 MSTORE DUP8 DUP4 AND PUSH1 0x24 DUP4 ADD MSTORE SWAP3 POP PUSH0 SWAP2 DUP3 SWAP2 SWAP1 DUP8 AND SWAP1 PUSH4 0x53C059A0 SWAP1 PUSH1 0x44 ADD PUSH1 0x40 DUP1 MLOAD DUP1 DUP4 SUB DUP2 PUSH0 DUP8 GAS CALL ISZERO DUP1 ISZERO PUSH2 0x34F5 JUMPI RETURNDATASIZE PUSH0 DUP1 RETURNDATACOPY RETURNDATASIZE PUSH0 REVERT JUMPDEST POP POP POP POP PUSH1 0x40 MLOAD RETURNDATASIZE PUSH1 0x1F NOT PUSH1 0x1F DUP3 ADD AND DUP3 ADD DUP1 PUSH1 0x40 MSTORE POP DUP2 ADD SWAP1 PUSH2 0x3519 SWAP2 SWAP1 PUSH2 0x4C13 JUMP JUMPDEST SWAP2 POP SWAP2 POP DUP3 ISZERO PUSH2 0x352B JUMPI DUP1 SWAP10 POP PUSH2 0x352F JUMP JUMPDEST DUP2 SWAP10 POP JUMPDEST POP POP POP PUSH2 0x360A JUMP JUMPDEST PUSH0 DUP4 PUSH1 0x1 PUSH1 0x1 PUSH1 0xA0 SHL SUB AND PUSH4 0xDA10610C PUSH1 0x40 MLOAD DUP2 PUSH4 0xFFFFFFFF AND PUSH1 0xE0 SHL DUP2 MSTORE PUSH1 0x4 ADD PUSH1 0x20 PUSH1 0x40 MLOAD DUP1 DUP4 SUB DUP2 DUP7 GAS STATICCALL ISZERO DUP1 ISZERO PUSH2 0x3574 JUMPI RETURNDATASIZE PUSH0 DUP1 RETURNDATACOPY RETURNDATASIZE PUSH0 REVERT JUMPDEST POP POP POP POP PUSH1 0x40 MLOAD RETURNDATASIZE PUSH1 0x1F NOT PUSH1 0x1F DUP3 ADD AND DUP3 ADD DUP1 PUSH1 0x40 MSTORE POP DUP2 ADD SWAP1 PUSH2 0x3598 SWAP2 SWAP1 PUSH2 0x4A7C JUMP JUMPDEST PUSH1 0x40 MLOAD PUSH4 0x29E02CD PUSH1 0xE5 SHL DUP2 MSTORE PUSH1 0x1 PUSH1 0x1 PUSH1 0xA0 SHL SUB SWAP2 DUP3 AND DUP6 DUP4 AND EQ PUSH1 0x4 DUP3 ADD DUP2 SWAP1 MSTORE DUP8 DUP4 AND PUSH1 0x24 DUP4 ADD MSTORE SWAP3 POP PUSH0 SWAP2 DUP3 SWAP2 PUSH2 0x35DE SWAP2 DUP9 AND SWAP1 PUSH4 0x53C059A0 SWAP1 PUSH1 0x44 ADD PUSH2 0x30B5 JUMP JUMPDEST PUSH1 0x1 PUSH1 0x1 PUSH1 0x80 SHL SUB AND SWAP2 POP PUSH1 0x1 PUSH1 0x1 PUSH1 0x80 SHL SUB AND SWAP2 POP DUP3 ISZERO PUSH2 0x3602 JUMPI DUP1 SWAP10 POP PUSH2 0x3606 JUMP JUMPDEST DUP2 SWAP10 POP JUMPDEST POP POP POP JUMPDEST PUSH1 0x1 ADD PUSH2 0x3200 JUMP JUMPDEST PUSH1 0x40 DUP1 MLOAD PUSH1 0x1 PUSH1 0x1 PUSH1 0xA0 SHL SUB DUP5 AND PUSH1 0x24 DUP3 ADD MSTORE PUSH1 0x44 DUP1 DUP3 ADD DUP5 SWAP1 MSTORE DUP3 MLOAD DUP1 DUP4 SUB SWAP1 SWAP2 ADD DUP2 MSTORE PUSH1 0x64 SWAP1 SWAP2 ADD SWAP1 SWAP2 MSTORE PUSH1 0x20 DUP2 ADD DUP1 MLOAD PUSH1 0x1 PUSH1 0x1 PUSH1 0xE0 SHL SUB AND PUSH4 0xA9059CBB PUSH1 0xE0 SHL OR SWAP1 MSTORE PUSH2 0x227D DUP5 DUP3 PUSH2 0x412F JUMP JUMPDEST PUSH0 PUSH1 0x1 DUP3 PUSH1 0x3 DUP2 GT ISZERO PUSH2 0x3678 JUMPI PUSH2 0x3678 PUSH2 0x4B7B JUMP JUMPDEST SUB PUSH2 0x3717 JUMPI PUSH1 0x40 MLOAD PUSH4 0x704037BD PUSH1 0xE0 SHL DUP2 MSTORE PUSH1 0x1 PUSH1 0x1 PUSH1 0xA0 SHL SUB PUSH32 0x0 AND SWAP1 PUSH4 0x704037BD SWAP1 PUSH2 0x36CD SWAP1 DUP9 SWAP1 DUP9 SWAP1 DUP9 SWAP1 PUSH1 0x4 ADD PUSH2 0x4C4A JUMP JUMPDEST PUSH1 0x80 PUSH1 0x40 MLOAD DUP1 DUP4 SUB DUP2 DUP7 GAS STATICCALL ISZERO DUP1 ISZERO PUSH2 0x36E8 JUMPI RETURNDATASIZE PUSH0 DUP1 RETURNDATACOPY RETURNDATASIZE PUSH0 REVERT JUMPDEST POP POP POP POP PUSH1 0x40 MLOAD RETURNDATASIZE PUSH1 0x1F NOT PUSH1 0x1F DUP3 ADD AND DUP3 ADD DUP1 PUSH1 0x40 MSTORE POP DUP2 ADD SWAP1 PUSH2 0x370C SWAP2 SWAP1 PUSH2 0x4C6E JUMP JUMPDEST PUSH1 0x20 ADD MLOAD SWAP1 POP PUSH2 0x3816 JUMP JUMPDEST PUSH1 0x2 DUP3 PUSH1 0x3 DUP2 GT ISZERO PUSH2 0x372B JUMPI PUSH2 0x372B PUSH2 0x4B7B JUMP JUMPDEST SUB PUSH2 0x3780 JUMPI PUSH1 0x40 MLOAD PUSH4 0x704037BD PUSH1 0xE0 SHL DUP2 MSTORE PUSH1 0x1 PUSH1 0x1 PUSH1 0xA0 SHL SUB PUSH32 0x0 AND SWAP1 PUSH4 0x704037BD SWAP1 PUSH2 0x36CD SWAP1 DUP9 SWAP1 DUP9 SWAP1 DUP9 SWAP1 PUSH1 0x4 ADD PUSH2 0x4C4A JUMP JUMPDEST PUSH1 0x40 MLOAD PUSH4 0x704037BD PUSH1 0xE0 SHL DUP2 MSTORE PUSH1 0x1 PUSH1 0x1 PUSH1 0xA0 SHL SUB PUSH32 0x0 AND SWAP1 PUSH4 0x704037BD SWAP1 PUSH2 0x37D0 SWAP1 DUP9 SWAP1 DUP9 SWAP1 DUP9 SWAP1 PUSH1 0x4 ADD PUSH2 0x4C4A JUMP JUMPDEST PUSH1 0x80 PUSH1 0x40 MLOAD DUP1 DUP4 SUB DUP2 DUP7 GAS STATICCALL ISZERO DUP1 ISZERO PUSH2 0x37EB JUMPI RETURNDATASIZE PUSH0 DUP1 RETURNDATACOPY RETURNDATASIZE PUSH0 REVERT JUMPDEST POP POP POP POP PUSH1 0x40 MLOAD RETURNDATASIZE PUSH1 0x1F NOT PUSH1 0x1F DUP3 ADD AND DUP3 ADD DUP1 PUSH1 0x40 MSTORE POP DUP2 ADD SWAP1 PUSH2 0x380F SWAP2 SWAP1 PUSH2 0x4C6E JUMP JUMPDEST PUSH1 0x20 ADD MLOAD SWAP1 POP JUMPDEST PUSH1 0x1 PUSH1 0x1 PUSH1 0xA0 SHL SUB DUP2 AND PUSH2 0x3843 JUMPI DUP5 DUP5 DUP5 PUSH1 0x40 MLOAD PUSH4 0x6B2471D1 PUSH1 0xE1 SHL DUP2 MSTORE PUSH1 0x4 ADD PUSH2 0x5FB SWAP4 SWAP3 SWAP2 SWAP1 PUSH2 0x4C4A JUMP JUMPDEST SWAP5 SWAP4 POP POP POP POP JUMP JUMPDEST PUSH0 DUP1 PUSH0 DUP9 PUSH1 0x1 PUSH1 0x1 PUSH1 0xA0 SHL SUB AND PUSH4 0xC9939F5E CALLER DUP7 DUP10 DUP10 PUSH1 0x40 MLOAD DUP6 PUSH4 0xFFFFFFFF AND PUSH1 0xE0 SHL DUP2 MSTORE PUSH1 0x4 ADD PUSH2 0x3880 SWAP5 SWAP4 SWAP3 SWAP2 SWAP1 PUSH2 0x4CD5 JUMP JUMPDEST PUSH0 PUSH1 0x40 MLOAD DUP1 DUP4 SUB DUP2 PUSH0 DUP8 GAS CALL ISZERO DUP1 ISZERO PUSH2 0x389B JUMPI RETURNDATASIZE PUSH0 DUP1 RETURNDATACOPY RETURNDATASIZE PUSH0 REVERT JUMPDEST POP POP POP POP PUSH1 0x40 MLOAD RETURNDATASIZE PUSH0 DUP3 RETURNDATACOPY PUSH1 0x1F RETURNDATASIZE SWAP1 DUP2 ADD PUSH1 0x1F NOT AND DUP3 ADD PUSH1 0x40 MSTORE PUSH2 0x38C2 SWAP2 SWAP1 DUP2 ADD SWAP1 PUSH2 0x4D12 JUMP JUMPDEST SWAP1 POP PUSH0 JUMPDEST DUP2 MLOAD DUP2 LT ISZERO PUSH2 0x394D JUMPI PUSH2 0x38F8 DUP3 DUP3 DUP2 MLOAD DUP2 LT PUSH2 0x38E4 JUMPI PUSH2 0x38E4 PUSH2 0x4A3E JUMP JUMPDEST PUSH1 0x20 MUL PUSH1 0x20 ADD ADD MLOAD PUSH1 0x1 PUSH1 0x1 PUSH1 0x80 SHL SUB AND SWAP1 JUMP JUMPDEST PUSH2 0x390B SWAP1 PUSH1 0x1 PUSH1 0x1 PUSH1 0x80 SHL SUB AND DUP6 PUSH2 0x4A2B JUMP JUMPDEST SWAP4 POP PUSH2 0x3930 DUP3 DUP3 DUP2 MLOAD DUP2 LT PUSH2 0x3922 JUMPI PUSH2 0x3922 PUSH2 0x4A3E JUMP JUMPDEST PUSH1 0x20 MUL PUSH1 0x20 ADD ADD MLOAD PUSH1 0x80 SHR SWAP1 JUMP JUMPDEST PUSH2 0x3943 SWAP1 PUSH1 0x1 PUSH1 0x1 PUSH1 0x80 SHL SUB AND DUP5 PUSH2 0x4A2B JUMP JUMPDEST SWAP3 POP PUSH1 0x1 ADD PUSH2 0x38C6 JUMP JUMPDEST POP DUP8 DUP4 LT DUP1 PUSH2 0x395B JUMPI POP DUP7 DUP3 LT JUMPDEST ISZERO PUSH2 0x3991 JUMPI PUSH1 0x40 MLOAD PUSH4 0x18CCFB77 PUSH1 0xE1 SHL DUP2 MSTORE PUSH1 0x4 DUP2 ADD DUP10 SWAP1 MSTORE PUSH1 0x24 DUP2 ADD DUP5 SWAP1 MSTORE PUSH1 0x44 DUP2 ADD DUP9 SWAP1 MSTORE PUSH1 0x64 DUP2 ADD DUP4 SWAP1 MSTORE PUSH1 0x84 ADD PUSH2 0x5FB JUMP JUMPDEST POP SWAP7 POP SWAP7 SWAP5 POP POP POP POP POP JUMP JUMPDEST DUP1 PUSH0 SUB PUSH2 0x39A9 JUMPI POP POP POP JUMP JUMPDEST PUSH2 0x114F PUSH1 0x1 PUSH1 0x1 PUSH1 0xA0 SHL SUB DUP5 AND DUP4 DUP4 PUSH2 0x3612 JUMP JUMPDEST PUSH0 DUP1 PUSH0 DUP1 PUSH1 0x60 DUP1 DUP8 PUSH2 0x1C0 ADD CALLDATALOAD DUP1 TIMESTAMP GT ISZERO PUSH2 0x39F4 JUMPI PUSH1 0x40 MLOAD PUSH4 0xDAE7CA7D PUSH1 0xE0 SHL DUP2 MSTORE PUSH1 0x4 DUP2 ADD DUP3 SWAP1 MSTORE TIMESTAMP PUSH1 0x24 DUP3 ADD MSTORE PUSH1 0x44 ADD PUSH2 0x5FB JUMP JUMPDEST PUSH2 0x3A02 PUSH2 0x140 DUP11 ADD DUP11 PUSH2 0x4D98 JUMP JUMPDEST SWAP1 POP PUSH2 0x3A12 PUSH2 0x120 DUP12 ADD DUP12 PUSH2 0x4D98 JUMP JUMPDEST SWAP1 POP EQ ISZERO DUP1 PUSH2 0x3A3F JUMPI POP PUSH2 0x3A2A PUSH2 0x160 DUP11 ADD DUP11 PUSH2 0x4D98 JUMP JUMPDEST SWAP1 POP PUSH2 0x3A3A PUSH2 0x120 DUP12 ADD DUP12 PUSH2 0x4D98 JUMP JUMPDEST SWAP1 POP EQ ISZERO JUMPDEST ISZERO PUSH2 0x3A5D JUMPI PUSH1 0x40 MLOAD PUSH4 0xB91B4D4D PUSH1 0xE0 SHL DUP2 MSTORE PUSH1 0x4 ADD PUSH1 0x40 MLOAD DUP1 SWAP2 SUB SWAP1 REVERT JUMPDEST PUSH3 0xFFFFFF PUSH1 0xE0 DUP11 ADD CALLDATALOAD GT DUP1 PUSH2 0x3A79 JUMPI POP PUSH3 0xFFFFFF PUSH2 0x100 DUP11 ADD CALLDATALOAD GT JUMPDEST ISZERO PUSH2 0x3AA8 JUMPI PUSH1 0x40 MLOAD PUSH4 0x197A55C7 PUSH1 0xE1 SHL DUP2 MSTORE PUSH1 0xE0 DUP11 ADD CALLDATALOAD PUSH1 0x4 DUP3 ADD MSTORE PUSH2 0x100 DUP11 ADD CALLDATALOAD PUSH1 0x24 DUP3 ADD MSTORE PUSH1 0x44 ADD PUSH2 0x5FB JUMP JUMPDEST PUSH0 PUSH2 0x3AB7 PUSH2 0x120 DUP12 ADD DUP12 PUSH2 0x4D98 JUMP JUMPDEST SWAP1 POP PUSH1 0x1 PUSH1 0x1 PUSH1 0x40 SHL SUB DUP2 GT ISZERO PUSH2 0x3AD0 JUMPI PUSH2 0x3AD0 PUSH2 0x4204 JUMP JUMPDEST PUSH1 0x40 MLOAD SWAP1 DUP1 DUP3 MSTORE DUP1 PUSH1 0x20 MUL PUSH1 0x20 ADD DUP3 ADD PUSH1 0x40 MSTORE DUP1 ISZERO PUSH2 0x3AF9 JUMPI DUP2 PUSH1 0x20 ADD PUSH1 0x20 DUP3 MUL DUP1 CALLDATASIZE DUP4 CALLDATACOPY ADD SWAP1 POP JUMPDEST POP SWAP1 POP PUSH2 0x3B0A PUSH2 0x120 DUP12 ADD DUP12 PUSH2 0x4D98 JUMP JUMPDEST SWAP1 POP PUSH1 0x1 PUSH1 0x1 PUSH1 0x40 SHL SUB DUP2 GT ISZERO PUSH2 0x3B23 JUMPI PUSH2 0x3B23 PUSH2 0x4204 JUMP JUMPDEST PUSH1 0x40 MLOAD SWAP1 DUP1 DUP3 MSTORE DUP1 PUSH1 0x20 MUL PUSH1 0x20 ADD DUP3 ADD PUSH1 0x40 MSTORE DUP1 ISZERO PUSH2 0x3B4C JUMPI DUP2 PUSH1 0x20 ADD PUSH1 0x20 DUP3 MUL DUP1 CALLDATASIZE DUP4 CALLDATACOPY ADD SWAP1 POP JUMPDEST POP SWAP4 POP PUSH0 DUP10 PUSH1 0x1 PUSH1 0x1 PUSH1 0xA0 SHL SUB AND PUSH4 0xDBE65EDC PUSH1 0x40 MLOAD DUP2 PUSH4 0xFFFFFFFF AND PUSH1 0xE0 SHL DUP2 MSTORE PUSH1 0x4 ADD PUSH1 0x20 PUSH1 0x40 MLOAD DUP1 DUP4 SUB DUP2 DUP7 GAS STATICCALL ISZERO DUP1 ISZERO PUSH2 0x3B8C JUMPI RETURNDATASIZE PUSH0 DUP1 RETURNDATACOPY RETURNDATASIZE PUSH0 REVERT JUMPDEST POP POP POP POP PUSH1 0x40 MLOAD RETURNDATASIZE PUSH1 0x1F NOT PUSH1 0x1F DUP3 ADD AND DUP3 ADD DUP1 PUSH1 0x40 MSTORE POP DUP2 ADD SWAP1 PUSH2 0x3BB0 SWAP2 SWAP1 PUSH2 0x4B60 JUMP JUMPDEST PUSH3 0xFFFFFF AND SWAP1 POP DUP1 DUP12 PUSH2 0x100 ADD CALLDATALOAD DUP13 PUSH1 0xE0 ADD CALLDATALOAD ADD LT DUP1 PUSH2 0x3BDA JUMPI POP DUP11 PUSH1 0xE0 ADD CALLDATALOAD DUP12 PUSH2 0x100 ADD CALLDATALOAD DUP3 ADD LT JUMPDEST ISZERO PUSH2 0x3C10 JUMPI PUSH1 0x40 MLOAD PUSH4 0x7D50EDAB PUSH1 0xE1 SHL DUP2 MSTORE PUSH1 0xE0 DUP13 ADD CALLDATALOAD PUSH1 0x4 DUP3 ADD MSTORE PUSH2 0x100 DUP13 ADD CALLDATALOAD PUSH1 0x24 DUP3 ADD MSTORE PUSH1 0x44 DUP2 ADD DUP3 SWAP1 MSTORE PUSH1 0x64 ADD PUSH2 0x5FB JUMP JUMPDEST PUSH0 JUMPDEST DUP3 MLOAD DUP2 LT ISZERO PUSH2 0x3D10 JUMPI PUSH0 PUSH2 0x3C2A PUSH2 0x120 DUP15 ADD DUP15 PUSH2 0x4D98 JUMP JUMPDEST DUP4 DUP2 DUP2 LT PUSH2 0x3C3A JUMPI PUSH2 0x3C3A PUSH2 0x4A3E JUMP JUMPDEST SWAP1 POP PUSH1 0x20 MUL ADD CALLDATALOAD DUP4 ADD SWAP1 POP PUSH0 DUP2 SLT DUP1 PUSH2 0x3C55 JUMPI POP PUSH3 0xFFFFFF DUP2 GT JUMPDEST ISZERO PUSH2 0x3C76 JUMPI PUSH1 0x40 MLOAD PUSH4 0x70A82E61 PUSH1 0xE1 SHL DUP2 MSTORE PUSH1 0x4 DUP2 ADD DUP3 SWAP1 MSTORE PUSH1 0x24 ADD PUSH2 0x5FB JUMP JUMPDEST DUP1 DUP8 DUP4 DUP2 MLOAD DUP2 LT PUSH2 0x3C89 JUMPI PUSH2 0x3C89 PUSH2 0x4A3E JUMP JUMPDEST PUSH1 0x20 SWAP1 DUP2 MUL SWAP2 SWAP1 SWAP2 ADD ADD MSTORE PUSH2 0x3CEA PUSH2 0x3CA5 PUSH2 0x140 DUP16 ADD DUP16 PUSH2 0x4D98 JUMP JUMPDEST DUP5 DUP2 DUP2 LT PUSH2 0x3CB5 JUMPI PUSH2 0x3CB5 PUSH2 0x4A3E JUMP JUMPDEST SWAP1 POP PUSH1 0x20 MUL ADD CALLDATALOAD DUP15 DUP1 PUSH2 0x160 ADD SWAP1 PUSH2 0x3CCD SWAP2 SWAP1 PUSH2 0x4D98 JUMP JUMPDEST DUP6 DUP2 DUP2 LT PUSH2 0x3CDD JUMPI PUSH2 0x3CDD PUSH2 0x4A3E JUMP JUMPDEST SWAP1 POP PUSH1 0x20 MUL ADD CALLDATALOAD DUP4 PUSH2 0x4198 JUMP JUMPDEST DUP5 DUP4 DUP2 MLOAD DUP2 LT PUSH2 0x3CFC JUMPI PUSH2 0x3CFC PUSH2 0x4A3E JUMP JUMPDEST PUSH1 0x20 SWAP1 DUP2 MUL SWAP2 SWAP1 SWAP2 ADD ADD MSTORE POP PUSH1 0x1 ADD PUSH2 0x3C12 JUMP JUMPDEST POP POP PUSH0 DUP1 DUP11 PUSH1 0x1 PUSH1 0x1 PUSH1 0xA0 SHL SUB AND PUSH4 0x383D15C5 DUP14 PUSH2 0x180 ADD PUSH1 0x20 DUP2 ADD SWAP1 PUSH2 0x3D37 SWAP2 SWAP1 PUSH2 0x4A97 JUMP JUMPDEST DUP6 DUP16 PUSH2 0x1A0 ADD PUSH1 0x20 DUP2 ADD SWAP1 PUSH2 0x3D4C SWAP2 SWAP1 PUSH2 0x4A97 JUMP JUMPDEST PUSH1 0x40 MLOAD DUP5 PUSH4 0xFFFFFFFF AND PUSH1 0xE0 SHL DUP2 MSTORE PUSH1 0x4 ADD PUSH2 0x3D6A SWAP4 SWAP3 SWAP2 SWAP1 PUSH2 0x4DDD JUMP JUMPDEST PUSH0 PUSH1 0x40 MLOAD DUP1 DUP4 SUB DUP2 PUSH0 DUP8 GAS CALL ISZERO DUP1 ISZERO PUSH2 0x3D85 JUMPI RETURNDATASIZE PUSH0 DUP1 RETURNDATACOPY RETURNDATASIZE PUSH0 REVERT JUMPDEST POP POP POP POP PUSH1 0x40 MLOAD RETURNDATASIZE PUSH0 DUP3 RETURNDATACOPY PUSH1 0x1F RETURNDATASIZE SWAP1 DUP2 ADD PUSH1 0x1F NOT AND DUP3 ADD PUSH1 0x40 MSTORE PUSH2 0x3DAC SWAP2 SWAP1 DUP2 ADD SWAP1 PUSH2 0x4E47 JUMP JUMPDEST SWAP7 POP SWAP1 SWAP3 POP SWAP1 POP PUSH0 PUSH2 0x3DBE DUP4 DUP4 PUSH2 0x41CA JUMP JUMPDEST PUSH1 0x1 PUSH1 0x1 PUSH1 0x80 SHL SUB DUP2 AND SWAP12 POP PUSH1 0x80 DUP2 SWAP1 SHR SWAP11 POP SWAP1 POP PUSH1 0xA0 DUP14 ADD CALLDATALOAD DUP12 LT DUP1 PUSH2 0x3DE8 JUMPI POP DUP13 PUSH1 0xC0 ADD CALLDATALOAD DUP11 LT JUMPDEST ISZERO PUSH2 0x3E24 JUMPI PUSH1 0x40 MLOAD PUSH4 0x18CCFB77 PUSH1 0xE1 SHL DUP2 MSTORE PUSH1 0xA0 DUP15 ADD CALLDATALOAD PUSH1 0x4 DUP3 ADD MSTORE PUSH1 0x24 DUP2 ADD DUP13 SWAP1 MSTORE PUSH1 0xC0 DUP15 ADD CALLDATALOAD PUSH1 0x44 DUP3 ADD MSTORE PUSH1 0x64 DUP2 ADD DUP12 SWAP1 MSTORE PUSH1 0x84 ADD PUSH2 0x5FB JUMP JUMPDEST PUSH1 0x1 PUSH1 0x1 PUSH1 0x80 SHL SUB DUP3 AND SWAP9 POP PUSH1 0x80 DUP3 SWAP1 SHR SWAP8 POP PUSH0 JUMPDEST DUP8 MLOAD DUP2 LT ISZERO PUSH2 0x3EA3 JUMPI PUSH2 0x3E8 DUP8 DUP3 DUP2 MLOAD DUP2 LT PUSH2 0x3E57 JUMPI PUSH2 0x3E57 PUSH2 0x4A3E JUMP JUMPDEST PUSH1 0x20 MUL PUSH1 0x20 ADD ADD MLOAD LT ISZERO PUSH2 0x3E9B JUMPI DUP7 DUP2 DUP2 MLOAD DUP2 LT PUSH2 0x3E77 JUMPI PUSH2 0x3E77 PUSH2 0x4A3E JUMP JUMPDEST PUSH1 0x20 MUL PUSH1 0x20 ADD ADD MLOAD PUSH1 0x40 MLOAD PUSH4 0x1851777D PUSH1 0xE1 SHL DUP2 MSTORE PUSH1 0x4 ADD PUSH2 0x5FB SWAP2 DUP2 MSTORE PUSH1 0x20 ADD SWAP1 JUMP JUMPDEST PUSH1 0x1 ADD PUSH2 0x3E39 JUMP JUMPDEST POP POP POP POP POP POP SWAP3 SWAP6 POP SWAP3 SWAP6 POP SWAP3 SWAP6 JUMP JUMPDEST PUSH0 DUP1 DUP3 PUSH1 0x3 DUP2 GT ISZERO PUSH2 0x3EC7 JUMPI PUSH2 0x3EC7 PUSH2 0x4B7B JUMP JUMPDEST SUB PUSH2 0x3F90 JUMPI PUSH1 0x40 MLOAD PUSH4 0xE6A43905 PUSH1 0xE0 SHL DUP2 MSTORE PUSH1 0x1 PUSH1 0x1 PUSH1 0xA0 SHL SUB DUP7 DUP2 AND PUSH1 0x4 DUP4 ADD MSTORE DUP6 DUP2 AND PUSH1 0x24 DUP4 ADD MSTORE PUSH32 0x0 AND SWAP1 PUSH4 0xE6A43905 SWAP1 PUSH1 0x44 ADD PUSH1 0x20 PUSH1 0x40 MLOAD DUP1 DUP4 SUB DUP2 DUP7 GAS STATICCALL ISZERO DUP1 ISZERO PUSH2 0x3F38 JUMPI RETURNDATASIZE PUSH0 DUP1 RETURNDATACOPY RETURNDATASIZE PUSH0 REVERT JUMPDEST POP POP POP POP PUSH1 0x40 MLOAD RETURNDATASIZE PUSH1 0x1F NOT PUSH1 0x1F DUP3 ADD AND DUP3 ADD DUP1 PUSH1 0x40 MSTORE POP DUP2 ADD SWAP1 PUSH2 0x3F5C SWAP2 SWAP1 PUSH2 0x4A7C JUMP JUMPDEST SWAP1 POP PUSH1 0x1 PUSH1 0x1 PUSH1 0xA0 SHL SUB DUP2 AND PUSH2 0x3F8B JUMPI DUP5 DUP5 DUP5 PUSH1 0x40 MLOAD PUSH4 0x6B2471D1 PUSH1 0xE1 SHL DUP2 MSTORE PUSH1 0x4 ADD PUSH2 0x5FB SWAP4 SWAP3 SWAP2 SWAP1 PUSH2 0x4C4A JUMP JUMPDEST PUSH2 0x3843 JUMP JUMPDEST PUSH2 0x1288 DUP6 DUP6 DUP6 DUP6 PUSH2 0x3663 JUMP JUMPDEST PUSH0 PUSH4 0x23B872DD PUSH1 0xE0 SHL DUP5 DUP5 DUP5 PUSH1 0x40 MLOAD PUSH1 0x24 ADD PUSH2 0x3FBA SWAP4 SWAP3 SWAP2 SWAP1 PUSH2 0x4C4A JUMP JUMPDEST PUSH1 0x40 DUP1 MLOAD PUSH1 0x1F NOT DUP2 DUP5 SUB ADD DUP2 MSTORE SWAP2 SWAP1 MSTORE PUSH1 0x20 DUP2 ADD DUP1 MLOAD PUSH1 0x1 PUSH1 0x1 PUSH1 0xE0 SHL SUB AND PUSH1 0x1 PUSH1 0x1 PUSH1 0xE0 SHL SUB NOT SWAP1 SWAP4 AND SWAP3 SWAP1 SWAP3 OR SWAP1 SWAP2 MSTORE SWAP1 POP PUSH2 0x3FF8 DUP6 DUP3 PUSH2 0x412F JUMP JUMPDEST POP POP POP POP POP JUMP JUMPDEST PUSH0 DUP4 PUSH0 SUB PUSH2 0x4020 JUMPI PUSH1 0x40 MLOAD PUSH4 0xB229ED33 PUSH1 0xE0 SHL DUP2 MSTORE PUSH1 0x4 ADD PUSH1 0x40 MLOAD DUP1 SWAP2 SUB SWAP1 REVERT JUMPDEST DUP3 ISZERO DUP1 PUSH2 0x402B JUMPI POP DUP2 ISZERO JUMPDEST ISZERO PUSH2 0x4049 JUMPI PUSH1 0x40 MLOAD PUSH4 0x98C59A29 PUSH1 0xE0 SHL DUP2 MSTORE PUSH1 0x4 ADD PUSH1 0x40 MLOAD DUP1 SWAP2 SUB SWAP1 REVERT JUMPDEST PUSH0 PUSH2 0x4056 DUP6 PUSH2 0x3E5 PUSH2 0x4EEC JUMP JUMPDEST SWAP1 POP PUSH0 PUSH2 0x4063 DUP5 DUP4 PUSH2 0x4EEC JUMP JUMPDEST SWAP1 POP PUSH0 DUP3 PUSH2 0x4073 DUP8 PUSH2 0x3E8 PUSH2 0x4EEC JUMP JUMPDEST PUSH2 0x407D SWAP2 SWAP1 PUSH2 0x4A2B JUMP JUMPDEST SWAP1 POP PUSH2 0x4089 DUP2 DUP4 PUSH2 0x4F03 JUMP JUMPDEST SWAP8 SWAP7 POP POP POP POP POP POP POP JUMP JUMPDEST PUSH0 DUP4 PUSH0 SUB PUSH2 0x40B5 JUMPI PUSH1 0x40 MLOAD PUSH4 0xB229ED33 PUSH1 0xE0 SHL DUP2 MSTORE PUSH1 0x4 ADD PUSH1 0x40 MLOAD DUP1 SWAP2 SUB SWAP1 REVERT JUMPDEST DUP3 ISZERO DUP1 PUSH2 0x40C0 JUMPI POP DUP2 ISZERO JUMPDEST ISZERO PUSH2 0x40DE JUMPI PUSH1 0x40 MLOAD PUSH4 0x98C59A29 PUSH1 0xE0 SHL DUP2 MSTORE PUSH1 0x4 ADD PUSH1 0x40 MLOAD DUP1 SWAP2 SUB SWAP1 REVERT JUMPDEST PUSH0 PUSH2 0x40E9 DUP6 DUP6 PUSH2 0x4EEC JUMP JUMPDEST PUSH2 0x40F5 SWAP1 PUSH2 0x3E8 PUSH2 0x4EEC JUMP JUMPDEST SWAP1 POP PUSH0 PUSH2 0x4102 DUP7 DUP6 PUSH2 0x4A69 JUMP JUMPDEST PUSH2 0x410E SWAP1 PUSH2 0x3E5 PUSH2 0x4EEC JUMP JUMPDEST SWAP1 POP PUSH2 0x411A DUP2 DUP4 PUSH2 0x4F03 JUMP JUMPDEST PUSH2 0x4125 SWAP1 PUSH1 0x1 PUSH2 0x4A2B JUMP JUMPDEST SWAP7 SWAP6 POP POP POP POP POP POP JUMP JUMPDEST PUSH0 DUP1 PUSH0 MSTORE PUSH1 0x20 PUSH0 DUP4 MLOAD PUSH1 0x20 DUP6 ADD PUSH0 DUP8 GAS CALL SWAP1 POP DUP1 DUP1 ISZERO PUSH2 0x416B JUMPI RETURNDATASIZE DUP1 ISZERO PUSH2 0x415E JUMPI PUSH1 0x1 PUSH0 MLOAD EQ DUP4 AND SWAP3 POP PUSH2 0x4165 JUMP JUMPDEST DUP5 EXTCODESIZE ISZERO ISZERO SWAP3 POP JUMPDEST POP PUSH2 0x4179 JUMP JUMPDEST RETURNDATASIZE ISZERO PUSH2 0x4179 JUMPI RETURNDATASIZE PUSH0 DUP1 RETURNDATACOPY RETURNDATASIZE PUSH0 REVERT JUMPDEST POP DUP1 PUSH2 0x114F JUMPI PUSH1 0x40 MLOAD PUSH4 0x197138BD PUSH1 0xE1 SHL DUP2 MSTORE PUSH1 0x4 ADD PUSH1 0x40 MLOAD DUP1 SWAP2 SUB SWAP1 REVERT JUMPDEST PUSH1 0x18 DUP3 SWAP1 SHL PUSH11 0xFFFFFFFFFFFFFFFF000000 AND PUSH1 0x58 DUP5 SWAP1 SHL PUSH8 0xFFFFFFFFFFFFFFFF PUSH1 0x58 SHL AND OR PUSH3 0xFFFFFF DUP3 AND DUP2 OR PUSH2 0x3843 JUMP JUMPDEST DUP1 DUP3 SUB DUP3 DUP2 GT DUP1 PUSH2 0x41E6 JUMPI POP PUSH1 0x1 PUSH1 0x1 PUSH1 0x80 SHL SUB DUP1 DUP5 AND SWAP1 DUP3 AND GT JUMPDEST ISZERO PUSH2 0x1D5D JUMPI PUSH1 0x40 MLOAD PUSH4 0xE599AF55 PUSH1 0xE0 SHL DUP2 MSTORE PUSH1 0x4 ADD PUSH1 0x40 MLOAD DUP1 SWAP2 SUB SWAP1 REVERT JUMPDEST PUSH4 0x4E487B71 PUSH1 0xE0 SHL PUSH0 MSTORE PUSH1 0x41 PUSH1 0x4 MSTORE PUSH1 0x24 PUSH0 REVERT JUMPDEST PUSH1 0x40 MLOAD PUSH1 0x60 DUP2 ADD PUSH1 0x1 PUSH1 0x1 PUSH1 0x40 SHL SUB DUP2 GT DUP3 DUP3 LT OR ISZERO PUSH2 0x423A JUMPI PUSH2 0x423A PUSH2 0x4204 JUMP JUMPDEST PUSH1 0x40 MSTORE SWAP1 JUMP JUMPDEST PUSH1 0x40 MLOAD PUSH1 0x80 DUP2 ADD PUSH1 0x1 PUSH1 0x1 PUSH1 0x40 SHL SUB DUP2 GT DUP3 DUP3 LT OR ISZERO PUSH2 0x423A JUMPI PUSH2 0x423A PUSH2 0x4204 JUMP JUMPDEST PUSH1 0x40 MLOAD PUSH1 0x1F DUP3 ADD PUSH1 0x1F NOT AND DUP2 ADD PUSH1 0x1 PUSH1 0x1 PUSH1 0x40 SHL SUB DUP2 GT DUP3 DUP3 LT OR ISZERO PUSH2 0x428A JUMPI PUSH2 0x428A PUSH2 0x4204 JUMP JUMPDEST PUSH1 0x40 MSTORE SWAP2 SWAP1 POP JUMP JUMPDEST PUSH0 PUSH1 0x1 PUSH1 0x1 PUSH1 0x40 SHL SUB DUP3 GT ISZERO PUSH2 0x42AA JUMPI PUSH2 0x42AA PUSH2 0x4204 JUMP JUMPDEST POP PUSH1 0x5 SHL PUSH1 0x20 ADD SWAP1 JUMP JUMPDEST PUSH0 DUP3 PUSH1 0x1F DUP4 ADD SLT PUSH2 0x42C3 JUMPI PUSH0 DUP1 REVERT JUMPDEST DUP2 CALLDATALOAD PUSH2 0x42D6 PUSH2 0x42D1 DUP3 PUSH2 0x4292 JUMP JUMPDEST PUSH2 0x4262 JUMP JUMPDEST DUP1 DUP3 DUP3 MSTORE PUSH1 0x20 DUP3 ADD SWAP2 POP PUSH1 0x20 DUP4 PUSH1 0x5 SHL DUP7 ADD ADD SWAP3 POP DUP6 DUP4 GT ISZERO PUSH2 0x42F7 JUMPI PUSH0 DUP1 REVERT JUMPDEST PUSH1 0x20 DUP6 ADD JUMPDEST DUP4 DUP2 LT ISZERO PUSH2 0x4314 JUMPI DUP1 CALLDATALOAD DUP4 MSTORE PUSH1 0x20 SWAP3 DUP4 ADD SWAP3 ADD PUSH2 0x42FC JUMP JUMPDEST POP SWAP6 SWAP5 POP POP POP POP POP JUMP JUMPDEST PUSH1 0x1 PUSH1 0x1 PUSH1 0xA0 SHL SUB DUP2 AND DUP2 EQ PUSH2 0x4332 JUMPI PUSH0 DUP1 REVERT JUMPDEST POP JUMP JUMPDEST DUP1 CALLDATALOAD PUSH2 0x4340 DUP2 PUSH2 0x431E JUMP JUMPDEST SWAP2 SWAP1 POP JUMP JUMPDEST PUSH0 DUP3 PUSH1 0x1F DUP4 ADD SLT PUSH2 0x4354 JUMPI PUSH0 DUP1 REVERT JUMPDEST DUP2 CALLDATALOAD PUSH2 0x4362 PUSH2 0x42D1 DUP3 PUSH2 0x4292 JUMP JUMPDEST DUP1 DUP3 DUP3 MSTORE PUSH1 0x20 DUP3 ADD SWAP2 POP PUSH1 0x20 DUP4 PUSH1 0x5 SHL DUP7 ADD ADD SWAP3 POP DUP6 DUP4 GT ISZERO PUSH2 0x4383 JUMPI PUSH0 DUP1 REVERT JUMPDEST PUSH1 0x20 DUP6 ADD JUMPDEST DUP4 DUP2 LT ISZERO PUSH2 0x4314 JUMPI DUP1 CALLDATALOAD PUSH2 0x439B DUP2 PUSH2 0x431E JUMP JUMPDEST DUP4 MSTORE PUSH1 0x20 SWAP3 DUP4 ADD SWAP3 ADD PUSH2 0x4388 JUMP JUMPDEST PUSH0 PUSH1 0x60 DUP3 DUP5 SUB SLT ISZERO PUSH2 0x43B9 JUMPI PUSH0 DUP1 REVERT JUMPDEST PUSH2 0x43C1 PUSH2 0x4218 JUMP JUMPDEST SWAP1 POP DUP2 CALLDATALOAD PUSH1 0x1 PUSH1 0x1 PUSH1 0x40 SHL SUB DUP2 GT ISZERO PUSH2 0x43D8 JUMPI PUSH0 DUP1 REVERT JUMPDEST PUSH2 0x43E4 DUP5 DUP3 DUP6 ADD PUSH2 0x42B4 JUMP JUMPDEST DUP3 MSTORE POP PUSH1 0x20 DUP3 ADD CALLDATALOAD PUSH1 0x1 PUSH1 0x1 PUSH1 0x40 SHL SUB DUP2 GT ISZERO PUSH2 0x43FF JUMPI PUSH0 DUP1 REVERT JUMPDEST DUP3 ADD PUSH1 0x1F DUP2 ADD DUP5 SGT PUSH2 0x440F JUMPI PUSH0 DUP1 REVERT JUMPDEST DUP1 CALLDATALOAD PUSH2 0x441D PUSH2 0x42D1 DUP3 PUSH2 0x4292 JUMP JUMPDEST DUP1 DUP3 DUP3 MSTORE PUSH1 0x20 DUP3 ADD SWAP2 POP PUSH1 0x20 DUP4 PUSH1 0x5 SHL DUP6 ADD ADD SWAP3 POP DUP7 DUP4 GT ISZERO PUSH2 0x443E JUMPI PUSH0 DUP1 REVERT JUMPDEST PUSH1 0x20 DUP5 ADD SWAP4 POP JUMPDEST DUP3 DUP5 LT ISZERO PUSH2 0x446C JUMPI DUP4 CALLDATALOAD PUSH1 0x4 DUP2 LT PUSH2 0x445B JUMPI PUSH0 DUP1 REVERT JUMPDEST DUP3 MSTORE PUSH1 0x20 SWAP4 DUP5 ADD SWAP4 SWAP1 SWAP2 ADD SWAP1 PUSH2 0x4445 JUMP JUMPDEST PUSH1 0x20 DUP6 ADD MSTORE POP POP POP PUSH1 0x40 DUP3 ADD CALLDATALOAD PUSH1 0x1 PUSH1 0x1 PUSH1 0x40 SHL SUB DUP2 GT ISZERO PUSH2 0x448C JUMPI PUSH0 DUP1 REVERT JUMPDEST PUSH2 0x4498 DUP5 DUP3 DUP6 ADD PUSH2 0x4345 JUMP JUMPDEST PUSH1 0x40 DUP4 ADD MSTORE POP SWAP3 SWAP2 POP POP JUMP JUMPDEST PUSH0 DUP1 PUSH0 DUP1 PUSH0 PUSH1 0xA0 DUP7 DUP9 SUB SLT ISZERO PUSH2 0x44B8 JUMPI PUSH0 DUP1 REVERT JUMPDEST DUP6 CALLDATALOAD SWAP5 POP PUSH1 0x20 DUP7 ADD CALLDATALOAD SWAP4 POP PUSH1 0x40 DUP7 ADD CALLDATALOAD PUSH1 0x1 PUSH1 0x1 PUSH1 0x40 SHL SUB DUP2 GT ISZERO PUSH2 0x44DB JUMPI PUSH0 DUP1 REVERT JUMPDEST PUSH2 0x44E7 DUP9 DUP3 DUP10 ADD PUSH2 0x43A9 JUMP JUMPDEST SWAP4 POP POP PUSH1 0x60 DUP7 ADD CALLDATALOAD PUSH2 0x44F8 DUP2 PUSH2 0x431E JUMP JUMPDEST SWAP5 SWAP8 SWAP4 SWAP7 POP SWAP2 SWAP5 PUSH1 0x80 ADD CALLDATALOAD SWAP3 SWAP2 POP POP JUMP JUMPDEST PUSH0 DUP1 PUSH0 DUP1 PUSH1 0x80 DUP6 DUP8 SUB SLT ISZERO PUSH2 0x451C JUMPI PUSH0 DUP1 REVERT JUMPDEST DUP5 CALLDATALOAD SWAP4 POP PUSH1 0x20 DUP6 ADD CALLDATALOAD PUSH1 0x1 PUSH1 0x1 PUSH1 0x40 SHL SUB DUP2 GT ISZERO PUSH2 0x4538 JUMPI PUSH0 DUP1 REVERT JUMPDEST PUSH2 0x4544 DUP8 DUP3 DUP9 ADD PUSH2 0x43A9 JUMP JUMPDEST SWAP4 POP POP PUSH1 0x40 DUP6 ADD CALLDATALOAD PUSH2 0x4555 DUP2 PUSH2 0x431E JUMP JUMPDEST SWAP4 SWAP7 SWAP3 SWAP6 POP SWAP3 SWAP4 PUSH1 0x60 ADD CALLDATALOAD SWAP3 POP POP JUMP JUMPDEST PUSH0 DUP2 MLOAD DUP1 DUP5 MSTORE PUSH1 0x20 DUP5 ADD SWAP4 POP PUSH1 0x20 DUP4 ADD PUSH0 JUMPDEST DUP3 DUP2 LT ISZERO PUSH2 0x4595 JUMPI DUP2 MLOAD DUP7 MSTORE PUSH1 0x20 SWAP6 DUP7 ADD SWAP6 SWAP1 SWAP2 ADD SWAP1 PUSH1 0x1 ADD PUSH2 0x4577 JUMP JUMPDEST POP SWAP4 SWAP5 SWAP4 POP POP POP POP JUMP JUMPDEST PUSH1 0x20 DUP2 MSTORE PUSH0 PUSH2 0x1D5A PUSH1 0x20 DUP4 ADD DUP5 PUSH2 0x4565 JUMP JUMPDEST PUSH0 DUP1 PUSH0 PUSH1 0x60 DUP5 DUP7 SUB SLT ISZERO PUSH2 0x45C3 JUMPI PUSH0 DUP1 REVERT JUMPDEST DUP4 CALLDATALOAD PUSH2 0x45CE DUP2 PUSH2 0x431E JUMP JUMPDEST SWAP3 POP PUSH1 0x20 DUP5 ADD CALLDATALOAD PUSH2 0x45DE DUP2 PUSH2 0x431E JUMP JUMPDEST SWAP3 SWAP6 SWAP3 SWAP5 POP POP POP PUSH1 0x40 SWAP2 SWAP1 SWAP2 ADD CALLDATALOAD SWAP1 JUMP JUMPDEST PUSH3 0xFFFFFF DUP2 AND DUP2 EQ PUSH2 0x4332 JUMPI PUSH0 DUP1 REVERT JUMPDEST PUSH2 0xFFFF DUP2 AND DUP2 EQ PUSH2 0x4332 JUMPI PUSH0 DUP1 REVERT JUMPDEST DUP1 CALLDATALOAD PUSH2 0x4340 DUP2 PUSH2 0x45FF JUMP JUMPDEST PUSH0 DUP1 PUSH0 DUP1 PUSH1 0x80 DUP6 DUP8 SUB SLT ISZERO PUSH2 0x462C JUMPI PUSH0 DUP1 REVERT JUMPDEST DUP5 CALLDATALOAD PUSH2 0x4637 DUP2 PUSH2 0x431E JUMP JUMPDEST SWAP4 POP PUSH1 0x20 DUP6 ADD CALLDATALOAD PUSH2 0x4647 DUP2 PUSH2 0x431E JUMP JUMPDEST SWAP3 POP PUSH1 0x40 DUP6 ADD CALLDATALOAD PUSH2 0x4657 DUP2 PUSH2 0x45EF JUMP JUMPDEST SWAP2 POP PUSH1 0x60 DUP6 ADD CALLDATALOAD PUSH2 0x4667 DUP2 PUSH2 0x45FF JUMP JUMPDEST SWAP4 SWAP7 SWAP3 SWAP6 POP SWAP1 SWAP4 POP POP JUMP JUMPDEST PUSH0 DUP1 PUSH0 DUP1 PUSH0 DUP1 PUSH0 DUP1 PUSH2 0x100 DUP10 DUP12 SUB SLT ISZERO PUSH2 0x468A JUMPI PUSH0 DUP1 REVERT JUMPDEST DUP9 CALLDATALOAD PUSH2 0x4695 DUP2 PUSH2 0x431E JUMP JUMPDEST SWAP8 POP PUSH1 0x20 DUP10 ADD CALLDATALOAD PUSH2 0x46A5 DUP2 PUSH2 0x45FF JUMP JUMPDEST SWAP7 POP PUSH1 0x40 DUP10 ADD CALLDATALOAD SWAP6 POP PUSH1 0x60 DUP10 ADD CALLDATALOAD SWAP5 POP PUSH1 0x80 DUP10 ADD CALLDATALOAD PUSH1 0x1 PUSH1 0x1 PUSH1 0x40 SHL SUB DUP2 GT ISZERO PUSH2 0x46CD JUMPI PUSH0 DUP1 REVERT JUMPDEST PUSH2 0x46D9 DUP12 DUP3 DUP13 ADD PUSH2 0x42B4 JUMP JUMPDEST SWAP5 POP POP PUSH1 0xA0 DUP10 ADD CALLDATALOAD PUSH1 0x1 PUSH1 0x1 PUSH1 0x40 SHL SUB DUP2 GT ISZERO PUSH2 0x46F4 JUMPI PUSH0 DUP1 REVERT JUMPDEST PUSH2 0x4700 DUP12 DUP3 DUP13 ADD PUSH2 0x42B4 JUMP JUMPDEST SWAP4 POP POP PUSH1 0xC0 DUP10 ADD CALLDATALOAD PUSH2 0x4711 DUP2 PUSH2 0x431E JUMP JUMPDEST SWAP8 SWAP11 SWAP7 SWAP10 POP SWAP5 SWAP8 SWAP4 SWAP7 SWAP3 SWAP6 SWAP2 SWAP5 POP SWAP2 SWAP3 PUSH1 0xE0 ADD CALLDATALOAD SWAP2 POP JUMP JUMPDEST PUSH0 PUSH1 0x20 DUP3 DUP5 SUB SLT ISZERO PUSH2 0x4739 JUMPI PUSH0 DUP1 REVERT JUMPDEST DUP2 CALLDATALOAD PUSH1 0x1 PUSH1 0x1 PUSH1 0x40 SHL SUB DUP2 GT ISZERO PUSH2 0x474E JUMPI PUSH0 DUP1 REVERT JUMPDEST DUP3 ADD PUSH2 0x1E0 DUP2 DUP6 SUB SLT ISZERO PUSH2 0x4760 JUMPI PUSH0 DUP1 REVERT JUMPDEST SWAP4 SWAP3 POP POP POP JUMP JUMPDEST DUP7 DUP2 MSTORE DUP6 PUSH1 0x20 DUP3 ADD MSTORE DUP5 PUSH1 0x40 DUP3 ADD MSTORE DUP4 PUSH1 0x60 DUP3 ADD MSTORE PUSH1 0xC0 PUSH1 0x80 DUP3 ADD MSTORE PUSH0 PUSH2 0x4791 PUSH1 0xC0 DUP4 ADD DUP6 PUSH2 0x4565 JUMP JUMPDEST DUP3 DUP2 SUB PUSH1 0xA0 DUP5 ADD MSTORE PUSH2 0x47A3 DUP2 DUP6 PUSH2 0x4565 JUMP JUMPDEST SWAP10 SWAP9 POP POP POP POP POP POP POP POP POP JUMP JUMPDEST PUSH1 0x1 PUSH1 0x1 PUSH1 0x80 SHL SUB DUP2 AND DUP2 EQ PUSH2 0x4332 JUMPI PUSH0 DUP1 REVERT JUMPDEST DUP1 ISZERO ISZERO DUP2 EQ PUSH2 0x4332 JUMPI PUSH0 DUP1 REVERT JUMPDEST PUSH0 DUP1 PUSH0 PUSH1 0x60 DUP5 DUP7 SUB SLT ISZERO PUSH2 0x47E3 JUMPI PUSH0 DUP1 REVERT JUMPDEST DUP4 CALLDATALOAD PUSH2 0x47EE DUP2 PUSH2 0x431E JUMP JUMPDEST SWAP3 POP PUSH1 0x20 DUP5 ADD CALLDATALOAD PUSH2 0x47FE DUP2 PUSH2 0x47B0 JUMP JUMPDEST SWAP2 POP PUSH1 0x40 DUP5 ADD CALLDATALOAD PUSH2 0x480E DUP2 PUSH2 0x47C4 JUMP JUMPDEST DUP1 SWAP2 POP POP SWAP3 POP SWAP3 POP SWAP3 JUMP JUMPDEST PUSH0 DUP1 PUSH0 DUP1 PUSH0 DUP1 PUSH0 DUP1 PUSH0 PUSH2 0x120 DUP11 DUP13 SUB SLT ISZERO PUSH2 0x4832 JUMPI PUSH0 DUP1 REVERT JUMPDEST DUP10 CALLDATALOAD PUSH2 0x483D DUP2 PUSH2 0x431E JUMP JUMPDEST SWAP9 POP PUSH2 0x484B PUSH1 0x20 DUP12 ADD PUSH2 0x4335 JUMP JUMPDEST SWAP8 POP PUSH2 0x4859 PUSH1 0x40 DUP12 ADD PUSH2 0x460E JUMP JUMPDEST SWAP7 POP PUSH1 0x60 DUP11 ADD CALLDATALOAD SWAP6 POP PUSH1 0x80 DUP11 ADD CALLDATALOAD SWAP5 POP PUSH1 0xA0 DUP11 ADD CALLDATALOAD PUSH1 0x1 PUSH1 0x1 PUSH1 0x40 SHL SUB DUP2 GT ISZERO PUSH2 0x4881 JUMPI PUSH0 DUP1 REVERT JUMPDEST PUSH2 0x488D DUP13 DUP3 DUP14 ADD PUSH2 0x42B4 JUMP JUMPDEST SWAP5 POP POP PUSH1 0xC0 DUP11 ADD CALLDATALOAD PUSH1 0x1 PUSH1 0x1 PUSH1 0x40 SHL SUB DUP2 GT ISZERO PUSH2 0x48A8 JUMPI PUSH0 DUP1 REVERT JUMPDEST PUSH2 0x48B4 DUP13 DUP3 DUP14 ADD PUSH2 0x42B4 JUMP JUMPDEST SWAP4 POP POP PUSH2 0x48C3 PUSH1 0xE0 DUP12 ADD PUSH2 0x4335 JUMP JUMPDEST SWAP9 SWAP12 SWAP8 SWAP11 POP SWAP6 SWAP9 SWAP5 SWAP8 SWAP4 SWAP7 SWAP3 SWAP6 POP SWAP1 SWAP4 PUSH2 0x100 ADD CALLDATALOAD SWAP2 SWAP1 POP JUMP JUMPDEST PUSH0 DUP1 PUSH1 0x40 DUP4 DUP6 SUB SLT ISZERO PUSH2 0x48EE JUMPI PUSH0 DUP1 REVERT JUMPDEST DUP3 CALLDATALOAD PUSH2 0x48F9 DUP2 PUSH2 0x431E JUMP JUMPDEST SWAP2 POP PUSH1 0x20 DUP4 ADD CALLDATALOAD PUSH2 0x4909 DUP2 PUSH2 0x45EF JUMP JUMPDEST DUP1 SWAP2 POP POP SWAP3 POP SWAP3 SWAP1 POP JUMP JUMPDEST PUSH0 DUP1 DUP4 PUSH1 0x1F DUP5 ADD SLT PUSH2 0x4924 JUMPI PUSH0 DUP1 REVERT JUMPDEST POP DUP2 CALLDATALOAD PUSH1 0x1 PUSH1 0x1 PUSH1 0x40 SHL SUB DUP2 GT ISZERO PUSH2 0x493A JUMPI PUSH0 DUP1 REVERT JUMPDEST PUSH1 0x20 DUP4 ADD SWAP2 POP DUP4 PUSH1 0x20 DUP3 PUSH1 0x5 SHL DUP6 ADD ADD GT ISZERO PUSH2 0x4954 JUMPI PUSH0 DUP1 REVERT JUMPDEST SWAP3 POP SWAP3 SWAP1 POP JUMP JUMPDEST PUSH0 DUP1 PUSH0 DUP1 PUSH0 DUP1 PUSH1 0x80 DUP8 DUP10 SUB SLT ISZERO PUSH2 0x4970 JUMPI PUSH0 DUP1 REVERT JUMPDEST DUP7 CALLDATALOAD PUSH2 0x497B DUP2 PUSH2 0x431E JUMP JUMPDEST SWAP6 POP PUSH1 0x20 DUP8 ADD CALLDATALOAD PUSH2 0x498B DUP2 PUSH2 0x431E JUMP JUMPDEST SWAP5 POP PUSH1 0x40 DUP8 ADD CALLDATALOAD PUSH1 0x1 PUSH1 0x1 PUSH1 0x40 SHL SUB DUP2 GT ISZERO PUSH2 0x49A5 JUMPI PUSH0 DUP1 REVERT JUMPDEST PUSH2 0x49B1 DUP10 DUP3 DUP11 ADD PUSH2 0x4914 JUMP JUMPDEST SWAP1 SWAP6 POP SWAP4 POP POP PUSH1 0x60 DUP8 ADD CALLDATALOAD PUSH1 0x1 PUSH1 0x1 PUSH1 0x40 SHL SUB DUP2 GT ISZERO PUSH2 0x49CF JUMPI PUSH0 DUP1 REVERT JUMPDEST PUSH2 0x49DB DUP10 DUP3 DUP11 ADD PUSH2 0x4914 JUMP JUMPDEST SWAP8 SWAP11 SWAP7 SWAP10 POP SWAP5 SWAP8 POP SWAP3 SWAP6 SWAP4 SWAP5 SWAP3 POP POP POP JUMP JUMPDEST PUSH0 DUP1 PUSH1 0x40 DUP4 DUP6 SUB SLT ISZERO PUSH2 0x49FE JUMPI PUSH0 DUP1 REVERT JUMPDEST DUP3 CALLDATALOAD PUSH2 0x4A09 DUP2 PUSH2 0x431E JUMP JUMPDEST SWAP5 PUSH1 0x20 SWAP4 SWAP1 SWAP4 ADD CALLDATALOAD SWAP4 POP POP POP JUMP JUMPDEST PUSH4 0x4E487B71 PUSH1 0xE0 SHL PUSH0 MSTORE PUSH1 0x11 PUSH1 0x4 MSTORE PUSH1 0x24 PUSH0 REVERT JUMPDEST DUP1 DUP3 ADD DUP1 DUP3 GT ISZERO PUSH2 0x1D5D JUMPI PUSH2 0x1D5D PUSH2 0x4A17 JUMP JUMPDEST PUSH4 0x4E487B71 PUSH1 0xE0 SHL PUSH0 MSTORE PUSH1 0x32 PUSH1 0x4 MSTORE PUSH1 0x24 PUSH0 REVERT JUMPDEST PUSH0 PUSH1 0x20 DUP3 DUP5 SUB SLT ISZERO PUSH2 0x4A62 JUMPI PUSH0 DUP1 REVERT JUMPDEST POP MLOAD SWAP2 SWAP1 POP JUMP JUMPDEST DUP2 DUP2 SUB DUP2 DUP2 GT ISZERO PUSH2 0x1D5D JUMPI PUSH2 0x1D5D PUSH2 0x4A17 JUMP JUMPDEST PUSH0 PUSH1 0x20 DUP3 DUP5 SUB SLT ISZERO PUSH2 0x4A8C JUMPI PUSH0 DUP1 REVERT JUMPDEST DUP2 MLOAD PUSH2 0x4760 DUP2 PUSH2 0x431E JUMP JUMPDEST PUSH0 PUSH1 0x20 DUP3 DUP5 SUB SLT ISZERO PUSH2 0x4AA7 JUMPI PUSH0 DUP1 REVERT JUMPDEST DUP2 CALLDATALOAD PUSH2 0x4760 DUP2 PUSH2 0x431E JUMP JUMPDEST PUSH0 DUP1 PUSH0 PUSH1 0x60 DUP5 DUP7 SUB SLT ISZERO PUSH2 0x4AC4 JUMPI PUSH0 DUP1 REVERT JUMPDEST DUP4 MLOAD PUSH2 0x4ACF DUP2 PUSH2 0x47B0 JUMP JUMPDEST PUSH1 0x20 DUP6 ADD MLOAD SWAP1 SWAP4 POP PUSH2 0x4AE0 DUP2 PUSH2 0x47B0 JUMP JUMPDEST PUSH1 0x40 DUP6 ADD MLOAD SWAP1 SWAP3 POP PUSH2 0x480E DUP2 PUSH2 0x47B0 JUMP JUMPDEST DUP2 DUP4 MSTORE PUSH0 PUSH1 0x1 PUSH1 0x1 PUSH1 0xFB SHL SUB DUP4 GT ISZERO PUSH2 0x4B08 JUMPI PUSH0 DUP1 REVERT JUMPDEST DUP3 PUSH1 0x5 SHL DUP1 DUP4 PUSH1 0x20 DUP8 ADD CALLDATACOPY SWAP4 SWAP1 SWAP4 ADD PUSH1 0x20 ADD SWAP4 SWAP3 POP POP POP JUMP JUMPDEST PUSH1 0x1 PUSH1 0x1 PUSH1 0xA0 SHL SUB DUP8 DUP2 AND DUP3 MSTORE DUP7 AND PUSH1 0x20 DUP3 ADD MSTORE PUSH1 0x80 PUSH1 0x40 DUP3 ADD DUP2 SWAP1 MSTORE PUSH0 SWAP1 PUSH2 0x4B4D SWAP1 DUP4 ADD DUP7 DUP9 PUSH2 0x4AF1 JUMP JUMPDEST DUP3 DUP2 SUB PUSH1 0x60 DUP5 ADD MSTORE PUSH2 0x47A3 DUP2 DUP6 DUP8 PUSH2 0x4AF1 JUMP JUMPDEST PUSH0 PUSH1 0x20 DUP3 DUP5 SUB SLT ISZERO PUSH2 0x4B70 JUMPI PUSH0 DUP1 REVERT JUMPDEST DUP2 MLOAD PUSH2 0x4760 DUP2 PUSH2 0x45EF JUMP JUMPDEST PUSH4 0x4E487B71 PUSH1 0xE0 SHL PUSH0 MSTORE PUSH1 0x21 PUSH1 0x4 MSTORE PUSH1 0x24 PUSH0 REVERT JUMPDEST DUP1 MLOAD PUSH1 0x1 PUSH1 0x1 PUSH1 0x70 SHL SUB DUP2 AND DUP2 EQ PUSH2 0x4340 JUMPI PUSH0 DUP1 REVERT JUMPDEST PUSH0 DUP1 PUSH0 PUSH1 0x60 DUP5 DUP7 SUB SLT ISZERO PUSH2 0x4BB7 JUMPI PUSH0 DUP1 REVERT JUMPDEST PUSH2 0x4BC0 DUP5 PUSH2 0x4B8F JUMP JUMPDEST SWAP3 POP PUSH2 0x4BCE PUSH1 0x20 DUP6 ADD PUSH2 0x4B8F JUMP JUMPDEST SWAP2 POP PUSH1 0x40 DUP5 ADD MLOAD PUSH4 0xFFFFFFFF DUP2 AND DUP2 EQ PUSH2 0x480E JUMPI PUSH0 DUP1 REVERT JUMPDEST SWAP3 DUP4 MSTORE PUSH1 0x20 DUP4 ADD SWAP2 SWAP1 SWAP2 MSTORE PUSH1 0x1 PUSH1 0x1 PUSH1 0xA0 SHL SUB AND PUSH1 0x40 DUP3 ADD MSTORE PUSH1 0x80 PUSH1 0x60 DUP3 ADD DUP2 SWAP1 MSTORE PUSH0 SWAP1 DUP3 ADD MSTORE PUSH1 0xA0 ADD SWAP1 JUMP JUMPDEST PUSH0 DUP1 PUSH1 0x40 DUP4 DUP6 SUB SLT ISZERO PUSH2 0x4C24 JUMPI PUSH0 DUP1 REVERT JUMPDEST POP POP DUP1 MLOAD PUSH1 0x20 SWAP1 SWAP2 ADD MLOAD SWAP1 SWAP3 SWAP1 SWAP2 POP JUMP JUMPDEST PUSH0 DUP2 PUSH2 0x4C43 JUMPI PUSH2 0x4C43 PUSH2 0x4A17 JUMP JUMPDEST POP PUSH0 NOT ADD SWAP1 JUMP JUMPDEST PUSH1 0x1 PUSH1 0x1 PUSH1 0xA0 SHL SUB SWAP4 DUP5 AND DUP2 MSTORE SWAP2 SWAP1 SWAP3 AND PUSH1 0x20 DUP3 ADD MSTORE PUSH1 0x40 DUP2 ADD SWAP2 SWAP1 SWAP2 MSTORE PUSH1 0x60 ADD SWAP1 JUMP JUMPDEST PUSH0 PUSH1 0x80 DUP3 DUP5 SUB SLT DUP1 ISZERO PUSH2 0x4C7F JUMPI PUSH0 DUP1 REVERT JUMPDEST POP PUSH2 0x4C88 PUSH2 0x4240 JUMP JUMPDEST DUP3 MLOAD PUSH2 0x4C93 DUP2 PUSH2 0x45FF JUMP JUMPDEST DUP2 MSTORE PUSH1 0x20 DUP4 ADD MLOAD PUSH2 0x4CA3 DUP2 PUSH2 0x431E JUMP JUMPDEST PUSH1 0x20 DUP3 ADD MSTORE PUSH1 0x40 DUP4 ADD MLOAD PUSH2 0x4CB6 DUP2 PUSH2 0x47C4 JUMP JUMPDEST PUSH1 0x40 DUP3 ADD MSTORE PUSH1 0x60 DUP4 ADD MLOAD PUSH2 0x4CC9 DUP2 PUSH2 0x47C4 JUMP JUMPDEST PUSH1 0x60 DUP3 ADD MSTORE SWAP4 SWAP3 POP POP POP JUMP JUMPDEST PUSH1 0x1 PUSH1 0x1 PUSH1 0xA0 SHL SUB DUP6 DUP2 AND DUP3 MSTORE DUP5 AND PUSH1 0x20 DUP3 ADD MSTORE PUSH1 0x80 PUSH1 0x40 DUP3 ADD DUP2 SWAP1 MSTORE PUSH0 SWAP1 PUSH2 0x4D00 SWAP1 DUP4 ADD DUP6 PUSH2 0x4565 JUMP JUMPDEST DUP3 DUP2 SUB PUSH1 0x60 DUP5 ADD MSTORE PUSH2 0x4089 DUP2 DUP6 PUSH2 0x4565 JUMP JUMPDEST PUSH0 PUSH1 0x20 DUP3 DUP5 SUB SLT ISZERO PUSH2 0x4D22 JUMPI PUSH0 DUP1 REVERT JUMPDEST DUP2 MLOAD PUSH1 0x1 PUSH1 0x1 PUSH1 0x40 SHL SUB DUP2 GT ISZERO PUSH2 0x4D37 JUMPI PUSH0 DUP1 REVERT JUMPDEST DUP3 ADD PUSH1 0x1F DUP2 ADD DUP5 SGT PUSH2 0x4D47 JUMPI PUSH0 DUP1 REVERT JUMPDEST DUP1 MLOAD PUSH2 0x4D55 PUSH2 0x42D1 DUP3 PUSH2 0x4292 JUMP JUMPDEST DUP1 DUP3 DUP3 MSTORE PUSH1 0x20 DUP3 ADD SWAP2 POP PUSH1 0x20 DUP4 PUSH1 0x5 SHL DUP6 ADD ADD SWAP3 POP DUP7 DUP4 GT ISZERO PUSH2 0x4D76 JUMPI PUSH0 DUP1 REVERT JUMPDEST PUSH1 0x20 DUP5 ADD SWAP4 POP JUMPDEST DUP3 DUP5 LT ISZERO PUSH2 0x4125 JUMPI DUP4 MLOAD DUP3 MSTORE PUSH1 0x20 SWAP4 DUP5 ADD SWAP4 SWAP1 SWAP2 ADD SWAP1 PUSH2 0x4D7D JUMP JUMPDEST PUSH0 DUP1 DUP4 CALLDATALOAD PUSH1 0x1E NOT DUP5 CALLDATASIZE SUB ADD DUP2 SLT PUSH2 0x4DAD JUMPI PUSH0 DUP1 REVERT JUMPDEST DUP4 ADD DUP1 CALLDATALOAD SWAP2 POP PUSH1 0x1 PUSH1 0x1 PUSH1 0x40 SHL SUB DUP3 GT ISZERO PUSH2 0x4DC6 JUMPI PUSH0 DUP1 REVERT JUMPDEST PUSH1 0x20 ADD SWAP2 POP PUSH1 0x5 DUP2 SWAP1 SHL CALLDATASIZE SUB DUP3 SGT ISZERO PUSH2 0x4954 JUMPI PUSH0 DUP1 REVERT JUMPDEST PUSH1 0x1 PUSH1 0x1 PUSH1 0xA0 SHL SUB DUP5 AND DUP2 MSTORE PUSH1 0x60 PUSH1 0x20 DUP1 DUP4 ADD DUP3 SWAP1 MSTORE DUP5 MLOAD SWAP2 DUP4 ADD DUP3 SWAP1 MSTORE PUSH0 SWAP2 SWAP1 DUP6 ADD SWAP1 PUSH1 0x80 DUP5 ADD SWAP1 DUP4 JUMPDEST DUP2 DUP2 LT ISZERO PUSH2 0x4E26 JUMPI DUP4 MLOAD DUP4 MSTORE PUSH1 0x20 SWAP4 DUP5 ADD SWAP4 SWAP1 SWAP3 ADD SWAP2 PUSH1 0x1 ADD PUSH2 0x4E08 JUMP JUMPDEST POP POP PUSH1 0x1 PUSH1 0x1 PUSH1 0xA0 SHL SUB SWAP5 SWAP1 SWAP5 AND PUSH1 0x40 SWAP4 SWAP1 SWAP4 ADD SWAP3 SWAP1 SWAP3 MSTORE POP SWAP1 SWAP4 SWAP3 POP POP POP JUMP JUMPDEST PUSH0 DUP1 PUSH0 PUSH1 0x60 DUP5 DUP7 SUB SLT ISZERO PUSH2 0x4E59 JUMPI PUSH0 DUP1 REVERT JUMPDEST DUP4 MLOAD PUSH1 0x20 DUP6 ADD MLOAD PUSH1 0x40 DUP7 ADD MLOAD SWAP2 SWAP5 POP SWAP3 POP PUSH1 0x1 PUSH1 0x1 PUSH1 0x40 SHL SUB DUP2 GT ISZERO PUSH2 0x4E7D JUMPI PUSH0 DUP1 REVERT JUMPDEST DUP5 ADD PUSH1 0x1F DUP2 ADD DUP7 SGT PUSH2 0x4E8D JUMPI PUSH0 DUP1 REVERT JUMPDEST DUP1 MLOAD PUSH2 0x4E9B PUSH2 0x42D1 DUP3 PUSH2 0x4292 JUMP JUMPDEST DUP1 DUP3 DUP3 MSTORE PUSH1 0x20 DUP3 ADD SWAP2 POP PUSH1 0x20 DUP4 PUSH1 0x5 SHL DUP6 ADD ADD SWAP3 POP DUP9 DUP4 GT ISZERO PUSH2 0x4EBC JUMPI PUSH0 DUP1 REVERT JUMPDEST PUSH1 0x20 DUP5 ADD SWAP4 POP JUMPDEST DUP3 DUP5 LT ISZERO PUSH2 0x4EDE JUMPI DUP4 MLOAD DUP3 MSTORE PUSH1 0x20 SWAP4 DUP5 ADD SWAP4 SWAP1 SWAP2 ADD SWAP1 PUSH2 0x4EC3 JUMP JUMPDEST DUP1 SWAP5 POP POP POP POP POP SWAP3 POP SWAP3 POP SWAP3 JUMP JUMPDEST DUP1 DUP3 MUL DUP2 ISZERO DUP3 DUP3 DIV DUP5 EQ OR PUSH2 0x1D5D JUMPI PUSH2 0x1D5D PUSH2 0x4A17 JUMP JUMPDEST PUSH0 DUP3 PUSH2 0x4F1D JUMPI PUSH4 0x4E487B71 PUSH1 0xE0 SHL PUSH0 MSTORE PUSH1 0x12 PUSH1 0x4 MSTORE PUSH1 0x24 PUSH0 REVERT JUMPDEST POP DIV SWAP1 JUMP INVALID LOG2 PUSH5 0x6970667358 0x22 SLT KECCAK256 LOG4 RETURN 0xBD MCOPY SELFBALANCE PUSH13 0x93F95447829CD55EF640E6285C PUSH30 0xEECF2F2B589C0154CA57CEAD64736F6C634300081A003300000000000000 "
		},
		"gasEstimates": {
			"creation": {
				"codeDepositCost": "4062400",
				"executionCost": "infinite",
				"totalCost": "infinite"
			},
			"external": {
				"addLiquidity((address,address,uint256,uint256,uint256,uint256,uint256,uint256,uint256,int256[],uint256[],uint256[],address,address,uint256))": "infinite",
				"addLiquidityNATIVE((address,address,uint256,uint256,uint256,uint256,uint256,uint256,uint256,int256[],uint256[],uint256[],address,address,uint256))": "infinite",
				"createLBPair(address,address,uint24,uint16)": "infinite",
				"getFactory()": "infinite",
				"getFactoryV2_1()": "infinite",
				"getIdFromPrice(address,uint256)": "infinite",
				"getLegacyFactory()": "infinite",
				"getLegacyRouter()": "infinite",
				"getPriceFromId(address,uint24)": "infinite",
				"getSwapIn(address,uint128,bool)": "infinite",
				"getSwapOut(address,uint128,bool)": "infinite",
				"getV1Factory()": "infinite",
				"getWNATIVE()": "infinite",
				"removeLiquidity(address,address,uint16,uint256,uint256,uint256[],uint256[],address,uint256)": "infinite",
				"removeLiquidityNATIVE(address,uint16,uint256,uint256,uint256[],uint256[],address,uint256)": "infinite",
				"swapExactNATIVEForTokens(uint256,(uint256[],uint8[],address[]),address,uint256)": "infinite",
				"swapExactNATIVEForTokensSupportingFeeOnTransferTokens(uint256,(uint256[],uint8[],address[]),address,uint256)": "infinite",
				"swapExactTokensForNATIVE(uint256,uint256,(uint256[],uint8[],address[]),address,uint256)": "infinite",
				"swapExactTokensForNATIVESupportingFeeOnTransferTokens(uint256,uint256,(uint256[],uint8[],address[]),address,uint256)": "infinite",
				"swapExactTokensForTokens(uint256,uint256,(uint256[],uint8[],address[]),address,uint256)": "infinite",
				"swapExactTokensForTokensSupportingFeeOnTransferTokens(uint256,uint256,(uint256[],uint8[],address[]),address,uint256)": "infinite",
				"swapNATIVEForExactTokens(uint256,(uint256[],uint8[],address[]),address,uint256)": "infinite",
				"swapTokensForExactNATIVE(uint256,uint256,(uint256[],uint8[],address[]),address,uint256)": "infinite",
				"swapTokensForExactTokens(uint256,uint256,(uint256[],uint8[],address[]),address,uint256)": "infinite",
				"sweep(address,address,uint256)": "infinite",
				"sweepLBToken(address,address,uint256[],uint256[])": "infinite"
			},
			"internal": {
				"_addLiquidity(struct ILBRouter.LiquidityParameters calldata,contract ILBPair)": "infinite",
				"_getAmountsIn(enum ILBRouter.Version[] memory,address[] memory,contract IERC20[] memory,uint256)": "infinite",
				"_getLBPairInformation(contract IERC20,contract IERC20,uint256,enum ILBRouter.Version)": "infinite",
				"_getPair(contract IERC20,contract IERC20,uint256,enum ILBRouter.Version)": "infinite",
				"_getPairs(uint256[] memory,enum ILBRouter.Version[] memory,contract IERC20[] memory)": "infinite",
				"_removeLiquidity(contract ILBPair,uint256,uint256,uint256[] memory,uint256[] memory,address)": "infinite",
				"_safeTransfer(contract IERC20,address,uint256)": "infinite",
				"_safeTransferFrom(contract IERC20,address,address,uint256)": "infinite",
				"_safeTransferNative(address,uint256)": "infinite",
				"_swapExactTokensForTokens(uint256,address[] memory,enum ILBRouter.Version[] memory,contract IERC20[] memory,address)": "infinite",
				"_swapSupportingFeeOnTransferTokens(address[] memory,enum ILBRouter.Version[] memory,contract IERC20[] memory,address)": "infinite",
				"_swapTokensForExactTokens(address[] memory,enum ILBRouter.Version[] memory,contract IERC20[] memory,uint256[] memory,address)": "infinite",
				"_wNativeDepositAndTransfer(address,uint256)": "infinite",
				"_wNativeWithdrawAndTransfer(address,uint256)": "infinite"
			}
		},
		"methodIdentifiers": {
			"addLiquidity((address,address,uint256,uint256,uint256,uint256,uint256,uint256,uint256,int256[],uint256[],uint256[],address,address,uint256))": "a3c7271a",
			"addLiquidityNATIVE((address,address,uint256,uint256,uint256,uint256,uint256,uint256,uint256,int256[],uint256[],uint256[],address,address,uint256))": "8efc2b2c",
			"createLBPair(address,address,uint24,uint16)": "659ac74b",
			"getFactory()": "88cc58e4",
			"getFactoryV2_1()": "5c5035cb",
			"getIdFromPrice(address,uint256)": "f96fe925",
			"getLegacyFactory()": "71d1974a",
			"getLegacyRouter()": "ba846523",
			"getPriceFromId(address,uint24)": "d0e380f2",
			"getSwapIn(address,uint128,bool)": "964f987c",
			"getSwapOut(address,uint128,bool)": "a0d376cf",
			"getV1Factory()": "bb558a9f",
			"getWNATIVE()": "6c9c0078",
			"removeLiquidity(address,address,uint16,uint256,uint256,uint256[],uint256[],address,uint256)": "c22159b6",
			"removeLiquidityNATIVE(address,uint16,uint256,uint256,uint256[],uint256[],address,uint256)": "81c2fdfb",
			"swapExactNATIVEForTokens(uint256,(uint256[],uint8[],address[]),address,uint256)": "b066ea7c",
			"swapExactNATIVEForTokensSupportingFeeOnTransferTokens(uint256,(uint256[],uint8[],address[]),address,uint256)": "e038e6dc",
			"swapExactTokensForNATIVE(uint256,uint256,(uint256[],uint8[],address[]),address,uint256)": "9ab6156b",
			"swapExactTokensForNATIVESupportingFeeOnTransferTokens(uint256,uint256,(uint256[],uint8[],address[]),address,uint256)": "1a24f9a9",
			"swapExactTokensForTokens(uint256,uint256,(uint256[],uint8[],address[]),address,uint256)": "2a443fae",
			"swapExactTokensForTokensSupportingFeeOnTransferTokens(uint256,uint256,(uint256[],uint8[],address[]),address,uint256)": "4b801870",
			"swapNATIVEForExactTokens(uint256,(uint256[],uint8[],address[]),address,uint256)": "2075ad22",
			"swapTokensForExactNATIVE(uint256,uint256,(uint256[],uint8[],address[]),address,uint256)": "3dc8f8ec",
			"swapTokensForExactTokens(uint256,uint256,(uint256[],uint8[],address[]),address,uint256)": "92fe8e70",
			"sweep(address,address,uint256)": "62c06767",
			"sweepLBToken(address,address,uint256[],uint256[])": "e9361c08"
		}
	},
	"abi": [
		{
			"inputs": [
				{
					"internalType": "contract ILBFactory",
					"name": "factory2_2",
					"type": "address"
				},
				{
					"internalType": "contract IJoeFactory",
					"name": "factoryV1",
					"type": "address"
				},
				{
					"internalType": "contract ILBLegacyFactory",
					"name": "legacyFactory",
					"type": "address"
				},
				{
					"internalType": "contract ILBLegacyRouter",
					"name": "legacyRouter",
					"type": "address"
				},
				{
					"internalType": "contract ILBFactory",
					"name": "factory2_1",
					"type": "address"
				},
				{
					"internalType": "contract IWNATIVE",
					"name": "wnative",
					"type": "address"
				}
			],
			"stateMutability": "nonpayable",
			"type": "constructor"
		},
		{
			"inputs": [],
			"name": "JoeLibrary__InsufficientAmount",
			"type": "error"
		},
		{
			"inputs": [],
			"name": "JoeLibrary__InsufficientLiquidity",
			"type": "error"
		},
		{
			"inputs": [
				{
					"internalType": "uint256",
					"name": "amountSlippage",
					"type": "uint256"
				}
			],
			"name": "LBRouter__AmountSlippageBPTooBig",
			"type": "error"
		},
		{
			"inputs": [
				{
					"internalType": "uint256",
					"name": "amountXMin",
					"type": "uint256"
				},
				{
					"internalType": "uint256",
					"name": "amountX",
					"type": "uint256"
				},
				{
					"internalType": "uint256",
					"name": "amountYMin",
					"type": "uint256"
				},
				{
					"internalType": "uint256",
					"name": "amountY",
					"type": "uint256"
				}
			],
			"name": "LBRouter__AmountSlippageCaught",
			"type": "error"
		},
		{
			"inputs": [
				{
					"internalType": "uint256",
					"name": "id",
					"type": "uint256"
				}
			],
			"name": "LBRouter__BinReserveOverflows",
			"type": "error"
		},
		{
			"inputs": [],
			"name": "LBRouter__BrokenSwapSafetyCheck",
			"type": "error"
		},
		{
			"inputs": [
				{
					"internalType": "uint256",
					"name": "deadline",
					"type": "uint256"
				},
				{
					"internalType": "uint256",
					"name": "currentTimestamp",
					"type": "uint256"
				}
			],
			"name": "LBRouter__DeadlineExceeded",
			"type": "error"
		},
		{
			"inputs": [
				{
					"internalType": "address",
					"name": "recipient",
					"type": "address"
				},
				{
					"internalType": "uint256",
					"name": "amount",
					"type": "uint256"
				}
			],
			"name": "LBRouter__FailedToSendNATIVE",
			"type": "error"
		},
		{
			"inputs": [
				{
					"internalType": "uint256",
					"name": "idDesired",
					"type": "uint256"
				},
				{
					"internalType": "uint256",
					"name": "idSlippage",
					"type": "uint256"
				}
			],
			"name": "LBRouter__IdDesiredOverflows",
			"type": "error"
		},
		{
			"inputs": [
				{
					"internalType": "int256",
					"name": "id",
					"type": "int256"
				}
			],
			"name": "LBRouter__IdOverflows",
			"type": "error"
		},
		{
			"inputs": [
				{
					"internalType": "uint256",
					"name": "activeIdDesired",
					"type": "uint256"
				},
				{
					"internalType": "uint256",
					"name": "idSlippage",
					"type": "uint256"
				},
				{
					"internalType": "uint256",
					"name": "activeId",
					"type": "uint256"
				}
			],
			"name": "LBRouter__IdSlippageCaught",
			"type": "error"
		},
		{
			"inputs": [
				{
					"internalType": "uint256",
					"name": "amountOutMin",
					"type": "uint256"
				},
				{
					"internalType": "uint256",
					"name": "amountOut",
					"type": "uint256"
				}
			],
			"name": "LBRouter__InsufficientAmountOut",
			"type": "error"
		},
		{
			"inputs": [
				{
					"internalType": "uint256",
					"name": "liquidityMinted",
					"type": "uint256"
				}
			],
			"name": "LBRouter__InsufficientLiquidityMinted",
			"type": "error"
		},
		{
			"inputs": [
				{
					"internalType": "address",
					"name": "wrongToken",
					"type": "address"
				}
			],
			"name": "LBRouter__InvalidTokenPath",
			"type": "error"
		},
		{
			"inputs": [
				{
					"internalType": "uint256",
					"name": "version",
					"type": "uint256"
				}
			],
			"name": "LBRouter__InvalidVersion",
			"type": "error"
		},
		{
			"inputs": [],
			"name": "LBRouter__LengthsMismatch",
			"type": "error"
		},
		{
			"inputs": [
				{
					"internalType": "uint256",
					"name": "amountInMax",
					"type": "uint256"
				},
				{
					"internalType": "uint256",
					"name": "amountIn",
					"type": "uint256"
				}
			],
			"name": "LBRouter__MaxAmountInExceeded",
			"type": "error"
		},
		{
			"inputs": [],
			"name": "LBRouter__NotFactoryOwner",
			"type": "error"
		},
		{
			"inputs": [
				{
					"internalType": "address",
					"name": "tokenX",
					"type": "address"
				},
				{
					"internalType": "address",
					"name": "tokenY",
					"type": "address"
				},
				{
					"internalType": "uint256",
					"name": "binStep",
					"type": "uint256"
				}
			],
			"name": "LBRouter__PairNotCreated",
			"type": "error"
		},
		{
			"inputs": [],
			"name": "LBRouter__SenderIsNotWNATIVE",
			"type": "error"
		},
		{
			"inputs": [
				{
					"internalType": "uint256",
					"name": "id",
					"type": "uint256"
				}
			],
			"name": "LBRouter__SwapOverflows",
			"type": "error"
		},
		{
			"inputs": [
				{
					"internalType": "uint256",
					"name": "excess",
					"type": "uint256"
				}
			],
			"name": "LBRouter__TooMuchTokensIn",
			"type": "error"
		},
		{
			"inputs": [
				{
					"internalType": "uint256",
					"name": "amount",
					"type": "uint256"
				},
				{
					"internalType": "uint256",
					"name": "reserve",
					"type": "uint256"
				}
			],
			"name": "LBRouter__WrongAmounts",
			"type": "error"
		},
		{
			"inputs": [
				{
					"internalType": "address",
					"name": "tokenX",
					"type": "address"
				},
				{
					"internalType": "address",
					"name": "tokenY",
					"type": "address"
				},
				{
					"internalType": "uint256",
					"name": "amountX",
					"type": "uint256"
				},
				{
					"internalType": "uint256",
					"name": "amountY",
					"type": "uint256"
				},
				{
					"internalType": "uint256",
					"name": "msgValue",
					"type": "uint256"
				}
			],
			"name": "LBRouter__WrongNativeLiquidityParameters",
			"type": "error"
		},
		{
			"inputs": [],
			"name": "LBRouter__WrongTokenOrder",
			"type": "error"
		},
		{
			"inputs": [],
			"name": "PackedUint128Math__SubUnderflow",
			"type": "error"
		},
		{
			"inputs": [],
			"name": "TokenHelper__TransferFailed",
			"type": "error"
		},
		{
			"inputs": [
				{
					"components": [
						{
							"internalType": "contract IERC20",
							"name": "tokenX",
							"type": "address"
						},
						{
							"internalType": "contract IERC20",
							"name": "tokenY",
							"type": "address"
						},
						{
							"internalType": "uint256",
							"name": "binStep",
							"type": "uint256"
						},
						{
							"internalType": "uint256",
							"name": "amountX",
							"type": "uint256"
						},
						{
							"internalType": "uint256",
							"name": "amountY",
							"type": "uint256"
						},
						{
							"internalType": "uint256",
							"name": "amountXMin",
							"type": "uint256"
						},
						{
							"internalType": "uint256",
							"name": "amountYMin",
							"type": "uint256"
						},
						{
							"internalType": "uint256",
							"name": "activeIdDesired",
							"type": "uint256"
						},
						{
							"internalType": "uint256",
							"name": "idSlippage",
							"type": "uint256"
						},
						{
							"internalType": "int256[]",
							"name": "deltaIds",
							"type": "int256[]"
						},
						{
							"internalType": "uint256[]",
							"name": "distributionX",
							"type": "uint256[]"
						},
						{
							"internalType": "uint256[]",
							"name": "distributionY",
							"type": "uint256[]"
						},
						{
							"internalType": "address",
							"name": "to",
							"type": "address"
						},
						{
							"internalType": "address",
							"name": "refundTo",
							"type": "address"
						},
						{
							"internalType": "uint256",
							"name": "deadline",
							"type": "uint256"
						}
					],
					"internalType": "struct ILBRouter.LiquidityParameters",
					"name": "liquidityParameters",
					"type": "tuple"
				}
			],
			"name": "addLiquidity",
			"outputs": [
				{
					"internalType": "uint256",
					"name": "amountXAdded",
					"type": "uint256"
				},
				{
					"internalType": "uint256",
					"name": "amountYAdded",
					"type": "uint256"
				},
				{
					"internalType": "uint256",
					"name": "amountXLeft",
					"type": "uint256"
				},
				{
					"internalType": "uint256",
					"name": "amountYLeft",
					"type": "uint256"
				},
				{
					"internalType": "uint256[]",
					"name": "depositIds",
					"type": "uint256[]"
				},
				{
					"internalType": "uint256[]",
					"name": "liquidityMinted",
					"type": "uint256[]"
				}
			],
			"stateMutability": "nonpayable",
			"type": "function"
		},
		{
			"inputs": [
				{
					"components": [
						{
							"internalType": "contract IERC20",
							"name": "tokenX",
							"type": "address"
						},
						{
							"internalType": "contract IERC20",
							"name": "tokenY",
							"type": "address"
						},
						{
							"internalType": "uint256",
							"name": "binStep",
							"type": "uint256"
						},
						{
							"internalType": "uint256",
							"name": "amountX",
							"type": "uint256"
						},
						{
							"internalType": "uint256",
							"name": "amountY",
							"type": "uint256"
						},
						{
							"internalType": "uint256",
							"name": "amountXMin",
							"type": "uint256"
						},
						{
							"internalType": "uint256",
							"name": "amountYMin",
							"type": "uint256"
						},
						{
							"internalType": "uint256",
							"name": "activeIdDesired",
							"type": "uint256"
						},
						{
							"internalType": "uint256",
							"name": "idSlippage",
							"type": "uint256"
						},
						{
							"internalType": "int256[]",
							"name": "deltaIds",
							"type": "int256[]"
						},
						{
							"internalType": "uint256[]",
							"name": "distributionX",
							"type": "uint256[]"
						},
						{
							"internalType": "uint256[]",
							"name": "distributionY",
							"type": "uint256[]"
						},
						{
							"internalType": "address",
							"name": "to",
							"type": "address"
						},
						{
							"internalType": "address",
							"name": "refundTo",
							"type": "address"
						},
						{
							"internalType": "uint256",
							"name": "deadline",
							"type": "uint256"
						}
					],
					"internalType": "struct ILBRouter.LiquidityParameters",
					"name": "liquidityParameters",
					"type": "tuple"
				}
			],
			"name": "addLiquidityNATIVE",
			"outputs": [
				{
					"internalType": "uint256",
					"name": "amountXAdded",
					"type": "uint256"
				},
				{
					"internalType": "uint256",
					"name": "amountYAdded",
					"type": "uint256"
				},
				{
					"internalType": "uint256",
					"name": "amountXLeft",
					"type": "uint256"
				},
				{
					"internalType": "uint256",
					"name": "amountYLeft",
					"type": "uint256"
				},
				{
					"internalType": "uint256[]",
					"name": "depositIds",
					"type": "uint256[]"
				},
				{
					"internalType": "uint256[]",
					"name": "liquidityMinted",
					"type": "uint256[]"
				}
			],
			"stateMutability": "payable",
			"type": "function"
		},
		{
			"inputs": [
				{
					"internalType": "contract IERC20",
					"name": "tokenX",
					"type": "address"
				},
				{
					"internalType": "contract IERC20",
					"name": "tokenY",
					"type": "address"
				},
				{
					"internalType": "uint24",
					"name": "activeId",
					"type": "uint24"
				},
				{
					"internalType": "uint16",
					"name": "binStep",
					"type": "uint16"
				}
			],
			"name": "createLBPair",
			"outputs": [
				{
					"internalType": "contract ILBPair",
					"name": "pair",
					"type": "address"
				}
			],
			"stateMutability": "nonpayable",
			"type": "function"
		},
		{
			"inputs": [],
			"name": "getFactory",
			"outputs": [
				{
					"internalType": "contract ILBFactory",
					"name": "lbFactory",
					"type": "address"
				}
			],
			"stateMutability": "view",
			"type": "function"
		},
		{
			"inputs": [],
			"name": "getFactoryV2_1",
			"outputs": [
				{
					"internalType": "contract ILBFactory",
					"name": "lbFactory",
					"type": "address"
				}
			],
			"stateMutability": "view",
			"type": "function"
		},
		{
			"inputs": [
				{
					"internalType": "contract ILBPair",
					"name": "pair",
					"type": "address"
				},
				{
					"internalType": "uint256",
					"name": "price",
					"type": "uint256"
				}
			],
			"name": "getIdFromPrice",
			"outputs": [
				{
					"internalType": "uint24",
					"name": "",
					"type": "uint24"
				}
			],
			"stateMutability": "view",
			"type": "function"
		},
		{
			"inputs": [],
			"name": "getLegacyFactory",
			"outputs": [
				{
					"internalType": "contract ILBLegacyFactory",
					"name": "legacyLBfactory",
					"type": "address"
				}
			],
			"stateMutability": "view",
			"type": "function"
		},
		{
			"inputs": [],
			"name": "getLegacyRouter",
			"outputs": [
				{
					"internalType": "contract ILBLegacyRouter",
					"name": "legacyRouter",
					"type": "address"
				}
			],
			"stateMutability": "view",
			"type": "function"
		},
		{
			"inputs": [
				{
					"internalType": "contract ILBPair",
					"name": "pair",
					"type": "address"
				},
				{
					"internalType": "uint24",
					"name": "id",
					"type": "uint24"
				}
			],
			"name": "getPriceFromId",
			"outputs": [
				{
					"internalType": "uint256",
					"name": "",
					"type": "uint256"
				}
			],
			"stateMutability": "view",
			"type": "function"
		},
		{
			"inputs": [
				{
					"internalType": "contract ILBPair",
					"name": "pair",
					"type": "address"
				},
				{
					"internalType": "uint128",
					"name": "amountOut",
					"type": "uint128"
				},
				{
					"internalType": "bool",
					"name": "swapForY",
					"type": "bool"
				}
			],
			"name": "getSwapIn",
			"outputs": [
				{
					"internalType": "uint128",
					"name": "amountIn",
					"type": "uint128"
				},
				{
					"internalType": "uint128",
					"name": "amountOutLeft",
					"type": "uint128"
				},
				{
					"internalType": "uint128",
					"name": "fee",
					"type": "uint128"
				}
			],
			"stateMutability": "view",
			"type": "function"
		},
		{
			"inputs": [
				{
					"internalType": "contract ILBPair",
					"name": "pair",
					"type": "address"
				},
				{
					"internalType": "uint128",
					"name": "amountIn",
					"type": "uint128"
				},
				{
					"internalType": "bool",
					"name": "swapForY",
					"type": "bool"
				}
			],
			"name": "getSwapOut",
			"outputs": [
				{
					"internalType": "uint128",
					"name": "amountInLeft",
					"type": "uint128"
				},
				{
					"internalType": "uint128",
					"name": "amountOut",
					"type": "uint128"
				},
				{
					"internalType": "uint128",
					"name": "fee",
					"type": "uint128"
				}
			],
			"stateMutability": "view",
			"type": "function"
		},
		{
			"inputs": [],
			"name": "getV1Factory",
			"outputs": [
				{
					"internalType": "contract IJoeFactory",
					"name": "factoryV1",
					"type": "address"
				}
			],
			"stateMutability": "view",
			"type": "function"
		},
		{
			"inputs": [],
			"name": "getWNATIVE",
			"outputs": [
				{
					"internalType": "contract IWNATIVE",
					"name": "wnative",
					"type": "address"
				}
			],
			"stateMutability": "view",
			"type": "function"
		},
		{
			"inputs": [
				{
					"internalType": "contract IERC20",
					"name": "tokenX",
					"type": "address"
				},
				{
					"internalType": "contract IERC20",
					"name": "tokenY",
					"type": "address"
				},
				{
					"internalType": "uint16",
					"name": "binStep",
					"type": "uint16"
				},
				{
					"internalType": "uint256",
					"name": "amountXMin",
					"type": "uint256"
				},
				{
					"internalType": "uint256",
					"name": "amountYMin",
					"type": "uint256"
				},
				{
					"internalType": "uint256[]",
					"name": "ids",
					"type": "uint256[]"
				},
				{
					"internalType": "uint256[]",
					"name": "amounts",
					"type": "uint256[]"
				},
				{
					"internalType": "address",
					"name": "to",
					"type": "address"
				},
				{
					"internalType": "uint256",
					"name": "deadline",
					"type": "uint256"
				}
			],
			"name": "removeLiquidity",
			"outputs": [
				{
					"internalType": "uint256",
					"name": "amountX",
					"type": "uint256"
				},
				{
					"internalType": "uint256",
					"name": "amountY",
					"type": "uint256"
				}
			],
			"stateMutability": "nonpayable",
			"type": "function"
		},
		{
			"inputs": [
				{
					"internalType": "contract IERC20",
					"name": "token",
					"type": "address"
				},
				{
					"internalType": "uint16",
					"name": "binStep",
					"type": "uint16"
				},
				{
					"internalType": "uint256",
					"name": "amountTokenMin",
					"type": "uint256"
				},
				{
					"internalType": "uint256",
					"name": "amountNATIVEMin",
					"type": "uint256"
				},
				{
					"internalType": "uint256[]",
					"name": "ids",
					"type": "uint256[]"
				},
				{
					"internalType": "uint256[]",
					"name": "amounts",
					"type": "uint256[]"
				},
				{
					"internalType": "address payable",
					"name": "to",
					"type": "address"
				},
				{
					"internalType": "uint256",
					"name": "deadline",
					"type": "uint256"
				}
			],
			"name": "removeLiquidityNATIVE",
			"outputs": [
				{
					"internalType": "uint256",
					"name": "amountToken",
					"type": "uint256"
				},
				{
					"internalType": "uint256",
					"name": "amountNATIVE",
					"type": "uint256"
				}
			],
			"stateMutability": "nonpayable",
			"type": "function"
		},
		{
			"inputs": [
				{
					"internalType": "uint256",
					"name": "amountOutMin",
					"type": "uint256"
				},
				{
					"components": [
						{
							"internalType": "uint256[]",
							"name": "pairBinSteps",
							"type": "uint256[]"
						},
						{
							"internalType": "enum ILBRouter.Version[]",
							"name": "versions",
							"type": "uint8[]"
						},
						{
							"internalType": "contract IERC20[]",
							"name": "tokenPath",
							"type": "address[]"
						}
					],
					"internalType": "struct ILBRouter.Path",
					"name": "path",
					"type": "tuple"
				},
				{
					"internalType": "address",
					"name": "to",
					"type": "address"
				},
				{
					"internalType": "uint256",
					"name": "deadline",
					"type": "uint256"
				}
			],
			"name": "swapExactNATIVEForTokens",
			"outputs": [
				{
					"internalType": "uint256",
					"name": "amountOut",
					"type": "uint256"
				}
			],
			"stateMutability": "payable",
			"type": "function"
		},
		{
			"inputs": [
				{
					"internalType": "uint256",
					"name": "amountOutMin",
					"type": "uint256"
				},
				{
					"components": [
						{
							"internalType": "uint256[]",
							"name": "pairBinSteps",
							"type": "uint256[]"
						},
						{
							"internalType": "enum ILBRouter.Version[]",
							"name": "versions",
							"type": "uint8[]"
						},
						{
							"internalType": "contract IERC20[]",
							"name": "tokenPath",
							"type": "address[]"
						}
					],
					"internalType": "struct ILBRouter.Path",
					"name": "path",
					"type": "tuple"
				},
				{
					"internalType": "address",
					"name": "to",
					"type": "address"
				},
				{
					"internalType": "uint256",
					"name": "deadline",
					"type": "uint256"
				}
			],
			"name": "swapExactNATIVEForTokensSupportingFeeOnTransferTokens",
			"outputs": [
				{
					"internalType": "uint256",
					"name": "amountOut",
					"type": "uint256"
				}
			],
			"stateMutability": "payable",
			"type": "function"
		},
		{
			"inputs": [
				{
					"internalType": "uint256",
					"name": "amountIn",
					"type": "uint256"
				},
				{
					"internalType": "uint256",
					"name": "amountOutMinNATIVE",
					"type": "uint256"
				},
				{
					"components": [
						{
							"internalType": "uint256[]",
							"name": "pairBinSteps",
							"type": "uint256[]"
						},
						{
							"internalType": "enum ILBRouter.Version[]",
							"name": "versions",
							"type": "uint8[]"
						},
						{
							"internalType": "contract IERC20[]",
							"name": "tokenPath",
							"type": "address[]"
						}
					],
					"internalType": "struct ILBRouter.Path",
					"name": "path",
					"type": "tuple"
				},
				{
					"internalType": "address payable",
					"name": "to",
					"type": "address"
				},
				{
					"internalType": "uint256",
					"name": "deadline",
					"type": "uint256"
				}
			],
			"name": "swapExactTokensForNATIVE",
			"outputs": [
				{
					"internalType": "uint256",
					"name": "amountOut",
					"type": "uint256"
				}
			],
			"stateMutability": "nonpayable",
			"type": "function"
		},
		{
			"inputs": [
				{
					"internalType": "uint256",
					"name": "amountIn",
					"type": "uint256"
				},
				{
					"internalType": "uint256",
					"name": "amountOutMinNATIVE",
					"type": "uint256"
				},
				{
					"components": [
						{
							"internalType": "uint256[]",
							"name": "pairBinSteps",
							"type": "uint256[]"
						},
						{
							"internalType": "enum ILBRouter.Version[]",
							"name": "versions",
							"type": "uint8[]"
						},
						{
							"internalType": "contract IERC20[]",
							"name": "tokenPath",
							"type": "address[]"
						}
					],
					"internalType": "struct ILBRouter.Path",
					"name": "path",
					"type": "tuple"
				},
				{
					"internalType": "address payable",
					"name": "to",
					"type": "address"
				},
				{
					"internalType": "uint256",
					"name": "deadline",
					"type": "uint256"
				}
			],
			"name": "swapExactTokensForNATIVESupportingFeeOnTransferTokens",
			"outputs": [
				{
					"internalType": "uint256",
					"name": "amountOut",
					"type": "uint256"
				}
			],
			"stateMutability": "nonpayable",
			"type": "function"
		},
		{
			"inputs": [
				{
					"internalType": "uint256",
					"name": "amountIn",
					"type": "uint256"
				},
				{
					"internalType": "uint256",
					"name": "amountOutMin",
					"type": "uint256"
				},
				{
					"components": [
						{
							"internalType": "uint256[]",
							"name": "pairBinSteps",
							"type": "uint256[]"
						},
						{
							"internalType": "enum ILBRouter.Version[]",
							"name": "versions",
							"type": "uint8[]"
						},
						{
							"internalType": "contract IERC20[]",
							"name": "tokenPath",
							"type": "address[]"
						}
					],
					"internalType": "struct ILBRouter.Path",
					"name": "path",
					"type": "tuple"
				},
				{
					"internalType": "address",
					"name": "to",
					"type": "address"
				},
				{
					"internalType": "uint256",
					"name": "deadline",
					"type": "uint256"
				}
			],
			"name": "swapExactTokensForTokens",
			"outputs": [
				{
					"internalType": "uint256",
					"name": "amountOut",
					"type": "uint256"
				}
			],
			"stateMutability": "nonpayable",
			"type": "function"
		},
		{
			"inputs": [
				{
					"internalType": "uint256",
					"name": "amountIn",
					"type": "uint256"
				},
				{
					"internalType": "uint256",
					"name": "amountOutMin",
					"type": "uint256"
				},
				{
					"components": [
						{
							"internalType": "uint256[]",
							"name": "pairBinSteps",
							"type": "uint256[]"
						},
						{
							"internalType": "enum ILBRouter.Version[]",
							"name": "versions",
							"type": "uint8[]"
						},
						{
							"internalType": "contract IERC20[]",
							"name": "tokenPath",
							"type": "address[]"
						}
					],
					"internalType": "struct ILBRouter.Path",
					"name": "path",
					"type": "tuple"
				},
				{
					"internalType": "address",
					"name": "to",
					"type": "address"
				},
				{
					"internalType": "uint256",
					"name": "deadline",
					"type": "uint256"
				}
			],
			"name": "swapExactTokensForTokensSupportingFeeOnTransferTokens",
			"outputs": [
				{
					"internalType": "uint256",
					"name": "amountOut",
					"type": "uint256"
				}
			],
			"stateMutability": "nonpayable",
			"type": "function"
		},
		{
			"inputs": [
				{
					"internalType": "uint256",
					"name": "amountOut",
					"type": "uint256"
				},
				{
					"components": [
						{
							"internalType": "uint256[]",
							"name": "pairBinSteps",
							"type": "uint256[]"
						},
						{
							"internalType": "enum ILBRouter.Version[]",
							"name": "versions",
							"type": "uint8[]"
						},
						{
							"internalType": "contract IERC20[]",
							"name": "tokenPath",
							"type": "address[]"
						}
					],
					"internalType": "struct ILBRouter.Path",
					"name": "path",
					"type": "tuple"
				},
				{
					"internalType": "address",
					"name": "to",
					"type": "address"
				},
				{
					"internalType": "uint256",
					"name": "deadline",
					"type": "uint256"
				}
			],
			"name": "swapNATIVEForExactTokens",
			"outputs": [
				{
					"internalType": "uint256[]",
					"name": "amountsIn",
					"type": "uint256[]"
				}
			],
			"stateMutability": "payable",
			"type": "function"
		},
		{
			"inputs": [
				{
					"internalType": "uint256",
					"name": "amountNATIVEOut",
					"type": "uint256"
				},
				{
					"internalType": "uint256",
					"name": "amountInMax",
					"type": "uint256"
				},
				{
					"components": [
						{
							"internalType": "uint256[]",
							"name": "pairBinSteps",
							"type": "uint256[]"
						},
						{
							"internalType": "enum ILBRouter.Version[]",
							"name": "versions",
							"type": "uint8[]"
						},
						{
							"internalType": "contract IERC20[]",
							"name": "tokenPath",
							"type": "address[]"
						}
					],
					"internalType": "struct ILBRouter.Path",
					"name": "path",
					"type": "tuple"
				},
				{
					"internalType": "address payable",
					"name": "to",
					"type": "address"
				},
				{
					"internalType": "uint256",
					"name": "deadline",
					"type": "uint256"
				}
			],
			"name": "swapTokensForExactNATIVE",
			"outputs": [
				{
					"internalType": "uint256[]",
					"name": "amountsIn",
					"type": "uint256[]"
				}
			],
			"stateMutability": "nonpayable",
			"type": "function"
		},
		{
			"inputs": [
				{
					"internalType": "uint256",
					"name": "amountOut",
					"type": "uint256"
				},
				{
					"internalType": "uint256",
					"name": "amountInMax",
					"type": "uint256"
				},
				{
					"components": [
						{
							"internalType": "uint256[]",
							"name": "pairBinSteps",
							"type": "uint256[]"
						},
						{
							"internalType": "enum ILBRouter.Version[]",
							"name": "versions",
							"type": "uint8[]"
						},
						{
							"internalType": "contract IERC20[]",
							"name": "tokenPath",
							"type": "address[]"
						}
					],
					"internalType": "struct ILBRouter.Path",
					"name": "path",
					"type": "tuple"
				},
				{
					"internalType": "address",
					"name": "to",
					"type": "address"
				},
				{
					"internalType": "uint256",
					"name": "deadline",
					"type": "uint256"
				}
			],
			"name": "swapTokensForExactTokens",
			"outputs": [
				{
					"internalType": "uint256[]",
					"name": "amountsIn",
					"type": "uint256[]"
				}
			],
			"stateMutability": "nonpayable",
			"type": "function"
		},
		{
			"inputs": [
				{
					"internalType": "contract IERC20",
					"name": "token",
					"type": "address"
				},
				{
					"internalType": "address",
					"name": "to",
					"type": "address"
				},
				{
					"internalType": "uint256",
					"name": "amount",
					"type": "uint256"
				}
			],
			"name": "sweep",
			"outputs": [],
			"stateMutability": "nonpayable",
			"type": "function"
		},
		{
			"inputs": [
				{
					"internalType": "contract ILBToken",
					"name": "lbToken",
					"type": "address"
				},
				{
					"internalType": "address",
					"name": "to",
					"type": "address"
				},
				{
					"internalType": "uint256[]",
					"name": "ids",
					"type": "uint256[]"
				},
				{
					"internalType": "uint256[]",
					"name": "amounts",
					"type": "uint256[]"
				}
			],
			"name": "sweepLBToken",
			"outputs": [],
			"stateMutability": "nonpayable",
			"type": "function"
		},
		{
			"stateMutability": "payable",
			"type": "receive"
		}
	]
}