{
	"data": {
		"bytecode": {
			"linkReferences": {},
			"object": "6080604052600280546001600160a01b03199081167378c1b0c915c4faa5fffa6cabf0219da63d7f4cb81790915560038054821673201eba5cc46d216ce6dc03f6a759e8e766e956ae17905560048054821673eaee7ee68874218c3558b40063c42b82d3e7232a17905560058054821673f6c9020c9e915808481757779edb53daceae241517905560068054821673013e138ef6008ae5fdfde29700e3f2bc61d21e3a179055600780549091167308a62eb0ef6dbe762774abf5e18f49671559285b17905534801560ce575f80fd5b505f80546001600160a01b03191633179055611385806100ed5f395ff3fe60806040526004361061007c575f3560e01c80637d7c2a1c1161004c5780637d7c2a1c146100c35780638cbc5cff146100cb578063b298bcf5146100de578063ecbd4533146100e6575f80fd5b80630bc488c5146100875780631c75cfb41461009157806325475a14146100b357806370bb45b3146100bb575f80fd5b3661008357005b5f80fd5b61008f6100fa565b005b34801561009c575f80fd5b506001545b60405190815260200160405180910390f35b61008f6105cd565b61008f6106c3565b61008f610773565b61008f6100d9366004610e8d565b610b33565b61008f610c22565b3480156100f1575f80fd5b506100a1610e0c565b6002546040516370a0823160e01b81523060048201525f916001600160a01b0316906370a0823190602401602060405180830381865afa158015610140573d5f803e3d5ffd5b505050506040513d601f19601f820116820180604052508101906101649190610eba565b6003546040516370a0823160e01b81523060048201529192505f916001600160a01b03909116906370a0823190602401602060405180830381865afa1580156101af573d5f803e3d5ffd5b505050506040513d601f19601f820116820180604052508101906101d39190610eba565b90505f600f90505f805f60055f9054906101000a90046001600160a01b03166001600160a01b031663dbe65edc6040518163ffffffff1660e01b8152600401602060405180830381865afa15801561022d573d5f803e3d5ffd5b505050506040513d601f19601f820116820180604052508101906102519190610ed1565b60408051600180825281830190925291925062ffffff8316915f9082602080830190803683370190505090505f815f8151811061029057610290610f07565b6020026020010181815250505f8267ffffffffffffffff8111156102b6576102b6610ef3565b6040519080825280602002602001820160405280156102df578160200160208202803683370190505b509050670de0b6b3a7640000815f815181106102fd576102fd610f07565b6020026020010181815250505f8367ffffffffffffffff81111561032357610323610ef3565b60405190808252806020026020018201604052801561034c578160200160208202803683370190505b509050670de0b6b3a7640000815f8151811061036a5761036a610f07565b602090810291909101015260025460405163095ea7b360e01b815273013e138ef6008ae5fdfde29700e3f2bc61d21e3a6004820152602481018d90525f916001600160a01b03169063095ea7b3906044016020604051808303815f875af11580156103d7573d5f803e3d5ffd5b505050506040513d601f19601f820116820180604052508101906103fb9190610f1b565b5060035460405163095ea7b360e01b815273013e138ef6008ae5fdfde29700e3f2bc61d21e3a6004820152602481018d90526001600160a01b039091169063095ea7b3906044016020604051808303815f875af115801561045e573d5f803e3d5ffd5b505050506040513d601f19601f820116820180604052508101906104829190610f1b565b505f604051806101e001604052807378c1b0c915c4faa5fffa6cabf0219da63d7f4cb86001600160a01b0316815260200173201eba5cc46d216ce6dc03f6a759e8e766e956ae6001600160a01b031681526020018c81526020018e81526020018d81526020018b81526020018a8152602001888152602001838152602001868152602001858152602001848152602001306001600160a01b03168152602001306001600160a01b031681526020014261012c61053e9190610f3a565b90526006546040516351e3938d60e11b81529192506001600160a01b03169063a3c7271a90610571908490600401610f99565b5f604051808303815f875af115801561058c573d5f803e3d5ffd5b505050506040513d5f823e601f3d908101601f191682016040526105b3919081019061115d565b505050600199909955505050505050505050505050505050565b6040516339612d9560e21b815273013e138ef6008ae5fdfde29700e3f2bc61d21e3a60048201526001602482015273f6c9020c9e915808481757779edb53daceae24159063e584b654906044015f604051808303815f87803b158015610631575f80fd5b505af1158015610643573d5f803e3d5ffd5b50506040516339612d9560e21b81527308a62eb0ef6dbe762774abf5e18f49671559285b60048201526001602482015273f6c9020c9e915808481757779edb53daceae2415925063e584b65491506044015f604051808303815f87803b1580156106ab575f80fd5b505af11580156106bd573d5f803e3d5ffd5b50505050565b6040805160018082528183019092525f908260208083019080368337019050509050600154815f815181106106fa576106fa610f07565b60209081029190910101526040516308ae304f60e31b81527308a62eb0ef6dbe762774abf5e18f49671559285b9063457182789061073e90309085906004016111e7565b5f604051808303815f87803b158015610755575f80fd5b505af1158015610767573d5f803e3d5ffd5b50505f60015550505050565b6002546040516370a0823160e01b81523060048201525f9182916001600160a01b03909116906370a0823190602401602060405180830381865afa1580156107bd573d5f803e3d5ffd5b505050506040513d601f19601f820116820180604052508101906107e19190610eba565b6003546040516370a0823160e01b81523060048201529192505f916001600160a01b03909116906370a0823190602401602060405180830381865afa15801561082c573d5f803e3d5ffd5b505050506040513d601f19601f820116820180604052508101906108509190610eba565b6040805160028082526060820183529293505f9290916020830190803683370190505090505f82841115610997576003546004805460405163095ea7b360e01b81526001600160a01b0391821692810192909252662386f26fc100006024830181905297509091169063095ea7b3906044016020604051808303815f875af11580156108de573d5f803e3d5ffd5b505050506040513d601f19601f820116820180604052508101906109029190610f1b565b507378c1b0c915c4faa5fffa6cabf0219da63d7f4cb8825f8151811061092a5761092a610f07565b60200260200101906001600160a01b031690816001600160a01b03168152505073201eba5cc46d216ce6dc03f6a759e8e766e956ae8260018151811061097257610972610f07565b60200260200101906001600160a01b031690816001600160a01b031681525050610aa8565b6002546004805460405163095ea7b360e01b81526001600160a01b0391821692810192909252620186a06024830181905297509091169063095ea7b3906044016020604051808303815f875af11580156109f3573d5f803e3d5ffd5b505050506040513d601f19601f82011682018060405250810190610a179190610f1b565b5073201eba5cc46d216ce6dc03f6a759e8e766e956ae825f81518110610a3f57610a3f610f07565b60200260200101906001600160a01b031690816001600160a01b0316815250507378c1b0c915c4faa5fffa6cabf0219da63d7f4cb882600181518110610a8757610a87610f07565b60200260200101906001600160a01b031690816001600160a01b0316815250505b6004546001600160a01b03166338ed173986838530610ac94261012c610f3a565b6040518663ffffffff1660e01b8152600401610ae9959493929190611212565b5f604051808303815f875af1158015610b04573d5f803e3d5ffd5b505050506040513d5f823e601f3d908101601f19168201604052610b2b9190810190611282565b505050505050565b6040516370a0823160e01b81523060048201525f906001600160a01b038316906370a0823190602401602060405180830381865afa158015610b77573d5f803e3d5ffd5b505050506040513d601f19601f82011682018060405250810190610b9b9190610eba565b60405163a9059cbb60e01b8152730b9bc785fd2bea7bf9cb81065cfaba2fc5d0286b60048201819052602482018390529192506001600160a01b0384169063a9059cbb906044016020604051808303815f875af1158015610bfe573d5f803e3d5ffd5b505050506040513d601f19601f820116820180604052508101906106bd9190610f1b565b604080516001808252818301909252600f91905f9082602080830190803683370190505090505f8267ffffffffffffffff811115610c6257610c62610ef3565b604051908082528060200260200182016040528015610c8b578160200160208202803683370190505b509050600154815f81518110610ca357610ca3610f07565b6020908102919091010152600154604051627eeac760e11b815230600482015260248101919091525f9073f6c9020c9e915808481757779edb53daceae24159062fdd58e90604401602060405180830381865afa158015610d06573d5f803e3d5ffd5b505050506040513d601f19601f82011682018060405250810190610d2a9190610eba565b905080835f81518110610d3f57610d3f610f07565b602090810291909101015273013e138ef6008ae5fdfde29700e3f2bc61d21e3a63c22159b67378c1b0c915c4faa5fffa6cabf0219da63d7f4cb873201eba5cc46d216ce6dc03f6a759e8e766e956ae885f80888a30610da04261012c610f3a565b6040518a63ffffffff1660e01b8152600401610dc4999897969594939291906112b4565b60408051808303815f875af1158015610ddf573d5f803e3d5ffd5b505050506040513d601f19601f82011682018060405250810190610e03919061132d565b50505050505050565b5f8060055f9054906101000a90046001600160a01b03166001600160a01b031663dbe65edc6040518163ffffffff1660e01b8152600401602060405180830381865afa158015610e5e573d5f803e3d5ffd5b505050506040513d601f19601f82011682018060405250810190610e829190610ed1565b62ffffff1692915050565b5f60208284031215610e9d575f80fd5b81356001600160a01b0381168114610eb3575f80fd5b9392505050565b5f60208284031215610eca575f80fd5b5051919050565b5f60208284031215610ee1575f80fd5b815162ffffff81168114610eb3575f80fd5b634e487b7160e01b5f52604160045260245ffd5b634e487b7160e01b5f52603260045260245ffd5b5f60208284031215610f2b575f80fd5b81518015158114610eb3575f80fd5b80820180821115610f5957634e487b7160e01b5f52601160045260245ffd5b92915050565b5f8151808452602084019350602083015f5b82811015610f8f578151865260209586019590910190600101610f71565b5093949350505050565b60208152610fb36020820183516001600160a01b03169052565b5f6020830151610fce60408401826001600160a01b03169052565b506040830151606083015260608301516080830152608083015160a083015260a083015160c083015260c083015160e083015260e08301516101008301526101008301516101208301526101208301516101e0610140840152611035610200840182610f5f565b9050610140840151601f19848303016101608501526110548282610f5f565b915050610160840151601f19848303016101808501526110748282610f5f565b9150506101808401516110936101a08501826001600160a01b03169052565b506101a08401516001600160a01b0381166101c0850152506101c08401516101e08401528091505092915050565b5f82601f8301126110d0575f80fd5b815167ffffffffffffffff8111156110ea576110ea610ef3565b8060051b604051601f19603f830116810181811067ffffffffffffffff8211171561111757611117610ef3565b604052918252602081850181019290810186841115611134575f80fd5b6020860192505b8383101561115357825181526020928301920161113b565b5095945050505050565b5f805f805f8060c08789031215611172575f80fd5b86516020880151604089015160608a015160808b01519399509197509550935067ffffffffffffffff8111156111a6575f80fd5b6111b289828a016110c1565b92505060a087015167ffffffffffffffff8111156111ce575f80fd5b6111da89828a016110c1565b9150509295509295509295565b6001600160a01b03831681526040602082018190525f9061120a90830184610f5f565b949350505050565b5f60a0820187835286602084015260a0604084015280865180835260c0850191506020880192505f5b818110156112625783516001600160a01b031683526020938401939092019160010161123b565b50506001600160a01b039590951660608401525050608001529392505050565b5f60208284031215611292575f80fd5b815167ffffffffffffffff8111156112a8575f80fd5b61120a848285016110c1565b6001600160a01b038a811682528916602082015261ffff88166040820152606081018790526080810186905261012060a082018190525f906112f890830187610f5f565b82810360c084015261130a8187610f5f565b6001600160a01b039590951660e084015250506101000152979650505050505050565b5f806040838503121561133e575f80fd5b50508051602090910151909290915056fea26469706673582212201cc736a94ae3134b980cd479d0b58bd86271d6768dacdf077bb4cf73d7523d6064736f6c634300081a0033",
			"opcodes": "PUSH1 0x80 PUSH1 0x40 MSTORE PUSH1 0x2 DUP1 SLOAD PUSH1 0x1 PUSH1 0x1 PUSH1 0xA0 SHL SUB NOT SWAP1 DUP2 AND PUSH20 0x78C1B0C915C4FAA5FFFA6CABF0219DA63D7F4CB8 OR SWAP1 SWAP2 SSTORE PUSH1 0x3 DUP1 SLOAD DUP3 AND PUSH20 0x201EBA5CC46D216CE6DC03F6A759E8E766E956AE OR SWAP1 SSTORE PUSH1 0x4 DUP1 SLOAD DUP3 AND PUSH20 0xEAEE7EE68874218C3558B40063C42B82D3E7232A OR SWAP1 SSTORE PUSH1 0x5 DUP1 SLOAD DUP3 AND PUSH20 0xF6C9020C9E915808481757779EDB53DACEAE2415 OR SWAP1 SSTORE PUSH1 0x6 DUP1 SLOAD DUP3 AND PUSH20 0x13E138EF6008AE5FDFDE29700E3F2BC61D21E3A OR SWAP1 SSTORE PUSH1 0x7 DUP1 SLOAD SWAP1 SWAP2 AND PUSH20 0x8A62EB0EF6DBE762774ABF5E18F49671559285B OR SWAP1 SSTORE CALLVALUE DUP1 ISZERO PUSH1 0xCE JUMPI PUSH0 DUP1 REVERT JUMPDEST POP PUSH0 DUP1 SLOAD PUSH1 0x1 PUSH1 0x1 PUSH1 0xA0 SHL SUB NOT AND CALLER OR SWAP1 SSTORE PUSH2 0x1385 DUP1 PUSH2 0xED PUSH0 CODECOPY PUSH0 RETURN INVALID PUSH1 0x80 PUSH1 0x40 MSTORE PUSH1 0x4 CALLDATASIZE LT PUSH2 0x7C JUMPI PUSH0 CALLDATALOAD PUSH1 0xE0 SHR DUP1 PUSH4 0x7D7C2A1C GT PUSH2 0x4C JUMPI DUP1 PUSH4 0x7D7C2A1C EQ PUSH2 0xC3 JUMPI DUP1 PUSH4 0x8CBC5CFF EQ PUSH2 0xCB JUMPI DUP1 PUSH4 0xB298BCF5 EQ PUSH2 0xDE JUMPI DUP1 PUSH4 0xECBD4533 EQ PUSH2 0xE6 JUMPI PUSH0 DUP1 REVERT JUMPDEST DUP1 PUSH4 0xBC488C5 EQ PUSH2 0x87 JUMPI DUP1 PUSH4 0x1C75CFB4 EQ PUSH2 0x91 JUMPI DUP1 PUSH4 0x25475A14 EQ PUSH2 0xB3 JUMPI DUP1 PUSH4 0x70BB45B3 EQ PUSH2 0xBB JUMPI PUSH0 DUP1 REVERT JUMPDEST CALLDATASIZE PUSH2 0x83 JUMPI STOP JUMPDEST PUSH0 DUP1 REVERT JUMPDEST PUSH2 0x8F PUSH2 0xFA JUMP JUMPDEST STOP JUMPDEST CALLVALUE DUP1 ISZERO PUSH2 0x9C JUMPI PUSH0 DUP1 REVERT JUMPDEST POP PUSH1 0x1 SLOAD JUMPDEST PUSH1 0x40 MLOAD SWAP1 DUP2 MSTORE PUSH1 0x20 ADD PUSH1 0x40 MLOAD DUP1 SWAP2 SUB SWAP1 RETURN JUMPDEST PUSH2 0x8F PUSH2 0x5CD JUMP JUMPDEST PUSH2 0x8F PUSH2 0x6C3 JUMP JUMPDEST PUSH2 0x8F PUSH2 0x773 JUMP JUMPDEST PUSH2 0x8F PUSH2 0xD9 CALLDATASIZE PUSH1 0x4 PUSH2 0xE8D JUMP JUMPDEST PUSH2 0xB33 JUMP JUMPDEST PUSH2 0x8F PUSH2 0xC22 JUMP JUMPDEST CALLVALUE DUP1 ISZERO PUSH2 0xF1 JUMPI PUSH0 DUP1 REVERT JUMPDEST POP PUSH2 0xA1 PUSH2 0xE0C JUMP JUMPDEST PUSH1 0x2 SLOAD PUSH1 0x40 MLOAD PUSH4 0x70A08231 PUSH1 0xE0 SHL DUP2 MSTORE ADDRESS PUSH1 0x4 DUP3 ADD MSTORE PUSH0 SWAP2 PUSH1 0x1 PUSH1 0x1 PUSH1 0xA0 SHL SUB AND SWAP1 PUSH4 0x70A08231 SWAP1 PUSH1 0x24 ADD PUSH1 0x20 PUSH1 0x40 MLOAD DUP1 DUP4 SUB DUP2 DUP7 GAS STATICCALL ISZERO DUP1 ISZERO PUSH2 0x140 JUMPI RETURNDATASIZE PUSH0 DUP1 RETURNDATACOPY RETURNDATASIZE PUSH0 REVERT JUMPDEST POP POP POP POP PUSH1 0x40 MLOAD RETURNDATASIZE PUSH1 0x1F NOT PUSH1 0x1F DUP3 ADD AND DUP3 ADD DUP1 PUSH1 0x40 MSTORE POP DUP2 ADD SWAP1 PUSH2 0x164 SWAP2 SWAP1 PUSH2 0xEBA JUMP JUMPDEST PUSH1 0x3 SLOAD PUSH1 0x40 MLOAD PUSH4 0x70A08231 PUSH1 0xE0 SHL DUP2 MSTORE ADDRESS PUSH1 0x4 DUP3 ADD MSTORE SWAP2 SWAP3 POP PUSH0 SWAP2 PUSH1 0x1 PUSH1 0x1 PUSH1 0xA0 SHL SUB SWAP1 SWAP2 AND SWAP1 PUSH4 0x70A08231 SWAP1 PUSH1 0x24 ADD PUSH1 0x20 PUSH1 0x40 MLOAD DUP1 DUP4 SUB DUP2 DUP7 GAS STATICCALL ISZERO DUP1 ISZERO PUSH2 0x1AF JUMPI RETURNDATASIZE PUSH0 DUP1 RETURNDATACOPY RETURNDATASIZE PUSH0 REVERT JUMPDEST POP POP POP POP PUSH1 0x40 MLOAD RETURNDATASIZE PUSH1 0x1F NOT PUSH1 0x1F DUP3 ADD AND DUP3 ADD DUP1 PUSH1 0x40 MSTORE POP DUP2 ADD SWAP1 PUSH2 0x1D3 SWAP2 SWAP1 PUSH2 0xEBA JUMP JUMPDEST SWAP1 POP PUSH0 PUSH1 0xF SWAP1 POP PUSH0 DUP1 PUSH0 PUSH1 0x5 PUSH0 SWAP1 SLOAD SWAP1 PUSH2 0x100 EXP SWAP1 DIV PUSH1 0x1 PUSH1 0x1 PUSH1 0xA0 SHL SUB AND PUSH1 0x1 PUSH1 0x1 PUSH1 0xA0 SHL SUB AND PUSH4 0xDBE65EDC PUSH1 0x40 MLOAD DUP2 PUSH4 0xFFFFFFFF AND PUSH1 0xE0 SHL DUP2 MSTORE PUSH1 0x4 ADD PUSH1 0x20 PUSH1 0x40 MLOAD DUP1 DUP4 SUB DUP2 DUP7 GAS STATICCALL ISZERO DUP1 ISZERO PUSH2 0x22D JUMPI RETURNDATASIZE PUSH0 DUP1 RETURNDATACOPY RETURNDATASIZE PUSH0 REVERT JUMPDEST POP POP POP POP PUSH1 0x40 MLOAD RETURNDATASIZE PUSH1 0x1F NOT PUSH1 0x1F DUP3 ADD AND DUP3 ADD DUP1 PUSH1 0x40 MSTORE POP DUP2 ADD SWAP1 PUSH2 0x251 SWAP2 SWAP1 PUSH2 0xED1 JUMP JUMPDEST PUSH1 0x40 DUP1 MLOAD PUSH1 0x1 DUP1 DUP3 MSTORE DUP2 DUP4 ADD SWAP1 SWAP3 MSTORE SWAP2 SWAP3 POP PUSH3 0xFFFFFF DUP4 AND SWAP2 PUSH0 SWAP1 DUP3 PUSH1 0x20 DUP1 DUP4 ADD SWAP1 DUP1 CALLDATASIZE DUP4 CALLDATACOPY ADD SWAP1 POP POP SWAP1 POP PUSH0 DUP2 PUSH0 DUP2 MLOAD DUP2 LT PUSH2 0x290 JUMPI PUSH2 0x290 PUSH2 0xF07 JUMP JUMPDEST PUSH1 0x20 MUL PUSH1 0x20 ADD ADD DUP2 DUP2 MSTORE POP POP PUSH0 DUP3 PUSH8 0xFFFFFFFFFFFFFFFF DUP2 GT ISZERO PUSH2 0x2B6 JUMPI PUSH2 0x2B6 PUSH2 0xEF3 JUMP JUMPDEST PUSH1 0x40 MLOAD SWAP1 DUP1 DUP3 MSTORE DUP1 PUSH1 0x20 MUL PUSH1 0x20 ADD DUP3 ADD PUSH1 0x40 MSTORE DUP1 ISZERO PUSH2 0x2DF JUMPI DUP2 PUSH1 0x20 ADD PUSH1 0x20 DUP3 MUL DUP1 CALLDATASIZE DUP4 CALLDATACOPY ADD SWAP1 POP JUMPDEST POP SWAP1 POP PUSH8 0xDE0B6B3A7640000 DUP2 PUSH0 DUP2 MLOAD DUP2 LT PUSH2 0x2FD JUMPI PUSH2 0x2FD PUSH2 0xF07 JUMP JUMPDEST PUSH1 0x20 MUL PUSH1 0x20 ADD ADD DUP2 DUP2 MSTORE POP POP PUSH0 DUP4 PUSH8 0xFFFFFFFFFFFFFFFF DUP2 GT ISZERO PUSH2 0x323 JUMPI PUSH2 0x323 PUSH2 0xEF3 JUMP JUMPDEST PUSH1 0x40 MLOAD SWAP1 DUP1 DUP3 MSTORE DUP1 PUSH1 0x20 MUL PUSH1 0x20 ADD DUP3 ADD PUSH1 0x40 MSTORE DUP1 ISZERO PUSH2 0x34C JUMPI DUP2 PUSH1 0x20 ADD PUSH1 0x20 DUP3 MUL DUP1 CALLDATASIZE DUP4 CALLDATACOPY ADD SWAP1 POP JUMPDEST POP SWAP1 POP PUSH8 0xDE0B6B3A7640000 DUP2 PUSH0 DUP2 MLOAD DUP2 LT PUSH2 0x36A JUMPI PUSH2 0x36A PUSH2 0xF07 JUMP JUMPDEST PUSH1 0x20 SWAP1 DUP2 MUL SWAP2 SWAP1 SWAP2 ADD ADD MSTORE PUSH1 0x2 SLOAD PUSH1 0x40 MLOAD PUSH4 0x95EA7B3 PUSH1 0xE0 SHL DUP2 MSTORE PUSH20 0x13E138EF6008AE5FDFDE29700E3F2BC61D21E3A PUSH1 0x4 DUP3 ADD MSTORE PUSH1 0x24 DUP2 ADD DUP14 SWAP1 MSTORE PUSH0 SWAP2 PUSH1 0x1 PUSH1 0x1 PUSH1 0xA0 SHL SUB AND SWAP1 PUSH4 0x95EA7B3 SWAP1 PUSH1 0x44 ADD PUSH1 0x20 PUSH1 0x40 MLOAD DUP1 DUP4 SUB DUP2 PUSH0 DUP8 GAS CALL ISZERO DUP1 ISZERO PUSH2 0x3D7 JUMPI RETURNDATASIZE PUSH0 DUP1 RETURNDATACOPY RETURNDATASIZE PUSH0 REVERT JUMPDEST POP POP POP POP PUSH1 0x40 MLOAD RETURNDATASIZE PUSH1 0x1F NOT PUSH1 0x1F DUP3 ADD AND DUP3 ADD DUP1 PUSH1 0x40 MSTORE POP DUP2 ADD SWAP1 PUSH2 0x3FB SWAP2 SWAP1 PUSH2 0xF1B JUMP JUMPDEST POP PUSH1 0x3 SLOAD PUSH1 0x40 MLOAD PUSH4 0x95EA7B3 PUSH1 0xE0 SHL DUP2 MSTORE PUSH20 0x13E138EF6008AE5FDFDE29700E3F2BC61D21E3A PUSH1 0x4 DUP3 ADD MSTORE PUSH1 0x24 DUP2 ADD DUP14 SWAP1 MSTORE PUSH1 0x1 PUSH1 0x1 PUSH1 0xA0 SHL SUB SWAP1 SWAP2 AND SWAP1 PUSH4 0x95EA7B3 SWAP1 PUSH1 0x44 ADD PUSH1 0x20 PUSH1 0x40 MLOAD DUP1 DUP4 SUB DUP2 PUSH0 DUP8 GAS CALL ISZERO DUP1 ISZERO PUSH2 0x45E JUMPI RETURNDATASIZE PUSH0 DUP1 RETURNDATACOPY RETURNDATASIZE PUSH0 REVERT JUMPDEST POP POP POP POP PUSH1 0x40 MLOAD RETURNDATASIZE PUSH1 0x1F NOT PUSH1 0x1F DUP3 ADD AND DUP3 ADD DUP1 PUSH1 0x40 MSTORE POP DUP2 ADD SWAP1 PUSH2 0x482 SWAP2 SWAP1 PUSH2 0xF1B JUMP JUMPDEST POP PUSH0 PUSH1 0x40 MLOAD DUP1 PUSH2 0x1E0 ADD PUSH1 0x40 MSTORE DUP1 PUSH20 0x78C1B0C915C4FAA5FFFA6CABF0219DA63D7F4CB8 PUSH1 0x1 PUSH1 0x1 PUSH1 0xA0 SHL SUB AND DUP2 MSTORE PUSH1 0x20 ADD PUSH20 0x201EBA5CC46D216CE6DC03F6A759E8E766E956AE PUSH1 0x1 PUSH1 0x1 PUSH1 0xA0 SHL SUB AND DUP2 MSTORE PUSH1 0x20 ADD DUP13 DUP2 MSTORE PUSH1 0x20 ADD DUP15 DUP2 MSTORE PUSH1 0x20 ADD DUP14 DUP2 MSTORE PUSH1 0x20 ADD DUP12 DUP2 MSTORE PUSH1 0x20 ADD DUP11 DUP2 MSTORE PUSH1 0x20 ADD DUP9 DUP2 MSTORE PUSH1 0x20 ADD DUP4 DUP2 MSTORE PUSH1 0x20 ADD DUP7 DUP2 MSTORE PUSH1 0x20 ADD DUP6 DUP2 MSTORE PUSH1 0x20 ADD DUP5 DUP2 MSTORE PUSH1 0x20 ADD ADDRESS PUSH1 0x1 PUSH1 0x1 PUSH1 0xA0 SHL SUB AND DUP2 MSTORE PUSH1 0x20 ADD ADDRESS PUSH1 0x1 PUSH1 0x1 PUSH1 0xA0 SHL SUB AND DUP2 MSTORE PUSH1 0x20 ADD TIMESTAMP PUSH2 0x12C PUSH2 0x53E SWAP2 SWAP1 PUSH2 0xF3A JUMP JUMPDEST SWAP1 MSTORE PUSH1 0x6 SLOAD PUSH1 0x40 MLOAD PUSH4 0x51E3938D PUSH1 0xE1 SHL DUP2 MSTORE SWAP2 SWAP3 POP PUSH1 0x1 PUSH1 0x1 PUSH1 0xA0 SHL SUB AND SWAP1 PUSH4 0xA3C7271A SWAP1 PUSH2 0x571 SWAP1 DUP5 SWAP1 PUSH1 0x4 ADD PUSH2 0xF99 JUMP JUMPDEST PUSH0 PUSH1 0x40 MLOAD DUP1 DUP4 SUB DUP2 PUSH0 DUP8 GAS CALL ISZERO DUP1 ISZERO PUSH2 0x58C JUMPI RETURNDATASIZE PUSH0 DUP1 RETURNDATACOPY RETURNDATASIZE PUSH0 REVERT JUMPDEST POP POP POP POP PUSH1 0x40 MLOAD RETURNDATASIZE PUSH0 DUP3 RETURNDATACOPY PUSH1 0x1F RETURNDATASIZE SWAP1 DUP2 ADD PUSH1 0x1F NOT AND DUP3 ADD PUSH1 0x40 MSTORE PUSH2 0x5B3 SWAP2 SWAP1 DUP2 ADD SWAP1 PUSH2 0x115D JUMP JUMPDEST POP POP POP PUSH1 0x1 SWAP10 SWAP1 SWAP10 SSTORE POP POP POP POP POP POP POP POP POP POP POP POP POP POP POP JUMP JUMPDEST PUSH1 0x40 MLOAD PUSH4 0x39612D95 PUSH1 0xE2 SHL DUP2 MSTORE PUSH20 0x13E138EF6008AE5FDFDE29700E3F2BC61D21E3A PUSH1 0x4 DUP3 ADD MSTORE PUSH1 0x1 PUSH1 0x24 DUP3 ADD MSTORE PUSH20 0xF6C9020C9E915808481757779EDB53DACEAE2415 SWAP1 PUSH4 0xE584B654 SWAP1 PUSH1 0x44 ADD PUSH0 PUSH1 0x40 MLOAD DUP1 DUP4 SUB DUP2 PUSH0 DUP8 DUP1 EXTCODESIZE ISZERO DUP1 ISZERO PUSH2 0x631 JUMPI PUSH0 DUP1 REVERT JUMPDEST POP GAS CALL ISZERO DUP1 ISZERO PUSH2 0x643 JUMPI RETURNDATASIZE PUSH0 DUP1 RETURNDATACOPY RETURNDATASIZE PUSH0 REVERT JUMPDEST POP POP PUSH1 0x40 MLOAD PUSH4 0x39612D95 PUSH1 0xE2 SHL DUP2 MSTORE PUSH20 0x8A62EB0EF6DBE762774ABF5E18F49671559285B PUSH1 0x4 DUP3 ADD MSTORE PUSH1 0x1 PUSH1 0x24 DUP3 ADD MSTORE PUSH20 0xF6C9020C9E915808481757779EDB53DACEAE2415 SWAP3 POP PUSH4 0xE584B654 SWAP2 POP PUSH1 0x44 ADD PUSH0 PUSH1 0x40 MLOAD DUP1 DUP4 SUB DUP2 PUSH0 DUP8 DUP1 EXTCODESIZE ISZERO DUP1 ISZERO PUSH2 0x6AB JUMPI PUSH0 DUP1 REVERT JUMPDEST POP GAS CALL ISZERO DUP1 ISZERO PUSH2 0x6BD JUMPI RETURNDATASIZE PUSH0 DUP1 RETURNDATACOPY RETURNDATASIZE PUSH0 REVERT JUMPDEST POP POP POP POP JUMP JUMPDEST PUSH1 0x40 DUP1 MLOAD PUSH1 0x1 DUP1 DUP3 MSTORE DUP2 DUP4 ADD SWAP1 SWAP3 MSTORE PUSH0 SWAP1 DUP3 PUSH1 0x20 DUP1 DUP4 ADD SWAP1 DUP1 CALLDATASIZE DUP4 CALLDATACOPY ADD SWAP1 POP POP SWAP1 POP PUSH1 0x1 SLOAD DUP2 PUSH0 DUP2 MLOAD DUP2 LT PUSH2 0x6FA JUMPI PUSH2 0x6FA PUSH2 0xF07 JUMP JUMPDEST PUSH1 0x20 SWAP1 DUP2 MUL SWAP2 SWAP1 SWAP2 ADD ADD MSTORE PUSH1 0x40 MLOAD PUSH4 0x8AE304F PUSH1 0xE3 SHL DUP2 MSTORE PUSH20 0x8A62EB0EF6DBE762774ABF5E18F49671559285B SWAP1 PUSH4 0x45718278 SWAP1 PUSH2 0x73E SWAP1 ADDRESS SWAP1 DUP6 SWAP1 PUSH1 0x4 ADD PUSH2 0x11E7 JUMP JUMPDEST PUSH0 PUSH1 0x40 MLOAD DUP1 DUP4 SUB DUP2 PUSH0 DUP8 DUP1 EXTCODESIZE ISZERO DUP1 ISZERO PUSH2 0x755 JUMPI PUSH0 DUP1 REVERT JUMPDEST POP GAS CALL ISZERO DUP1 ISZERO PUSH2 0x767 JUMPI RETURNDATASIZE PUSH0 DUP1 RETURNDATACOPY RETURNDATASIZE PUSH0 REVERT JUMPDEST POP POP PUSH0 PUSH1 0x1 SSTORE POP POP POP POP JUMP JUMPDEST PUSH1 0x2 SLOAD PUSH1 0x40 MLOAD PUSH4 0x70A08231 PUSH1 0xE0 SHL DUP2 MSTORE ADDRESS PUSH1 0x4 DUP3 ADD MSTORE PUSH0 SWAP2 DUP3 SWAP2 PUSH1 0x1 PUSH1 0x1 PUSH1 0xA0 SHL SUB SWAP1 SWAP2 AND SWAP1 PUSH4 0x70A08231 SWAP1 PUSH1 0x24 ADD PUSH1 0x20 PUSH1 0x40 MLOAD DUP1 DUP4 SUB DUP2 DUP7 GAS STATICCALL ISZERO DUP1 ISZERO PUSH2 0x7BD JUMPI RETURNDATASIZE PUSH0 DUP1 RETURNDATACOPY RETURNDATASIZE PUSH0 REVERT JUMPDEST POP POP POP POP PUSH1 0x40 MLOAD RETURNDATASIZE PUSH1 0x1F NOT PUSH1 0x1F DUP3 ADD AND DUP3 ADD DUP1 PUSH1 0x40 MSTORE POP DUP2 ADD SWAP1 PUSH2 0x7E1 SWAP2 SWAP1 PUSH2 0xEBA JUMP JUMPDEST PUSH1 0x3 SLOAD PUSH1 0x40 MLOAD PUSH4 0x70A08231 PUSH1 0xE0 SHL DUP2 MSTORE ADDRESS PUSH1 0x4 DUP3 ADD MSTORE SWAP2 SWAP3 POP PUSH0 SWAP2 PUSH1 0x1 PUSH1 0x1 PUSH1 0xA0 SHL SUB SWAP1 SWAP2 AND SWAP1 PUSH4 0x70A08231 SWAP1 PUSH1 0x24 ADD PUSH1 0x20 PUSH1 0x40 MLOAD DUP1 DUP4 SUB DUP2 DUP7 GAS STATICCALL ISZERO DUP1 ISZERO PUSH2 0x82C JUMPI RETURNDATASIZE PUSH0 DUP1 RETURNDATACOPY RETURNDATASIZE PUSH0 REVERT JUMPDEST POP POP POP POP PUSH1 0x40 MLOAD RETURNDATASIZE PUSH1 0x1F NOT PUSH1 0x1F DUP3 ADD AND DUP3 ADD DUP1 PUSH1 0x40 MSTORE POP DUP2 ADD SWAP1 PUSH2 0x850 SWAP2 SWAP1 PUSH2 0xEBA JUMP JUMPDEST PUSH1 0x40 DUP1 MLOAD PUSH1 0x2 DUP1 DUP3 MSTORE PUSH1 0x60 DUP3 ADD DUP4 MSTORE SWAP3 SWAP4 POP PUSH0 SWAP3 SWAP1 SWAP2 PUSH1 0x20 DUP4 ADD SWAP1 DUP1 CALLDATASIZE DUP4 CALLDATACOPY ADD SWAP1 POP POP SWAP1 POP PUSH0 DUP3 DUP5 GT ISZERO PUSH2 0x997 JUMPI PUSH1 0x3 SLOAD PUSH1 0x4 DUP1 SLOAD PUSH1 0x40 MLOAD PUSH4 0x95EA7B3 PUSH1 0xE0 SHL DUP2 MSTORE PUSH1 0x1 PUSH1 0x1 PUSH1 0xA0 SHL SUB SWAP2 DUP3 AND SWAP3 DUP2 ADD SWAP3 SWAP1 SWAP3 MSTORE PUSH7 0x2386F26FC10000 PUSH1 0x24 DUP4 ADD DUP2 SWAP1 MSTORE SWAP8 POP SWAP1 SWAP2 AND SWAP1 PUSH4 0x95EA7B3 SWAP1 PUSH1 0x44 ADD PUSH1 0x20 PUSH1 0x40 MLOAD DUP1 DUP4 SUB DUP2 PUSH0 DUP8 GAS CALL ISZERO DUP1 ISZERO PUSH2 0x8DE JUMPI RETURNDATASIZE PUSH0 DUP1 RETURNDATACOPY RETURNDATASIZE PUSH0 REVERT JUMPDEST POP POP POP POP PUSH1 0x40 MLOAD RETURNDATASIZE PUSH1 0x1F NOT PUSH1 0x1F DUP3 ADD AND DUP3 ADD DUP1 PUSH1 0x40 MSTORE POP DUP2 ADD SWAP1 PUSH2 0x902 SWAP2 SWAP1 PUSH2 0xF1B JUMP JUMPDEST POP PUSH20 0x78C1B0C915C4FAA5FFFA6CABF0219DA63D7F4CB8 DUP3 PUSH0 DUP2 MLOAD DUP2 LT PUSH2 0x92A JUMPI PUSH2 0x92A PUSH2 0xF07 JUMP JUMPDEST PUSH1 0x20 MUL PUSH1 0x20 ADD ADD SWAP1 PUSH1 0x1 PUSH1 0x1 PUSH1 0xA0 SHL SUB AND SWAP1 DUP2 PUSH1 0x1 PUSH1 0x1 PUSH1 0xA0 SHL SUB AND DUP2 MSTORE POP POP PUSH20 0x201EBA5CC46D216CE6DC03F6A759E8E766E956AE DUP3 PUSH1 0x1 DUP2 MLOAD DUP2 LT PUSH2 0x972 JUMPI PUSH2 0x972 PUSH2 0xF07 JUMP JUMPDEST PUSH1 0x20 MUL PUSH1 0x20 ADD ADD SWAP1 PUSH1 0x1 PUSH1 0x1 PUSH1 0xA0 SHL SUB AND SWAP1 DUP2 PUSH1 0x1 PUSH1 0x1 PUSH1 0xA0 SHL SUB AND DUP2 MSTORE POP POP PUSH2 0xAA8 JUMP JUMPDEST PUSH1 0x2 SLOAD PUSH1 0x4 DUP1 SLOAD PUSH1 0x40 MLOAD PUSH4 0x95EA7B3 PUSH1 0xE0 SHL DUP2 MSTORE PUSH1 0x1 PUSH1 0x1 PUSH1 0xA0 SHL SUB SWAP2 DUP3 AND SWAP3 DUP2 ADD SWAP3 SWAP1 SWAP3 MSTORE PUSH3 0x186A0 PUSH1 0x24 DUP4 ADD DUP2 SWAP1 MSTORE SWAP8 POP SWAP1 SWAP2 AND SWAP1 PUSH4 0x95EA7B3 SWAP1 PUSH1 0x44 ADD PUSH1 0x20 PUSH1 0x40 MLOAD DUP1 DUP4 SUB DUP2 PUSH0 DUP8 GAS CALL ISZERO DUP1 ISZERO PUSH2 0x9F3 JUMPI RETURNDATASIZE PUSH0 DUP1 RETURNDATACOPY RETURNDATASIZE PUSH0 REVERT JUMPDEST POP POP POP POP PUSH1 0x40 MLOAD RETURNDATASIZE PUSH1 0x1F NOT PUSH1 0x1F DUP3 ADD AND DUP3 ADD DUP1 PUSH1 0x40 MSTORE POP DUP2 ADD SWAP1 PUSH2 0xA17 SWAP2 SWAP1 PUSH2 0xF1B JUMP JUMPDEST POP PUSH20 0x201EBA5CC46D216CE6DC03F6A759E8E766E956AE DUP3 PUSH0 DUP2 MLOAD DUP2 LT PUSH2 0xA3F JUMPI PUSH2 0xA3F PUSH2 0xF07 JUMP JUMPDEST PUSH1 0x20 MUL PUSH1 0x20 ADD ADD SWAP1 PUSH1 0x1 PUSH1 0x1 PUSH1 0xA0 SHL SUB AND SWAP1 DUP2 PUSH1 0x1 PUSH1 0x1 PUSH1 0xA0 SHL SUB AND DUP2 MSTORE POP POP PUSH20 0x78C1B0C915C4FAA5FFFA6CABF0219DA63D7F4CB8 DUP3 PUSH1 0x1 DUP2 MLOAD DUP2 LT PUSH2 0xA87 JUMPI PUSH2 0xA87 PUSH2 0xF07 JUMP JUMPDEST PUSH1 0x20 MUL PUSH1 0x20 ADD ADD SWAP1 PUSH1 0x1 PUSH1 0x1 PUSH1 0xA0 SHL SUB AND SWAP1 DUP2 PUSH1 0x1 PUSH1 0x1 PUSH1 0xA0 SHL SUB AND DUP2 MSTORE POP POP JUMPDEST PUSH1 0x4 SLOAD PUSH1 0x1 PUSH1 0x1 PUSH1 0xA0 SHL SUB AND PUSH4 0x38ED1739 DUP7 DUP4 DUP6 ADDRESS PUSH2 0xAC9 TIMESTAMP PUSH2 0x12C PUSH2 0xF3A JUMP JUMPDEST PUSH1 0x40 MLOAD DUP7 PUSH4 0xFFFFFFFF AND PUSH1 0xE0 SHL DUP2 MSTORE PUSH1 0x4 ADD PUSH2 0xAE9 SWAP6 SWAP5 SWAP4 SWAP3 SWAP2 SWAP1 PUSH2 0x1212 JUMP JUMPDEST PUSH0 PUSH1 0x40 MLOAD DUP1 DUP4 SUB DUP2 PUSH0 DUP8 GAS CALL ISZERO DUP1 ISZERO PUSH2 0xB04 JUMPI RETURNDATASIZE PUSH0 DUP1 RETURNDATACOPY RETURNDATASIZE PUSH0 REVERT JUMPDEST POP POP POP POP PUSH1 0x40 MLOAD RETURNDATASIZE PUSH0 DUP3 RETURNDATACOPY PUSH1 0x1F RETURNDATASIZE SWAP1 DUP2 ADD PUSH1 0x1F NOT AND DUP3 ADD PUSH1 0x40 MSTORE PUSH2 0xB2B SWAP2 SWAP1 DUP2 ADD SWAP1 PUSH2 0x1282 JUMP JUMPDEST POP POP POP POP POP POP JUMP JUMPDEST PUSH1 0x40 MLOAD PUSH4 0x70A08231 PUSH1 0xE0 SHL DUP2 MSTORE ADDRESS PUSH1 0x4 DUP3 ADD MSTORE PUSH0 SWAP1 PUSH1 0x1 PUSH1 0x1 PUSH1 0xA0 SHL SUB DUP4 AND SWAP1 PUSH4 0x70A08231 SWAP1 PUSH1 0x24 ADD PUSH1 0x20 PUSH1 0x40 MLOAD DUP1 DUP4 SUB DUP2 DUP7 GAS STATICCALL ISZERO DUP1 ISZERO PUSH2 0xB77 JUMPI RETURNDATASIZE PUSH0 DUP1 RETURNDATACOPY RETURNDATASIZE PUSH0 REVERT JUMPDEST POP POP POP POP PUSH1 0x40 MLOAD RETURNDATASIZE PUSH1 0x1F NOT PUSH1 0x1F DUP3 ADD AND DUP3 ADD DUP1 PUSH1 0x40 MSTORE POP DUP2 ADD SWAP1 PUSH2 0xB9B SWAP2 SWAP1 PUSH2 0xEBA JUMP JUMPDEST PUSH1 0x40 MLOAD PUSH4 0xA9059CBB PUSH1 0xE0 SHL DUP2 MSTORE PUSH20 0xB9BC785FD2BEA7BF9CB81065CFABA2FC5D0286B PUSH1 0x4 DUP3 ADD DUP2 SWAP1 MSTORE PUSH1 0x24 DUP3 ADD DUP4 SWAP1 MSTORE SWAP2 SWAP3 POP PUSH1 0x1 PUSH1 0x1 PUSH1 0xA0 SHL SUB DUP5 AND SWAP1 PUSH4 0xA9059CBB SWAP1 PUSH1 0x44 ADD PUSH1 0x20 PUSH1 0x40 MLOAD DUP1 DUP4 SUB DUP2 PUSH0 DUP8 GAS CALL ISZERO DUP1 ISZERO PUSH2 0xBFE JUMPI RETURNDATASIZE PUSH0 DUP1 RETURNDATACOPY RETURNDATASIZE PUSH0 REVERT JUMPDEST POP POP POP POP PUSH1 0x40 MLOAD RETURNDATASIZE PUSH1 0x1F NOT PUSH1 0x1F DUP3 ADD AND DUP3 ADD DUP1 PUSH1 0x40 MSTORE POP DUP2 ADD SWAP1 PUSH2 0x6BD SWAP2 SWAP1 PUSH2 0xF1B JUMP JUMPDEST PUSH1 0x40 DUP1 MLOAD PUSH1 0x1 DUP1 DUP3 MSTORE DUP2 DUP4 ADD SWAP1 SWAP3 MSTORE PUSH1 0xF SWAP2 SWAP1 PUSH0 SWAP1 DUP3 PUSH1 0x20 DUP1 DUP4 ADD SWAP1 DUP1 CALLDATASIZE DUP4 CALLDATACOPY ADD SWAP1 POP POP SWAP1 POP PUSH0 DUP3 PUSH8 0xFFFFFFFFFFFFFFFF DUP2 GT ISZERO PUSH2 0xC62 JUMPI PUSH2 0xC62 PUSH2 0xEF3 JUMP JUMPDEST PUSH1 0x40 MLOAD SWAP1 DUP1 DUP3 MSTORE DUP1 PUSH1 0x20 MUL PUSH1 0x20 ADD DUP3 ADD PUSH1 0x40 MSTORE DUP1 ISZERO PUSH2 0xC8B JUMPI DUP2 PUSH1 0x20 ADD PUSH1 0x20 DUP3 MUL DUP1 CALLDATASIZE DUP4 CALLDATACOPY ADD SWAP1 POP JUMPDEST POP SWAP1 POP PUSH1 0x1 SLOAD DUP2 PUSH0 DUP2 MLOAD DUP2 LT PUSH2 0xCA3 JUMPI PUSH2 0xCA3 PUSH2 0xF07 JUMP JUMPDEST PUSH1 0x20 SWAP1 DUP2 MUL SWAP2 SWAP1 SWAP2 ADD ADD MSTORE PUSH1 0x1 SLOAD PUSH1 0x40 MLOAD PUSH3 0x7EEAC7 PUSH1 0xE1 SHL DUP2 MSTORE ADDRESS PUSH1 0x4 DUP3 ADD MSTORE PUSH1 0x24 DUP2 ADD SWAP2 SWAP1 SWAP2 MSTORE PUSH0 SWAP1 PUSH20 0xF6C9020C9E915808481757779EDB53DACEAE2415 SWAP1 PUSH3 0xFDD58E SWAP1 PUSH1 0x44 ADD PUSH1 0x20 PUSH1 0x40 MLOAD DUP1 DUP4 SUB DUP2 DUP7 GAS STATICCALL ISZERO DUP1 ISZERO PUSH2 0xD06 JUMPI RETURNDATASIZE PUSH0 DUP1 RETURNDATACOPY RETURNDATASIZE PUSH0 REVERT JUMPDEST POP POP POP POP PUSH1 0x40 MLOAD RETURNDATASIZE PUSH1 0x1F NOT PUSH1 0x1F DUP3 ADD AND DUP3 ADD DUP1 PUSH1 0x40 MSTORE POP DUP2 ADD SWAP1 PUSH2 0xD2A SWAP2 SWAP1 PUSH2 0xEBA JUMP JUMPDEST SWAP1 POP DUP1 DUP4 PUSH0 DUP2 MLOAD DUP2 LT PUSH2 0xD3F JUMPI PUSH2 0xD3F PUSH2 0xF07 JUMP JUMPDEST PUSH1 0x20 SWAP1 DUP2 MUL SWAP2 SWAP1 SWAP2 ADD ADD MSTORE PUSH20 0x13E138EF6008AE5FDFDE29700E3F2BC61D21E3A PUSH4 0xC22159B6 PUSH20 0x78C1B0C915C4FAA5FFFA6CABF0219DA63D7F4CB8 PUSH20 0x201EBA5CC46D216CE6DC03F6A759E8E766E956AE DUP9 PUSH0 DUP1 DUP9 DUP11 ADDRESS PUSH2 0xDA0 TIMESTAMP PUSH2 0x12C PUSH2 0xF3A JUMP JUMPDEST PUSH1 0x40 MLOAD DUP11 PUSH4 0xFFFFFFFF AND PUSH1 0xE0 SHL DUP2 MSTORE PUSH1 0x4 ADD PUSH2 0xDC4 SWAP10 SWAP9 SWAP8 SWAP7 SWAP6 SWAP5 SWAP4 SWAP3 SWAP2 SWAP1 PUSH2 0x12B4 JUMP JUMPDEST PUSH1 0x40 DUP1 MLOAD DUP1 DUP4 SUB DUP2 PUSH0 DUP8 GAS CALL ISZERO DUP1 ISZERO PUSH2 0xDDF JUMPI RETURNDATASIZE PUSH0 DUP1 RETURNDATACOPY RETURNDATASIZE PUSH0 REVERT JUMPDEST POP POP POP POP PUSH1 0x40 MLOAD RETURNDATASIZE PUSH1 0x1F NOT PUSH1 0x1F DUP3 ADD AND DUP3 ADD DUP1 PUSH1 0x40 MSTORE POP DUP2 ADD SWAP1 PUSH2 0xE03 SWAP2 SWAP1 PUSH2 0x132D JUMP JUMPDEST POP POP POP POP POP POP POP JUMP JUMPDEST PUSH0 DUP1 PUSH1 0x5 PUSH0 SWAP1 SLOAD SWAP1 PUSH2 0x100 EXP SWAP1 DIV PUSH1 0x1 PUSH1 0x1 PUSH1 0xA0 SHL SUB AND PUSH1 0x1 PUSH1 0x1 PUSH1 0xA0 SHL SUB AND PUSH4 0xDBE65EDC PUSH1 0x40 MLOAD DUP2 PUSH4 0xFFFFFFFF AND PUSH1 0xE0 SHL DUP2 MSTORE PUSH1 0x4 ADD PUSH1 0x20 PUSH1 0x40 MLOAD DUP1 DUP4 SUB DUP2 DUP7 GAS STATICCALL ISZERO DUP1 ISZERO PUSH2 0xE5E JUMPI RETURNDATASIZE PUSH0 DUP1 RETURNDATACOPY RETURNDATASIZE PUSH0 REVERT JUMPDEST POP POP POP POP PUSH1 0x40 MLOAD RETURNDATASIZE PUSH1 0x1F NOT PUSH1 0x1F DUP3 ADD AND DUP3 ADD DUP1 PUSH1 0x40 MSTORE POP DUP2 ADD SWAP1 PUSH2 0xE82 SWAP2 SWAP1 PUSH2 0xED1 JUMP JUMPDEST PUSH3 0xFFFFFF AND SWAP3 SWAP2 POP POP JUMP JUMPDEST PUSH0 PUSH1 0x20 DUP3 DUP5 SUB SLT ISZERO PUSH2 0xE9D JUMPI PUSH0 DUP1 REVERT JUMPDEST DUP2 CALLDATALOAD PUSH1 0x1 PUSH1 0x1 PUSH1 0xA0 SHL SUB DUP2 AND DUP2 EQ PUSH2 0xEB3 JUMPI PUSH0 DUP1 REVERT JUMPDEST SWAP4 SWAP3 POP POP POP JUMP JUMPDEST PUSH0 PUSH1 0x20 DUP3 DUP5 SUB SLT ISZERO PUSH2 0xECA JUMPI PUSH0 DUP1 REVERT JUMPDEST POP MLOAD SWAP2 SWAP1 POP JUMP JUMPDEST PUSH0 PUSH1 0x20 DUP3 DUP5 SUB SLT ISZERO PUSH2 0xEE1 JUMPI PUSH0 DUP1 REVERT JUMPDEST DUP2 MLOAD PUSH3 0xFFFFFF DUP2 AND DUP2 EQ PUSH2 0xEB3 JUMPI PUSH0 DUP1 REVERT JUMPDEST PUSH4 0x4E487B71 PUSH1 0xE0 SHL PUSH0 MSTORE PUSH1 0x41 PUSH1 0x4 MSTORE PUSH1 0x24 PUSH0 REVERT JUMPDEST PUSH4 0x4E487B71 PUSH1 0xE0 SHL PUSH0 MSTORE PUSH1 0x32 PUSH1 0x4 MSTORE PUSH1 0x24 PUSH0 REVERT JUMPDEST PUSH0 PUSH1 0x20 DUP3 DUP5 SUB SLT ISZERO PUSH2 0xF2B JUMPI PUSH0 DUP1 REVERT JUMPDEST DUP2 MLOAD DUP1 ISZERO ISZERO DUP2 EQ PUSH2 0xEB3 JUMPI PUSH0 DUP1 REVERT JUMPDEST DUP1 DUP3 ADD DUP1 DUP3 GT ISZERO PUSH2 0xF59 JUMPI PUSH4 0x4E487B71 PUSH1 0xE0 SHL PUSH0 MSTORE PUSH1 0x11 PUSH1 0x4 MSTORE PUSH1 0x24 PUSH0 REVERT JUMPDEST SWAP3 SWAP2 POP POP JUMP JUMPDEST PUSH0 DUP2 MLOAD DUP1 DUP5 MSTORE PUSH1 0x20 DUP5 ADD SWAP4 POP PUSH1 0x20 DUP4 ADD PUSH0 JUMPDEST DUP3 DUP2 LT ISZERO PUSH2 0xF8F JUMPI DUP2 MLOAD DUP7 MSTORE PUSH1 0x20 SWAP6 DUP7 ADD SWAP6 SWAP1 SWAP2 ADD SWAP1 PUSH1 0x1 ADD PUSH2 0xF71 JUMP JUMPDEST POP SWAP4 SWAP5 SWAP4 POP POP POP POP JUMP JUMPDEST PUSH1 0x20 DUP2 MSTORE PUSH2 0xFB3 PUSH1 0x20 DUP3 ADD DUP4 MLOAD PUSH1 0x1 PUSH1 0x1 PUSH1 0xA0 SHL SUB AND SWAP1 MSTORE JUMP JUMPDEST PUSH0 PUSH1 0x20 DUP4 ADD MLOAD PUSH2 0xFCE PUSH1 0x40 DUP5 ADD DUP3 PUSH1 0x1 PUSH1 0x1 PUSH1 0xA0 SHL SUB AND SWAP1 MSTORE JUMP JUMPDEST POP PUSH1 0x40 DUP4 ADD MLOAD PUSH1 0x60 DUP4 ADD MSTORE PUSH1 0x60 DUP4 ADD MLOAD PUSH1 0x80 DUP4 ADD MSTORE PUSH1 0x80 DUP4 ADD MLOAD PUSH1 0xA0 DUP4 ADD MSTORE PUSH1 0xA0 DUP4 ADD MLOAD PUSH1 0xC0 DUP4 ADD MSTORE PUSH1 0xC0 DUP4 ADD MLOAD PUSH1 0xE0 DUP4 ADD MSTORE PUSH1 0xE0 DUP4 ADD MLOAD PUSH2 0x100 DUP4 ADD MSTORE PUSH2 0x100 DUP4 ADD MLOAD PUSH2 0x120 DUP4 ADD MSTORE PUSH2 0x120 DUP4 ADD MLOAD PUSH2 0x1E0 PUSH2 0x140 DUP5 ADD MSTORE PUSH2 0x1035 PUSH2 0x200 DUP5 ADD DUP3 PUSH2 0xF5F JUMP JUMPDEST SWAP1 POP PUSH2 0x140 DUP5 ADD MLOAD PUSH1 0x1F NOT DUP5 DUP4 SUB ADD PUSH2 0x160 DUP6 ADD MSTORE PUSH2 0x1054 DUP3 DUP3 PUSH2 0xF5F JUMP JUMPDEST SWAP2 POP POP PUSH2 0x160 DUP5 ADD MLOAD PUSH1 0x1F NOT DUP5 DUP4 SUB ADD PUSH2 0x180 DUP6 ADD MSTORE PUSH2 0x1074 DUP3 DUP3 PUSH2 0xF5F JUMP JUMPDEST SWAP2 POP POP PUSH2 0x180 DUP5 ADD MLOAD PUSH2 0x1093 PUSH2 0x1A0 DUP6 ADD DUP3 PUSH1 0x1 PUSH1 0x1 PUSH1 0xA0 SHL SUB AND SWAP1 MSTORE JUMP JUMPDEST POP PUSH2 0x1A0 DUP5 ADD MLOAD PUSH1 0x1 PUSH1 0x1 PUSH1 0xA0 SHL SUB DUP2 AND PUSH2 0x1C0 DUP6 ADD MSTORE POP PUSH2 0x1C0 DUP5 ADD MLOAD PUSH2 0x1E0 DUP5 ADD MSTORE DUP1 SWAP2 POP POP SWAP3 SWAP2 POP POP JUMP JUMPDEST PUSH0 DUP3 PUSH1 0x1F DUP4 ADD SLT PUSH2 0x10D0 JUMPI PUSH0 DUP1 REVERT JUMPDEST DUP2 MLOAD PUSH8 0xFFFFFFFFFFFFFFFF DUP2 GT ISZERO PUSH2 0x10EA JUMPI PUSH2 0x10EA PUSH2 0xEF3 JUMP JUMPDEST DUP1 PUSH1 0x5 SHL PUSH1 0x40 MLOAD PUSH1 0x1F NOT PUSH1 0x3F DUP4 ADD AND DUP2 ADD DUP2 DUP2 LT PUSH8 0xFFFFFFFFFFFFFFFF DUP3 GT OR ISZERO PUSH2 0x1117 JUMPI PUSH2 0x1117 PUSH2 0xEF3 JUMP JUMPDEST PUSH1 0x40 MSTORE SWAP2 DUP3 MSTORE PUSH1 0x20 DUP2 DUP6 ADD DUP2 ADD SWAP3 SWAP1 DUP2 ADD DUP7 DUP5 GT ISZERO PUSH2 0x1134 JUMPI PUSH0 DUP1 REVERT JUMPDEST PUSH1 0x20 DUP7 ADD SWAP3 POP JUMPDEST DUP4 DUP4 LT ISZERO PUSH2 0x1153 JUMPI DUP3 MLOAD DUP2 MSTORE PUSH1 0x20 SWAP3 DUP4 ADD SWAP3 ADD PUSH2 0x113B JUMP JUMPDEST POP SWAP6 SWAP5 POP POP POP POP POP JUMP JUMPDEST PUSH0 DUP1 PUSH0 DUP1 PUSH0 DUP1 PUSH1 0xC0 DUP8 DUP10 SUB SLT ISZERO PUSH2 0x1172 JUMPI PUSH0 DUP1 REVERT JUMPDEST DUP7 MLOAD PUSH1 0x20 DUP9 ADD MLOAD PUSH1 0x40 DUP10 ADD MLOAD PUSH1 0x60 DUP11 ADD MLOAD PUSH1 0x80 DUP12 ADD MLOAD SWAP4 SWAP10 POP SWAP2 SWAP8 POP SWAP6 POP SWAP4 POP PUSH8 0xFFFFFFFFFFFFFFFF DUP2 GT ISZERO PUSH2 0x11A6 JUMPI PUSH0 DUP1 REVERT JUMPDEST PUSH2 0x11B2 DUP10 DUP3 DUP11 ADD PUSH2 0x10C1 JUMP JUMPDEST SWAP3 POP POP PUSH1 0xA0 DUP8 ADD MLOAD PUSH8 0xFFFFFFFFFFFFFFFF DUP2 GT ISZERO PUSH2 0x11CE JUMPI PUSH0 DUP1 REVERT JUMPDEST PUSH2 0x11DA DUP10 DUP3 DUP11 ADD PUSH2 0x10C1 JUMP JUMPDEST SWAP2 POP POP SWAP3 SWAP6 POP SWAP3 SWAP6 POP SWAP3 SWAP6 JUMP JUMPDEST PUSH1 0x1 PUSH1 0x1 PUSH1 0xA0 SHL SUB DUP4 AND DUP2 MSTORE PUSH1 0x40 PUSH1 0x20 DUP3 ADD DUP2 SWAP1 MSTORE PUSH0 SWAP1 PUSH2 0x120A SWAP1 DUP4 ADD DUP5 PUSH2 0xF5F JUMP JUMPDEST SWAP5 SWAP4 POP POP POP POP JUMP JUMPDEST PUSH0 PUSH1 0xA0 DUP3 ADD DUP8 DUP4 MSTORE DUP7 PUSH1 0x20 DUP5 ADD MSTORE PUSH1 0xA0 PUSH1 0x40 DUP5 ADD MSTORE DUP1 DUP7 MLOAD DUP1 DUP4 MSTORE PUSH1 0xC0 DUP6 ADD SWAP2 POP PUSH1 0x20 DUP9 ADD SWAP3 POP PUSH0 JUMPDEST DUP2 DUP2 LT ISZERO PUSH2 0x1262 JUMPI DUP4 MLOAD PUSH1 0x1 PUSH1 0x1 PUSH1 0xA0 SHL SUB AND DUP4 MSTORE PUSH1 0x20 SWAP4 DUP5 ADD SWAP4 SWAP1 SWAP3 ADD SWAP2 PUSH1 0x1 ADD PUSH2 0x123B JUMP JUMPDEST POP POP PUSH1 0x1 PUSH1 0x1 PUSH1 0xA0 SHL SUB SWAP6 SWAP1 SWAP6 AND PUSH1 0x60 DUP5 ADD MSTORE POP POP PUSH1 0x80 ADD MSTORE SWAP4 SWAP3 POP POP POP JUMP JUMPDEST PUSH0 PUSH1 0x20 DUP3 DUP5 SUB SLT ISZERO PUSH2 0x1292 JUMPI PUSH0 DUP1 REVERT JUMPDEST DUP2 MLOAD PUSH8 0xFFFFFFFFFFFFFFFF DUP2 GT ISZERO PUSH2 0x12A8 JUMPI PUSH0 DUP1 REVERT JUMPDEST PUSH2 0x120A DUP5 DUP3 DUP6 ADD PUSH2 0x10C1 JUMP JUMPDEST PUSH1 0x1 PUSH1 0x1 PUSH1 0xA0 SHL SUB DUP11 DUP2 AND DUP3 MSTORE DUP10 AND PUSH1 0x20 DUP3 ADD MSTORE PUSH2 0xFFFF DUP9 AND PUSH1 0x40 DUP3 ADD MSTORE PUSH1 0x60 DUP2 ADD DUP8 SWAP1 MSTORE PUSH1 0x80 DUP2 ADD DUP7 SWAP1 MSTORE PUSH2 0x120 PUSH1 0xA0 DUP3 ADD DUP2 SWAP1 MSTORE PUSH0 SWAP1 PUSH2 0x12F8 SWAP1 DUP4 ADD DUP8 PUSH2 0xF5F JUMP JUMPDEST DUP3 DUP2 SUB PUSH1 0xC0 DUP5 ADD MSTORE PUSH2 0x130A DUP2 DUP8 PUSH2 0xF5F JUMP JUMPDEST PUSH1 0x1 PUSH1 0x1 PUSH1 0xA0 SHL SUB SWAP6 SWAP1 SWAP6 AND PUSH1 0xE0 DUP5 ADD MSTORE POP POP PUSH2 0x100 ADD MSTORE SWAP8 SWAP7 POP POP POP POP POP POP POP JUMP JUMPDEST PUSH0 DUP1 PUSH1 0x40 DUP4 DUP6 SUB SLT ISZERO PUSH2 0x133E JUMPI PUSH0 DUP1 REVERT JUMPDEST POP POP DUP1 MLOAD PUSH1 0x20 SWAP1 SWAP2 ADD MLOAD SWAP1 SWAP3 SWAP1 SWAP2 POP JUMP INVALID LOG2 PUSH5 0x6970667358 0x22 SLT KECCAK256 SHR 0xC7 CALLDATASIZE 0xA9 BLOBBASEFEE 0xE3 SGT 0x4B SWAP9 0xC 0xD4 PUSH26 0xD0B58BD86271D6768DACDF077BB4CF73D7523D6064736F6C6343 STOP ADDMOD BYTE STOP CALLER "
		},
		"gasEstimates": {
			"creation": {
				"codeDepositCost": "999400",
				"executionCost": "170626",
				"totalCost": "1170026"
			},
			"external": {
				"AddLiquidity()": "infinite",
				"ViewBin()": "infinite",
				"approveTokenRewarder()": "infinite",
				"collectRewards()": "infinite",
				"currentID()": "2291",
				"rebalance()": "infinite",
				"removeFarm()": "infinite",
				"transferToAdmin(address)": "infinite"
			}
		},
		"methodIdentifiers": {
			"AddLiquidity()": "0bc488c5",
			"ViewBin()": "ecbd4533",
			"approveTokenRewarder()": "25475a14",
			"collectRewards()": "70bb45b3",
			"currentID()": "1c75cfb4",
			"rebalance()": "7d7c2a1c",
			"removeFarm()": "b298bcf5",
			"transferToAdmin(address)": "8cbc5cff"
		}
	},
	"abi": [
		{
			"inputs": [],
			"stateMutability": "nonpayable",
			"type": "constructor"
		},
		{
			"inputs": [],
			"name": "AddLiquidity",
			"outputs": [],
			"stateMutability": "payable",
			"type": "function"
		},
		{
			"inputs": [],
			"name": "ViewBin",
			"outputs": [
				{
					"internalType": "uint256",
					"name": "",
					"type": "uint256"
				}
			],
			"stateMutability": "view",
			"type": "function"
		},
		{
			"inputs": [],
			"name": "approveTokenRewarder",
			"outputs": [],
			"stateMutability": "payable",
			"type": "function"
		},
		{
			"inputs": [],
			"name": "collectRewards",
			"outputs": [],
			"stateMutability": "payable",
			"type": "function"
		},
		{
			"inputs": [],
			"name": "currentID",
			"outputs": [
				{
					"internalType": "uint256",
					"name": "",
					"type": "uint256"
				}
			],
			"stateMutability": "view",
			"type": "function"
		},
		{
			"inputs": [],
			"name": "rebalance",
			"outputs": [],
			"stateMutability": "payable",
			"type": "function"
		},
		{
			"inputs": [],
			"name": "removeFarm",
			"outputs": [],
			"stateMutability": "payable",
			"type": "function"
		},
		{
			"inputs": [
				{
					"internalType": "address",
					"name": "Token",
					"type": "address"
				}
			],
			"name": "transferToAdmin",
			"outputs": [],
			"stateMutability": "payable",
			"type": "function"
		},
		{
			"stateMutability": "payable",
			"type": "receive"
		}
	]
}