{
	"data": {
		"bytecode": {
			"linkReferences": {},
			"object": "6080604052600280546001600160a01b03199081167378c1b0c915c4faa5fffa6cabf0219da63d7f4cb81790915560038054821673201eba5cc46d216ce6dc03f6a759e8e766e956ae17905560048054821673f6c9020c9e915808481757779edb53daceae241517905560058054821673013e138ef6008ae5fdfde29700e3f2bc61d21e3a1790556006805482167308a62eb0ef6dbe762774abf5e18f49671559285b179055600780548216734515a45337f461a11ff0fe8abf3c606ae5dc00c91790556008805490911673eaee7ee68874218c3558b40063c42b82d3e7232a179055600a80553480156100f1575f80fd5b505f80546001600160a01b031916331790556135f3806101105f395ff3fe6080604052600436106100fa575f3560e01c806369bdedd511610092578063941b380b11610062578063941b380b146101a7578063b72d41d814610184578063c8643a5d146101de578063ecbd4533146101e6578063f5001870146101fa575f80fd5b806369bdedd51461017c57806377e0074b1461018457806378ee22de1461018c5780638cbc5cff14610194575f80fd5b806325475a14116100cd57806325475a141461014657806326aa7e0e1461014e578063274e808b1461015657806354ce1b4e14610169575f80fd5b806317ced34b146100fe5780631c75cfb4146101135780631f4e2e0a14610136578063247d46a41461013e575b5f80fd5b61011161010c366004612f85565b610202565b005b34801561011e575f80fd5b506001545b6040519081526020015b60405180910390f35b6101116102a6565b610111610b59565b610111610e1b565b610111610ee7565b610111610164366004612f85565b6117f3565b610111610177366004612f85565b61184e565b610111611a04565b610111611c37565b610111611e36565b6101116101a2366004612f9c565b612614565b3480156101b2575f80fd5b506009546101c6906001600160a01b031681565b6040516001600160a01b03909116815260200161012d565b610111612703565b3480156101f1575f80fd5b506101236128c7565b61011161293c565b6040805160018082528183019092525f90826020808301908036833701905050905082815f8151811061023757610237612fdd565b60209081029190910101526006546040516308ae304f60e31b81526001600160a01b0390911690634571827890610274903090859060040161302b565b5f604051808303815f87803b15801561028b575f80fd5b505af115801561029d573d5f803e3d5ffd5b50505050505050565b6002546040516370a0823160e01b81523060048201525f916001600160a01b0316906370a0823190602401602060405180830381865afa1580156102ec573d5f803e3d5ffd5b505050506040513d601f19601f820116820180604052508101906103109190613056565b6003546040516370a0823160e01b81523060048201529192505f916001600160a01b03909116906370a0823190602401602060405180830381865afa15801561035b573d5f803e3d5ffd5b505050506040513d601f19601f8201168201806040525081019061037f9190613056565b90505f600f90505f805f60045f9054906101000a90046001600160a01b03166001600160a01b031663dbe65edc6040518163ffffffff1660e01b8152600401602060405180830381865afa1580156103d9573d5f803e3d5ffd5b505050506040513d601f19601f820116820180604052508101906103fd919061306d565b90505f8162ffffff1690505f600a546001600160401b0381111561042357610423612fc9565b60405190808252806020026020018201604052801561044c578160200160208202803683370190505b5090505f815f8151811061046257610462612fdd565b6020026020010181815250505f198160018151811061048357610483612fdd565b602002602001018181525050600119816002815181106104a5576104a5612fdd565b602002602001018181525050600219816003815181106104c7576104c7612fdd565b602002602001018181525050600319816004815181106104e9576104e9612fdd565b6020026020010181815250506004198160058151811061050b5761050b612fdd565b6020026020010181815250506005198160068151811061052d5761052d612fdd565b6020026020010181815250506006198160078151811061054f5761054f612fdd565b6020026020010181815250506007198160088151811061057157610571612fdd565b6020026020010181815250506008198160098151811061059357610593612fdd565b6020026020010181815250505f600a546001600160401b038111156105ba576105ba612fc9565b6040519080825280602002602001820160405280156105e3578160200160208202803683370190505b509050670de0b6b3a7640000815f8151811061060157610601612fdd565b6020026020010181815250505f8160018151811061062157610621612fdd565b6020026020010181815250505f8160028151811061064157610641612fdd565b6020026020010181815250505f8160038151811061066157610661612fdd565b6020026020010181815250505f8160048151811061068157610681612fdd565b6020026020010181815250505f816005815181106106a1576106a1612fdd565b6020026020010181815250505f816006815181106106c1576106c1612fdd565b6020026020010181815250505f816007815181106106e1576106e1612fdd565b6020026020010181815250505f8160088151811061070157610701612fdd565b6020026020010181815250505f8160098151811061072157610721612fdd565b6020026020010181815250505f600a546001600160401b0381111561074857610748612fc9565b604051908082528060200260200182016040528015610771578160200160208202803683370190505b50905067016345785d8a0000815f8151811061078f5761078f612fdd565b60200260200101818152505067016345785d8a0000816001815181106107b7576107b7612fdd565b60200260200101818152505067016345785d8a0000816002815181106107df576107df612fdd565b60200260200101818152505067016345785d8a00008160038151811061080757610807612fdd565b60200260200101818152505067016345785d8a00008160048151811061082f5761082f612fdd565b60200260200101818152505067016345785d8a00008160058151811061085757610857612fdd565b60200260200101818152505067016345785d8a00008160068151811061087f5761087f612fdd565b60200260200101818152505067016345785d8a0000816007815181106108a7576108a7612fdd565b60200260200101818152505067016345785d8a0000816008815181106108cf576108cf612fdd565b60200260200101818152505067016345785d8a0000816009815181106108f7576108f7612fdd565b602090810291909101015260025460405163095ea7b360e01b81525f916001600160a01b03169063095ea7b3906109489073013e138ef6008ae5fdfde29700e3f2bc61d21e3a908f9060040161308f565b6020604051808303815f875af1158015610964573d5f803e3d5ffd5b505050506040513d601f19601f8201168201806040525081019061098891906130a8565b5060035460405163095ea7b360e01b81526001600160a01b039091169063095ea7b3906109cf9073013e138ef6008ae5fdfde29700e3f2bc61d21e3a908e9060040161308f565b6020604051808303815f875af11580156109eb573d5f803e3d5ffd5b505050506040513d601f19601f82011682018060405250810190610a0f91906130a8565b505f604051806101e001604052807378c1b0c915c4faa5fffa6cabf0219da63d7f4cb86001600160a01b0316815260200173201eba5cc46d216ce6dc03f6a759e8e766e956ae6001600160a01b031681526020018b81526020018d81526020018c81526020018a8152602001898152602001878152602001838152602001868152602001858152602001848152602001306001600160a01b03168152602001306001600160a01b031681526020014261012c610acb91906130db565b90526005546040516351e3938d60e11b81529192506001600160a01b03169063a3c7271a90610afe9084906004016130f4565b5f604051808303815f875af1158015610b19573d5f803e3d5ffd5b505050506040513d5f823e601f3d908101601f19168201604052610b4091908101906132b6565b5050506001989098555050505050505050505050505050565b6002546040516370a0823160e01b81523060048201525f916001600160a01b0316906370a0823190602401602060405180830381865afa158015610b9f573d5f803e3d5ffd5b505050506040513d601f19601f82011682018060405250810190610bc39190613056565b6040805160028082526060820183529293505f929091602083019080368337505060025482519293506001600160a01b0316918391505f90610c0757610c07612fdd565b6001600160a01b039283166020918202929092010152600354825191169082906001908110610c3857610c38612fdd565b6001600160a01b03928316602091820292909201015260025460055460405163095ea7b360e01b81525f939283169263095ea7b392610c7e92911690879060040161308f565b6020604051808303815f875af1158015610c9a573d5f803e3d5ffd5b505050506040513d601f19601f82011682018060405250810190610cbe91906130a8565b506040805160018082528183019092525f9160208083019080368337019050509050600f815f81518110610cf457610cf4612fdd565b60209081029190910101526040805160018082528183019092525f918160200160208202803683370190505090506003815f81518110610d3657610d36612fdd565b60200260200101906003811115610d4f57610d4f61333e565b90816003811115610d6257610d6261333e565b81525050610d8a60405180606001604052806060815260200160608152602001606081525090565b82815260208101829052604081018590526005546001600160a01b0316632a443fae87868430610dbb4260016130db565b6040518663ffffffff1660e01b8152600401610ddb95949392919061338b565b6020604051808303815f875af1158015610df7573d5f803e3d5ffd5b505050506040513d601f19601f8201168201806040525081019061029d9190613056565b600480546005546040516339612d9560e21b81526001600160a01b039182169381019390935260016024840152169063e584b654906044015f604051808303815f87803b158015610e6a575f80fd5b505af1158015610e7c573d5f803e3d5ffd5b5050600480546006546040516339612d9560e21b81526001600160a01b03918216938101939093526001602484015216925063e584b65491506044015f604051808303815f87803b158015610ecf575f80fd5b505af1158015610ee1573d5f803e3d5ffd5b50505050565b600a54600f905f906001600160401b03811115610f0657610f06612fc9565b604051908082528060200260200182016040528015610f2f578160200160208202803683370190505b5090505f600a546001600160401b03811115610f4d57610f4d612fc9565b604051908082528060200260200182016040528015610f76578160200160208202803683370190505b509050600154815f81518110610f8e57610f8e612fdd565b60200260200101818152505060018054610fa8919061346e565b81600181518110610fbb57610fbb612fdd565b6020026020010181815250506002600154610fd6919061346e565b81600281518110610fe957610fe9612fdd565b6020026020010181815250506003600154611004919061346e565b8160038151811061101757611017612fdd565b6020026020010181815250506004600154611032919061346e565b8160048151811061104557611045612fdd565b6020026020010181815250506005600154611060919061346e565b8160058151811061107357611073612fdd565b602002602001018181525050600660015461108e919061346e565b816006815181106110a1576110a1612fdd565b60200260200101818152505060076001546110bc919061346e565b816007815181106110cf576110cf612fdd565b60200260200101818152505060086001546110ea919061346e565b816008815181106110fd576110fd612fdd565b6020026020010181815250506009600154611118919061346e565b8160098151811061112b5761112b612fdd565b602090810291909101015260048054600154604051627eeac760e11b81526001600160a01b039092169262fdd58e9261116892309290910161308f565b602060405180830381865afa158015611183573d5f803e3d5ffd5b505050506040513d601f19601f820116820180604052508101906111a79190613056565b825f815181106111b9576111b9612fdd565b6020908102919091010152600454600180546001600160a01b039092169162fdd58e9130916111e8919061346e565b6040518363ffffffff1660e01b815260040161120592919061308f565b602060405180830381865afa158015611220573d5f803e3d5ffd5b505050506040513d601f19601f820116820180604052508101906112449190613056565b8260018151811061125757611257612fdd565b60209081029190910101526004546001546001600160a01b039091169062fdd58e9030906112879060029061346e565b6040518363ffffffff1660e01b81526004016112a492919061308f565b602060405180830381865afa1580156112bf573d5f803e3d5ffd5b505050506040513d601f19601f820116820180604052508101906112e39190613056565b826002815181106112f6576112f6612fdd565b60209081029190910101526004546001546001600160a01b039091169062fdd58e9030906113269060039061346e565b6040518363ffffffff1660e01b815260040161134392919061308f565b602060405180830381865afa15801561135e573d5f803e3d5ffd5b505050506040513d601f19601f820116820180604052508101906113829190613056565b8260038151811061139557611395612fdd565b6020908102919091010152600480546001546001600160a01b039091169162fdd58e9130916113c39161346e565b6040518363ffffffff1660e01b81526004016113e092919061308f565b602060405180830381865afa1580156113fb573d5f803e3d5ffd5b505050506040513d601f19601f8201168201806040525081019061141f9190613056565b8260048151811061143257611432612fdd565b60209081029190910101526004546001546001600160a01b039091169062fdd58e9030906114629060059061346e565b6040518363ffffffff1660e01b815260040161147f92919061308f565b602060405180830381865afa15801561149a573d5f803e3d5ffd5b505050506040513d601f19601f820116820180604052508101906114be9190613056565b826005815181106114d1576114d1612fdd565b60209081029190910101526004546001546001600160a01b039091169062fdd58e9030906115019060069061346e565b6040518363ffffffff1660e01b815260040161151e92919061308f565b602060405180830381865afa158015611539573d5f803e3d5ffd5b505050506040513d601f19601f8201168201806040525081019061155d9190613056565b8260068151811061157057611570612fdd565b60209081029190910101526004546001546001600160a01b039091169062fdd58e9030906115a09060079061346e565b6040518363ffffffff1660e01b81526004016115bd92919061308f565b602060405180830381865afa1580156115d8573d5f803e3d5ffd5b505050506040513d601f19601f820116820180604052508101906115fc9190613056565b8260078151811061160f5761160f612fdd565b60209081029190910101526004546001546001600160a01b039091169062fdd58e90309061163f9060089061346e565b6040518363ffffffff1660e01b815260040161165c92919061308f565b602060405180830381865afa158015611677573d5f803e3d5ffd5b505050506040513d601f19601f8201168201806040525081019061169b9190613056565b826008815181106116ae576116ae612fdd565b60209081029190910101526004546001546001600160a01b039091169062fdd58e9030906116de9060099061346e565b6040518363ffffffff1660e01b81526004016116fb92919061308f565b602060405180830381865afa158015611716573d5f803e3d5ffd5b505050506040513d601f19601f8201168201806040525081019061173a9190613056565b8260098151811061174d5761174d612fdd565b60209081029190910101526005546002546003546001600160a01b039283169263c22159b69281169116865f808789306117894261012c6130db565b6040518a63ffffffff1660e01b81526004016117ad99989796959493929190613481565b60408051808303815f875af11580156117c8573d5f803e3d5ffd5b505050506040513d601f19601f820116820180604052508101906117ec91906134fa565b5050505050565b5f546001600160a01b031633146118495760405162461bcd60e51b81526020600482015260166024820152754f6e6c79206f776e65722063616e20646f207468697360501b604482015260640160405180910390fd5b600155565b604080516001808252818301909252600f905f9083602080830190803683370190505090505f836001600160401b0381111561188c5761188c612fc9565b6040519080825280602002602001820160405280156118b5578160200160208202803683370190505b50905084815f815181106118cb576118cb612fdd565b602090810291909101015260048054604051627eeac760e11b81525f926001600160a01b039092169162fdd58e916119079130918b910161308f565b602060405180830381865afa158015611922573d5f803e3d5ffd5b505050506040513d601f19601f820116820180604052508101906119469190613056565b905080835f8151811061195b5761195b612fdd565b60209081029190910101526005546002546003546001600160a01b039283169263c22159b69281169116875f80888a306119974261012c6130db565b6040518a63ffffffff1660e01b81526004016119bb99989796959493929190613481565b60408051808303815f875af11580156119d6573d5f803e3d5ffd5b505050506040513d601f19601f820116820180604052508101906119fa91906134fa565b5050505050505050565b60408051600a80825261016082019092525f90826020820161014080368337019050509050600154815f81518110611a3e57611a3e612fdd565b602090810291909101015260018054611a56916130db565b81600181518110611a6957611a69612fdd565b6020908102919091010152600154611a829060026130db565b81600281518110611a9557611a95612fdd565b6020908102919091010152600154611aae9060036130db565b81600381518110611ac157611ac1612fdd565b6020908102919091010152600154611ada9060046130db565b81600481518110611aed57611aed612fdd565b6020908102919091010152600154611b069060056130db565b81600581518110611b1957611b19612fdd565b6020908102919091010152600154611b329060066130db565b81600681518110611b4557611b45612fdd565b6020908102919091010152600154611b5e9060076130db565b81600781518110611b7157611b71612fdd565b6020908102919091010152600154611b8a9060086130db565b81600881518110611b9d57611b9d612fdd565b6020908102919091010152600154611bb69060096130db565b81600981518110611bc957611bc9612fdd565b60209081029190910101526006546040516308ae304f60e31b81526001600160a01b0390911690634571827890611c06903090859060040161302b565b5f604051808303815f87803b158015611c1d575f80fd5b505af1158015611c2f573d5f803e3d5ffd5b505050505050565b6007546040516370a0823160e01b81523060048201525f916001600160a01b0316906370a0823190602401602060405180830381865afa158015611c7d573d5f803e3d5ffd5b505050506040513d601f19601f82011682018060405250810190611ca19190613056565b6040805160028082526060820183529293505f929091602083019080368337019050509050734515a45337f461a11ff0fe8abf3c606ae5dc00c9815f81518110611ced57611ced612fdd565b60200260200101906001600160a01b031690816001600160a01b0316815250507378c1b0c915c4faa5fffa6cabf0219da63d7f4cb881600181518110611d3557611d35612fdd565b6001600160a01b03928316602091820292909201015260075460085460405163095ea7b360e01b81525f939283169263095ea7b392611d7b92911690879060040161308f565b6020604051808303815f875af1158015611d97573d5f803e3d5ffd5b505050506040513d601f19601f82011682018060405250810190611dbb91906130a8565b506008546040516338ed173960e01b81526001600160a01b03909116906338ed173990611df4908690859087903090429060040161351c565b5f604051808303815f875af1158015611e0f573d5f803e3d5ffd5b505050506040513d5f823e601f3d908101601f19168201604052610ee1919081019061358c565b600a54600f905f906001600160401b03811115611e5557611e55612fc9565b604051908082528060200260200182016040528015611e7e578160200160208202803683370190505b5090505f600a546001600160401b03811115611e9c57611e9c612fc9565b604051908082528060200260200182016040528015611ec5578160200160208202803683370190505b509050600154815f81518110611edd57611edd612fdd565b602090810291909101015260018054611ef5916130db565b81600181518110611f0857611f08612fdd565b6020908102919091010152600154611f219060026130db565b81600281518110611f3457611f34612fdd565b6020908102919091010152600154611f4d9060036130db565b81600381518110611f6057611f60612fdd565b6020908102919091010152600154611f799060046130db565b81600481518110611f8c57611f8c612fdd565b6020908102919091010152600154611fa59060056130db565b81600581518110611fb857611fb8612fdd565b6020908102919091010152600154611fd19060066130db565b81600681518110611fe457611fe4612fdd565b6020908102919091010152600154611ffd9060076130db565b8160078151811061201057612010612fdd565b60209081029190910101526001546120299060086130db565b8160088151811061203c5761203c612fdd565b60209081029190910101526001546120559060096130db565b8160098151811061206857612068612fdd565b602090810291909101015260048054600154604051627eeac760e11b81526001600160a01b039092169262fdd58e926120a592309290910161308f565b602060405180830381865afa1580156120c0573d5f803e3d5ffd5b505050506040513d601f19601f820116820180604052508101906120e49190613056565b825f815181106120f6576120f6612fdd565b6020908102919091010152600454600180546001600160a01b039092169162fdd58e913091612124916130db565b6040518363ffffffff1660e01b815260040161214192919061308f565b602060405180830381865afa15801561215c573d5f803e3d5ffd5b505050506040513d601f19601f820116820180604052508101906121809190613056565b8260018151811061219357612193612fdd565b60209081029190910101526004546001546001600160a01b039091169062fdd58e9030906121c29060026130db565b6040518363ffffffff1660e01b81526004016121df92919061308f565b602060405180830381865afa1580156121fa573d5f803e3d5ffd5b505050506040513d601f19601f8201168201806040525081019061221e9190613056565b8260028151811061223157612231612fdd565b60209081029190910101526004546001546001600160a01b039091169062fdd58e9030906122609060036130db565b6040518363ffffffff1660e01b815260040161227d92919061308f565b602060405180830381865afa158015612298573d5f803e3d5ffd5b505050506040513d601f19601f820116820180604052508101906122bc9190613056565b826003815181106122cf576122cf612fdd565b6020908102919091010152600480546001546001600160a01b039091169162fdd58e9130916122fe91906130db565b6040518363ffffffff1660e01b815260040161231b92919061308f565b602060405180830381865afa158015612336573d5f803e3d5ffd5b505050506040513d601f19601f8201168201806040525081019061235a9190613056565b8260048151811061236d5761236d612fdd565b60209081029190910101526004546001546001600160a01b039091169062fdd58e90309061239c9060056130db565b6040518363ffffffff1660e01b81526004016123b992919061308f565b602060405180830381865afa1580156123d4573d5f803e3d5ffd5b505050506040513d601f19601f820116820180604052508101906123f89190613056565b8260058151811061240b5761240b612fdd565b60209081029190910101526004546001546001600160a01b039091169062fdd58e90309061243a9060066130db565b6040518363ffffffff1660e01b815260040161245792919061308f565b602060405180830381865afa158015612472573d5f803e3d5ffd5b505050506040513d601f19601f820116820180604052508101906124969190613056565b826006815181106124a9576124a9612fdd565b60209081029190910101526004546001546001600160a01b039091169062fdd58e9030906124d89060076130db565b6040518363ffffffff1660e01b81526004016124f592919061308f565b602060405180830381865afa158015612510573d5f803e3d5ffd5b505050506040513d601f19601f820116820180604052508101906125349190613056565b8260078151811061254757612547612fdd565b60209081029190910101526004546001546001600160a01b039091169062fdd58e9030906125769060086130db565b6040518363ffffffff1660e01b815260040161259392919061308f565b602060405180830381865afa1580156125ae573d5f803e3d5ffd5b505050506040513d601f19601f820116820180604052508101906125d29190613056565b826008815181106125e5576125e5612fdd565b60209081029190910101526004546001546001600160a01b039091169062fdd58e9030906116de9060096130db565b6040516370a0823160e01b81523060048201525f906001600160a01b038316906370a0823190602401602060405180830381865afa158015612658573d5f803e3d5ffd5b505050506040513d601f19601f8201168201806040525081019061267c9190613056565b60405163a9059cbb60e01b8152909150730b9bc785fd2bea7bf9cb81065cfaba2fc5d0286b906001600160a01b0384169063a9059cbb906126c3908490869060040161308f565b6020604051808303815f875af11580156126df573d5f803e3d5ffd5b505050506040513d601f19601f82011682018060405250810190610ee191906130a8565b60408051600a80825261016082019092525f90826020820161014080368337019050509050600154815f8151811061273d5761273d612fdd565b60200260200101818152505060018054612757919061346e565b8160018151811061276a5761276a612fdd565b6020026020010181815250506002600154612785919061346e565b8160028151811061279857612798612fdd565b60200260200101818152505060036001546127b3919061346e565b816003815181106127c6576127c6612fdd565b60200260200101818152505060046001546127e1919061346e565b816004815181106127f4576127f4612fdd565b602002602001018181525050600560015461280f919061346e565b8160058151811061282257612822612fdd565b602002602001018181525050600660015461283d919061346e565b8160068151811061285057612850612fdd565b602002602001018181525050600760015461286b919061346e565b8160078151811061287e5761287e612fdd565b6020026020010181815250506008600154612899919061346e565b816008815181106128ac576128ac612fdd565b6020026020010181815250506009600154611bb6919061346e565b60048054604080516336f997b760e21b815290515f9384936001600160a01b03169263dbe65edc92818301926020928290030181865afa15801561290d573d5f803e3d5ffd5b505050506040513d601f19601f82011682018060405250810190612931919061306d565b62ffffff1692915050565b6002546040516370a0823160e01b81523060048201525f916001600160a01b0316906370a0823190602401602060405180830381865afa158015612982573d5f803e3d5ffd5b505050506040513d601f19601f820116820180604052508101906129a69190613056565b6003546040516370a0823160e01b81523060048201529192505f916001600160a01b03909116906370a0823190602401602060405180830381865afa1580156129f1573d5f803e3d5ffd5b505050506040513d601f19601f82011682018060405250810190612a159190613056565b90505f600f90505f805f60045f9054906101000a90046001600160a01b03166001600160a01b031663dbe65edc6040518163ffffffff1660e01b8152600401602060405180830381865afa158015612a6f573d5f803e3d5ffd5b505050506040513d601f19601f82011682018060405250810190612a93919061306d565b90505f8162ffffff1690505f600a546001600160401b03811115612ab957612ab9612fc9565b604051908082528060200260200182016040528015612ae2578160200160208202803683370190505b5090505f815f81518110612af857612af8612fdd565b602002602001018181525050600181600181518110612b1957612b19612fdd565b602002602001018181525050600281600281518110612b3a57612b3a612fdd565b602002602001018181525050600381600381518110612b5b57612b5b612fdd565b602002602001018181525050600481600481518110612b7c57612b7c612fdd565b602002602001018181525050600581600581518110612b9d57612b9d612fdd565b602002602001018181525050600681600681518110612bbe57612bbe612fdd565b602002602001018181525050600781600781518110612bdf57612bdf612fdd565b602002602001018181525050600881600881518110612c0057612c00612fdd565b602002602001018181525050600981600981518110612c2157612c21612fdd565b6020026020010181815250505f600a546001600160401b03811115612c4857612c48612fc9565b604051908082528060200260200182016040528015612c71578160200160208202803683370190505b50905067016345785d8a0000815f81518110612c8f57612c8f612fdd565b60200260200101818152505067016345785d8a000081600181518110612cb757612cb7612fdd565b60200260200101818152505067016345785d8a000081600281518110612cdf57612cdf612fdd565b60200260200101818152505067016345785d8a000081600381518110612d0757612d07612fdd565b60200260200101818152505067016345785d8a000081600481518110612d2f57612d2f612fdd565b60200260200101818152505067016345785d8a000081600581518110612d5757612d57612fdd565b60200260200101818152505067016345785d8a000081600681518110612d7f57612d7f612fdd565b60200260200101818152505067016345785d8a000081600781518110612da757612da7612fdd565b60200260200101818152505067016345785d8a000081600881518110612dcf57612dcf612fdd565b60200260200101818152505067016345785d8a000081600981518110612df757612df7612fdd565b6020026020010181815250505f600a546001600160401b03811115612e1e57612e1e612fc9565b604051908082528060200260200182016040528015612e47578160200160208202803683370190505b509050670de0b6b3a7640000815f81518110612e6557612e65612fdd565b6020026020010181815250505f81600181518110612e8557612e85612fdd565b6020026020010181815250505f81600281518110612ea557612ea5612fdd565b6020026020010181815250505f81600381518110612ec557612ec5612fdd565b6020026020010181815250505f81600481518110612ee557612ee5612fdd565b6020026020010181815250505f81600581518110612f0557612f05612fdd565b6020026020010181815250505f81600681518110612f2557612f25612fdd565b6020026020010181815250505f81600781518110612f4557612f45612fdd565b6020026020010181815250505f81600881518110612f6557612f65612fdd565b6020026020010181815250505f816009815181106108f7576108f7612fdd565b5f60208284031215612f95575f80fd5b5035919050565b5f60208284031215612fac575f80fd5b81356001600160a01b0381168114612fc2575f80fd5b9392505050565b634e487b7160e01b5f52604160045260245ffd5b634e487b7160e01b5f52603260045260245ffd5b5f8151808452602084019350602083015f5b82811015613021578151865260209586019590910190600101613003565b5093949350505050565b6001600160a01b03831681526040602082018190525f9061304e90830184612ff1565b949350505050565b5f60208284031215613066575f80fd5b5051919050565b5f6020828403121561307d575f80fd5b815162ffffff81168114612fc2575f80fd5b6001600160a01b03929092168252602082015260400190565b5f602082840312156130b8575f80fd5b81518015158114612fc2575f80fd5b634e487b7160e01b5f52601160045260245ffd5b808201808211156130ee576130ee6130c7565b92915050565b6020815261310e6020820183516001600160a01b03169052565b5f602083015161312960408401826001600160a01b03169052565b506040830151606083015260608301516080830152608083015160a083015260a083015160c083015260c083015160e083015260e08301516101008301526101008301516101208301526101208301516101e0610140840152613190610200840182612ff1565b9050610140840151601f19848303016101608501526131af8282612ff1565b915050610160840151601f19848303016101808501526131cf8282612ff1565b9150506101808401516131ee6101a08501826001600160a01b03169052565b506101a08401516001600160a01b0381166101c0850152506101c08401516101e08401528091505092915050565b5f82601f83011261322b575f80fd5b81516001600160401b0381111561324457613244612fc9565b8060051b604051601f19603f83011681018181106001600160401b038211171561327057613270612fc9565b60405291825260208185018101929081018684111561328d575f80fd5b6020860192505b838310156132ac578251815260209283019201613294565b5095945050505050565b5f805f805f8060c087890312156132cb575f80fd5b86516020880151604089015160608a015160808b0151939950919750955093506001600160401b038111156132fe575f80fd5b61330a89828a0161321c565b92505060a08701516001600160401b03811115613325575f80fd5b61333189828a0161321c565b9150509295509295509295565b634e487b7160e01b5f52602160045260245ffd5b5f8151808452602084019350602083015f5b828110156130215781516001600160a01b0316865260209586019590910190600101613364565b8581526fffffffffffffffffffffffffffffffff8516602082015260a060408201525f8451606060a08401526133c5610100840182612ff1565b602087810151609f198684030160c0870152805180845290820193505f92909101905b808310156134265783516004811061340e57634e487b7160e01b5f52602160045260245ffd5b825260209384019360019390930192909101906133e8565b506040880151858203609f190160e087015292506134448184613352565b935050505061345e60608301856001600160a01b03169052565b8260808301529695505050505050565b818103818111156130ee576130ee6130c7565b6001600160a01b038a811682528916602082015261ffff88166040820152606081018790526080810186905261012060a082018190525f906134c590830187612ff1565b82810360c08401526134d78187612ff1565b6001600160a01b039590951660e084015250506101000152979650505050505050565b5f806040838503121561350b575f80fd5b505080516020909101519092909150565b5f60a0820187835286602084015260a0604084015280865180835260c0850191506020880192505f5b8181101561356c5783516001600160a01b0316835260209384019390920191600101613545565b50506001600160a01b039590951660608401525050608001529392505050565b5f6020828403121561359c575f80fd5b81516001600160401b038111156135b1575f80fd5b61304e8482850161321c56fea26469706673582212205c59f09fdf03ef138d5a7efaed12d695541e75674f5b35a3e527866b843bde3e64736f6c634300081a0033",
			"opcodes": "PUSH1 0x80 PUSH1 0x40 MSTORE PUSH1 0x2 DUP1 SLOAD PUSH1 0x1 PUSH1 0x1 PUSH1 0xA0 SHL SUB NOT SWAP1 DUP2 AND PUSH20 0x78C1B0C915C4FAA5FFFA6CABF0219DA63D7F4CB8 OR SWAP1 SWAP2 SSTORE PUSH1 0x3 DUP1 SLOAD DUP3 AND PUSH20 0x201EBA5CC46D216CE6DC03F6A759E8E766E956AE OR SWAP1 SSTORE PUSH1 0x4 DUP1 SLOAD DUP3 AND PUSH20 0xF6C9020C9E915808481757779EDB53DACEAE2415 OR SWAP1 SSTORE PUSH1 0x5 DUP1 SLOAD DUP3 AND PUSH20 0x13E138EF6008AE5FDFDE29700E3F2BC61D21E3A OR SWAP1 SSTORE PUSH1 0x6 DUP1 SLOAD DUP3 AND PUSH20 0x8A62EB0EF6DBE762774ABF5E18F49671559285B OR SWAP1 SSTORE PUSH1 0x7 DUP1 SLOAD DUP3 AND PUSH20 0x4515A45337F461A11FF0FE8ABF3C606AE5DC00C9 OR SWAP1 SSTORE PUSH1 0x8 DUP1 SLOAD SWAP1 SWAP2 AND PUSH20 0xEAEE7EE68874218C3558B40063C42B82D3E7232A OR SWAP1 SSTORE PUSH1 0xA DUP1 SSTORE CALLVALUE DUP1 ISZERO PUSH2 0xF1 JUMPI PUSH0 DUP1 REVERT JUMPDEST POP PUSH0 DUP1 SLOAD PUSH1 0x1 PUSH1 0x1 PUSH1 0xA0 SHL SUB NOT AND CALLER OR SWAP1 SSTORE PUSH2 0x35F3 DUP1 PUSH2 0x110 PUSH0 CODECOPY PUSH0 RETURN INVALID PUSH1 0x80 PUSH1 0x40 MSTORE PUSH1 0x4 CALLDATASIZE LT PUSH2 0xFA JUMPI PUSH0 CALLDATALOAD PUSH1 0xE0 SHR DUP1 PUSH4 0x69BDEDD5 GT PUSH2 0x92 JUMPI DUP1 PUSH4 0x941B380B GT PUSH2 0x62 JUMPI DUP1 PUSH4 0x941B380B EQ PUSH2 0x1A7 JUMPI DUP1 PUSH4 0xB72D41D8 EQ PUSH2 0x184 JUMPI DUP1 PUSH4 0xC8643A5D EQ PUSH2 0x1DE JUMPI DUP1 PUSH4 0xECBD4533 EQ PUSH2 0x1E6 JUMPI DUP1 PUSH4 0xF5001870 EQ PUSH2 0x1FA JUMPI PUSH0 DUP1 REVERT JUMPDEST DUP1 PUSH4 0x69BDEDD5 EQ PUSH2 0x17C JUMPI DUP1 PUSH4 0x77E0074B EQ PUSH2 0x184 JUMPI DUP1 PUSH4 0x78EE22DE EQ PUSH2 0x18C JUMPI DUP1 PUSH4 0x8CBC5CFF EQ PUSH2 0x194 JUMPI PUSH0 DUP1 REVERT JUMPDEST DUP1 PUSH4 0x25475A14 GT PUSH2 0xCD JUMPI DUP1 PUSH4 0x25475A14 EQ PUSH2 0x146 JUMPI DUP1 PUSH4 0x26AA7E0E EQ PUSH2 0x14E JUMPI DUP1 PUSH4 0x274E808B EQ PUSH2 0x156 JUMPI DUP1 PUSH4 0x54CE1B4E EQ PUSH2 0x169 JUMPI PUSH0 DUP1 REVERT JUMPDEST DUP1 PUSH4 0x17CED34B EQ PUSH2 0xFE JUMPI DUP1 PUSH4 0x1C75CFB4 EQ PUSH2 0x113 JUMPI DUP1 PUSH4 0x1F4E2E0A EQ PUSH2 0x136 JUMPI DUP1 PUSH4 0x247D46A4 EQ PUSH2 0x13E JUMPI JUMPDEST PUSH0 DUP1 REVERT JUMPDEST PUSH2 0x111 PUSH2 0x10C CALLDATASIZE PUSH1 0x4 PUSH2 0x2F85 JUMP JUMPDEST PUSH2 0x202 JUMP JUMPDEST STOP JUMPDEST CALLVALUE DUP1 ISZERO PUSH2 0x11E JUMPI PUSH0 DUP1 REVERT JUMPDEST POP PUSH1 0x1 SLOAD JUMPDEST PUSH1 0x40 MLOAD SWAP1 DUP2 MSTORE PUSH1 0x20 ADD JUMPDEST PUSH1 0x40 MLOAD DUP1 SWAP2 SUB SWAP1 RETURN JUMPDEST PUSH2 0x111 PUSH2 0x2A6 JUMP JUMPDEST PUSH2 0x111 PUSH2 0xB59 JUMP JUMPDEST PUSH2 0x111 PUSH2 0xE1B JUMP JUMPDEST PUSH2 0x111 PUSH2 0xEE7 JUMP JUMPDEST PUSH2 0x111 PUSH2 0x164 CALLDATASIZE PUSH1 0x4 PUSH2 0x2F85 JUMP JUMPDEST PUSH2 0x17F3 JUMP JUMPDEST PUSH2 0x111 PUSH2 0x177 CALLDATASIZE PUSH1 0x4 PUSH2 0x2F85 JUMP JUMPDEST PUSH2 0x184E JUMP JUMPDEST PUSH2 0x111 PUSH2 0x1A04 JUMP JUMPDEST PUSH2 0x111 PUSH2 0x1C37 JUMP JUMPDEST PUSH2 0x111 PUSH2 0x1E36 JUMP JUMPDEST PUSH2 0x111 PUSH2 0x1A2 CALLDATASIZE PUSH1 0x4 PUSH2 0x2F9C JUMP JUMPDEST PUSH2 0x2614 JUMP JUMPDEST CALLVALUE DUP1 ISZERO PUSH2 0x1B2 JUMPI PUSH0 DUP1 REVERT JUMPDEST POP PUSH1 0x9 SLOAD PUSH2 0x1C6 SWAP1 PUSH1 0x1 PUSH1 0x1 PUSH1 0xA0 SHL SUB AND DUP2 JUMP JUMPDEST PUSH1 0x40 MLOAD PUSH1 0x1 PUSH1 0x1 PUSH1 0xA0 SHL SUB SWAP1 SWAP2 AND DUP2 MSTORE PUSH1 0x20 ADD PUSH2 0x12D JUMP JUMPDEST PUSH2 0x111 PUSH2 0x2703 JUMP JUMPDEST CALLVALUE DUP1 ISZERO PUSH2 0x1F1 JUMPI PUSH0 DUP1 REVERT JUMPDEST POP PUSH2 0x123 PUSH2 0x28C7 JUMP JUMPDEST PUSH2 0x111 PUSH2 0x293C JUMP JUMPDEST PUSH1 0x40 DUP1 MLOAD PUSH1 0x1 DUP1 DUP3 MSTORE DUP2 DUP4 ADD SWAP1 SWAP3 MSTORE PUSH0 SWAP1 DUP3 PUSH1 0x20 DUP1 DUP4 ADD SWAP1 DUP1 CALLDATASIZE DUP4 CALLDATACOPY ADD SWAP1 POP POP SWAP1 POP DUP3 DUP2 PUSH0 DUP2 MLOAD DUP2 LT PUSH2 0x237 JUMPI PUSH2 0x237 PUSH2 0x2FDD JUMP JUMPDEST PUSH1 0x20 SWAP1 DUP2 MUL SWAP2 SWAP1 SWAP2 ADD ADD MSTORE PUSH1 0x6 SLOAD PUSH1 0x40 MLOAD PUSH4 0x8AE304F PUSH1 0xE3 SHL DUP2 MSTORE PUSH1 0x1 PUSH1 0x1 PUSH1 0xA0 SHL SUB SWAP1 SWAP2 AND SWAP1 PUSH4 0x45718278 SWAP1 PUSH2 0x274 SWAP1 ADDRESS SWAP1 DUP6 SWAP1 PUSH1 0x4 ADD PUSH2 0x302B JUMP JUMPDEST PUSH0 PUSH1 0x40 MLOAD DUP1 DUP4 SUB DUP2 PUSH0 DUP8 DUP1 EXTCODESIZE ISZERO DUP1 ISZERO PUSH2 0x28B JUMPI PUSH0 DUP1 REVERT JUMPDEST POP GAS CALL ISZERO DUP1 ISZERO PUSH2 0x29D JUMPI RETURNDATASIZE PUSH0 DUP1 RETURNDATACOPY RETURNDATASIZE PUSH0 REVERT JUMPDEST POP POP POP POP POP POP POP JUMP JUMPDEST PUSH1 0x2 SLOAD PUSH1 0x40 MLOAD PUSH4 0x70A08231 PUSH1 0xE0 SHL DUP2 MSTORE ADDRESS PUSH1 0x4 DUP3 ADD MSTORE PUSH0 SWAP2 PUSH1 0x1 PUSH1 0x1 PUSH1 0xA0 SHL SUB AND SWAP1 PUSH4 0x70A08231 SWAP1 PUSH1 0x24 ADD PUSH1 0x20 PUSH1 0x40 MLOAD DUP1 DUP4 SUB DUP2 DUP7 GAS STATICCALL ISZERO DUP1 ISZERO PUSH2 0x2EC JUMPI RETURNDATASIZE PUSH0 DUP1 RETURNDATACOPY RETURNDATASIZE PUSH0 REVERT JUMPDEST POP POP POP POP PUSH1 0x40 MLOAD RETURNDATASIZE PUSH1 0x1F NOT PUSH1 0x1F DUP3 ADD AND DUP3 ADD DUP1 PUSH1 0x40 MSTORE POP DUP2 ADD SWAP1 PUSH2 0x310 SWAP2 SWAP1 PUSH2 0x3056 JUMP JUMPDEST PUSH1 0x3 SLOAD PUSH1 0x40 MLOAD PUSH4 0x70A08231 PUSH1 0xE0 SHL DUP2 MSTORE ADDRESS PUSH1 0x4 DUP3 ADD MSTORE SWAP2 SWAP3 POP PUSH0 SWAP2 PUSH1 0x1 PUSH1 0x1 PUSH1 0xA0 SHL SUB SWAP1 SWAP2 AND SWAP1 PUSH4 0x70A08231 SWAP1 PUSH1 0x24 ADD PUSH1 0x20 PUSH1 0x40 MLOAD DUP1 DUP4 SUB DUP2 DUP7 GAS STATICCALL ISZERO DUP1 ISZERO PUSH2 0x35B JUMPI RETURNDATASIZE PUSH0 DUP1 RETURNDATACOPY RETURNDATASIZE PUSH0 REVERT JUMPDEST POP POP POP POP PUSH1 0x40 MLOAD RETURNDATASIZE PUSH1 0x1F NOT PUSH1 0x1F DUP3 ADD AND DUP3 ADD DUP1 PUSH1 0x40 MSTORE POP DUP2 ADD SWAP1 PUSH2 0x37F SWAP2 SWAP1 PUSH2 0x3056 JUMP JUMPDEST SWAP1 POP PUSH0 PUSH1 0xF SWAP1 POP PUSH0 DUP1 PUSH0 PUSH1 0x4 PUSH0 SWAP1 SLOAD SWAP1 PUSH2 0x100 EXP SWAP1 DIV PUSH1 0x1 PUSH1 0x1 PUSH1 0xA0 SHL SUB AND PUSH1 0x1 PUSH1 0x1 PUSH1 0xA0 SHL SUB AND PUSH4 0xDBE65EDC PUSH1 0x40 MLOAD DUP2 PUSH4 0xFFFFFFFF AND PUSH1 0xE0 SHL DUP2 MSTORE PUSH1 0x4 ADD PUSH1 0x20 PUSH1 0x40 MLOAD DUP1 DUP4 SUB DUP2 DUP7 GAS STATICCALL ISZERO DUP1 ISZERO PUSH2 0x3D9 JUMPI RETURNDATASIZE PUSH0 DUP1 RETURNDATACOPY RETURNDATASIZE PUSH0 REVERT JUMPDEST POP POP POP POP PUSH1 0x40 MLOAD RETURNDATASIZE PUSH1 0x1F NOT PUSH1 0x1F DUP3 ADD AND DUP3 ADD DUP1 PUSH1 0x40 MSTORE POP DUP2 ADD SWAP1 PUSH2 0x3FD SWAP2 SWAP1 PUSH2 0x306D JUMP JUMPDEST SWAP1 POP PUSH0 DUP2 PUSH3 0xFFFFFF AND SWAP1 POP PUSH0 PUSH1 0xA SLOAD PUSH1 0x1 PUSH1 0x1 PUSH1 0x40 SHL SUB DUP2 GT ISZERO PUSH2 0x423 JUMPI PUSH2 0x423 PUSH2 0x2FC9 JUMP JUMPDEST PUSH1 0x40 MLOAD SWAP1 DUP1 DUP3 MSTORE DUP1 PUSH1 0x20 MUL PUSH1 0x20 ADD DUP3 ADD PUSH1 0x40 MSTORE DUP1 ISZERO PUSH2 0x44C JUMPI DUP2 PUSH1 0x20 ADD PUSH1 0x20 DUP3 MUL DUP1 CALLDATASIZE DUP4 CALLDATACOPY ADD SWAP1 POP JUMPDEST POP SWAP1 POP PUSH0 DUP2 PUSH0 DUP2 MLOAD DUP2 LT PUSH2 0x462 JUMPI PUSH2 0x462 PUSH2 0x2FDD JUMP JUMPDEST PUSH1 0x20 MUL PUSH1 0x20 ADD ADD DUP2 DUP2 MSTORE POP POP PUSH0 NOT DUP2 PUSH1 0x1 DUP2 MLOAD DUP2 LT PUSH2 0x483 JUMPI PUSH2 0x483 PUSH2 0x2FDD JUMP JUMPDEST PUSH1 0x20 MUL PUSH1 0x20 ADD ADD DUP2 DUP2 MSTORE POP POP PUSH1 0x1 NOT DUP2 PUSH1 0x2 DUP2 MLOAD DUP2 LT PUSH2 0x4A5 JUMPI PUSH2 0x4A5 PUSH2 0x2FDD JUMP JUMPDEST PUSH1 0x20 MUL PUSH1 0x20 ADD ADD DUP2 DUP2 MSTORE POP POP PUSH1 0x2 NOT DUP2 PUSH1 0x3 DUP2 MLOAD DUP2 LT PUSH2 0x4C7 JUMPI PUSH2 0x4C7 PUSH2 0x2FDD JUMP JUMPDEST PUSH1 0x20 MUL PUSH1 0x20 ADD ADD DUP2 DUP2 MSTORE POP POP PUSH1 0x3 NOT DUP2 PUSH1 0x4 DUP2 MLOAD DUP2 LT PUSH2 0x4E9 JUMPI PUSH2 0x4E9 PUSH2 0x2FDD JUMP JUMPDEST PUSH1 0x20 MUL PUSH1 0x20 ADD ADD DUP2 DUP2 MSTORE POP POP PUSH1 0x4 NOT DUP2 PUSH1 0x5 DUP2 MLOAD DUP2 LT PUSH2 0x50B JUMPI PUSH2 0x50B PUSH2 0x2FDD JUMP JUMPDEST PUSH1 0x20 MUL PUSH1 0x20 ADD ADD DUP2 DUP2 MSTORE POP POP PUSH1 0x5 NOT DUP2 PUSH1 0x6 DUP2 MLOAD DUP2 LT PUSH2 0x52D JUMPI PUSH2 0x52D PUSH2 0x2FDD JUMP JUMPDEST PUSH1 0x20 MUL PUSH1 0x20 ADD ADD DUP2 DUP2 MSTORE POP POP PUSH1 0x6 NOT DUP2 PUSH1 0x7 DUP2 MLOAD DUP2 LT PUSH2 0x54F JUMPI PUSH2 0x54F PUSH2 0x2FDD JUMP JUMPDEST PUSH1 0x20 MUL PUSH1 0x20 ADD ADD DUP2 DUP2 MSTORE POP POP PUSH1 0x7 NOT DUP2 PUSH1 0x8 DUP2 MLOAD DUP2 LT PUSH2 0x571 JUMPI PUSH2 0x571 PUSH2 0x2FDD JUMP JUMPDEST PUSH1 0x20 MUL PUSH1 0x20 ADD ADD DUP2 DUP2 MSTORE POP POP PUSH1 0x8 NOT DUP2 PUSH1 0x9 DUP2 MLOAD DUP2 LT PUSH2 0x593 JUMPI PUSH2 0x593 PUSH2 0x2FDD JUMP JUMPDEST PUSH1 0x20 MUL PUSH1 0x20 ADD ADD DUP2 DUP2 MSTORE POP POP PUSH0 PUSH1 0xA SLOAD PUSH1 0x1 PUSH1 0x1 PUSH1 0x40 SHL SUB DUP2 GT ISZERO PUSH2 0x5BA JUMPI PUSH2 0x5BA PUSH2 0x2FC9 JUMP JUMPDEST PUSH1 0x40 MLOAD SWAP1 DUP1 DUP3 MSTORE DUP1 PUSH1 0x20 MUL PUSH1 0x20 ADD DUP3 ADD PUSH1 0x40 MSTORE DUP1 ISZERO PUSH2 0x5E3 JUMPI DUP2 PUSH1 0x20 ADD PUSH1 0x20 DUP3 MUL DUP1 CALLDATASIZE DUP4 CALLDATACOPY ADD SWAP1 POP JUMPDEST POP SWAP1 POP PUSH8 0xDE0B6B3A7640000 DUP2 PUSH0 DUP2 MLOAD DUP2 LT PUSH2 0x601 JUMPI PUSH2 0x601 PUSH2 0x2FDD JUMP JUMPDEST PUSH1 0x20 MUL PUSH1 0x20 ADD ADD DUP2 DUP2 MSTORE POP POP PUSH0 DUP2 PUSH1 0x1 DUP2 MLOAD DUP2 LT PUSH2 0x621 JUMPI PUSH2 0x621 PUSH2 0x2FDD JUMP JUMPDEST PUSH1 0x20 MUL PUSH1 0x20 ADD ADD DUP2 DUP2 MSTORE POP POP PUSH0 DUP2 PUSH1 0x2 DUP2 MLOAD DUP2 LT PUSH2 0x641 JUMPI PUSH2 0x641 PUSH2 0x2FDD JUMP JUMPDEST PUSH1 0x20 MUL PUSH1 0x20 ADD ADD DUP2 DUP2 MSTORE POP POP PUSH0 DUP2 PUSH1 0x3 DUP2 MLOAD DUP2 LT PUSH2 0x661 JUMPI PUSH2 0x661 PUSH2 0x2FDD JUMP JUMPDEST PUSH1 0x20 MUL PUSH1 0x20 ADD ADD DUP2 DUP2 MSTORE POP POP PUSH0 DUP2 PUSH1 0x4 DUP2 MLOAD DUP2 LT PUSH2 0x681 JUMPI PUSH2 0x681 PUSH2 0x2FDD JUMP JUMPDEST PUSH1 0x20 MUL PUSH1 0x20 ADD ADD DUP2 DUP2 MSTORE POP POP PUSH0 DUP2 PUSH1 0x5 DUP2 MLOAD DUP2 LT PUSH2 0x6A1 JUMPI PUSH2 0x6A1 PUSH2 0x2FDD JUMP JUMPDEST PUSH1 0x20 MUL PUSH1 0x20 ADD ADD DUP2 DUP2 MSTORE POP POP PUSH0 DUP2 PUSH1 0x6 DUP2 MLOAD DUP2 LT PUSH2 0x6C1 JUMPI PUSH2 0x6C1 PUSH2 0x2FDD JUMP JUMPDEST PUSH1 0x20 MUL PUSH1 0x20 ADD ADD DUP2 DUP2 MSTORE POP POP PUSH0 DUP2 PUSH1 0x7 DUP2 MLOAD DUP2 LT PUSH2 0x6E1 JUMPI PUSH2 0x6E1 PUSH2 0x2FDD JUMP JUMPDEST PUSH1 0x20 MUL PUSH1 0x20 ADD ADD DUP2 DUP2 MSTORE POP POP PUSH0 DUP2 PUSH1 0x8 DUP2 MLOAD DUP2 LT PUSH2 0x701 JUMPI PUSH2 0x701 PUSH2 0x2FDD JUMP JUMPDEST PUSH1 0x20 MUL PUSH1 0x20 ADD ADD DUP2 DUP2 MSTORE POP POP PUSH0 DUP2 PUSH1 0x9 DUP2 MLOAD DUP2 LT PUSH2 0x721 JUMPI PUSH2 0x721 PUSH2 0x2FDD JUMP JUMPDEST PUSH1 0x20 MUL PUSH1 0x20 ADD ADD DUP2 DUP2 MSTORE POP POP PUSH0 PUSH1 0xA SLOAD PUSH1 0x1 PUSH1 0x1 PUSH1 0x40 SHL SUB DUP2 GT ISZERO PUSH2 0x748 JUMPI PUSH2 0x748 PUSH2 0x2FC9 JUMP JUMPDEST PUSH1 0x40 MLOAD SWAP1 DUP1 DUP3 MSTORE DUP1 PUSH1 0x20 MUL PUSH1 0x20 ADD DUP3 ADD PUSH1 0x40 MSTORE DUP1 ISZERO PUSH2 0x771 JUMPI DUP2 PUSH1 0x20 ADD PUSH1 0x20 DUP3 MUL DUP1 CALLDATASIZE DUP4 CALLDATACOPY ADD SWAP1 POP JUMPDEST POP SWAP1 POP PUSH8 0x16345785D8A0000 DUP2 PUSH0 DUP2 MLOAD DUP2 LT PUSH2 0x78F JUMPI PUSH2 0x78F PUSH2 0x2FDD JUMP JUMPDEST PUSH1 0x20 MUL PUSH1 0x20 ADD ADD DUP2 DUP2 MSTORE POP POP PUSH8 0x16345785D8A0000 DUP2 PUSH1 0x1 DUP2 MLOAD DUP2 LT PUSH2 0x7B7 JUMPI PUSH2 0x7B7 PUSH2 0x2FDD JUMP JUMPDEST PUSH1 0x20 MUL PUSH1 0x20 ADD ADD DUP2 DUP2 MSTORE POP POP PUSH8 0x16345785D8A0000 DUP2 PUSH1 0x2 DUP2 MLOAD DUP2 LT PUSH2 0x7DF JUMPI PUSH2 0x7DF PUSH2 0x2FDD JUMP JUMPDEST PUSH1 0x20 MUL PUSH1 0x20 ADD ADD DUP2 DUP2 MSTORE POP POP PUSH8 0x16345785D8A0000 DUP2 PUSH1 0x3 DUP2 MLOAD DUP2 LT PUSH2 0x807 JUMPI PUSH2 0x807 PUSH2 0x2FDD JUMP JUMPDEST PUSH1 0x20 MUL PUSH1 0x20 ADD ADD DUP2 DUP2 MSTORE POP POP PUSH8 0x16345785D8A0000 DUP2 PUSH1 0x4 DUP2 MLOAD DUP2 LT PUSH2 0x82F JUMPI PUSH2 0x82F PUSH2 0x2FDD JUMP JUMPDEST PUSH1 0x20 MUL PUSH1 0x20 ADD ADD DUP2 DUP2 MSTORE POP POP PUSH8 0x16345785D8A0000 DUP2 PUSH1 0x5 DUP2 MLOAD DUP2 LT PUSH2 0x857 JUMPI PUSH2 0x857 PUSH2 0x2FDD JUMP JUMPDEST PUSH1 0x20 MUL PUSH1 0x20 ADD ADD DUP2 DUP2 MSTORE POP POP PUSH8 0x16345785D8A0000 DUP2 PUSH1 0x6 DUP2 MLOAD DUP2 LT PUSH2 0x87F JUMPI PUSH2 0x87F PUSH2 0x2FDD JUMP JUMPDEST PUSH1 0x20 MUL PUSH1 0x20 ADD ADD DUP2 DUP2 MSTORE POP POP PUSH8 0x16345785D8A0000 DUP2 PUSH1 0x7 DUP2 MLOAD DUP2 LT PUSH2 0x8A7 JUMPI PUSH2 0x8A7 PUSH2 0x2FDD JUMP JUMPDEST PUSH1 0x20 MUL PUSH1 0x20 ADD ADD DUP2 DUP2 MSTORE POP POP PUSH8 0x16345785D8A0000 DUP2 PUSH1 0x8 DUP2 MLOAD DUP2 LT PUSH2 0x8CF JUMPI PUSH2 0x8CF PUSH2 0x2FDD JUMP JUMPDEST PUSH1 0x20 MUL PUSH1 0x20 ADD ADD DUP2 DUP2 MSTORE POP POP PUSH8 0x16345785D8A0000 DUP2 PUSH1 0x9 DUP2 MLOAD DUP2 LT PUSH2 0x8F7 JUMPI PUSH2 0x8F7 PUSH2 0x2FDD JUMP JUMPDEST PUSH1 0x20 SWAP1 DUP2 MUL SWAP2 SWAP1 SWAP2 ADD ADD MSTORE PUSH1 0x2 SLOAD PUSH1 0x40 MLOAD PUSH4 0x95EA7B3 PUSH1 0xE0 SHL DUP2 MSTORE PUSH0 SWAP2 PUSH1 0x1 PUSH1 0x1 PUSH1 0xA0 SHL SUB AND SWAP1 PUSH4 0x95EA7B3 SWAP1 PUSH2 0x948 SWAP1 PUSH20 0x13E138EF6008AE5FDFDE29700E3F2BC61D21E3A SWAP1 DUP16 SWAP1 PUSH1 0x4 ADD PUSH2 0x308F JUMP JUMPDEST PUSH1 0x20 PUSH1 0x40 MLOAD DUP1 DUP4 SUB DUP2 PUSH0 DUP8 GAS CALL ISZERO DUP1 ISZERO PUSH2 0x964 JUMPI RETURNDATASIZE PUSH0 DUP1 RETURNDATACOPY RETURNDATASIZE PUSH0 REVERT JUMPDEST POP POP POP POP PUSH1 0x40 MLOAD RETURNDATASIZE PUSH1 0x1F NOT PUSH1 0x1F DUP3 ADD AND DUP3 ADD DUP1 PUSH1 0x40 MSTORE POP DUP2 ADD SWAP1 PUSH2 0x988 SWAP2 SWAP1 PUSH2 0x30A8 JUMP JUMPDEST POP PUSH1 0x3 SLOAD PUSH1 0x40 MLOAD PUSH4 0x95EA7B3 PUSH1 0xE0 SHL DUP2 MSTORE PUSH1 0x1 PUSH1 0x1 PUSH1 0xA0 SHL SUB SWAP1 SWAP2 AND SWAP1 PUSH4 0x95EA7B3 SWAP1 PUSH2 0x9CF SWAP1 PUSH20 0x13E138EF6008AE5FDFDE29700E3F2BC61D21E3A SWAP1 DUP15 SWAP1 PUSH1 0x4 ADD PUSH2 0x308F JUMP JUMPDEST PUSH1 0x20 PUSH1 0x40 MLOAD DUP1 DUP4 SUB DUP2 PUSH0 DUP8 GAS CALL ISZERO DUP1 ISZERO PUSH2 0x9EB JUMPI RETURNDATASIZE PUSH0 DUP1 RETURNDATACOPY RETURNDATASIZE PUSH0 REVERT JUMPDEST POP POP POP POP PUSH1 0x40 MLOAD RETURNDATASIZE PUSH1 0x1F NOT PUSH1 0x1F DUP3 ADD AND DUP3 ADD DUP1 PUSH1 0x40 MSTORE POP DUP2 ADD SWAP1 PUSH2 0xA0F SWAP2 SWAP1 PUSH2 0x30A8 JUMP JUMPDEST POP PUSH0 PUSH1 0x40 MLOAD DUP1 PUSH2 0x1E0 ADD PUSH1 0x40 MSTORE DUP1 PUSH20 0x78C1B0C915C4FAA5FFFA6CABF0219DA63D7F4CB8 PUSH1 0x1 PUSH1 0x1 PUSH1 0xA0 SHL SUB AND DUP2 MSTORE PUSH1 0x20 ADD PUSH20 0x201EBA5CC46D216CE6DC03F6A759E8E766E956AE PUSH1 0x1 PUSH1 0x1 PUSH1 0xA0 SHL SUB AND DUP2 MSTORE PUSH1 0x20 ADD DUP12 DUP2 MSTORE PUSH1 0x20 ADD DUP14 DUP2 MSTORE PUSH1 0x20 ADD DUP13 DUP2 MSTORE PUSH1 0x20 ADD DUP11 DUP2 MSTORE PUSH1 0x20 ADD DUP10 DUP2 MSTORE PUSH1 0x20 ADD DUP8 DUP2 MSTORE PUSH1 0x20 ADD DUP4 DUP2 MSTORE PUSH1 0x20 ADD DUP7 DUP2 MSTORE PUSH1 0x20 ADD DUP6 DUP2 MSTORE PUSH1 0x20 ADD DUP5 DUP2 MSTORE PUSH1 0x20 ADD ADDRESS PUSH1 0x1 PUSH1 0x1 PUSH1 0xA0 SHL SUB AND DUP2 MSTORE PUSH1 0x20 ADD ADDRESS PUSH1 0x1 PUSH1 0x1 PUSH1 0xA0 SHL SUB AND DUP2 MSTORE PUSH1 0x20 ADD TIMESTAMP PUSH2 0x12C PUSH2 0xACB SWAP2 SWAP1 PUSH2 0x30DB JUMP JUMPDEST SWAP1 MSTORE PUSH1 0x5 SLOAD PUSH1 0x40 MLOAD PUSH4 0x51E3938D PUSH1 0xE1 SHL DUP2 MSTORE SWAP2 SWAP3 POP PUSH1 0x1 PUSH1 0x1 PUSH1 0xA0 SHL SUB AND SWAP1 PUSH4 0xA3C7271A SWAP1 PUSH2 0xAFE SWAP1 DUP5 SWAP1 PUSH1 0x4 ADD PUSH2 0x30F4 JUMP JUMPDEST PUSH0 PUSH1 0x40 MLOAD DUP1 DUP4 SUB DUP2 PUSH0 DUP8 GAS CALL ISZERO DUP1 ISZERO PUSH2 0xB19 JUMPI RETURNDATASIZE PUSH0 DUP1 RETURNDATACOPY RETURNDATASIZE PUSH0 REVERT JUMPDEST POP POP POP POP PUSH1 0x40 MLOAD RETURNDATASIZE PUSH0 DUP3 RETURNDATACOPY PUSH1 0x1F RETURNDATASIZE SWAP1 DUP2 ADD PUSH1 0x1F NOT AND DUP3 ADD PUSH1 0x40 MSTORE PUSH2 0xB40 SWAP2 SWAP1 DUP2 ADD SWAP1 PUSH2 0x32B6 JUMP JUMPDEST POP POP POP PUSH1 0x1 SWAP9 SWAP1 SWAP9 SSTORE POP POP POP POP POP POP POP POP POP POP POP POP POP POP JUMP JUMPDEST PUSH1 0x2 SLOAD PUSH1 0x40 MLOAD PUSH4 0x70A08231 PUSH1 0xE0 SHL DUP2 MSTORE ADDRESS PUSH1 0x4 DUP3 ADD MSTORE PUSH0 SWAP2 PUSH1 0x1 PUSH1 0x1 PUSH1 0xA0 SHL SUB AND SWAP1 PUSH4 0x70A08231 SWAP1 PUSH1 0x24 ADD PUSH1 0x20 PUSH1 0x40 MLOAD DUP1 DUP4 SUB DUP2 DUP7 GAS STATICCALL ISZERO DUP1 ISZERO PUSH2 0xB9F JUMPI RETURNDATASIZE PUSH0 DUP1 RETURNDATACOPY RETURNDATASIZE PUSH0 REVERT JUMPDEST POP POP POP POP PUSH1 0x40 MLOAD RETURNDATASIZE PUSH1 0x1F NOT PUSH1 0x1F DUP3 ADD AND DUP3 ADD DUP1 PUSH1 0x40 MSTORE POP DUP2 ADD SWAP1 PUSH2 0xBC3 SWAP2 SWAP1 PUSH2 0x3056 JUMP JUMPDEST PUSH1 0x40 DUP1 MLOAD PUSH1 0x2 DUP1 DUP3 MSTORE PUSH1 0x60 DUP3 ADD DUP4 MSTORE SWAP3 SWAP4 POP PUSH0 SWAP3 SWAP1 SWAP2 PUSH1 0x20 DUP4 ADD SWAP1 DUP1 CALLDATASIZE DUP4 CALLDATACOPY POP POP PUSH1 0x2 SLOAD DUP3 MLOAD SWAP3 SWAP4 POP PUSH1 0x1 PUSH1 0x1 PUSH1 0xA0 SHL SUB AND SWAP2 DUP4 SWAP2 POP PUSH0 SWAP1 PUSH2 0xC07 JUMPI PUSH2 0xC07 PUSH2 0x2FDD JUMP JUMPDEST PUSH1 0x1 PUSH1 0x1 PUSH1 0xA0 SHL SUB SWAP3 DUP4 AND PUSH1 0x20 SWAP2 DUP3 MUL SWAP3 SWAP1 SWAP3 ADD ADD MSTORE PUSH1 0x3 SLOAD DUP3 MLOAD SWAP2 AND SWAP1 DUP3 SWAP1 PUSH1 0x1 SWAP1 DUP2 LT PUSH2 0xC38 JUMPI PUSH2 0xC38 PUSH2 0x2FDD JUMP JUMPDEST PUSH1 0x1 PUSH1 0x1 PUSH1 0xA0 SHL SUB SWAP3 DUP4 AND PUSH1 0x20 SWAP2 DUP3 MUL SWAP3 SWAP1 SWAP3 ADD ADD MSTORE PUSH1 0x2 SLOAD PUSH1 0x5 SLOAD PUSH1 0x40 MLOAD PUSH4 0x95EA7B3 PUSH1 0xE0 SHL DUP2 MSTORE PUSH0 SWAP4 SWAP3 DUP4 AND SWAP3 PUSH4 0x95EA7B3 SWAP3 PUSH2 0xC7E SWAP3 SWAP2 AND SWAP1 DUP8 SWAP1 PUSH1 0x4 ADD PUSH2 0x308F JUMP JUMPDEST PUSH1 0x20 PUSH1 0x40 MLOAD DUP1 DUP4 SUB DUP2 PUSH0 DUP8 GAS CALL ISZERO DUP1 ISZERO PUSH2 0xC9A JUMPI RETURNDATASIZE PUSH0 DUP1 RETURNDATACOPY RETURNDATASIZE PUSH0 REVERT JUMPDEST POP POP POP POP PUSH1 0x40 MLOAD RETURNDATASIZE PUSH1 0x1F NOT PUSH1 0x1F DUP3 ADD AND DUP3 ADD DUP1 PUSH1 0x40 MSTORE POP DUP2 ADD SWAP1 PUSH2 0xCBE SWAP2 SWAP1 PUSH2 0x30A8 JUMP JUMPDEST POP PUSH1 0x40 DUP1 MLOAD PUSH1 0x1 DUP1 DUP3 MSTORE DUP2 DUP4 ADD SWAP1 SWAP3 MSTORE PUSH0 SWAP2 PUSH1 0x20 DUP1 DUP4 ADD SWAP1 DUP1 CALLDATASIZE DUP4 CALLDATACOPY ADD SWAP1 POP POP SWAP1 POP PUSH1 0xF DUP2 PUSH0 DUP2 MLOAD DUP2 LT PUSH2 0xCF4 JUMPI PUSH2 0xCF4 PUSH2 0x2FDD JUMP JUMPDEST PUSH1 0x20 SWAP1 DUP2 MUL SWAP2 SWAP1 SWAP2 ADD ADD MSTORE PUSH1 0x40 DUP1 MLOAD PUSH1 0x1 DUP1 DUP3 MSTORE DUP2 DUP4 ADD SWAP1 SWAP3 MSTORE PUSH0 SWAP2 DUP2 PUSH1 0x20 ADD PUSH1 0x20 DUP3 MUL DUP1 CALLDATASIZE DUP4 CALLDATACOPY ADD SWAP1 POP POP SWAP1 POP PUSH1 0x3 DUP2 PUSH0 DUP2 MLOAD DUP2 LT PUSH2 0xD36 JUMPI PUSH2 0xD36 PUSH2 0x2FDD JUMP JUMPDEST PUSH1 0x20 MUL PUSH1 0x20 ADD ADD SWAP1 PUSH1 0x3 DUP2 GT ISZERO PUSH2 0xD4F JUMPI PUSH2 0xD4F PUSH2 0x333E JUMP JUMPDEST SWAP1 DUP2 PUSH1 0x3 DUP2 GT ISZERO PUSH2 0xD62 JUMPI PUSH2 0xD62 PUSH2 0x333E JUMP JUMPDEST DUP2 MSTORE POP POP PUSH2 0xD8A PUSH1 0x40 MLOAD DUP1 PUSH1 0x60 ADD PUSH1 0x40 MSTORE DUP1 PUSH1 0x60 DUP2 MSTORE PUSH1 0x20 ADD PUSH1 0x60 DUP2 MSTORE PUSH1 0x20 ADD PUSH1 0x60 DUP2 MSTORE POP SWAP1 JUMP JUMPDEST DUP3 DUP2 MSTORE PUSH1 0x20 DUP2 ADD DUP3 SWAP1 MSTORE PUSH1 0x40 DUP2 ADD DUP6 SWAP1 MSTORE PUSH1 0x5 SLOAD PUSH1 0x1 PUSH1 0x1 PUSH1 0xA0 SHL SUB AND PUSH4 0x2A443FAE DUP8 DUP7 DUP5 ADDRESS PUSH2 0xDBB TIMESTAMP PUSH1 0x1 PUSH2 0x30DB JUMP JUMPDEST PUSH1 0x40 MLOAD DUP7 PUSH4 0xFFFFFFFF AND PUSH1 0xE0 SHL DUP2 MSTORE PUSH1 0x4 ADD PUSH2 0xDDB SWAP6 SWAP5 SWAP4 SWAP3 SWAP2 SWAP1 PUSH2 0x338B JUMP JUMPDEST PUSH1 0x20 PUSH1 0x40 MLOAD DUP1 DUP4 SUB DUP2 PUSH0 DUP8 GAS CALL ISZERO DUP1 ISZERO PUSH2 0xDF7 JUMPI RETURNDATASIZE PUSH0 DUP1 RETURNDATACOPY RETURNDATASIZE PUSH0 REVERT JUMPDEST POP POP POP POP PUSH1 0x40 MLOAD RETURNDATASIZE PUSH1 0x1F NOT PUSH1 0x1F DUP3 ADD AND DUP3 ADD DUP1 PUSH1 0x40 MSTORE POP DUP2 ADD SWAP1 PUSH2 0x29D SWAP2 SWAP1 PUSH2 0x3056 JUMP JUMPDEST PUSH1 0x4 DUP1 SLOAD PUSH1 0x5 SLOAD PUSH1 0x40 MLOAD PUSH4 0x39612D95 PUSH1 0xE2 SHL DUP2 MSTORE PUSH1 0x1 PUSH1 0x1 PUSH1 0xA0 SHL SUB SWAP2 DUP3 AND SWAP4 DUP2 ADD SWAP4 SWAP1 SWAP4 MSTORE PUSH1 0x1 PUSH1 0x24 DUP5 ADD MSTORE AND SWAP1 PUSH4 0xE584B654 SWAP1 PUSH1 0x44 ADD PUSH0 PUSH1 0x40 MLOAD DUP1 DUP4 SUB DUP2 PUSH0 DUP8 DUP1 EXTCODESIZE ISZERO DUP1 ISZERO PUSH2 0xE6A JUMPI PUSH0 DUP1 REVERT JUMPDEST POP GAS CALL ISZERO DUP1 ISZERO PUSH2 0xE7C JUMPI RETURNDATASIZE PUSH0 DUP1 RETURNDATACOPY RETURNDATASIZE PUSH0 REVERT JUMPDEST POP POP PUSH1 0x4 DUP1 SLOAD PUSH1 0x6 SLOAD PUSH1 0x40 MLOAD PUSH4 0x39612D95 PUSH1 0xE2 SHL DUP2 MSTORE PUSH1 0x1 PUSH1 0x1 PUSH1 0xA0 SHL SUB SWAP2 DUP3 AND SWAP4 DUP2 ADD SWAP4 SWAP1 SWAP4 MSTORE PUSH1 0x1 PUSH1 0x24 DUP5 ADD MSTORE AND SWAP3 POP PUSH4 0xE584B654 SWAP2 POP PUSH1 0x44 ADD PUSH0 PUSH1 0x40 MLOAD DUP1 DUP4 SUB DUP2 PUSH0 DUP8 DUP1 EXTCODESIZE ISZERO DUP1 ISZERO PUSH2 0xECF JUMPI PUSH0 DUP1 REVERT JUMPDEST POP GAS CALL ISZERO DUP1 ISZERO PUSH2 0xEE1 JUMPI RETURNDATASIZE PUSH0 DUP1 RETURNDATACOPY RETURNDATASIZE PUSH0 REVERT JUMPDEST POP POP POP POP JUMP JUMPDEST PUSH1 0xA SLOAD PUSH1 0xF SWAP1 PUSH0 SWAP1 PUSH1 0x1 PUSH1 0x1 PUSH1 0x40 SHL SUB DUP2 GT ISZERO PUSH2 0xF06 JUMPI PUSH2 0xF06 PUSH2 0x2FC9 JUMP JUMPDEST PUSH1 0x40 MLOAD SWAP1 DUP1 DUP3 MSTORE DUP1 PUSH1 0x20 MUL PUSH1 0x20 ADD DUP3 ADD PUSH1 0x40 MSTORE DUP1 ISZERO PUSH2 0xF2F JUMPI DUP2 PUSH1 0x20 ADD PUSH1 0x20 DUP3 MUL DUP1 CALLDATASIZE DUP4 CALLDATACOPY ADD SWAP1 POP JUMPDEST POP SWAP1 POP PUSH0 PUSH1 0xA SLOAD PUSH1 0x1 PUSH1 0x1 PUSH1 0x40 SHL SUB DUP2 GT ISZERO PUSH2 0xF4D JUMPI PUSH2 0xF4D PUSH2 0x2FC9 JUMP JUMPDEST PUSH1 0x40 MLOAD SWAP1 DUP1 DUP3 MSTORE DUP1 PUSH1 0x20 MUL PUSH1 0x20 ADD DUP3 ADD PUSH1 0x40 MSTORE DUP1 ISZERO PUSH2 0xF76 JUMPI DUP2 PUSH1 0x20 ADD PUSH1 0x20 DUP3 MUL DUP1 CALLDATASIZE DUP4 CALLDATACOPY ADD SWAP1 POP JUMPDEST POP SWAP1 POP PUSH1 0x1 SLOAD DUP2 PUSH0 DUP2 MLOAD DUP2 LT PUSH2 0xF8E JUMPI PUSH2 0xF8E PUSH2 0x2FDD JUMP JUMPDEST PUSH1 0x20 MUL PUSH1 0x20 ADD ADD DUP2 DUP2 MSTORE POP POP PUSH1 0x1 DUP1 SLOAD PUSH2 0xFA8 SWAP2 SWAP1 PUSH2 0x346E JUMP JUMPDEST DUP2 PUSH1 0x1 DUP2 MLOAD DUP2 LT PUSH2 0xFBB JUMPI PUSH2 0xFBB PUSH2 0x2FDD JUMP JUMPDEST PUSH1 0x20 MUL PUSH1 0x20 ADD ADD DUP2 DUP2 MSTORE POP POP PUSH1 0x2 PUSH1 0x1 SLOAD PUSH2 0xFD6 SWAP2 SWAP1 PUSH2 0x346E JUMP JUMPDEST DUP2 PUSH1 0x2 DUP2 MLOAD DUP2 LT PUSH2 0xFE9 JUMPI PUSH2 0xFE9 PUSH2 0x2FDD JUMP JUMPDEST PUSH1 0x20 MUL PUSH1 0x20 ADD ADD DUP2 DUP2 MSTORE POP POP PUSH1 0x3 PUSH1 0x1 SLOAD PUSH2 0x1004 SWAP2 SWAP1 PUSH2 0x346E JUMP JUMPDEST DUP2 PUSH1 0x3 DUP2 MLOAD DUP2 LT PUSH2 0x1017 JUMPI PUSH2 0x1017 PUSH2 0x2FDD JUMP JUMPDEST PUSH1 0x20 MUL PUSH1 0x20 ADD ADD DUP2 DUP2 MSTORE POP POP PUSH1 0x4 PUSH1 0x1 SLOAD PUSH2 0x1032 SWAP2 SWAP1 PUSH2 0x346E JUMP JUMPDEST DUP2 PUSH1 0x4 DUP2 MLOAD DUP2 LT PUSH2 0x1045 JUMPI PUSH2 0x1045 PUSH2 0x2FDD JUMP JUMPDEST PUSH1 0x20 MUL PUSH1 0x20 ADD ADD DUP2 DUP2 MSTORE POP POP PUSH1 0x5 PUSH1 0x1 SLOAD PUSH2 0x1060 SWAP2 SWAP1 PUSH2 0x346E JUMP JUMPDEST DUP2 PUSH1 0x5 DUP2 MLOAD DUP2 LT PUSH2 0x1073 JUMPI PUSH2 0x1073 PUSH2 0x2FDD JUMP JUMPDEST PUSH1 0x20 MUL PUSH1 0x20 ADD ADD DUP2 DUP2 MSTORE POP POP PUSH1 0x6 PUSH1 0x1 SLOAD PUSH2 0x108E SWAP2 SWAP1 PUSH2 0x346E JUMP JUMPDEST DUP2 PUSH1 0x6 DUP2 MLOAD DUP2 LT PUSH2 0x10A1 JUMPI PUSH2 0x10A1 PUSH2 0x2FDD JUMP JUMPDEST PUSH1 0x20 MUL PUSH1 0x20 ADD ADD DUP2 DUP2 MSTORE POP POP PUSH1 0x7 PUSH1 0x1 SLOAD PUSH2 0x10BC SWAP2 SWAP1 PUSH2 0x346E JUMP JUMPDEST DUP2 PUSH1 0x7 DUP2 MLOAD DUP2 LT PUSH2 0x10CF JUMPI PUSH2 0x10CF PUSH2 0x2FDD JUMP JUMPDEST PUSH1 0x20 MUL PUSH1 0x20 ADD ADD DUP2 DUP2 MSTORE POP POP PUSH1 0x8 PUSH1 0x1 SLOAD PUSH2 0x10EA SWAP2 SWAP1 PUSH2 0x346E JUMP JUMPDEST DUP2 PUSH1 0x8 DUP2 MLOAD DUP2 LT PUSH2 0x10FD JUMPI PUSH2 0x10FD PUSH2 0x2FDD JUMP JUMPDEST PUSH1 0x20 MUL PUSH1 0x20 ADD ADD DUP2 DUP2 MSTORE POP POP PUSH1 0x9 PUSH1 0x1 SLOAD PUSH2 0x1118 SWAP2 SWAP1 PUSH2 0x346E JUMP JUMPDEST DUP2 PUSH1 0x9 DUP2 MLOAD DUP2 LT PUSH2 0x112B JUMPI PUSH2 0x112B PUSH2 0x2FDD JUMP JUMPDEST PUSH1 0x20 SWAP1 DUP2 MUL SWAP2 SWAP1 SWAP2 ADD ADD MSTORE PUSH1 0x4 DUP1 SLOAD PUSH1 0x1 SLOAD PUSH1 0x40 MLOAD PUSH3 0x7EEAC7 PUSH1 0xE1 SHL DUP2 MSTORE PUSH1 0x1 PUSH1 0x1 PUSH1 0xA0 SHL SUB SWAP1 SWAP3 AND SWAP3 PUSH3 0xFDD58E SWAP3 PUSH2 0x1168 SWAP3 ADDRESS SWAP3 SWAP1 SWAP2 ADD PUSH2 0x308F JUMP JUMPDEST PUSH1 0x20 PUSH1 0x40 MLOAD DUP1 DUP4 SUB DUP2 DUP7 GAS STATICCALL ISZERO DUP1 ISZERO PUSH2 0x1183 JUMPI RETURNDATASIZE PUSH0 DUP1 RETURNDATACOPY RETURNDATASIZE PUSH0 REVERT JUMPDEST POP POP POP POP PUSH1 0x40 MLOAD RETURNDATASIZE PUSH1 0x1F NOT PUSH1 0x1F DUP3 ADD AND DUP3 ADD DUP1 PUSH1 0x40 MSTORE POP DUP2 ADD SWAP1 PUSH2 0x11A7 SWAP2 SWAP1 PUSH2 0x3056 JUMP JUMPDEST DUP3 PUSH0 DUP2 MLOAD DUP2 LT PUSH2 0x11B9 JUMPI PUSH2 0x11B9 PUSH2 0x2FDD JUMP JUMPDEST PUSH1 0x20 SWAP1 DUP2 MUL SWAP2 SWAP1 SWAP2 ADD ADD MSTORE PUSH1 0x4 SLOAD PUSH1 0x1 DUP1 SLOAD PUSH1 0x1 PUSH1 0x1 PUSH1 0xA0 SHL SUB SWAP1 SWAP3 AND SWAP2 PUSH3 0xFDD58E SWAP2 ADDRESS SWAP2 PUSH2 0x11E8 SWAP2 SWAP1 PUSH2 0x346E JUMP JUMPDEST PUSH1 0x40 MLOAD DUP4 PUSH4 0xFFFFFFFF AND PUSH1 0xE0 SHL DUP2 MSTORE PUSH1 0x4 ADD PUSH2 0x1205 SWAP3 SWAP2 SWAP1 PUSH2 0x308F JUMP JUMPDEST PUSH1 0x20 PUSH1 0x40 MLOAD DUP1 DUP4 SUB DUP2 DUP7 GAS STATICCALL ISZERO DUP1 ISZERO PUSH2 0x1220 JUMPI RETURNDATASIZE PUSH0 DUP1 RETURNDATACOPY RETURNDATASIZE PUSH0 REVERT JUMPDEST POP POP POP POP PUSH1 0x40 MLOAD RETURNDATASIZE PUSH1 0x1F NOT PUSH1 0x1F DUP3 ADD AND DUP3 ADD DUP1 PUSH1 0x40 MSTORE POP DUP2 ADD SWAP1 PUSH2 0x1244 SWAP2 SWAP1 PUSH2 0x3056 JUMP JUMPDEST DUP3 PUSH1 0x1 DUP2 MLOAD DUP2 LT PUSH2 0x1257 JUMPI PUSH2 0x1257 PUSH2 0x2FDD JUMP JUMPDEST PUSH1 0x20 SWAP1 DUP2 MUL SWAP2 SWAP1 SWAP2 ADD ADD MSTORE PUSH1 0x4 SLOAD PUSH1 0x1 SLOAD PUSH1 0x1 PUSH1 0x1 PUSH1 0xA0 SHL SUB SWAP1 SWAP2 AND SWAP1 PUSH3 0xFDD58E SWAP1 ADDRESS SWAP1 PUSH2 0x1287 SWAP1 PUSH1 0x2 SWAP1 PUSH2 0x346E JUMP JUMPDEST PUSH1 0x40 MLOAD DUP4 PUSH4 0xFFFFFFFF AND PUSH1 0xE0 SHL DUP2 MSTORE PUSH1 0x4 ADD PUSH2 0x12A4 SWAP3 SWAP2 SWAP1 PUSH2 0x308F JUMP JUMPDEST PUSH1 0x20 PUSH1 0x40 MLOAD DUP1 DUP4 SUB DUP2 DUP7 GAS STATICCALL ISZERO DUP1 ISZERO PUSH2 0x12BF JUMPI RETURNDATASIZE PUSH0 DUP1 RETURNDATACOPY RETURNDATASIZE PUSH0 REVERT JUMPDEST POP POP POP POP PUSH1 0x40 MLOAD RETURNDATASIZE PUSH1 0x1F NOT PUSH1 0x1F DUP3 ADD AND DUP3 ADD DUP1 PUSH1 0x40 MSTORE POP DUP2 ADD SWAP1 PUSH2 0x12E3 SWAP2 SWAP1 PUSH2 0x3056 JUMP JUMPDEST DUP3 PUSH1 0x2 DUP2 MLOAD DUP2 LT PUSH2 0x12F6 JUMPI PUSH2 0x12F6 PUSH2 0x2FDD JUMP JUMPDEST PUSH1 0x20 SWAP1 DUP2 MUL SWAP2 SWAP1 SWAP2 ADD ADD MSTORE PUSH1 0x4 SLOAD PUSH1 0x1 SLOAD PUSH1 0x1 PUSH1 0x1 PUSH1 0xA0 SHL SUB SWAP1 SWAP2 AND SWAP1 PUSH3 0xFDD58E SWAP1 ADDRESS SWAP1 PUSH2 0x1326 SWAP1 PUSH1 0x3 SWAP1 PUSH2 0x346E JUMP JUMPDEST PUSH1 0x40 MLOAD DUP4 PUSH4 0xFFFFFFFF AND PUSH1 0xE0 SHL DUP2 MSTORE PUSH1 0x4 ADD PUSH2 0x1343 SWAP3 SWAP2 SWAP1 PUSH2 0x308F JUMP JUMPDEST PUSH1 0x20 PUSH1 0x40 MLOAD DUP1 DUP4 SUB DUP2 DUP7 GAS STATICCALL ISZERO DUP1 ISZERO PUSH2 0x135E JUMPI RETURNDATASIZE PUSH0 DUP1 RETURNDATACOPY RETURNDATASIZE PUSH0 REVERT JUMPDEST POP POP POP POP PUSH1 0x40 MLOAD RETURNDATASIZE PUSH1 0x1F NOT PUSH1 0x1F DUP3 ADD AND DUP3 ADD DUP1 PUSH1 0x40 MSTORE POP DUP2 ADD SWAP1 PUSH2 0x1382 SWAP2 SWAP1 PUSH2 0x3056 JUMP JUMPDEST DUP3 PUSH1 0x3 DUP2 MLOAD DUP2 LT PUSH2 0x1395 JUMPI PUSH2 0x1395 PUSH2 0x2FDD JUMP JUMPDEST PUSH1 0x20 SWAP1 DUP2 MUL SWAP2 SWAP1 SWAP2 ADD ADD MSTORE PUSH1 0x4 DUP1 SLOAD PUSH1 0x1 SLOAD PUSH1 0x1 PUSH1 0x1 PUSH1 0xA0 SHL SUB SWAP1 SWAP2 AND SWAP2 PUSH3 0xFDD58E SWAP2 ADDRESS SWAP2 PUSH2 0x13C3 SWAP2 PUSH2 0x346E JUMP JUMPDEST PUSH1 0x40 MLOAD DUP4 PUSH4 0xFFFFFFFF AND PUSH1 0xE0 SHL DUP2 MSTORE PUSH1 0x4 ADD PUSH2 0x13E0 SWAP3 SWAP2 SWAP1 PUSH2 0x308F JUMP JUMPDEST PUSH1 0x20 PUSH1 0x40 MLOAD DUP1 DUP4 SUB DUP2 DUP7 GAS STATICCALL ISZERO DUP1 ISZERO PUSH2 0x13FB JUMPI RETURNDATASIZE PUSH0 DUP1 RETURNDATACOPY RETURNDATASIZE PUSH0 REVERT JUMPDEST POP POP POP POP PUSH1 0x40 MLOAD RETURNDATASIZE PUSH1 0x1F NOT PUSH1 0x1F DUP3 ADD AND DUP3 ADD DUP1 PUSH1 0x40 MSTORE POP DUP2 ADD SWAP1 PUSH2 0x141F SWAP2 SWAP1 PUSH2 0x3056 JUMP JUMPDEST DUP3 PUSH1 0x4 DUP2 MLOAD DUP2 LT PUSH2 0x1432 JUMPI PUSH2 0x1432 PUSH2 0x2FDD JUMP JUMPDEST PUSH1 0x20 SWAP1 DUP2 MUL SWAP2 SWAP1 SWAP2 ADD ADD MSTORE PUSH1 0x4 SLOAD PUSH1 0x1 SLOAD PUSH1 0x1 PUSH1 0x1 PUSH1 0xA0 SHL SUB SWAP1 SWAP2 AND SWAP1 PUSH3 0xFDD58E SWAP1 ADDRESS SWAP1 PUSH2 0x1462 SWAP1 PUSH1 0x5 SWAP1 PUSH2 0x346E JUMP JUMPDEST PUSH1 0x40 MLOAD DUP4 PUSH4 0xFFFFFFFF AND PUSH1 0xE0 SHL DUP2 MSTORE PUSH1 0x4 ADD PUSH2 0x147F SWAP3 SWAP2 SWAP1 PUSH2 0x308F JUMP JUMPDEST PUSH1 0x20 PUSH1 0x40 MLOAD DUP1 DUP4 SUB DUP2 DUP7 GAS STATICCALL ISZERO DUP1 ISZERO PUSH2 0x149A JUMPI RETURNDATASIZE PUSH0 DUP1 RETURNDATACOPY RETURNDATASIZE PUSH0 REVERT JUMPDEST POP POP POP POP PUSH1 0x40 MLOAD RETURNDATASIZE PUSH1 0x1F NOT PUSH1 0x1F DUP3 ADD AND DUP3 ADD DUP1 PUSH1 0x40 MSTORE POP DUP2 ADD SWAP1 PUSH2 0x14BE SWAP2 SWAP1 PUSH2 0x3056 JUMP JUMPDEST DUP3 PUSH1 0x5 DUP2 MLOAD DUP2 LT PUSH2 0x14D1 JUMPI PUSH2 0x14D1 PUSH2 0x2FDD JUMP JUMPDEST PUSH1 0x20 SWAP1 DUP2 MUL SWAP2 SWAP1 SWAP2 ADD ADD MSTORE PUSH1 0x4 SLOAD PUSH1 0x1 SLOAD PUSH1 0x1 PUSH1 0x1 PUSH1 0xA0 SHL SUB SWAP1 SWAP2 AND SWAP1 PUSH3 0xFDD58E SWAP1 ADDRESS SWAP1 PUSH2 0x1501 SWAP1 PUSH1 0x6 SWAP1 PUSH2 0x346E JUMP JUMPDEST PUSH1 0x40 MLOAD DUP4 PUSH4 0xFFFFFFFF AND PUSH1 0xE0 SHL DUP2 MSTORE PUSH1 0x4 ADD PUSH2 0x151E SWAP3 SWAP2 SWAP1 PUSH2 0x308F JUMP JUMPDEST PUSH1 0x20 PUSH1 0x40 MLOAD DUP1 DUP4 SUB DUP2 DUP7 GAS STATICCALL ISZERO DUP1 ISZERO PUSH2 0x1539 JUMPI RETURNDATASIZE PUSH0 DUP1 RETURNDATACOPY RETURNDATASIZE PUSH0 REVERT JUMPDEST POP POP POP POP PUSH1 0x40 MLOAD RETURNDATASIZE PUSH1 0x1F NOT PUSH1 0x1F DUP3 ADD AND DUP3 ADD DUP1 PUSH1 0x40 MSTORE POP DUP2 ADD SWAP1 PUSH2 0x155D SWAP2 SWAP1 PUSH2 0x3056 JUMP JUMPDEST DUP3 PUSH1 0x6 DUP2 MLOAD DUP2 LT PUSH2 0x1570 JUMPI PUSH2 0x1570 PUSH2 0x2FDD JUMP JUMPDEST PUSH1 0x20 SWAP1 DUP2 MUL SWAP2 SWAP1 SWAP2 ADD ADD MSTORE PUSH1 0x4 SLOAD PUSH1 0x1 SLOAD PUSH1 0x1 PUSH1 0x1 PUSH1 0xA0 SHL SUB SWAP1 SWAP2 AND SWAP1 PUSH3 0xFDD58E SWAP1 ADDRESS SWAP1 PUSH2 0x15A0 SWAP1 PUSH1 0x7 SWAP1 PUSH2 0x346E JUMP JUMPDEST PUSH1 0x40 MLOAD DUP4 PUSH4 0xFFFFFFFF AND PUSH1 0xE0 SHL DUP2 MSTORE PUSH1 0x4 ADD PUSH2 0x15BD SWAP3 SWAP2 SWAP1 PUSH2 0x308F JUMP JUMPDEST PUSH1 0x20 PUSH1 0x40 MLOAD DUP1 DUP4 SUB DUP2 DUP7 GAS STATICCALL ISZERO DUP1 ISZERO PUSH2 0x15D8 JUMPI RETURNDATASIZE PUSH0 DUP1 RETURNDATACOPY RETURNDATASIZE PUSH0 REVERT JUMPDEST POP POP POP POP PUSH1 0x40 MLOAD RETURNDATASIZE PUSH1 0x1F NOT PUSH1 0x1F DUP3 ADD AND DUP3 ADD DUP1 PUSH1 0x40 MSTORE POP DUP2 ADD SWAP1 PUSH2 0x15FC SWAP2 SWAP1 PUSH2 0x3056 JUMP JUMPDEST DUP3 PUSH1 0x7 DUP2 MLOAD DUP2 LT PUSH2 0x160F JUMPI PUSH2 0x160F PUSH2 0x2FDD JUMP JUMPDEST PUSH1 0x20 SWAP1 DUP2 MUL SWAP2 SWAP1 SWAP2 ADD ADD MSTORE PUSH1 0x4 SLOAD PUSH1 0x1 SLOAD PUSH1 0x1 PUSH1 0x1 PUSH1 0xA0 SHL SUB SWAP1 SWAP2 AND SWAP1 PUSH3 0xFDD58E SWAP1 ADDRESS SWAP1 PUSH2 0x163F SWAP1 PUSH1 0x8 SWAP1 PUSH2 0x346E JUMP JUMPDEST PUSH1 0x40 MLOAD DUP4 PUSH4 0xFFFFFFFF AND PUSH1 0xE0 SHL DUP2 MSTORE PUSH1 0x4 ADD PUSH2 0x165C SWAP3 SWAP2 SWAP1 PUSH2 0x308F JUMP JUMPDEST PUSH1 0x20 PUSH1 0x40 MLOAD DUP1 DUP4 SUB DUP2 DUP7 GAS STATICCALL ISZERO DUP1 ISZERO PUSH2 0x1677 JUMPI RETURNDATASIZE PUSH0 DUP1 RETURNDATACOPY RETURNDATASIZE PUSH0 REVERT JUMPDEST POP POP POP POP PUSH1 0x40 MLOAD RETURNDATASIZE PUSH1 0x1F NOT PUSH1 0x1F DUP3 ADD AND DUP3 ADD DUP1 PUSH1 0x40 MSTORE POP DUP2 ADD SWAP1 PUSH2 0x169B SWAP2 SWAP1 PUSH2 0x3056 JUMP JUMPDEST DUP3 PUSH1 0x8 DUP2 MLOAD DUP2 LT PUSH2 0x16AE JUMPI PUSH2 0x16AE PUSH2 0x2FDD JUMP JUMPDEST PUSH1 0x20 SWAP1 DUP2 MUL SWAP2 SWAP1 SWAP2 ADD ADD MSTORE PUSH1 0x4 SLOAD PUSH1 0x1 SLOAD PUSH1 0x1 PUSH1 0x1 PUSH1 0xA0 SHL SUB SWAP1 SWAP2 AND SWAP1 PUSH3 0xFDD58E SWAP1 ADDRESS SWAP1 PUSH2 0x16DE SWAP1 PUSH1 0x9 SWAP1 PUSH2 0x346E JUMP JUMPDEST PUSH1 0x40 MLOAD DUP4 PUSH4 0xFFFFFFFF AND PUSH1 0xE0 SHL DUP2 MSTORE PUSH1 0x4 ADD PUSH2 0x16FB SWAP3 SWAP2 SWAP1 PUSH2 0x308F JUMP JUMPDEST PUSH1 0x20 PUSH1 0x40 MLOAD DUP1 DUP4 SUB DUP2 DUP7 GAS STATICCALL ISZERO DUP1 ISZERO PUSH2 0x1716 JUMPI RETURNDATASIZE PUSH0 DUP1 RETURNDATACOPY RETURNDATASIZE PUSH0 REVERT JUMPDEST POP POP POP POP PUSH1 0x40 MLOAD RETURNDATASIZE PUSH1 0x1F NOT PUSH1 0x1F DUP3 ADD AND DUP3 ADD DUP1 PUSH1 0x40 MSTORE POP DUP2 ADD SWAP1 PUSH2 0x173A SWAP2 SWAP1 PUSH2 0x3056 JUMP JUMPDEST DUP3 PUSH1 0x9 DUP2 MLOAD DUP2 LT PUSH2 0x174D JUMPI PUSH2 0x174D PUSH2 0x2FDD JUMP JUMPDEST PUSH1 0x20 SWAP1 DUP2 MUL SWAP2 SWAP1 SWAP2 ADD ADD MSTORE PUSH1 0x5 SLOAD PUSH1 0x2 SLOAD PUSH1 0x3 SLOAD PUSH1 0x1 PUSH1 0x1 PUSH1 0xA0 SHL SUB SWAP3 DUP4 AND SWAP3 PUSH4 0xC22159B6 SWAP3 DUP2 AND SWAP2 AND DUP7 PUSH0 DUP1 DUP8 DUP10 ADDRESS PUSH2 0x1789 TIMESTAMP PUSH2 0x12C PUSH2 0x30DB JUMP JUMPDEST PUSH1 0x40 MLOAD DUP11 PUSH4 0xFFFFFFFF AND PUSH1 0xE0 SHL DUP2 MSTORE PUSH1 0x4 ADD PUSH2 0x17AD SWAP10 SWAP9 SWAP8 SWAP7 SWAP6 SWAP5 SWAP4 SWAP3 SWAP2 SWAP1 PUSH2 0x3481 JUMP JUMPDEST PUSH1 0x40 DUP1 MLOAD DUP1 DUP4 SUB DUP2 PUSH0 DUP8 GAS CALL ISZERO DUP1 ISZERO PUSH2 0x17C8 JUMPI RETURNDATASIZE PUSH0 DUP1 RETURNDATACOPY RETURNDATASIZE PUSH0 REVERT JUMPDEST POP POP POP POP PUSH1 0x40 MLOAD RETURNDATASIZE PUSH1 0x1F NOT PUSH1 0x1F DUP3 ADD AND DUP3 ADD DUP1 PUSH1 0x40 MSTORE POP DUP2 ADD SWAP1 PUSH2 0x17EC SWAP2 SWAP1 PUSH2 0x34FA JUMP JUMPDEST POP POP POP POP POP JUMP JUMPDEST PUSH0 SLOAD PUSH1 0x1 PUSH1 0x1 PUSH1 0xA0 SHL SUB AND CALLER EQ PUSH2 0x1849 JUMPI PUSH1 0x40 MLOAD PUSH3 0x461BCD PUSH1 0xE5 SHL DUP2 MSTORE PUSH1 0x20 PUSH1 0x4 DUP3 ADD MSTORE PUSH1 0x16 PUSH1 0x24 DUP3 ADD MSTORE PUSH22 0x4F6E6C79206F776E65722063616E20646F2074686973 PUSH1 0x50 SHL PUSH1 0x44 DUP3 ADD MSTORE PUSH1 0x64 ADD PUSH1 0x40 MLOAD DUP1 SWAP2 SUB SWAP1 REVERT JUMPDEST PUSH1 0x1 SSTORE JUMP JUMPDEST PUSH1 0x40 DUP1 MLOAD PUSH1 0x1 DUP1 DUP3 MSTORE DUP2 DUP4 ADD SWAP1 SWAP3 MSTORE PUSH1 0xF SWAP1 PUSH0 SWAP1 DUP4 PUSH1 0x20 DUP1 DUP4 ADD SWAP1 DUP1 CALLDATASIZE DUP4 CALLDATACOPY ADD SWAP1 POP POP SWAP1 POP PUSH0 DUP4 PUSH1 0x1 PUSH1 0x1 PUSH1 0x40 SHL SUB DUP2 GT ISZERO PUSH2 0x188C JUMPI PUSH2 0x188C PUSH2 0x2FC9 JUMP JUMPDEST PUSH1 0x40 MLOAD SWAP1 DUP1 DUP3 MSTORE DUP1 PUSH1 0x20 MUL PUSH1 0x20 ADD DUP3 ADD PUSH1 0x40 MSTORE DUP1 ISZERO PUSH2 0x18B5 JUMPI DUP2 PUSH1 0x20 ADD PUSH1 0x20 DUP3 MUL DUP1 CALLDATASIZE DUP4 CALLDATACOPY ADD SWAP1 POP JUMPDEST POP SWAP1 POP DUP5 DUP2 PUSH0 DUP2 MLOAD DUP2 LT PUSH2 0x18CB JUMPI PUSH2 0x18CB PUSH2 0x2FDD JUMP JUMPDEST PUSH1 0x20 SWAP1 DUP2 MUL SWAP2 SWAP1 SWAP2 ADD ADD MSTORE PUSH1 0x4 DUP1 SLOAD PUSH1 0x40 MLOAD PUSH3 0x7EEAC7 PUSH1 0xE1 SHL DUP2 MSTORE PUSH0 SWAP3 PUSH1 0x1 PUSH1 0x1 PUSH1 0xA0 SHL SUB SWAP1 SWAP3 AND SWAP2 PUSH3 0xFDD58E SWAP2 PUSH2 0x1907 SWAP2 ADDRESS SWAP2 DUP12 SWAP2 ADD PUSH2 0x308F JUMP JUMPDEST PUSH1 0x20 PUSH1 0x40 MLOAD DUP1 DUP4 SUB DUP2 DUP7 GAS STATICCALL ISZERO DUP1 ISZERO PUSH2 0x1922 JUMPI RETURNDATASIZE PUSH0 DUP1 RETURNDATACOPY RETURNDATASIZE PUSH0 REVERT JUMPDEST POP POP POP POP PUSH1 0x40 MLOAD RETURNDATASIZE PUSH1 0x1F NOT PUSH1 0x1F DUP3 ADD AND DUP3 ADD DUP1 PUSH1 0x40 MSTORE POP DUP2 ADD SWAP1 PUSH2 0x1946 SWAP2 SWAP1 PUSH2 0x3056 JUMP JUMPDEST SWAP1 POP DUP1 DUP4 PUSH0 DUP2 MLOAD DUP2 LT PUSH2 0x195B JUMPI PUSH2 0x195B PUSH2 0x2FDD JUMP JUMPDEST PUSH1 0x20 SWAP1 DUP2 MUL SWAP2 SWAP1 SWAP2 ADD ADD MSTORE PUSH1 0x5 SLOAD PUSH1 0x2 SLOAD PUSH1 0x3 SLOAD PUSH1 0x1 PUSH1 0x1 PUSH1 0xA0 SHL SUB SWAP3 DUP4 AND SWAP3 PUSH4 0xC22159B6 SWAP3 DUP2 AND SWAP2 AND DUP8 PUSH0 DUP1 DUP9 DUP11 ADDRESS PUSH2 0x1997 TIMESTAMP PUSH2 0x12C PUSH2 0x30DB JUMP JUMPDEST PUSH1 0x40 MLOAD DUP11 PUSH4 0xFFFFFFFF AND PUSH1 0xE0 SHL DUP2 MSTORE PUSH1 0x4 ADD PUSH2 0x19BB SWAP10 SWAP9 SWAP8 SWAP7 SWAP6 SWAP5 SWAP4 SWAP3 SWAP2 SWAP1 PUSH2 0x3481 JUMP JUMPDEST PUSH1 0x40 DUP1 MLOAD DUP1 DUP4 SUB DUP2 PUSH0 DUP8 GAS CALL ISZERO DUP1 ISZERO PUSH2 0x19D6 JUMPI RETURNDATASIZE PUSH0 DUP1 RETURNDATACOPY RETURNDATASIZE PUSH0 REVERT JUMPDEST POP POP POP POP PUSH1 0x40 MLOAD RETURNDATASIZE PUSH1 0x1F NOT PUSH1 0x1F DUP3 ADD AND DUP3 ADD DUP1 PUSH1 0x40 MSTORE POP DUP2 ADD SWAP1 PUSH2 0x19FA SWAP2 SWAP1 PUSH2 0x34FA JUMP JUMPDEST POP POP POP POP POP POP POP POP JUMP JUMPDEST PUSH1 0x40 DUP1 MLOAD PUSH1 0xA DUP1 DUP3 MSTORE PUSH2 0x160 DUP3 ADD SWAP1 SWAP3 MSTORE PUSH0 SWAP1 DUP3 PUSH1 0x20 DUP3 ADD PUSH2 0x140 DUP1 CALLDATASIZE DUP4 CALLDATACOPY ADD SWAP1 POP POP SWAP1 POP PUSH1 0x1 SLOAD DUP2 PUSH0 DUP2 MLOAD DUP2 LT PUSH2 0x1A3E JUMPI PUSH2 0x1A3E PUSH2 0x2FDD JUMP JUMPDEST PUSH1 0x20 SWAP1 DUP2 MUL SWAP2 SWAP1 SWAP2 ADD ADD MSTORE PUSH1 0x1 DUP1 SLOAD PUSH2 0x1A56 SWAP2 PUSH2 0x30DB JUMP JUMPDEST DUP2 PUSH1 0x1 DUP2 MLOAD DUP2 LT PUSH2 0x1A69 JUMPI PUSH2 0x1A69 PUSH2 0x2FDD JUMP JUMPDEST PUSH1 0x20 SWAP1 DUP2 MUL SWAP2 SWAP1 SWAP2 ADD ADD MSTORE PUSH1 0x1 SLOAD PUSH2 0x1A82 SWAP1 PUSH1 0x2 PUSH2 0x30DB JUMP JUMPDEST DUP2 PUSH1 0x2 DUP2 MLOAD DUP2 LT PUSH2 0x1A95 JUMPI PUSH2 0x1A95 PUSH2 0x2FDD JUMP JUMPDEST PUSH1 0x20 SWAP1 DUP2 MUL SWAP2 SWAP1 SWAP2 ADD ADD MSTORE PUSH1 0x1 SLOAD PUSH2 0x1AAE SWAP1 PUSH1 0x3 PUSH2 0x30DB JUMP JUMPDEST DUP2 PUSH1 0x3 DUP2 MLOAD DUP2 LT PUSH2 0x1AC1 JUMPI PUSH2 0x1AC1 PUSH2 0x2FDD JUMP JUMPDEST PUSH1 0x20 SWAP1 DUP2 MUL SWAP2 SWAP1 SWAP2 ADD ADD MSTORE PUSH1 0x1 SLOAD PUSH2 0x1ADA SWAP1 PUSH1 0x4 PUSH2 0x30DB JUMP JUMPDEST DUP2 PUSH1 0x4 DUP2 MLOAD DUP2 LT PUSH2 0x1AED JUMPI PUSH2 0x1AED PUSH2 0x2FDD JUMP JUMPDEST PUSH1 0x20 SWAP1 DUP2 MUL SWAP2 SWAP1 SWAP2 ADD ADD MSTORE PUSH1 0x1 SLOAD PUSH2 0x1B06 SWAP1 PUSH1 0x5 PUSH2 0x30DB JUMP JUMPDEST DUP2 PUSH1 0x5 DUP2 MLOAD DUP2 LT PUSH2 0x1B19 JUMPI PUSH2 0x1B19 PUSH2 0x2FDD JUMP JUMPDEST PUSH1 0x20 SWAP1 DUP2 MUL SWAP2 SWAP1 SWAP2 ADD ADD MSTORE PUSH1 0x1 SLOAD PUSH2 0x1B32 SWAP1 PUSH1 0x6 PUSH2 0x30DB JUMP JUMPDEST DUP2 PUSH1 0x6 DUP2 MLOAD DUP2 LT PUSH2 0x1B45 JUMPI PUSH2 0x1B45 PUSH2 0x2FDD JUMP JUMPDEST PUSH1 0x20 SWAP1 DUP2 MUL SWAP2 SWAP1 SWAP2 ADD ADD MSTORE PUSH1 0x1 SLOAD PUSH2 0x1B5E SWAP1 PUSH1 0x7 PUSH2 0x30DB JUMP JUMPDEST DUP2 PUSH1 0x7 DUP2 MLOAD DUP2 LT PUSH2 0x1B71 JUMPI PUSH2 0x1B71 PUSH2 0x2FDD JUMP JUMPDEST PUSH1 0x20 SWAP1 DUP2 MUL SWAP2 SWAP1 SWAP2 ADD ADD MSTORE PUSH1 0x1 SLOAD PUSH2 0x1B8A SWAP1 PUSH1 0x8 PUSH2 0x30DB JUMP JUMPDEST DUP2 PUSH1 0x8 DUP2 MLOAD DUP2 LT PUSH2 0x1B9D JUMPI PUSH2 0x1B9D PUSH2 0x2FDD JUMP JUMPDEST PUSH1 0x20 SWAP1 DUP2 MUL SWAP2 SWAP1 SWAP2 ADD ADD MSTORE PUSH1 0x1 SLOAD PUSH2 0x1BB6 SWAP1 PUSH1 0x9 PUSH2 0x30DB JUMP JUMPDEST DUP2 PUSH1 0x9 DUP2 MLOAD DUP2 LT PUSH2 0x1BC9 JUMPI PUSH2 0x1BC9 PUSH2 0x2FDD JUMP JUMPDEST PUSH1 0x20 SWAP1 DUP2 MUL SWAP2 SWAP1 SWAP2 ADD ADD MSTORE PUSH1 0x6 SLOAD PUSH1 0x40 MLOAD PUSH4 0x8AE304F PUSH1 0xE3 SHL DUP2 MSTORE PUSH1 0x1 PUSH1 0x1 PUSH1 0xA0 SHL SUB SWAP1 SWAP2 AND SWAP1 PUSH4 0x45718278 SWAP1 PUSH2 0x1C06 SWAP1 ADDRESS SWAP1 DUP6 SWAP1 PUSH1 0x4 ADD PUSH2 0x302B JUMP JUMPDEST PUSH0 PUSH1 0x40 MLOAD DUP1 DUP4 SUB DUP2 PUSH0 DUP8 DUP1 EXTCODESIZE ISZERO DUP1 ISZERO PUSH2 0x1C1D JUMPI PUSH0 DUP1 REVERT JUMPDEST POP GAS CALL ISZERO DUP1 ISZERO PUSH2 0x1C2F JUMPI RETURNDATASIZE PUSH0 DUP1 RETURNDATACOPY RETURNDATASIZE PUSH0 REVERT JUMPDEST POP POP POP POP POP POP JUMP JUMPDEST PUSH1 0x7 SLOAD PUSH1 0x40 MLOAD PUSH4 0x70A08231 PUSH1 0xE0 SHL DUP2 MSTORE ADDRESS PUSH1 0x4 DUP3 ADD MSTORE PUSH0 SWAP2 PUSH1 0x1 PUSH1 0x1 PUSH1 0xA0 SHL SUB AND SWAP1 PUSH4 0x70A08231 SWAP1 PUSH1 0x24 ADD PUSH1 0x20 PUSH1 0x40 MLOAD DUP1 DUP4 SUB DUP2 DUP7 GAS STATICCALL ISZERO DUP1 ISZERO PUSH2 0x1C7D JUMPI RETURNDATASIZE PUSH0 DUP1 RETURNDATACOPY RETURNDATASIZE PUSH0 REVERT JUMPDEST POP POP POP POP PUSH1 0x40 MLOAD RETURNDATASIZE PUSH1 0x1F NOT PUSH1 0x1F DUP3 ADD AND DUP3 ADD DUP1 PUSH1 0x40 MSTORE POP DUP2 ADD SWAP1 PUSH2 0x1CA1 SWAP2 SWAP1 PUSH2 0x3056 JUMP JUMPDEST PUSH1 0x40 DUP1 MLOAD PUSH1 0x2 DUP1 DUP3 MSTORE PUSH1 0x60 DUP3 ADD DUP4 MSTORE SWAP3 SWAP4 POP PUSH0 SWAP3 SWAP1 SWAP2 PUSH1 0x20 DUP4 ADD SWAP1 DUP1 CALLDATASIZE DUP4 CALLDATACOPY ADD SWAP1 POP POP SWAP1 POP PUSH20 0x4515A45337F461A11FF0FE8ABF3C606AE5DC00C9 DUP2 PUSH0 DUP2 MLOAD DUP2 LT PUSH2 0x1CED JUMPI PUSH2 0x1CED PUSH2 0x2FDD JUMP JUMPDEST PUSH1 0x20 MUL PUSH1 0x20 ADD ADD SWAP1 PUSH1 0x1 PUSH1 0x1 PUSH1 0xA0 SHL SUB AND SWAP1 DUP2 PUSH1 0x1 PUSH1 0x1 PUSH1 0xA0 SHL SUB AND DUP2 MSTORE POP POP PUSH20 0x78C1B0C915C4FAA5FFFA6CABF0219DA63D7F4CB8 DUP2 PUSH1 0x1 DUP2 MLOAD DUP2 LT PUSH2 0x1D35 JUMPI PUSH2 0x1D35 PUSH2 0x2FDD JUMP JUMPDEST PUSH1 0x1 PUSH1 0x1 PUSH1 0xA0 SHL SUB SWAP3 DUP4 AND PUSH1 0x20 SWAP2 DUP3 MUL SWAP3 SWAP1 SWAP3 ADD ADD MSTORE PUSH1 0x7 SLOAD PUSH1 0x8 SLOAD PUSH1 0x40 MLOAD PUSH4 0x95EA7B3 PUSH1 0xE0 SHL DUP2 MSTORE PUSH0 SWAP4 SWAP3 DUP4 AND SWAP3 PUSH4 0x95EA7B3 SWAP3 PUSH2 0x1D7B SWAP3 SWAP2 AND SWAP1 DUP8 SWAP1 PUSH1 0x4 ADD PUSH2 0x308F JUMP JUMPDEST PUSH1 0x20 PUSH1 0x40 MLOAD DUP1 DUP4 SUB DUP2 PUSH0 DUP8 GAS CALL ISZERO DUP1 ISZERO PUSH2 0x1D97 JUMPI RETURNDATASIZE PUSH0 DUP1 RETURNDATACOPY RETURNDATASIZE PUSH0 REVERT JUMPDEST POP POP POP POP PUSH1 0x40 MLOAD RETURNDATASIZE PUSH1 0x1F NOT PUSH1 0x1F DUP3 ADD AND DUP3 ADD DUP1 PUSH1 0x40 MSTORE POP DUP2 ADD SWAP1 PUSH2 0x1DBB SWAP2 SWAP1 PUSH2 0x30A8 JUMP JUMPDEST POP PUSH1 0x8 SLOAD PUSH1 0x40 MLOAD PUSH4 0x38ED1739 PUSH1 0xE0 SHL DUP2 MSTORE PUSH1 0x1 PUSH1 0x1 PUSH1 0xA0 SHL SUB SWAP1 SWAP2 AND SWAP1 PUSH4 0x38ED1739 SWAP1 PUSH2 0x1DF4 SWAP1 DUP7 SWAP1 DUP6 SWAP1 DUP8 SWAP1 ADDRESS SWAP1 TIMESTAMP SWAP1 PUSH1 0x4 ADD PUSH2 0x351C JUMP JUMPDEST PUSH0 PUSH1 0x40 MLOAD DUP1 DUP4 SUB DUP2 PUSH0 DUP8 GAS CALL ISZERO DUP1 ISZERO PUSH2 0x1E0F JUMPI RETURNDATASIZE PUSH0 DUP1 RETURNDATACOPY RETURNDATASIZE PUSH0 REVERT JUMPDEST POP POP POP POP PUSH1 0x40 MLOAD RETURNDATASIZE PUSH0 DUP3 RETURNDATACOPY PUSH1 0x1F RETURNDATASIZE SWAP1 DUP2 ADD PUSH1 0x1F NOT AND DUP3 ADD PUSH1 0x40 MSTORE PUSH2 0xEE1 SWAP2 SWAP1 DUP2 ADD SWAP1 PUSH2 0x358C JUMP JUMPDEST PUSH1 0xA SLOAD PUSH1 0xF SWAP1 PUSH0 SWAP1 PUSH1 0x1 PUSH1 0x1 PUSH1 0x40 SHL SUB DUP2 GT ISZERO PUSH2 0x1E55 JUMPI PUSH2 0x1E55 PUSH2 0x2FC9 JUMP JUMPDEST PUSH1 0x40 MLOAD SWAP1 DUP1 DUP3 MSTORE DUP1 PUSH1 0x20 MUL PUSH1 0x20 ADD DUP3 ADD PUSH1 0x40 MSTORE DUP1 ISZERO PUSH2 0x1E7E JUMPI DUP2 PUSH1 0x20 ADD PUSH1 0x20 DUP3 MUL DUP1 CALLDATASIZE DUP4 CALLDATACOPY ADD SWAP1 POP JUMPDEST POP SWAP1 POP PUSH0 PUSH1 0xA SLOAD PUSH1 0x1 PUSH1 0x1 PUSH1 0x40 SHL SUB DUP2 GT ISZERO PUSH2 0x1E9C JUMPI PUSH2 0x1E9C PUSH2 0x2FC9 JUMP JUMPDEST PUSH1 0x40 MLOAD SWAP1 DUP1 DUP3 MSTORE DUP1 PUSH1 0x20 MUL PUSH1 0x20 ADD DUP3 ADD PUSH1 0x40 MSTORE DUP1 ISZERO PUSH2 0x1EC5 JUMPI DUP2 PUSH1 0x20 ADD PUSH1 0x20 DUP3 MUL DUP1 CALLDATASIZE DUP4 CALLDATACOPY ADD SWAP1 POP JUMPDEST POP SWAP1 POP PUSH1 0x1 SLOAD DUP2 PUSH0 DUP2 MLOAD DUP2 LT PUSH2 0x1EDD JUMPI PUSH2 0x1EDD PUSH2 0x2FDD JUMP JUMPDEST PUSH1 0x20 SWAP1 DUP2 MUL SWAP2 SWAP1 SWAP2 ADD ADD MSTORE PUSH1 0x1 DUP1 SLOAD PUSH2 0x1EF5 SWAP2 PUSH2 0x30DB JUMP JUMPDEST DUP2 PUSH1 0x1 DUP2 MLOAD DUP2 LT PUSH2 0x1F08 JUMPI PUSH2 0x1F08 PUSH2 0x2FDD JUMP JUMPDEST PUSH1 0x20 SWAP1 DUP2 MUL SWAP2 SWAP1 SWAP2 ADD ADD MSTORE PUSH1 0x1 SLOAD PUSH2 0x1F21 SWAP1 PUSH1 0x2 PUSH2 0x30DB JUMP JUMPDEST DUP2 PUSH1 0x2 DUP2 MLOAD DUP2 LT PUSH2 0x1F34 JUMPI PUSH2 0x1F34 PUSH2 0x2FDD JUMP JUMPDEST PUSH1 0x20 SWAP1 DUP2 MUL SWAP2 SWAP1 SWAP2 ADD ADD MSTORE PUSH1 0x1 SLOAD PUSH2 0x1F4D SWAP1 PUSH1 0x3 PUSH2 0x30DB JUMP JUMPDEST DUP2 PUSH1 0x3 DUP2 MLOAD DUP2 LT PUSH2 0x1F60 JUMPI PUSH2 0x1F60 PUSH2 0x2FDD JUMP JUMPDEST PUSH1 0x20 SWAP1 DUP2 MUL SWAP2 SWAP1 SWAP2 ADD ADD MSTORE PUSH1 0x1 SLOAD PUSH2 0x1F79 SWAP1 PUSH1 0x4 PUSH2 0x30DB JUMP JUMPDEST DUP2 PUSH1 0x4 DUP2 MLOAD DUP2 LT PUSH2 0x1F8C JUMPI PUSH2 0x1F8C PUSH2 0x2FDD JUMP JUMPDEST PUSH1 0x20 SWAP1 DUP2 MUL SWAP2 SWAP1 SWAP2 ADD ADD MSTORE PUSH1 0x1 SLOAD PUSH2 0x1FA5 SWAP1 PUSH1 0x5 PUSH2 0x30DB JUMP JUMPDEST DUP2 PUSH1 0x5 DUP2 MLOAD DUP2 LT PUSH2 0x1FB8 JUMPI PUSH2 0x1FB8 PUSH2 0x2FDD JUMP JUMPDEST PUSH1 0x20 SWAP1 DUP2 MUL SWAP2 SWAP1 SWAP2 ADD ADD MSTORE PUSH1 0x1 SLOAD PUSH2 0x1FD1 SWAP1 PUSH1 0x6 PUSH2 0x30DB JUMP JUMPDEST DUP2 PUSH1 0x6 DUP2 MLOAD DUP2 LT PUSH2 0x1FE4 JUMPI PUSH2 0x1FE4 PUSH2 0x2FDD JUMP JUMPDEST PUSH1 0x20 SWAP1 DUP2 MUL SWAP2 SWAP1 SWAP2 ADD ADD MSTORE PUSH1 0x1 SLOAD PUSH2 0x1FFD SWAP1 PUSH1 0x7 PUSH2 0x30DB JUMP JUMPDEST DUP2 PUSH1 0x7 DUP2 MLOAD DUP2 LT PUSH2 0x2010 JUMPI PUSH2 0x2010 PUSH2 0x2FDD JUMP JUMPDEST PUSH1 0x20 SWAP1 DUP2 MUL SWAP2 SWAP1 SWAP2 ADD ADD MSTORE PUSH1 0x1 SLOAD PUSH2 0x2029 SWAP1 PUSH1 0x8 PUSH2 0x30DB JUMP JUMPDEST DUP2 PUSH1 0x8 DUP2 MLOAD DUP2 LT PUSH2 0x203C JUMPI PUSH2 0x203C PUSH2 0x2FDD JUMP JUMPDEST PUSH1 0x20 SWAP1 DUP2 MUL SWAP2 SWAP1 SWAP2 ADD ADD MSTORE PUSH1 0x1 SLOAD PUSH2 0x2055 SWAP1 PUSH1 0x9 PUSH2 0x30DB JUMP JUMPDEST DUP2 PUSH1 0x9 DUP2 MLOAD DUP2 LT PUSH2 0x2068 JUMPI PUSH2 0x2068 PUSH2 0x2FDD JUMP JUMPDEST PUSH1 0x20 SWAP1 DUP2 MUL SWAP2 SWAP1 SWAP2 ADD ADD MSTORE PUSH1 0x4 DUP1 SLOAD PUSH1 0x1 SLOAD PUSH1 0x40 MLOAD PUSH3 0x7EEAC7 PUSH1 0xE1 SHL DUP2 MSTORE PUSH1 0x1 PUSH1 0x1 PUSH1 0xA0 SHL SUB SWAP1 SWAP3 AND SWAP3 PUSH3 0xFDD58E SWAP3 PUSH2 0x20A5 SWAP3 ADDRESS SWAP3 SWAP1 SWAP2 ADD PUSH2 0x308F JUMP JUMPDEST PUSH1 0x20 PUSH1 0x40 MLOAD DUP1 DUP4 SUB DUP2 DUP7 GAS STATICCALL ISZERO DUP1 ISZERO PUSH2 0x20C0 JUMPI RETURNDATASIZE PUSH0 DUP1 RETURNDATACOPY RETURNDATASIZE PUSH0 REVERT JUMPDEST POP POP POP POP PUSH1 0x40 MLOAD RETURNDATASIZE PUSH1 0x1F NOT PUSH1 0x1F DUP3 ADD AND DUP3 ADD DUP1 PUSH1 0x40 MSTORE POP DUP2 ADD SWAP1 PUSH2 0x20E4 SWAP2 SWAP1 PUSH2 0x3056 JUMP JUMPDEST DUP3 PUSH0 DUP2 MLOAD DUP2 LT PUSH2 0x20F6 JUMPI PUSH2 0x20F6 PUSH2 0x2FDD JUMP JUMPDEST PUSH1 0x20 SWAP1 DUP2 MUL SWAP2 SWAP1 SWAP2 ADD ADD MSTORE PUSH1 0x4 SLOAD PUSH1 0x1 DUP1 SLOAD PUSH1 0x1 PUSH1 0x1 PUSH1 0xA0 SHL SUB SWAP1 SWAP3 AND SWAP2 PUSH3 0xFDD58E SWAP2 ADDRESS SWAP2 PUSH2 0x2124 SWAP2 PUSH2 0x30DB JUMP JUMPDEST PUSH1 0x40 MLOAD DUP4 PUSH4 0xFFFFFFFF AND PUSH1 0xE0 SHL DUP2 MSTORE PUSH1 0x4 ADD PUSH2 0x2141 SWAP3 SWAP2 SWAP1 PUSH2 0x308F JUMP JUMPDEST PUSH1 0x20 PUSH1 0x40 MLOAD DUP1 DUP4 SUB DUP2 DUP7 GAS STATICCALL ISZERO DUP1 ISZERO PUSH2 0x215C JUMPI RETURNDATASIZE PUSH0 DUP1 RETURNDATACOPY RETURNDATASIZE PUSH0 REVERT JUMPDEST POP POP POP POP PUSH1 0x40 MLOAD RETURNDATASIZE PUSH1 0x1F NOT PUSH1 0x1F DUP3 ADD AND DUP3 ADD DUP1 PUSH1 0x40 MSTORE POP DUP2 ADD SWAP1 PUSH2 0x2180 SWAP2 SWAP1 PUSH2 0x3056 JUMP JUMPDEST DUP3 PUSH1 0x1 DUP2 MLOAD DUP2 LT PUSH2 0x2193 JUMPI PUSH2 0x2193 PUSH2 0x2FDD JUMP JUMPDEST PUSH1 0x20 SWAP1 DUP2 MUL SWAP2 SWAP1 SWAP2 ADD ADD MSTORE PUSH1 0x4 SLOAD PUSH1 0x1 SLOAD PUSH1 0x1 PUSH1 0x1 PUSH1 0xA0 SHL SUB SWAP1 SWAP2 AND SWAP1 PUSH3 0xFDD58E SWAP1 ADDRESS SWAP1 PUSH2 0x21C2 SWAP1 PUSH1 0x2 PUSH2 0x30DB JUMP JUMPDEST PUSH1 0x40 MLOAD DUP4 PUSH4 0xFFFFFFFF AND PUSH1 0xE0 SHL DUP2 MSTORE PUSH1 0x4 ADD PUSH2 0x21DF SWAP3 SWAP2 SWAP1 PUSH2 0x308F JUMP JUMPDEST PUSH1 0x20 PUSH1 0x40 MLOAD DUP1 DUP4 SUB DUP2 DUP7 GAS STATICCALL ISZERO DUP1 ISZERO PUSH2 0x21FA JUMPI RETURNDATASIZE PUSH0 DUP1 RETURNDATACOPY RETURNDATASIZE PUSH0 REVERT JUMPDEST POP POP POP POP PUSH1 0x40 MLOAD RETURNDATASIZE PUSH1 0x1F NOT PUSH1 0x1F DUP3 ADD AND DUP3 ADD DUP1 PUSH1 0x40 MSTORE POP DUP2 ADD SWAP1 PUSH2 0x221E SWAP2 SWAP1 PUSH2 0x3056 JUMP JUMPDEST DUP3 PUSH1 0x2 DUP2 MLOAD DUP2 LT PUSH2 0x2231 JUMPI PUSH2 0x2231 PUSH2 0x2FDD JUMP JUMPDEST PUSH1 0x20 SWAP1 DUP2 MUL SWAP2 SWAP1 SWAP2 ADD ADD MSTORE PUSH1 0x4 SLOAD PUSH1 0x1 SLOAD PUSH1 0x1 PUSH1 0x1 PUSH1 0xA0 SHL SUB SWAP1 SWAP2 AND SWAP1 PUSH3 0xFDD58E SWAP1 ADDRESS SWAP1 PUSH2 0x2260 SWAP1 PUSH1 0x3 PUSH2 0x30DB JUMP JUMPDEST PUSH1 0x40 MLOAD DUP4 PUSH4 0xFFFFFFFF AND PUSH1 0xE0 SHL DUP2 MSTORE PUSH1 0x4 ADD PUSH2 0x227D SWAP3 SWAP2 SWAP1 PUSH2 0x308F JUMP JUMPDEST PUSH1 0x20 PUSH1 0x40 MLOAD DUP1 DUP4 SUB DUP2 DUP7 GAS STATICCALL ISZERO DUP1 ISZERO PUSH2 0x2298 JUMPI RETURNDATASIZE PUSH0 DUP1 RETURNDATACOPY RETURNDATASIZE PUSH0 REVERT JUMPDEST POP POP POP POP PUSH1 0x40 MLOAD RETURNDATASIZE PUSH1 0x1F NOT PUSH1 0x1F DUP3 ADD AND DUP3 ADD DUP1 PUSH1 0x40 MSTORE POP DUP2 ADD SWAP1 PUSH2 0x22BC SWAP2 SWAP1 PUSH2 0x3056 JUMP JUMPDEST DUP3 PUSH1 0x3 DUP2 MLOAD DUP2 LT PUSH2 0x22CF JUMPI PUSH2 0x22CF PUSH2 0x2FDD JUMP JUMPDEST PUSH1 0x20 SWAP1 DUP2 MUL SWAP2 SWAP1 SWAP2 ADD ADD MSTORE PUSH1 0x4 DUP1 SLOAD PUSH1 0x1 SLOAD PUSH1 0x1 PUSH1 0x1 PUSH1 0xA0 SHL SUB SWAP1 SWAP2 AND SWAP2 PUSH3 0xFDD58E SWAP2 ADDRESS SWAP2 PUSH2 0x22FE SWAP2 SWAP1 PUSH2 0x30DB JUMP JUMPDEST PUSH1 0x40 MLOAD DUP4 PUSH4 0xFFFFFFFF AND PUSH1 0xE0 SHL DUP2 MSTORE PUSH1 0x4 ADD PUSH2 0x231B SWAP3 SWAP2 SWAP1 PUSH2 0x308F JUMP JUMPDEST PUSH1 0x20 PUSH1 0x40 MLOAD DUP1 DUP4 SUB DUP2 DUP7 GAS STATICCALL ISZERO DUP1 ISZERO PUSH2 0x2336 JUMPI RETURNDATASIZE PUSH0 DUP1 RETURNDATACOPY RETURNDATASIZE PUSH0 REVERT JUMPDEST POP POP POP POP PUSH1 0x40 MLOAD RETURNDATASIZE PUSH1 0x1F NOT PUSH1 0x1F DUP3 ADD AND DUP3 ADD DUP1 PUSH1 0x40 MSTORE POP DUP2 ADD SWAP1 PUSH2 0x235A SWAP2 SWAP1 PUSH2 0x3056 JUMP JUMPDEST DUP3 PUSH1 0x4 DUP2 MLOAD DUP2 LT PUSH2 0x236D JUMPI PUSH2 0x236D PUSH2 0x2FDD JUMP JUMPDEST PUSH1 0x20 SWAP1 DUP2 MUL SWAP2 SWAP1 SWAP2 ADD ADD MSTORE PUSH1 0x4 SLOAD PUSH1 0x1 SLOAD PUSH1 0x1 PUSH1 0x1 PUSH1 0xA0 SHL SUB SWAP1 SWAP2 AND SWAP1 PUSH3 0xFDD58E SWAP1 ADDRESS SWAP1 PUSH2 0x239C SWAP1 PUSH1 0x5 PUSH2 0x30DB JUMP JUMPDEST PUSH1 0x40 MLOAD DUP4 PUSH4 0xFFFFFFFF AND PUSH1 0xE0 SHL DUP2 MSTORE PUSH1 0x4 ADD PUSH2 0x23B9 SWAP3 SWAP2 SWAP1 PUSH2 0x308F JUMP JUMPDEST PUSH1 0x20 PUSH1 0x40 MLOAD DUP1 DUP4 SUB DUP2 DUP7 GAS STATICCALL ISZERO DUP1 ISZERO PUSH2 0x23D4 JUMPI RETURNDATASIZE PUSH0 DUP1 RETURNDATACOPY RETURNDATASIZE PUSH0 REVERT JUMPDEST POP POP POP POP PUSH1 0x40 MLOAD RETURNDATASIZE PUSH1 0x1F NOT PUSH1 0x1F DUP3 ADD AND DUP3 ADD DUP1 PUSH1 0x40 MSTORE POP DUP2 ADD SWAP1 PUSH2 0x23F8 SWAP2 SWAP1 PUSH2 0x3056 JUMP JUMPDEST DUP3 PUSH1 0x5 DUP2 MLOAD DUP2 LT PUSH2 0x240B JUMPI PUSH2 0x240B PUSH2 0x2FDD JUMP JUMPDEST PUSH1 0x20 SWAP1 DUP2 MUL SWAP2 SWAP1 SWAP2 ADD ADD MSTORE PUSH1 0x4 SLOAD PUSH1 0x1 SLOAD PUSH1 0x1 PUSH1 0x1 PUSH1 0xA0 SHL SUB SWAP1 SWAP2 AND SWAP1 PUSH3 0xFDD58E SWAP1 ADDRESS SWAP1 PUSH2 0x243A SWAP1 PUSH1 0x6 PUSH2 0x30DB JUMP JUMPDEST PUSH1 0x40 MLOAD DUP4 PUSH4 0xFFFFFFFF AND PUSH1 0xE0 SHL DUP2 MSTORE PUSH1 0x4 ADD PUSH2 0x2457 SWAP3 SWAP2 SWAP1 PUSH2 0x308F JUMP JUMPDEST PUSH1 0x20 PUSH1 0x40 MLOAD DUP1 DUP4 SUB DUP2 DUP7 GAS STATICCALL ISZERO DUP1 ISZERO PUSH2 0x2472 JUMPI RETURNDATASIZE PUSH0 DUP1 RETURNDATACOPY RETURNDATASIZE PUSH0 REVERT JUMPDEST POP POP POP POP PUSH1 0x40 MLOAD RETURNDATASIZE PUSH1 0x1F NOT PUSH1 0x1F DUP3 ADD AND DUP3 ADD DUP1 PUSH1 0x40 MSTORE POP DUP2 ADD SWAP1 PUSH2 0x2496 SWAP2 SWAP1 PUSH2 0x3056 JUMP JUMPDEST DUP3 PUSH1 0x6 DUP2 MLOAD DUP2 LT PUSH2 0x24A9 JUMPI PUSH2 0x24A9 PUSH2 0x2FDD JUMP JUMPDEST PUSH1 0x20 SWAP1 DUP2 MUL SWAP2 SWAP1 SWAP2 ADD ADD MSTORE PUSH1 0x4 SLOAD PUSH1 0x1 SLOAD PUSH1 0x1 PUSH1 0x1 PUSH1 0xA0 SHL SUB SWAP1 SWAP2 AND SWAP1 PUSH3 0xFDD58E SWAP1 ADDRESS SWAP1 PUSH2 0x24D8 SWAP1 PUSH1 0x7 PUSH2 0x30DB JUMP JUMPDEST PUSH1 0x40 MLOAD DUP4 PUSH4 0xFFFFFFFF AND PUSH1 0xE0 SHL DUP2 MSTORE PUSH1 0x4 ADD PUSH2 0x24F5 SWAP3 SWAP2 SWAP1 PUSH2 0x308F JUMP JUMPDEST PUSH1 0x20 PUSH1 0x40 MLOAD DUP1 DUP4 SUB DUP2 DUP7 GAS STATICCALL ISZERO DUP1 ISZERO PUSH2 0x2510 JUMPI RETURNDATASIZE PUSH0 DUP1 RETURNDATACOPY RETURNDATASIZE PUSH0 REVERT JUMPDEST POP POP POP POP PUSH1 0x40 MLOAD RETURNDATASIZE PUSH1 0x1F NOT PUSH1 0x1F DUP3 ADD AND DUP3 ADD DUP1 PUSH1 0x40 MSTORE POP DUP2 ADD SWAP1 PUSH2 0x2534 SWAP2 SWAP1 PUSH2 0x3056 JUMP JUMPDEST DUP3 PUSH1 0x7 DUP2 MLOAD DUP2 LT PUSH2 0x2547 JUMPI PUSH2 0x2547 PUSH2 0x2FDD JUMP JUMPDEST PUSH1 0x20 SWAP1 DUP2 MUL SWAP2 SWAP1 SWAP2 ADD ADD MSTORE PUSH1 0x4 SLOAD PUSH1 0x1 SLOAD PUSH1 0x1 PUSH1 0x1 PUSH1 0xA0 SHL SUB SWAP1 SWAP2 AND SWAP1 PUSH3 0xFDD58E SWAP1 ADDRESS SWAP1 PUSH2 0x2576 SWAP1 PUSH1 0x8 PUSH2 0x30DB JUMP JUMPDEST PUSH1 0x40 MLOAD DUP4 PUSH4 0xFFFFFFFF AND PUSH1 0xE0 SHL DUP2 MSTORE PUSH1 0x4 ADD PUSH2 0x2593 SWAP3 SWAP2 SWAP1 PUSH2 0x308F JUMP JUMPDEST PUSH1 0x20 PUSH1 0x40 MLOAD DUP1 DUP4 SUB DUP2 DUP7 GAS STATICCALL ISZERO DUP1 ISZERO PUSH2 0x25AE JUMPI RETURNDATASIZE PUSH0 DUP1 RETURNDATACOPY RETURNDATASIZE PUSH0 REVERT JUMPDEST POP POP POP POP PUSH1 0x40 MLOAD RETURNDATASIZE PUSH1 0x1F NOT PUSH1 0x1F DUP3 ADD AND DUP3 ADD DUP1 PUSH1 0x40 MSTORE POP DUP2 ADD SWAP1 PUSH2 0x25D2 SWAP2 SWAP1 PUSH2 0x3056 JUMP JUMPDEST DUP3 PUSH1 0x8 DUP2 MLOAD DUP2 LT PUSH2 0x25E5 JUMPI PUSH2 0x25E5 PUSH2 0x2FDD JUMP JUMPDEST PUSH1 0x20 SWAP1 DUP2 MUL SWAP2 SWAP1 SWAP2 ADD ADD MSTORE PUSH1 0x4 SLOAD PUSH1 0x1 SLOAD PUSH1 0x1 PUSH1 0x1 PUSH1 0xA0 SHL SUB SWAP1 SWAP2 AND SWAP1 PUSH3 0xFDD58E SWAP1 ADDRESS SWAP1 PUSH2 0x16DE SWAP1 PUSH1 0x9 PUSH2 0x30DB JUMP JUMPDEST PUSH1 0x40 MLOAD PUSH4 0x70A08231 PUSH1 0xE0 SHL DUP2 MSTORE ADDRESS PUSH1 0x4 DUP3 ADD MSTORE PUSH0 SWAP1 PUSH1 0x1 PUSH1 0x1 PUSH1 0xA0 SHL SUB DUP4 AND SWAP1 PUSH4 0x70A08231 SWAP1 PUSH1 0x24 ADD PUSH1 0x20 PUSH1 0x40 MLOAD DUP1 DUP4 SUB DUP2 DUP7 GAS STATICCALL ISZERO DUP1 ISZERO PUSH2 0x2658 JUMPI RETURNDATASIZE PUSH0 DUP1 RETURNDATACOPY RETURNDATASIZE PUSH0 REVERT JUMPDEST POP POP POP POP PUSH1 0x40 MLOAD RETURNDATASIZE PUSH1 0x1F NOT PUSH1 0x1F DUP3 ADD AND DUP3 ADD DUP1 PUSH1 0x40 MSTORE POP DUP2 ADD SWAP1 PUSH2 0x267C SWAP2 SWAP1 PUSH2 0x3056 JUMP JUMPDEST PUSH1 0x40 MLOAD PUSH4 0xA9059CBB PUSH1 0xE0 SHL DUP2 MSTORE SWAP1 SWAP2 POP PUSH20 0xB9BC785FD2BEA7BF9CB81065CFABA2FC5D0286B SWAP1 PUSH1 0x1 PUSH1 0x1 PUSH1 0xA0 SHL SUB DUP5 AND SWAP1 PUSH4 0xA9059CBB SWAP1 PUSH2 0x26C3 SWAP1 DUP5 SWAP1 DUP7 SWAP1 PUSH1 0x4 ADD PUSH2 0x308F JUMP JUMPDEST PUSH1 0x20 PUSH1 0x40 MLOAD DUP1 DUP4 SUB DUP2 PUSH0 DUP8 GAS CALL ISZERO DUP1 ISZERO PUSH2 0x26DF JUMPI RETURNDATASIZE PUSH0 DUP1 RETURNDATACOPY RETURNDATASIZE PUSH0 REVERT JUMPDEST POP POP POP POP PUSH1 0x40 MLOAD RETURNDATASIZE PUSH1 0x1F NOT PUSH1 0x1F DUP3 ADD AND DUP3 ADD DUP1 PUSH1 0x40 MSTORE POP DUP2 ADD SWAP1 PUSH2 0xEE1 SWAP2 SWAP1 PUSH2 0x30A8 JUMP JUMPDEST PUSH1 0x40 DUP1 MLOAD PUSH1 0xA DUP1 DUP3 MSTORE PUSH2 0x160 DUP3 ADD SWAP1 SWAP3 MSTORE PUSH0 SWAP1 DUP3 PUSH1 0x20 DUP3 ADD PUSH2 0x140 DUP1 CALLDATASIZE DUP4 CALLDATACOPY ADD SWAP1 POP POP SWAP1 POP PUSH1 0x1 SLOAD DUP2 PUSH0 DUP2 MLOAD DUP2 LT PUSH2 0x273D JUMPI PUSH2 0x273D PUSH2 0x2FDD JUMP JUMPDEST PUSH1 0x20 MUL PUSH1 0x20 ADD ADD DUP2 DUP2 MSTORE POP POP PUSH1 0x1 DUP1 SLOAD PUSH2 0x2757 SWAP2 SWAP1 PUSH2 0x346E JUMP JUMPDEST DUP2 PUSH1 0x1 DUP2 MLOAD DUP2 LT PUSH2 0x276A JUMPI PUSH2 0x276A PUSH2 0x2FDD JUMP JUMPDEST PUSH1 0x20 MUL PUSH1 0x20 ADD ADD DUP2 DUP2 MSTORE POP POP PUSH1 0x2 PUSH1 0x1 SLOAD PUSH2 0x2785 SWAP2 SWAP1 PUSH2 0x346E JUMP JUMPDEST DUP2 PUSH1 0x2 DUP2 MLOAD DUP2 LT PUSH2 0x2798 JUMPI PUSH2 0x2798 PUSH2 0x2FDD JUMP JUMPDEST PUSH1 0x20 MUL PUSH1 0x20 ADD ADD DUP2 DUP2 MSTORE POP POP PUSH1 0x3 PUSH1 0x1 SLOAD PUSH2 0x27B3 SWAP2 SWAP1 PUSH2 0x346E JUMP JUMPDEST DUP2 PUSH1 0x3 DUP2 MLOAD DUP2 LT PUSH2 0x27C6 JUMPI PUSH2 0x27C6 PUSH2 0x2FDD JUMP JUMPDEST PUSH1 0x20 MUL PUSH1 0x20 ADD ADD DUP2 DUP2 MSTORE POP POP PUSH1 0x4 PUSH1 0x1 SLOAD PUSH2 0x27E1 SWAP2 SWAP1 PUSH2 0x346E JUMP JUMPDEST DUP2 PUSH1 0x4 DUP2 MLOAD DUP2 LT PUSH2 0x27F4 JUMPI PUSH2 0x27F4 PUSH2 0x2FDD JUMP JUMPDEST PUSH1 0x20 MUL PUSH1 0x20 ADD ADD DUP2 DUP2 MSTORE POP POP PUSH1 0x5 PUSH1 0x1 SLOAD PUSH2 0x280F SWAP2 SWAP1 PUSH2 0x346E JUMP JUMPDEST DUP2 PUSH1 0x5 DUP2 MLOAD DUP2 LT PUSH2 0x2822 JUMPI PUSH2 0x2822 PUSH2 0x2FDD JUMP JUMPDEST PUSH1 0x20 MUL PUSH1 0x20 ADD ADD DUP2 DUP2 MSTORE POP POP PUSH1 0x6 PUSH1 0x1 SLOAD PUSH2 0x283D SWAP2 SWAP1 PUSH2 0x346E JUMP JUMPDEST DUP2 PUSH1 0x6 DUP2 MLOAD DUP2 LT PUSH2 0x2850 JUMPI PUSH2 0x2850 PUSH2 0x2FDD JUMP JUMPDEST PUSH1 0x20 MUL PUSH1 0x20 ADD ADD DUP2 DUP2 MSTORE POP POP PUSH1 0x7 PUSH1 0x1 SLOAD PUSH2 0x286B SWAP2 SWAP1 PUSH2 0x346E JUMP JUMPDEST DUP2 PUSH1 0x7 DUP2 MLOAD DUP2 LT PUSH2 0x287E JUMPI PUSH2 0x287E PUSH2 0x2FDD JUMP JUMPDEST PUSH1 0x20 MUL PUSH1 0x20 ADD ADD DUP2 DUP2 MSTORE POP POP PUSH1 0x8 PUSH1 0x1 SLOAD PUSH2 0x2899 SWAP2 SWAP1 PUSH2 0x346E JUMP JUMPDEST DUP2 PUSH1 0x8 DUP2 MLOAD DUP2 LT PUSH2 0x28AC JUMPI PUSH2 0x28AC PUSH2 0x2FDD JUMP JUMPDEST PUSH1 0x20 MUL PUSH1 0x20 ADD ADD DUP2 DUP2 MSTORE POP POP PUSH1 0x9 PUSH1 0x1 SLOAD PUSH2 0x1BB6 SWAP2 SWAP1 PUSH2 0x346E JUMP JUMPDEST PUSH1 0x4 DUP1 SLOAD PUSH1 0x40 DUP1 MLOAD PUSH4 0x36F997B7 PUSH1 0xE2 SHL DUP2 MSTORE SWAP1 MLOAD PUSH0 SWAP4 DUP5 SWAP4 PUSH1 0x1 PUSH1 0x1 PUSH1 0xA0 SHL SUB AND SWAP3 PUSH4 0xDBE65EDC SWAP3 DUP2 DUP4 ADD SWAP3 PUSH1 0x20 SWAP3 DUP3 SWAP1 SUB ADD DUP2 DUP7 GAS STATICCALL ISZERO DUP1 ISZERO PUSH2 0x290D JUMPI RETURNDATASIZE PUSH0 DUP1 RETURNDATACOPY RETURNDATASIZE PUSH0 REVERT JUMPDEST POP POP POP POP PUSH1 0x40 MLOAD RETURNDATASIZE PUSH1 0x1F NOT PUSH1 0x1F DUP3 ADD AND DUP3 ADD DUP1 PUSH1 0x40 MSTORE POP DUP2 ADD SWAP1 PUSH2 0x2931 SWAP2 SWAP1 PUSH2 0x306D JUMP JUMPDEST PUSH3 0xFFFFFF AND SWAP3 SWAP2 POP POP JUMP JUMPDEST PUSH1 0x2 SLOAD PUSH1 0x40 MLOAD PUSH4 0x70A08231 PUSH1 0xE0 SHL DUP2 MSTORE ADDRESS PUSH1 0x4 DUP3 ADD MSTORE PUSH0 SWAP2 PUSH1 0x1 PUSH1 0x1 PUSH1 0xA0 SHL SUB AND SWAP1 PUSH4 0x70A08231 SWAP1 PUSH1 0x24 ADD PUSH1 0x20 PUSH1 0x40 MLOAD DUP1 DUP4 SUB DUP2 DUP7 GAS STATICCALL ISZERO DUP1 ISZERO PUSH2 0x2982 JUMPI RETURNDATASIZE PUSH0 DUP1 RETURNDATACOPY RETURNDATASIZE PUSH0 REVERT JUMPDEST POP POP POP POP PUSH1 0x40 MLOAD RETURNDATASIZE PUSH1 0x1F NOT PUSH1 0x1F DUP3 ADD AND DUP3 ADD DUP1 PUSH1 0x40 MSTORE POP DUP2 ADD SWAP1 PUSH2 0x29A6 SWAP2 SWAP1 PUSH2 0x3056 JUMP JUMPDEST PUSH1 0x3 SLOAD PUSH1 0x40 MLOAD PUSH4 0x70A08231 PUSH1 0xE0 SHL DUP2 MSTORE ADDRESS PUSH1 0x4 DUP3 ADD MSTORE SWAP2 SWAP3 POP PUSH0 SWAP2 PUSH1 0x1 PUSH1 0x1 PUSH1 0xA0 SHL SUB SWAP1 SWAP2 AND SWAP1 PUSH4 0x70A08231 SWAP1 PUSH1 0x24 ADD PUSH1 0x20 PUSH1 0x40 MLOAD DUP1 DUP4 SUB DUP2 DUP7 GAS STATICCALL ISZERO DUP1 ISZERO PUSH2 0x29F1 JUMPI RETURNDATASIZE PUSH0 DUP1 RETURNDATACOPY RETURNDATASIZE PUSH0 REVERT JUMPDEST POP POP POP POP PUSH1 0x40 MLOAD RETURNDATASIZE PUSH1 0x1F NOT PUSH1 0x1F DUP3 ADD AND DUP3 ADD DUP1 PUSH1 0x40 MSTORE POP DUP2 ADD SWAP1 PUSH2 0x2A15 SWAP2 SWAP1 PUSH2 0x3056 JUMP JUMPDEST SWAP1 POP PUSH0 PUSH1 0xF SWAP1 POP PUSH0 DUP1 PUSH0 PUSH1 0x4 PUSH0 SWAP1 SLOAD SWAP1 PUSH2 0x100 EXP SWAP1 DIV PUSH1 0x1 PUSH1 0x1 PUSH1 0xA0 SHL SUB AND PUSH1 0x1 PUSH1 0x1 PUSH1 0xA0 SHL SUB AND PUSH4 0xDBE65EDC PUSH1 0x40 MLOAD DUP2 PUSH4 0xFFFFFFFF AND PUSH1 0xE0 SHL DUP2 MSTORE PUSH1 0x4 ADD PUSH1 0x20 PUSH1 0x40 MLOAD DUP1 DUP4 SUB DUP2 DUP7 GAS STATICCALL ISZERO DUP1 ISZERO PUSH2 0x2A6F JUMPI RETURNDATASIZE PUSH0 DUP1 RETURNDATACOPY RETURNDATASIZE PUSH0 REVERT JUMPDEST POP POP POP POP PUSH1 0x40 MLOAD RETURNDATASIZE PUSH1 0x1F NOT PUSH1 0x1F DUP3 ADD AND DUP3 ADD DUP1 PUSH1 0x40 MSTORE POP DUP2 ADD SWAP1 PUSH2 0x2A93 SWAP2 SWAP1 PUSH2 0x306D JUMP JUMPDEST SWAP1 POP PUSH0 DUP2 PUSH3 0xFFFFFF AND SWAP1 POP PUSH0 PUSH1 0xA SLOAD PUSH1 0x1 PUSH1 0x1 PUSH1 0x40 SHL SUB DUP2 GT ISZERO PUSH2 0x2AB9 JUMPI PUSH2 0x2AB9 PUSH2 0x2FC9 JUMP JUMPDEST PUSH1 0x40 MLOAD SWAP1 DUP1 DUP3 MSTORE DUP1 PUSH1 0x20 MUL PUSH1 0x20 ADD DUP3 ADD PUSH1 0x40 MSTORE DUP1 ISZERO PUSH2 0x2AE2 JUMPI DUP2 PUSH1 0x20 ADD PUSH1 0x20 DUP3 MUL DUP1 CALLDATASIZE DUP4 CALLDATACOPY ADD SWAP1 POP JUMPDEST POP SWAP1 POP PUSH0 DUP2 PUSH0 DUP2 MLOAD DUP2 LT PUSH2 0x2AF8 JUMPI PUSH2 0x2AF8 PUSH2 0x2FDD JUMP JUMPDEST PUSH1 0x20 MUL PUSH1 0x20 ADD ADD DUP2 DUP2 MSTORE POP POP PUSH1 0x1 DUP2 PUSH1 0x1 DUP2 MLOAD DUP2 LT PUSH2 0x2B19 JUMPI PUSH2 0x2B19 PUSH2 0x2FDD JUMP JUMPDEST PUSH1 0x20 MUL PUSH1 0x20 ADD ADD DUP2 DUP2 MSTORE POP POP PUSH1 0x2 DUP2 PUSH1 0x2 DUP2 MLOAD DUP2 LT PUSH2 0x2B3A JUMPI PUSH2 0x2B3A PUSH2 0x2FDD JUMP JUMPDEST PUSH1 0x20 MUL PUSH1 0x20 ADD ADD DUP2 DUP2 MSTORE POP POP PUSH1 0x3 DUP2 PUSH1 0x3 DUP2 MLOAD DUP2 LT PUSH2 0x2B5B JUMPI PUSH2 0x2B5B PUSH2 0x2FDD JUMP JUMPDEST PUSH1 0x20 MUL PUSH1 0x20 ADD ADD DUP2 DUP2 MSTORE POP POP PUSH1 0x4 DUP2 PUSH1 0x4 DUP2 MLOAD DUP2 LT PUSH2 0x2B7C JUMPI PUSH2 0x2B7C PUSH2 0x2FDD JUMP JUMPDEST PUSH1 0x20 MUL PUSH1 0x20 ADD ADD DUP2 DUP2 MSTORE POP POP PUSH1 0x5 DUP2 PUSH1 0x5 DUP2 MLOAD DUP2 LT PUSH2 0x2B9D JUMPI PUSH2 0x2B9D PUSH2 0x2FDD JUMP JUMPDEST PUSH1 0x20 MUL PUSH1 0x20 ADD ADD DUP2 DUP2 MSTORE POP POP PUSH1 0x6 DUP2 PUSH1 0x6 DUP2 MLOAD DUP2 LT PUSH2 0x2BBE JUMPI PUSH2 0x2BBE PUSH2 0x2FDD JUMP JUMPDEST PUSH1 0x20 MUL PUSH1 0x20 ADD ADD DUP2 DUP2 MSTORE POP POP PUSH1 0x7 DUP2 PUSH1 0x7 DUP2 MLOAD DUP2 LT PUSH2 0x2BDF JUMPI PUSH2 0x2BDF PUSH2 0x2FDD JUMP JUMPDEST PUSH1 0x20 MUL PUSH1 0x20 ADD ADD DUP2 DUP2 MSTORE POP POP PUSH1 0x8 DUP2 PUSH1 0x8 DUP2 MLOAD DUP2 LT PUSH2 0x2C00 JUMPI PUSH2 0x2C00 PUSH2 0x2FDD JUMP JUMPDEST PUSH1 0x20 MUL PUSH1 0x20 ADD ADD DUP2 DUP2 MSTORE POP POP PUSH1 0x9 DUP2 PUSH1 0x9 DUP2 MLOAD DUP2 LT PUSH2 0x2C21 JUMPI PUSH2 0x2C21 PUSH2 0x2FDD JUMP JUMPDEST PUSH1 0x20 MUL PUSH1 0x20 ADD ADD DUP2 DUP2 MSTORE POP POP PUSH0 PUSH1 0xA SLOAD PUSH1 0x1 PUSH1 0x1 PUSH1 0x40 SHL SUB DUP2 GT ISZERO PUSH2 0x2C48 JUMPI PUSH2 0x2C48 PUSH2 0x2FC9 JUMP JUMPDEST PUSH1 0x40 MLOAD SWAP1 DUP1 DUP3 MSTORE DUP1 PUSH1 0x20 MUL PUSH1 0x20 ADD DUP3 ADD PUSH1 0x40 MSTORE DUP1 ISZERO PUSH2 0x2C71 JUMPI DUP2 PUSH1 0x20 ADD PUSH1 0x20 DUP3 MUL DUP1 CALLDATASIZE DUP4 CALLDATACOPY ADD SWAP1 POP JUMPDEST POP SWAP1 POP PUSH8 0x16345785D8A0000 DUP2 PUSH0 DUP2 MLOAD DUP2 LT PUSH2 0x2C8F JUMPI PUSH2 0x2C8F PUSH2 0x2FDD JUMP JUMPDEST PUSH1 0x20 MUL PUSH1 0x20 ADD ADD DUP2 DUP2 MSTORE POP POP PUSH8 0x16345785D8A0000 DUP2 PUSH1 0x1 DUP2 MLOAD DUP2 LT PUSH2 0x2CB7 JUMPI PUSH2 0x2CB7 PUSH2 0x2FDD JUMP JUMPDEST PUSH1 0x20 MUL PUSH1 0x20 ADD ADD DUP2 DUP2 MSTORE POP POP PUSH8 0x16345785D8A0000 DUP2 PUSH1 0x2 DUP2 MLOAD DUP2 LT PUSH2 0x2CDF JUMPI PUSH2 0x2CDF PUSH2 0x2FDD JUMP JUMPDEST PUSH1 0x20 MUL PUSH1 0x20 ADD ADD DUP2 DUP2 MSTORE POP POP PUSH8 0x16345785D8A0000 DUP2 PUSH1 0x3 DUP2 MLOAD DUP2 LT PUSH2 0x2D07 JUMPI PUSH2 0x2D07 PUSH2 0x2FDD JUMP JUMPDEST PUSH1 0x20 MUL PUSH1 0x20 ADD ADD DUP2 DUP2 MSTORE POP POP PUSH8 0x16345785D8A0000 DUP2 PUSH1 0x4 DUP2 MLOAD DUP2 LT PUSH2 0x2D2F JUMPI PUSH2 0x2D2F PUSH2 0x2FDD JUMP JUMPDEST PUSH1 0x20 MUL PUSH1 0x20 ADD ADD DUP2 DUP2 MSTORE POP POP PUSH8 0x16345785D8A0000 DUP2 PUSH1 0x5 DUP2 MLOAD DUP2 LT PUSH2 0x2D57 JUMPI PUSH2 0x2D57 PUSH2 0x2FDD JUMP JUMPDEST PUSH1 0x20 MUL PUSH1 0x20 ADD ADD DUP2 DUP2 MSTORE POP POP PUSH8 0x16345785D8A0000 DUP2 PUSH1 0x6 DUP2 MLOAD DUP2 LT PUSH2 0x2D7F JUMPI PUSH2 0x2D7F PUSH2 0x2FDD JUMP JUMPDEST PUSH1 0x20 MUL PUSH1 0x20 ADD ADD DUP2 DUP2 MSTORE POP POP PUSH8 0x16345785D8A0000 DUP2 PUSH1 0x7 DUP2 MLOAD DUP2 LT PUSH2 0x2DA7 JUMPI PUSH2 0x2DA7 PUSH2 0x2FDD JUMP JUMPDEST PUSH1 0x20 MUL PUSH1 0x20 ADD ADD DUP2 DUP2 MSTORE POP POP PUSH8 0x16345785D8A0000 DUP2 PUSH1 0x8 DUP2 MLOAD DUP2 LT PUSH2 0x2DCF JUMPI PUSH2 0x2DCF PUSH2 0x2FDD JUMP JUMPDEST PUSH1 0x20 MUL PUSH1 0x20 ADD ADD DUP2 DUP2 MSTORE POP POP PUSH8 0x16345785D8A0000 DUP2 PUSH1 0x9 DUP2 MLOAD DUP2 LT PUSH2 0x2DF7 JUMPI PUSH2 0x2DF7 PUSH2 0x2FDD JUMP JUMPDEST PUSH1 0x20 MUL PUSH1 0x20 ADD ADD DUP2 DUP2 MSTORE POP POP PUSH0 PUSH1 0xA SLOAD PUSH1 0x1 PUSH1 0x1 PUSH1 0x40 SHL SUB DUP2 GT ISZERO PUSH2 0x2E1E JUMPI PUSH2 0x2E1E PUSH2 0x2FC9 JUMP JUMPDEST PUSH1 0x40 MLOAD SWAP1 DUP1 DUP3 MSTORE DUP1 PUSH1 0x20 MUL PUSH1 0x20 ADD DUP3 ADD PUSH1 0x40 MSTORE DUP1 ISZERO PUSH2 0x2E47 JUMPI DUP2 PUSH1 0x20 ADD PUSH1 0x20 DUP3 MUL DUP1 CALLDATASIZE DUP4 CALLDATACOPY ADD SWAP1 POP JUMPDEST POP SWAP1 POP PUSH8 0xDE0B6B3A7640000 DUP2 PUSH0 DUP2 MLOAD DUP2 LT PUSH2 0x2E65 JUMPI PUSH2 0x2E65 PUSH2 0x2FDD JUMP JUMPDEST PUSH1 0x20 MUL PUSH1 0x20 ADD ADD DUP2 DUP2 MSTORE POP POP PUSH0 DUP2 PUSH1 0x1 DUP2 MLOAD DUP2 LT PUSH2 0x2E85 JUMPI PUSH2 0x2E85 PUSH2 0x2FDD JUMP JUMPDEST PUSH1 0x20 MUL PUSH1 0x20 ADD ADD DUP2 DUP2 MSTORE POP POP PUSH0 DUP2 PUSH1 0x2 DUP2 MLOAD DUP2 LT PUSH2 0x2EA5 JUMPI PUSH2 0x2EA5 PUSH2 0x2FDD JUMP JUMPDEST PUSH1 0x20 MUL PUSH1 0x20 ADD ADD DUP2 DUP2 MSTORE POP POP PUSH0 DUP2 PUSH1 0x3 DUP2 MLOAD DUP2 LT PUSH2 0x2EC5 JUMPI PUSH2 0x2EC5 PUSH2 0x2FDD JUMP JUMPDEST PUSH1 0x20 MUL PUSH1 0x20 ADD ADD DUP2 DUP2 MSTORE POP POP PUSH0 DUP2 PUSH1 0x4 DUP2 MLOAD DUP2 LT PUSH2 0x2EE5 JUMPI PUSH2 0x2EE5 PUSH2 0x2FDD JUMP JUMPDEST PUSH1 0x20 MUL PUSH1 0x20 ADD ADD DUP2 DUP2 MSTORE POP POP PUSH0 DUP2 PUSH1 0x5 DUP2 MLOAD DUP2 LT PUSH2 0x2F05 JUMPI PUSH2 0x2F05 PUSH2 0x2FDD JUMP JUMPDEST PUSH1 0x20 MUL PUSH1 0x20 ADD ADD DUP2 DUP2 MSTORE POP POP PUSH0 DUP2 PUSH1 0x6 DUP2 MLOAD DUP2 LT PUSH2 0x2F25 JUMPI PUSH2 0x2F25 PUSH2 0x2FDD JUMP JUMPDEST PUSH1 0x20 MUL PUSH1 0x20 ADD ADD DUP2 DUP2 MSTORE POP POP PUSH0 DUP2 PUSH1 0x7 DUP2 MLOAD DUP2 LT PUSH2 0x2F45 JUMPI PUSH2 0x2F45 PUSH2 0x2FDD JUMP JUMPDEST PUSH1 0x20 MUL PUSH1 0x20 ADD ADD DUP2 DUP2 MSTORE POP POP PUSH0 DUP2 PUSH1 0x8 DUP2 MLOAD DUP2 LT PUSH2 0x2F65 JUMPI PUSH2 0x2F65 PUSH2 0x2FDD JUMP JUMPDEST PUSH1 0x20 MUL PUSH1 0x20 ADD ADD DUP2 DUP2 MSTORE POP POP PUSH0 DUP2 PUSH1 0x9 DUP2 MLOAD DUP2 LT PUSH2 0x8F7 JUMPI PUSH2 0x8F7 PUSH2 0x2FDD JUMP JUMPDEST PUSH0 PUSH1 0x20 DUP3 DUP5 SUB SLT ISZERO PUSH2 0x2F95 JUMPI PUSH0 DUP1 REVERT JUMPDEST POP CALLDATALOAD SWAP2 SWAP1 POP JUMP JUMPDEST PUSH0 PUSH1 0x20 DUP3 DUP5 SUB SLT ISZERO PUSH2 0x2FAC JUMPI PUSH0 DUP1 REVERT JUMPDEST DUP2 CALLDATALOAD PUSH1 0x1 PUSH1 0x1 PUSH1 0xA0 SHL SUB DUP2 AND DUP2 EQ PUSH2 0x2FC2 JUMPI PUSH0 DUP1 REVERT JUMPDEST SWAP4 SWAP3 POP POP POP JUMP JUMPDEST PUSH4 0x4E487B71 PUSH1 0xE0 SHL PUSH0 MSTORE PUSH1 0x41 PUSH1 0x4 MSTORE PUSH1 0x24 PUSH0 REVERT JUMPDEST PUSH4 0x4E487B71 PUSH1 0xE0 SHL PUSH0 MSTORE PUSH1 0x32 PUSH1 0x4 MSTORE PUSH1 0x24 PUSH0 REVERT JUMPDEST PUSH0 DUP2 MLOAD DUP1 DUP5 MSTORE PUSH1 0x20 DUP5 ADD SWAP4 POP PUSH1 0x20 DUP4 ADD PUSH0 JUMPDEST DUP3 DUP2 LT ISZERO PUSH2 0x3021 JUMPI DUP2 MLOAD DUP7 MSTORE PUSH1 0x20 SWAP6 DUP7 ADD SWAP6 SWAP1 SWAP2 ADD SWAP1 PUSH1 0x1 ADD PUSH2 0x3003 JUMP JUMPDEST POP SWAP4 SWAP5 SWAP4 POP POP POP POP JUMP JUMPDEST PUSH1 0x1 PUSH1 0x1 PUSH1 0xA0 SHL SUB DUP4 AND DUP2 MSTORE PUSH1 0x40 PUSH1 0x20 DUP3 ADD DUP2 SWAP1 MSTORE PUSH0 SWAP1 PUSH2 0x304E SWAP1 DUP4 ADD DUP5 PUSH2 0x2FF1 JUMP JUMPDEST SWAP5 SWAP4 POP POP POP POP JUMP JUMPDEST PUSH0 PUSH1 0x20 DUP3 DUP5 SUB SLT ISZERO PUSH2 0x3066 JUMPI PUSH0 DUP1 REVERT JUMPDEST POP MLOAD SWAP2 SWAP1 POP JUMP JUMPDEST PUSH0 PUSH1 0x20 DUP3 DUP5 SUB SLT ISZERO PUSH2 0x307D JUMPI PUSH0 DUP1 REVERT JUMPDEST DUP2 MLOAD PUSH3 0xFFFFFF DUP2 AND DUP2 EQ PUSH2 0x2FC2 JUMPI PUSH0 DUP1 REVERT JUMPDEST PUSH1 0x1 PUSH1 0x1 PUSH1 0xA0 SHL SUB SWAP3 SWAP1 SWAP3 AND DUP3 MSTORE PUSH1 0x20 DUP3 ADD MSTORE PUSH1 0x40 ADD SWAP1 JUMP JUMPDEST PUSH0 PUSH1 0x20 DUP3 DUP5 SUB SLT ISZERO PUSH2 0x30B8 JUMPI PUSH0 DUP1 REVERT JUMPDEST DUP2 MLOAD DUP1 ISZERO ISZERO DUP2 EQ PUSH2 0x2FC2 JUMPI PUSH0 DUP1 REVERT JUMPDEST PUSH4 0x4E487B71 PUSH1 0xE0 SHL PUSH0 MSTORE PUSH1 0x11 PUSH1 0x4 MSTORE PUSH1 0x24 PUSH0 REVERT JUMPDEST DUP1 DUP3 ADD DUP1 DUP3 GT ISZERO PUSH2 0x30EE JUMPI PUSH2 0x30EE PUSH2 0x30C7 JUMP JUMPDEST SWAP3 SWAP2 POP POP JUMP JUMPDEST PUSH1 0x20 DUP2 MSTORE PUSH2 0x310E PUSH1 0x20 DUP3 ADD DUP4 MLOAD PUSH1 0x1 PUSH1 0x1 PUSH1 0xA0 SHL SUB AND SWAP1 MSTORE JUMP JUMPDEST PUSH0 PUSH1 0x20 DUP4 ADD MLOAD PUSH2 0x3129 PUSH1 0x40 DUP5 ADD DUP3 PUSH1 0x1 PUSH1 0x1 PUSH1 0xA0 SHL SUB AND SWAP1 MSTORE JUMP JUMPDEST POP PUSH1 0x40 DUP4 ADD MLOAD PUSH1 0x60 DUP4 ADD MSTORE PUSH1 0x60 DUP4 ADD MLOAD PUSH1 0x80 DUP4 ADD MSTORE PUSH1 0x80 DUP4 ADD MLOAD PUSH1 0xA0 DUP4 ADD MSTORE PUSH1 0xA0 DUP4 ADD MLOAD PUSH1 0xC0 DUP4 ADD MSTORE PUSH1 0xC0 DUP4 ADD MLOAD PUSH1 0xE0 DUP4 ADD MSTORE PUSH1 0xE0 DUP4 ADD MLOAD PUSH2 0x100 DUP4 ADD MSTORE PUSH2 0x100 DUP4 ADD MLOAD PUSH2 0x120 DUP4 ADD MSTORE PUSH2 0x120 DUP4 ADD MLOAD PUSH2 0x1E0 PUSH2 0x140 DUP5 ADD MSTORE PUSH2 0x3190 PUSH2 0x200 DUP5 ADD DUP3 PUSH2 0x2FF1 JUMP JUMPDEST SWAP1 POP PUSH2 0x140 DUP5 ADD MLOAD PUSH1 0x1F NOT DUP5 DUP4 SUB ADD PUSH2 0x160 DUP6 ADD MSTORE PUSH2 0x31AF DUP3 DUP3 PUSH2 0x2FF1 JUMP JUMPDEST SWAP2 POP POP PUSH2 0x160 DUP5 ADD MLOAD PUSH1 0x1F NOT DUP5 DUP4 SUB ADD PUSH2 0x180 DUP6 ADD MSTORE PUSH2 0x31CF DUP3 DUP3 PUSH2 0x2FF1 JUMP JUMPDEST SWAP2 POP POP PUSH2 0x180 DUP5 ADD MLOAD PUSH2 0x31EE PUSH2 0x1A0 DUP6 ADD DUP3 PUSH1 0x1 PUSH1 0x1 PUSH1 0xA0 SHL SUB AND SWAP1 MSTORE JUMP JUMPDEST POP PUSH2 0x1A0 DUP5 ADD MLOAD PUSH1 0x1 PUSH1 0x1 PUSH1 0xA0 SHL SUB DUP2 AND PUSH2 0x1C0 DUP6 ADD MSTORE POP PUSH2 0x1C0 DUP5 ADD MLOAD PUSH2 0x1E0 DUP5 ADD MSTORE DUP1 SWAP2 POP POP SWAP3 SWAP2 POP POP JUMP JUMPDEST PUSH0 DUP3 PUSH1 0x1F DUP4 ADD SLT PUSH2 0x322B JUMPI PUSH0 DUP1 REVERT JUMPDEST DUP2 MLOAD PUSH1 0x1 PUSH1 0x1 PUSH1 0x40 SHL SUB DUP2 GT ISZERO PUSH2 0x3244 JUMPI PUSH2 0x3244 PUSH2 0x2FC9 JUMP JUMPDEST DUP1 PUSH1 0x5 SHL PUSH1 0x40 MLOAD PUSH1 0x1F NOT PUSH1 0x3F DUP4 ADD AND DUP2 ADD DUP2 DUP2 LT PUSH1 0x1 PUSH1 0x1 PUSH1 0x40 SHL SUB DUP3 GT OR ISZERO PUSH2 0x3270 JUMPI PUSH2 0x3270 PUSH2 0x2FC9 JUMP JUMPDEST PUSH1 0x40 MSTORE SWAP2 DUP3 MSTORE PUSH1 0x20 DUP2 DUP6 ADD DUP2 ADD SWAP3 SWAP1 DUP2 ADD DUP7 DUP5 GT ISZERO PUSH2 0x328D JUMPI PUSH0 DUP1 REVERT JUMPDEST PUSH1 0x20 DUP7 ADD SWAP3 POP JUMPDEST DUP4 DUP4 LT ISZERO PUSH2 0x32AC JUMPI DUP3 MLOAD DUP2 MSTORE PUSH1 0x20 SWAP3 DUP4 ADD SWAP3 ADD PUSH2 0x3294 JUMP JUMPDEST POP SWAP6 SWAP5 POP POP POP POP POP JUMP JUMPDEST PUSH0 DUP1 PUSH0 DUP1 PUSH0 DUP1 PUSH1 0xC0 DUP8 DUP10 SUB SLT ISZERO PUSH2 0x32CB JUMPI PUSH0 DUP1 REVERT JUMPDEST DUP7 MLOAD PUSH1 0x20 DUP9 ADD MLOAD PUSH1 0x40 DUP10 ADD MLOAD PUSH1 0x60 DUP11 ADD MLOAD PUSH1 0x80 DUP12 ADD MLOAD SWAP4 SWAP10 POP SWAP2 SWAP8 POP SWAP6 POP SWAP4 POP PUSH1 0x1 PUSH1 0x1 PUSH1 0x40 SHL SUB DUP2 GT ISZERO PUSH2 0x32FE JUMPI PUSH0 DUP1 REVERT JUMPDEST PUSH2 0x330A DUP10 DUP3 DUP11 ADD PUSH2 0x321C JUMP JUMPDEST SWAP3 POP POP PUSH1 0xA0 DUP8 ADD MLOAD PUSH1 0x1 PUSH1 0x1 PUSH1 0x40 SHL SUB DUP2 GT ISZERO PUSH2 0x3325 JUMPI PUSH0 DUP1 REVERT JUMPDEST PUSH2 0x3331 DUP10 DUP3 DUP11 ADD PUSH2 0x321C JUMP JUMPDEST SWAP2 POP POP SWAP3 SWAP6 POP SWAP3 SWAP6 POP SWAP3 SWAP6 JUMP JUMPDEST PUSH4 0x4E487B71 PUSH1 0xE0 SHL PUSH0 MSTORE PUSH1 0x21 PUSH1 0x4 MSTORE PUSH1 0x24 PUSH0 REVERT JUMPDEST PUSH0 DUP2 MLOAD DUP1 DUP5 MSTORE PUSH1 0x20 DUP5 ADD SWAP4 POP PUSH1 0x20 DUP4 ADD PUSH0 JUMPDEST DUP3 DUP2 LT ISZERO PUSH2 0x3021 JUMPI DUP2 MLOAD PUSH1 0x1 PUSH1 0x1 PUSH1 0xA0 SHL SUB AND DUP7 MSTORE PUSH1 0x20 SWAP6 DUP7 ADD SWAP6 SWAP1 SWAP2 ADD SWAP1 PUSH1 0x1 ADD PUSH2 0x3364 JUMP JUMPDEST DUP6 DUP2 MSTORE PUSH16 0xFFFFFFFFFFFFFFFFFFFFFFFFFFFFFFFF DUP6 AND PUSH1 0x20 DUP3 ADD MSTORE PUSH1 0xA0 PUSH1 0x40 DUP3 ADD MSTORE PUSH0 DUP5 MLOAD PUSH1 0x60 PUSH1 0xA0 DUP5 ADD MSTORE PUSH2 0x33C5 PUSH2 0x100 DUP5 ADD DUP3 PUSH2 0x2FF1 JUMP JUMPDEST PUSH1 0x20 DUP8 DUP2 ADD MLOAD PUSH1 0x9F NOT DUP7 DUP5 SUB ADD PUSH1 0xC0 DUP8 ADD MSTORE DUP1 MLOAD DUP1 DUP5 MSTORE SWAP1 DUP3 ADD SWAP4 POP PUSH0 SWAP3 SWAP1 SWAP2 ADD SWAP1 JUMPDEST DUP1 DUP4 LT ISZERO PUSH2 0x3426 JUMPI DUP4 MLOAD PUSH1 0x4 DUP2 LT PUSH2 0x340E JUMPI PUSH4 0x4E487B71 PUSH1 0xE0 SHL PUSH0 MSTORE PUSH1 0x21 PUSH1 0x4 MSTORE PUSH1 0x24 PUSH0 REVERT JUMPDEST DUP3 MSTORE PUSH1 0x20 SWAP4 DUP5 ADD SWAP4 PUSH1 0x1 SWAP4 SWAP1 SWAP4 ADD SWAP3 SWAP1 SWAP2 ADD SWAP1 PUSH2 0x33E8 JUMP JUMPDEST POP PUSH1 0x40 DUP9 ADD MLOAD DUP6 DUP3 SUB PUSH1 0x9F NOT ADD PUSH1 0xE0 DUP8 ADD MSTORE SWAP3 POP PUSH2 0x3444 DUP2 DUP5 PUSH2 0x3352 JUMP JUMPDEST SWAP4 POP POP POP POP PUSH2 0x345E PUSH1 0x60 DUP4 ADD DUP6 PUSH1 0x1 PUSH1 0x1 PUSH1 0xA0 SHL SUB AND SWAP1 MSTORE JUMP JUMPDEST DUP3 PUSH1 0x80 DUP4 ADD MSTORE SWAP7 SWAP6 POP POP POP POP POP POP JUMP JUMPDEST DUP2 DUP2 SUB DUP2 DUP2 GT ISZERO PUSH2 0x30EE JUMPI PUSH2 0x30EE PUSH2 0x30C7 JUMP JUMPDEST PUSH1 0x1 PUSH1 0x1 PUSH1 0xA0 SHL SUB DUP11 DUP2 AND DUP3 MSTORE DUP10 AND PUSH1 0x20 DUP3 ADD MSTORE PUSH2 0xFFFF DUP9 AND PUSH1 0x40 DUP3 ADD MSTORE PUSH1 0x60 DUP2 ADD DUP8 SWAP1 MSTORE PUSH1 0x80 DUP2 ADD DUP7 SWAP1 MSTORE PUSH2 0x120 PUSH1 0xA0 DUP3 ADD DUP2 SWAP1 MSTORE PUSH0 SWAP1 PUSH2 0x34C5 SWAP1 DUP4 ADD DUP8 PUSH2 0x2FF1 JUMP JUMPDEST DUP3 DUP2 SUB PUSH1 0xC0 DUP5 ADD MSTORE PUSH2 0x34D7 DUP2 DUP8 PUSH2 0x2FF1 JUMP JUMPDEST PUSH1 0x1 PUSH1 0x1 PUSH1 0xA0 SHL SUB SWAP6 SWAP1 SWAP6 AND PUSH1 0xE0 DUP5 ADD MSTORE POP POP PUSH2 0x100 ADD MSTORE SWAP8 SWAP7 POP POP POP POP POP POP POP JUMP JUMPDEST PUSH0 DUP1 PUSH1 0x40 DUP4 DUP6 SUB SLT ISZERO PUSH2 0x350B JUMPI PUSH0 DUP1 REVERT JUMPDEST POP POP DUP1 MLOAD PUSH1 0x20 SWAP1 SWAP2 ADD MLOAD SWAP1 SWAP3 SWAP1 SWAP2 POP JUMP JUMPDEST PUSH0 PUSH1 0xA0 DUP3 ADD DUP8 DUP4 MSTORE DUP7 PUSH1 0x20 DUP5 ADD MSTORE PUSH1 0xA0 PUSH1 0x40 DUP5 ADD MSTORE DUP1 DUP7 MLOAD DUP1 DUP4 MSTORE PUSH1 0xC0 DUP6 ADD SWAP2 POP PUSH1 0x20 DUP9 ADD SWAP3 POP PUSH0 JUMPDEST DUP2 DUP2 LT ISZERO PUSH2 0x356C JUMPI DUP4 MLOAD PUSH1 0x1 PUSH1 0x1 PUSH1 0xA0 SHL SUB AND DUP4 MSTORE PUSH1 0x20 SWAP4 DUP5 ADD SWAP4 SWAP1 SWAP3 ADD SWAP2 PUSH1 0x1 ADD PUSH2 0x3545 JUMP JUMPDEST POP POP PUSH1 0x1 PUSH1 0x1 PUSH1 0xA0 SHL SUB SWAP6 SWAP1 SWAP6 AND PUSH1 0x60 DUP5 ADD MSTORE POP POP PUSH1 0x80 ADD MSTORE SWAP4 SWAP3 POP POP POP JUMP JUMPDEST PUSH0 PUSH1 0x20 DUP3 DUP5 SUB SLT ISZERO PUSH2 0x359C JUMPI PUSH0 DUP1 REVERT JUMPDEST DUP2 MLOAD PUSH1 0x1 PUSH1 0x1 PUSH1 0x40 SHL SUB DUP2 GT ISZERO PUSH2 0x35B1 JUMPI PUSH0 DUP1 REVERT JUMPDEST PUSH2 0x304E DUP5 DUP3 DUP6 ADD PUSH2 0x321C JUMP INVALID LOG2 PUSH5 0x6970667358 0x22 SLT KECCAK256 TLOAD MSIZE CREATE SWAP16 0xDF SUB 0xEF SGT DUP14 GAS PUSH31 0xFAED12D695541E75674F5B35A3E527866B843BDE3E64736F6C634300081A00 CALLER "
		},
		"gasEstimates": {
			"creation": {
				"codeDepositCost": "2762200",
				"executionCost": "218919",
				"totalCost": "2981119"
			},
			"external": {
				"AddLiquidityUSDT()": "infinite",
				"AddLiquiditytokenX()": "infinite",
				"ViewBin()": "infinite",
				"approveTokenRewarder()": "infinite",
				"botController()": "2358",
				"collectRewardsManual(uint256)": "infinite",
				"collectRewardsUSDT()": "infinite",
				"collectRewardstokenX()": "infinite",
				"compoundMoe()": "infinite",
				"convertMoe()": "infinite",
				"converttokenX()": "infinite",
				"currentID()": "2315",
				"removeFarmManual(uint256)": "infinite",
				"removeFarmUSDT()": "infinite",
				"removeFarmtokenX()": "infinite",
				"setDpositID(uint256)": "24504",
				"transferToAdmin(address)": "infinite"
			}
		},
		"methodIdentifiers": {
			"AddLiquidityUSDT()": "1f4e2e0a",
			"AddLiquiditytokenX()": "f5001870",
			"ViewBin()": "ecbd4533",
			"approveTokenRewarder()": "25475a14",
			"botController()": "941b380b",
			"collectRewardsManual(uint256)": "17ced34b",
			"collectRewardsUSDT()": "c8643a5d",
			"collectRewardstokenX()": "69bdedd5",
			"compoundMoe()": "77e0074b",
			"convertMoe()": "b72d41d8",
			"converttokenX()": "247d46a4",
			"currentID()": "1c75cfb4",
			"removeFarmManual(uint256)": "54ce1b4e",
			"removeFarmUSDT()": "26aa7e0e",
			"removeFarmtokenX()": "78ee22de",
			"setDpositID(uint256)": "274e808b",
			"transferToAdmin(address)": "8cbc5cff"
		}
	},
	"abi": [
		{
			"inputs": [],
			"stateMutability": "nonpayable",
			"type": "constructor"
		},
		{
			"inputs": [],
			"name": "AddLiquidityUSDT",
			"outputs": [],
			"stateMutability": "payable",
			"type": "function"
		},
		{
			"inputs": [],
			"name": "AddLiquiditytokenX",
			"outputs": [],
			"stateMutability": "payable",
			"type": "function"
		},
		{
			"inputs": [],
			"name": "ViewBin",
			"outputs": [
				{
					"internalType": "uint256",
					"name": "",
					"type": "uint256"
				}
			],
			"stateMutability": "view",
			"type": "function"
		},
		{
			"inputs": [],
			"name": "approveTokenRewarder",
			"outputs": [],
			"stateMutability": "payable",
			"type": "function"
		},
		{
			"inputs": [],
			"name": "botController",
			"outputs": [
				{
					"internalType": "address",
					"name": "",
					"type": "address"
				}
			],
			"stateMutability": "view",
			"type": "function"
		},
		{
			"inputs": [
				{
					"internalType": "uint256",
					"name": "ManualDepositID",
					"type": "uint256"
				}
			],
			"name": "collectRewardsManual",
			"outputs": [],
			"stateMutability": "payable",
			"type": "function"
		},
		{
			"inputs": [],
			"name": "collectRewardsUSDT",
			"outputs": [],
			"stateMutability": "payable",
			"type": "function"
		},
		{
			"inputs": [],
			"name": "collectRewardstokenX",
			"outputs": [],
			"stateMutability": "payable",
			"type": "function"
		},
		{
			"inputs": [],
			"name": "compoundMoe",
			"outputs": [],
			"stateMutability": "payable",
			"type": "function"
		},
		{
			"inputs": [],
			"name": "convertMoe",
			"outputs": [],
			"stateMutability": "payable",
			"type": "function"
		},
		{
			"inputs": [],
			"name": "converttokenX",
			"outputs": [],
			"stateMutability": "payable",
			"type": "function"
		},
		{
			"inputs": [],
			"name": "currentID",
			"outputs": [
				{
					"internalType": "uint256",
					"name": "",
					"type": "uint256"
				}
			],
			"stateMutability": "view",
			"type": "function"
		},
		{
			"inputs": [
				{
					"internalType": "uint256",
					"name": "ManDepositID",
					"type": "uint256"
				}
			],
			"name": "removeFarmManual",
			"outputs": [],
			"stateMutability": "payable",
			"type": "function"
		},
		{
			"inputs": [],
			"name": "removeFarmUSDT",
			"outputs": [],
			"stateMutability": "payable",
			"type": "function"
		},
		{
			"inputs": [],
			"name": "removeFarmtokenX",
			"outputs": [],
			"stateMutability": "payable",
			"type": "function"
		},
		{
			"inputs": [
				{
					"internalType": "uint256",
					"name": "newDepositID",
					"type": "uint256"
				}
			],
			"name": "setDpositID",
			"outputs": [],
			"stateMutability": "payable",
			"type": "function"
		},
		{
			"inputs": [
				{
					"internalType": "address",
					"name": "Token",
					"type": "address"
				}
			],
			"name": "transferToAdmin",
			"outputs": [],
			"stateMutability": "payable",
			"type": "function"
		}
	]
}