{
	"data": {
		"bytecode": {
			"linkReferences": {},
			"object": "6080604052600280546001600160a01b03199081167378c1b0c915c4faa5fffa6cabf0219da63d7f4cb81790915560038054821673201eba5cc46d216ce6dc03f6a759e8e766e956ae17905560048054821673f6c9020c9e915808481757779edb53daceae241517905560058054821673013e138ef6008ae5fdfde29700e3f2bc61d21e3a1790556006805482167308a62eb0ef6dbe762774abf5e18f49671559285b179055600780548216734515a45337f461a11ff0fe8abf3c606ae5dc00c91790556008805490911673eaee7ee68874218c3558b40063c42b82d3e7232a179055600b805461ffff1916600f1790553480156100fb575f80fd5b505f80546001600160a01b03191633179055611add8061011a5f395ff3fe6080604052600436106100e4575f3560e01c80638ca1818711610087578063b2a65f1c11610057578063b2a65f1c146101b8578063be5449b8146101e7578063ecbd4533146101fc578063f500187014610210575f80fd5b80638ca181871461015e5780638cbc5cff14610166578063941b380b14610179578063ab47ebc6146101b0575f80fd5b806325475a14116100c257806325475a1414610133578063274e808b1461013b57806370bb45b31461014e57806378ee22de14610156575f80fd5b80631612944e146100e857806317ced34b146100fd5780631c75cfb414610110575b5f80fd5b6100fb6100f63660046115d6565b610218565b005b6100fb61010b3660046115d6565b610274565b34801561011b575f80fd5b506001545b6040519081526020015b60405180910390f35b6100fb610318565b6100fb6101493660046115d6565b6103e4565b6100fb61043b565b6100fb61051c565b6100fb61073e565b6100fb6101743660046115ed565b610945565b348015610184575f80fd5b50600954610198906001600160a01b031681565b6040516001600160a01b03909116815260200161012a565b6100fb610a34565b3480156101c3575f80fd5b50600b546101d79062010000900460ff1681565b604051901515815260200161012a565b3480156101f2575f80fd5b50610120600a5481565b348015610207575f80fd5b50610120610fd3565b6100fb611048565b5f546001600160a01b0316331461026f5760405162461bcd60e51b81526020600482015260166024820152754f6e6c79206f776e65722063616e20646f207468697360501b60448201526064015b60405180910390fd5b600a55565b6040805160018082528183019092525f90826020808301908036833701905050905082815f815181106102a9576102a961162e565b60209081029190910101526006546040516308ae304f60e31b81526001600160a01b03909116906345718278906102e6903090859060040161167c565b5f604051808303815f87803b1580156102fd575f80fd5b505af115801561030f573d5f803e3d5ffd5b50505050505050565b600480546005546040516339612d9560e21b81526001600160a01b039182169381019390935260016024840152169063e584b654906044015f604051808303815f87803b158015610367575f80fd5b505af1158015610379573d5f803e3d5ffd5b5050600480546006546040516339612d9560e21b81526001600160a01b03918216938101939093526001602484015216925063e584b65491506044015f604051808303815f87803b1580156103cc575f80fd5b505af11580156103de573d5f803e3d5ffd5b50505050565b5f546001600160a01b031633146104365760405162461bcd60e51b81526020600482015260166024820152754f6e6c79206f776e65722063616e20646f207468697360501b6044820152606401610266565b600155565b5f600a54600261044b91906116bb565b6104569060016116d8565b90505f600a5460015461046991906116eb565b90505f826001600160401b038111156104845761048461161a565b6040519080825280602002602001820160405280156104ad578160200160208202803683370190505b5090505f5b838110156104e9576104c481846116d8565b8282815181106104d6576104d661162e565b60209081029190910101526001016104b2565b506006546040516308ae304f60e31b81526001600160a01b03909116906345718278906102e6903090859060040161167c565b5f80600a546001600160401b038111156105385761053861161a565b604051908082528060200260200182016040528015610561578160200160208202803683370190505b5090505f600a546001600160401b0381111561057f5761057f61161a565b6040519080825280602002602001820160405280156105a8578160200160208202803683370190505b5090505f5b6001600a546105bc91906116eb565b8110156106a6576004546001546001600160a01b039091169062fdd58e9030906105e79085906116d8565b6040516001600160e01b031960e085901b1681526001600160a01b0390921660048301526024820152604401602060405180830381865afa15801561062e573d5f803e3d5ffd5b505050506040513d601f19601f8201168201806040525081019061065291906116fe565b9350838382815181106106675761066761162e565b6020026020010181815250508060015461068191906116d8565b8282815181106106935761069361162e565b60209081029190910101526001016105ad565b50600554600254600354600b54604051636110acdb60e11b81526001600160a01b039485169463c22159b6946106f8949082169391169161ffff909116905f90819089908b9030904290600401611715565b60408051808303815f875af1158015610713573d5f803e3d5ffd5b505050506040513d601f19601f82011682018060405250810190610737919061178e565b5050505050565b5f80600a546001600160401b0381111561075a5761075a61161a565b604051908082528060200260200182016040528015610783578160200160208202803683370190505b5090505f5b6001600a5461079791906116eb565b811015610855576004546001546001600160a01b039091169062fdd58e9030906107c29085906116eb565b6040516001600160e01b031960e085901b1681526001600160a01b0390921660048301526024820152604401602060405180830381865afa158015610809573d5f803e3d5ffd5b505050506040513d601f19601f8201168201806040525081019061082d91906116fe565b9250828282815181106108425761084261162e565b6020908102919091010152600101610788565b505f600a546001600160401b038111156108715761087161161a565b60405190808252806020026020018201604052801561089a578160200160208202803683370190505b5090505f5b6001600a546108ae91906116eb565b8110156108e857806001546108c391906116eb565b8282815181106108d5576108d561162e565b602090810291909101015260010161089f565b50600554600254600354600b546001600160a01b039384169363c22159b693811692169061ffff165f808789306109214261012c6116d8565b6040518a63ffffffff1660e01b81526004016106f899989796959493929190611715565b6040516370a0823160e01b81523060048201525f906001600160a01b038316906370a0823190602401602060405180830381865afa158015610989573d5f803e3d5ffd5b505050506040513d601f19601f820116820180604052508101906109ad91906116fe565b60405163a9059cbb60e01b8152730b9bc785fd2bea7bf9cb81065cfaba2fc5d0286b60048201819052602482018390529192506001600160a01b0384169063a9059cbb906044016020604051808303815f875af1158015610a10573d5f803e3d5ffd5b505050506040513d601f19601f820116820180604052508101906103de91906117b0565b6002546040516370a0823160e01b81523060048201525f916001600160a01b0316906370a0823190602401602060405180830381865afa158015610a7a573d5f803e3d5ffd5b505050506040513d601f19601f82011682018060405250810190610a9e91906116fe565b6003546040516370a0823160e01b81523060048201529192505f916001600160a01b03909116906370a0823190602401602060405180830381865afa158015610ae9573d5f803e3d5ffd5b505050506040513d601f19601f82011682018060405250810190610b0d91906116fe565b60048054604080516336f997b760e21b815290519394505f93849384936001600160a01b03169263dbe65edc92818301926020928290030181865afa158015610b58573d5f803e3d5ffd5b505050506040513d601f19601f82011682018060405250810190610b7c91906117cf565b600a5490915062ffffff8216908190610b9590826117f1565b90505f600a546001600160401b03811115610bb257610bb261161a565b604051908082528060200260200182016040528015610bdb578160200160208202803683370190505b5090505f5b6001600a54610bef91906116eb565b811015610c2557610c008184611817565b828281518110610c1257610c1261162e565b6020908102919091010152600101610be0565b505f600a54670de0b6b3a7640000610c3d919061183e565b90505f600a546001600160401b03811115610c5a57610c5a61161a565b604051908082528060200260200182016040528015610c83578160200160208202803683370190505b5090505f5b6001600a54610c9791906116eb565b811015610cf4575f828281518110610cb157610cb161162e565b602002602001018181525050805f03610cec57670de0b6b3a7640000825f81518110610cdf57610cdf61162e565b6020026020010181815250505b600101610c88565b505f600a546001600160401b03811115610d1057610d1061161a565b604051908082528060200260200182016040528015610d39578160200160208202803683370190505b5090505f5b6001600a54610d4d91906116eb565b811015610d7a5783828281518110610d6757610d6761162e565b6020908102919091010152600101610d3e565b5060025460405163095ea7b360e01b815273013e138ef6008ae5fdfde29700e3f2bc61d21e3a6004820152602481018d90525f916001600160a01b03169063095ea7b3906044016020604051808303815f875af1158015610ddd573d5f803e3d5ffd5b505050506040513d601f19601f82011682018060405250810190610e0191906117b0565b5060035460405163095ea7b360e01b815273013e138ef6008ae5fdfde29700e3f2bc61d21e3a6004820152602481018d90526001600160a01b039091169063095ea7b3906044016020604051808303815f875af1158015610e64573d5f803e3d5ffd5b505050506040513d601f19601f82011682018060405250810190610e8891906117b0565b50604080516101e0810182527378c1b0c915c4faa5fffa6cabf0219da63d7f4cb8815273201eba5cc46d216ce6dc03f6a759e8e766e956ae6020820152600b5461ffff1691810191909152606081018d9052608081018c905260a081018b905260c081018a905260e0810188905261010081018290526101208101869052610140810184905261016081018390523061018082018190526101a08201525f906101c08101610f384261012c6116d8565b90526005546040516351e3938d60e11b81529192506001600160a01b03169063a3c7271a90610f6b90849060040161185d565b5f604051808303815f875af1158015610f86573d5f803e3d5ffd5b505050506040513d5f823e601f3d908101601f19168201604052610fad9190810190611a1f565b50505060019a909a555050600b805462ff00001916905550505050505050505050505050565b60048054604080516336f997b760e21b815290515f9384936001600160a01b03169263dbe65edc92818301926020928290030181865afa158015611019573d5f803e3d5ffd5b505050506040513d601f19601f8201168201806040525081019061103d91906117cf565b62ffffff1692915050565b6002546040516370a0823160e01b81523060048201525f916001600160a01b0316906370a0823190602401602060405180830381865afa15801561108e573d5f803e3d5ffd5b505050506040513d601f19601f820116820180604052508101906110b291906116fe565b6003546040516370a0823160e01b81523060048201529192505f916001600160a01b03909116906370a0823190602401602060405180830381865afa1580156110fd573d5f803e3d5ffd5b505050506040513d601f19601f8201168201806040525081019061112191906116fe565b60048054604080516336f997b760e21b815290519394505f93849384936001600160a01b03169263dbe65edc92818301926020928290030181865afa15801561116c573d5f803e3d5ffd5b505050506040513d601f19601f8201168201806040525081019061119091906117cf565b600a5490915062ffffff82169081905f906001600160401b038111156111b8576111b861161a565b6040519080825280602002602001820160405280156111e1578160200160208202803683370190505b5090505f5b6001600a546111f591906116eb565b81101561122d57806112078185611817565b8383815181106112195761121961162e565b6020908102919091010152506001016111e6565b505f600a54670de0b6b3a7640000611245919061183e565b90505f600a546001600160401b038111156112625761126261161a565b60405190808252806020026020018201604052801561128b578160200160208202803683370190505b5090505f5b6001600a5461129f91906116eb565b8110156112cc57828282815181106112b9576112b961162e565b6020908102919091010152600101611290565b505f600a546001600160401b038111156112e8576112e861161a565b604051908082528060200260200182016040528015611311578160200160208202803683370190505b5090505f5b6001600a5461132591906116eb565b811015611352575f82828151811061133f5761133f61162e565b6020908102919091010152600101611316565b50670de0b6b3a7640000815f8151811061136e5761136e61162e565b602090810291909101015260025460405163095ea7b360e01b815273013e138ef6008ae5fdfde29700e3f2bc61d21e3a6004820152602481018d90525f916001600160a01b03169063095ea7b3906044016020604051808303815f875af11580156113db573d5f803e3d5ffd5b505050506040513d601f19601f820116820180604052508101906113ff91906117b0565b5060035460405163095ea7b360e01b815273013e138ef6008ae5fdfde29700e3f2bc61d21e3a6004820152602481018d90526001600160a01b039091169063095ea7b3906044016020604051808303815f875af1158015611462573d5f803e3d5ffd5b505050506040513d601f19601f8201168201806040525081019061148691906117b0565b50604080516101e0810182527378c1b0c915c4faa5fffa6cabf0219da63d7f4cb8815273201eba5cc46d216ce6dc03f6a759e8e766e956ae6020820152600b5461ffff1691810191909152606081018d9052608081018c905260a081018b905260c081018a905260e0810188905261010081018290526101208101869052610140810184905261016081018390523061018082018190526101a08201525f906101c081016115364261012c6116d8565b90526005546040516351e3938d60e11b81529192506001600160a01b03169063a3c7271a9061156990849060040161185d565b5f604051808303815f875af1158015611584573d5f803e3d5ffd5b505050506040513d5f823e601f3d908101601f191682016040526115ab9190810190611a1f565b50505060019a909a555050600b805462ff000019166201000017905550505050505050505050505050565b5f602082840312156115e6575f80fd5b5035919050565b5f602082840312156115fd575f80fd5b81356001600160a01b0381168114611613575f80fd5b9392505050565b634e487b7160e01b5f52604160045260245ffd5b634e487b7160e01b5f52603260045260245ffd5b5f8151808452602084019350602083015f5b82811015611672578151865260209586019590910190600101611654565b5093949350505050565b6001600160a01b03831681526040602082018190525f9061169f90830184611642565b949350505050565b634e487b7160e01b5f52601160045260245ffd5b80820281158282048414176116d2576116d26116a7565b92915050565b808201808211156116d2576116d26116a7565b818103818111156116d2576116d26116a7565b5f6020828403121561170e575f80fd5b5051919050565b6001600160a01b038a811682528916602082015261ffff88166040820152606081018790526080810186905261012060a082018190525f9061175990830187611642565b82810360c084015261176b8187611642565b6001600160a01b039590951660e084015250506101000152979650505050505050565b5f806040838503121561179f575f80fd5b505080516020909101519092909150565b5f602082840312156117c0575f80fd5b81518015158114611613575f80fd5b5f602082840312156117df575f80fd5b815162ffffff81168114611613575f80fd5b8181035f831280158383131683831282161715611810576118106116a7565b5092915050565b8082018281125f831280158216821582161715611836576118366116a7565b505092915050565b5f8261185857634e487b7160e01b5f52601260045260245ffd5b500490565b602081526118776020820183516001600160a01b03169052565b5f602083015161189260408401826001600160a01b03169052565b506040830151606083015260608301516080830152608083015160a083015260a083015160c083015260c083015160e083015260e08301516101008301526101008301516101208301526101208301516101e06101408401526118f9610200840182611642565b9050610140840151601f19848303016101608501526119188282611642565b915050610160840151601f19848303016101808501526119388282611642565b9150506101808401516119576101a08501826001600160a01b03169052565b506101a08401516001600160a01b0381166101c0850152506101c08401516101e08401528091505092915050565b5f82601f830112611994575f80fd5b81516001600160401b038111156119ad576119ad61161a565b8060051b604051601f19603f83011681018181106001600160401b03821117156119d9576119d961161a565b6040529182526020818501810192908101868411156119f6575f80fd5b6020860192505b83831015611a155782518152602092830192016119fd565b5095945050505050565b5f805f805f8060c08789031215611a34575f80fd5b86516020880151604089015160608a015160808b0151939950919750955093506001600160401b03811115611a67575f80fd5b611a7389828a01611985565b92505060a08701516001600160401b03811115611a8e575f80fd5b611a9a89828a01611985565b915050929550929550929556fea2646970667358221220d262865f213280719caa8982bbfff935a2cfc7f493175aefbb0319981a598cba64736f6c634300081a0033",
			"opcodes": "PUSH1 0x80 PUSH1 0x40 MSTORE PUSH1 0x2 DUP1 SLOAD PUSH1 0x1 PUSH1 0x1 PUSH1 0xA0 SHL SUB NOT SWAP1 DUP2 AND PUSH20 0x78C1B0C915C4FAA5FFFA6CABF0219DA63D7F4CB8 OR SWAP1 SWAP2 SSTORE PUSH1 0x3 DUP1 SLOAD DUP3 AND PUSH20 0x201EBA5CC46D216CE6DC03F6A759E8E766E956AE OR SWAP1 SSTORE PUSH1 0x4 DUP1 SLOAD DUP3 AND PUSH20 0xF6C9020C9E915808481757779EDB53DACEAE2415 OR SWAP1 SSTORE PUSH1 0x5 DUP1 SLOAD DUP3 AND PUSH20 0x13E138EF6008AE5FDFDE29700E3F2BC61D21E3A OR SWAP1 SSTORE PUSH1 0x6 DUP1 SLOAD DUP3 AND PUSH20 0x8A62EB0EF6DBE762774ABF5E18F49671559285B OR SWAP1 SSTORE PUSH1 0x7 DUP1 SLOAD DUP3 AND PUSH20 0x4515A45337F461A11FF0FE8ABF3C606AE5DC00C9 OR SWAP1 SSTORE PUSH1 0x8 DUP1 SLOAD SWAP1 SWAP2 AND PUSH20 0xEAEE7EE68874218C3558B40063C42B82D3E7232A OR SWAP1 SSTORE PUSH1 0xB DUP1 SLOAD PUSH2 0xFFFF NOT AND PUSH1 0xF OR SWAP1 SSTORE CALLVALUE DUP1 ISZERO PUSH2 0xFB JUMPI PUSH0 DUP1 REVERT JUMPDEST POP PUSH0 DUP1 SLOAD PUSH1 0x1 PUSH1 0x1 PUSH1 0xA0 SHL SUB NOT AND CALLER OR SWAP1 SSTORE PUSH2 0x1ADD DUP1 PUSH2 0x11A PUSH0 CODECOPY PUSH0 RETURN INVALID PUSH1 0x80 PUSH1 0x40 MSTORE PUSH1 0x4 CALLDATASIZE LT PUSH2 0xE4 JUMPI PUSH0 CALLDATALOAD PUSH1 0xE0 SHR DUP1 PUSH4 0x8CA18187 GT PUSH2 0x87 JUMPI DUP1 PUSH4 0xB2A65F1C GT PUSH2 0x57 JUMPI DUP1 PUSH4 0xB2A65F1C EQ PUSH2 0x1B8 JUMPI DUP1 PUSH4 0xBE5449B8 EQ PUSH2 0x1E7 JUMPI DUP1 PUSH4 0xECBD4533 EQ PUSH2 0x1FC JUMPI DUP1 PUSH4 0xF5001870 EQ PUSH2 0x210 JUMPI PUSH0 DUP1 REVERT JUMPDEST DUP1 PUSH4 0x8CA18187 EQ PUSH2 0x15E JUMPI DUP1 PUSH4 0x8CBC5CFF EQ PUSH2 0x166 JUMPI DUP1 PUSH4 0x941B380B EQ PUSH2 0x179 JUMPI DUP1 PUSH4 0xAB47EBC6 EQ PUSH2 0x1B0 JUMPI PUSH0 DUP1 REVERT JUMPDEST DUP1 PUSH4 0x25475A14 GT PUSH2 0xC2 JUMPI DUP1 PUSH4 0x25475A14 EQ PUSH2 0x133 JUMPI DUP1 PUSH4 0x274E808B EQ PUSH2 0x13B JUMPI DUP1 PUSH4 0x70BB45B3 EQ PUSH2 0x14E JUMPI DUP1 PUSH4 0x78EE22DE EQ PUSH2 0x156 JUMPI PUSH0 DUP1 REVERT JUMPDEST DUP1 PUSH4 0x1612944E EQ PUSH2 0xE8 JUMPI DUP1 PUSH4 0x17CED34B EQ PUSH2 0xFD JUMPI DUP1 PUSH4 0x1C75CFB4 EQ PUSH2 0x110 JUMPI JUMPDEST PUSH0 DUP1 REVERT JUMPDEST PUSH2 0xFB PUSH2 0xF6 CALLDATASIZE PUSH1 0x4 PUSH2 0x15D6 JUMP JUMPDEST PUSH2 0x218 JUMP JUMPDEST STOP JUMPDEST PUSH2 0xFB PUSH2 0x10B CALLDATASIZE PUSH1 0x4 PUSH2 0x15D6 JUMP JUMPDEST PUSH2 0x274 JUMP JUMPDEST CALLVALUE DUP1 ISZERO PUSH2 0x11B JUMPI PUSH0 DUP1 REVERT JUMPDEST POP PUSH1 0x1 SLOAD JUMPDEST PUSH1 0x40 MLOAD SWAP1 DUP2 MSTORE PUSH1 0x20 ADD JUMPDEST PUSH1 0x40 MLOAD DUP1 SWAP2 SUB SWAP1 RETURN JUMPDEST PUSH2 0xFB PUSH2 0x318 JUMP JUMPDEST PUSH2 0xFB PUSH2 0x149 CALLDATASIZE PUSH1 0x4 PUSH2 0x15D6 JUMP JUMPDEST PUSH2 0x3E4 JUMP JUMPDEST PUSH2 0xFB PUSH2 0x43B JUMP JUMPDEST PUSH2 0xFB PUSH2 0x51C JUMP JUMPDEST PUSH2 0xFB PUSH2 0x73E JUMP JUMPDEST PUSH2 0xFB PUSH2 0x174 CALLDATASIZE PUSH1 0x4 PUSH2 0x15ED JUMP JUMPDEST PUSH2 0x945 JUMP JUMPDEST CALLVALUE DUP1 ISZERO PUSH2 0x184 JUMPI PUSH0 DUP1 REVERT JUMPDEST POP PUSH1 0x9 SLOAD PUSH2 0x198 SWAP1 PUSH1 0x1 PUSH1 0x1 PUSH1 0xA0 SHL SUB AND DUP2 JUMP JUMPDEST PUSH1 0x40 MLOAD PUSH1 0x1 PUSH1 0x1 PUSH1 0xA0 SHL SUB SWAP1 SWAP2 AND DUP2 MSTORE PUSH1 0x20 ADD PUSH2 0x12A JUMP JUMPDEST PUSH2 0xFB PUSH2 0xA34 JUMP JUMPDEST CALLVALUE DUP1 ISZERO PUSH2 0x1C3 JUMPI PUSH0 DUP1 REVERT JUMPDEST POP PUSH1 0xB SLOAD PUSH2 0x1D7 SWAP1 PUSH3 0x10000 SWAP1 DIV PUSH1 0xFF AND DUP2 JUMP JUMPDEST PUSH1 0x40 MLOAD SWAP1 ISZERO ISZERO DUP2 MSTORE PUSH1 0x20 ADD PUSH2 0x12A JUMP JUMPDEST CALLVALUE DUP1 ISZERO PUSH2 0x1F2 JUMPI PUSH0 DUP1 REVERT JUMPDEST POP PUSH2 0x120 PUSH1 0xA SLOAD DUP2 JUMP JUMPDEST CALLVALUE DUP1 ISZERO PUSH2 0x207 JUMPI PUSH0 DUP1 REVERT JUMPDEST POP PUSH2 0x120 PUSH2 0xFD3 JUMP JUMPDEST PUSH2 0xFB PUSH2 0x1048 JUMP JUMPDEST PUSH0 SLOAD PUSH1 0x1 PUSH1 0x1 PUSH1 0xA0 SHL SUB AND CALLER EQ PUSH2 0x26F JUMPI PUSH1 0x40 MLOAD PUSH3 0x461BCD PUSH1 0xE5 SHL DUP2 MSTORE PUSH1 0x20 PUSH1 0x4 DUP3 ADD MSTORE PUSH1 0x16 PUSH1 0x24 DUP3 ADD MSTORE PUSH22 0x4F6E6C79206F776E65722063616E20646F2074686973 PUSH1 0x50 SHL PUSH1 0x44 DUP3 ADD MSTORE PUSH1 0x64 ADD JUMPDEST PUSH1 0x40 MLOAD DUP1 SWAP2 SUB SWAP1 REVERT JUMPDEST PUSH1 0xA SSTORE JUMP JUMPDEST PUSH1 0x40 DUP1 MLOAD PUSH1 0x1 DUP1 DUP3 MSTORE DUP2 DUP4 ADD SWAP1 SWAP3 MSTORE PUSH0 SWAP1 DUP3 PUSH1 0x20 DUP1 DUP4 ADD SWAP1 DUP1 CALLDATASIZE DUP4 CALLDATACOPY ADD SWAP1 POP POP SWAP1 POP DUP3 DUP2 PUSH0 DUP2 MLOAD DUP2 LT PUSH2 0x2A9 JUMPI PUSH2 0x2A9 PUSH2 0x162E JUMP JUMPDEST PUSH1 0x20 SWAP1 DUP2 MUL SWAP2 SWAP1 SWAP2 ADD ADD MSTORE PUSH1 0x6 SLOAD PUSH1 0x40 MLOAD PUSH4 0x8AE304F PUSH1 0xE3 SHL DUP2 MSTORE PUSH1 0x1 PUSH1 0x1 PUSH1 0xA0 SHL SUB SWAP1 SWAP2 AND SWAP1 PUSH4 0x45718278 SWAP1 PUSH2 0x2E6 SWAP1 ADDRESS SWAP1 DUP6 SWAP1 PUSH1 0x4 ADD PUSH2 0x167C JUMP JUMPDEST PUSH0 PUSH1 0x40 MLOAD DUP1 DUP4 SUB DUP2 PUSH0 DUP8 DUP1 EXTCODESIZE ISZERO DUP1 ISZERO PUSH2 0x2FD JUMPI PUSH0 DUP1 REVERT JUMPDEST POP GAS CALL ISZERO DUP1 ISZERO PUSH2 0x30F JUMPI RETURNDATASIZE PUSH0 DUP1 RETURNDATACOPY RETURNDATASIZE PUSH0 REVERT JUMPDEST POP POP POP POP POP POP POP JUMP JUMPDEST PUSH1 0x4 DUP1 SLOAD PUSH1 0x5 SLOAD PUSH1 0x40 MLOAD PUSH4 0x39612D95 PUSH1 0xE2 SHL DUP2 MSTORE PUSH1 0x1 PUSH1 0x1 PUSH1 0xA0 SHL SUB SWAP2 DUP3 AND SWAP4 DUP2 ADD SWAP4 SWAP1 SWAP4 MSTORE PUSH1 0x1 PUSH1 0x24 DUP5 ADD MSTORE AND SWAP1 PUSH4 0xE584B654 SWAP1 PUSH1 0x44 ADD PUSH0 PUSH1 0x40 MLOAD DUP1 DUP4 SUB DUP2 PUSH0 DUP8 DUP1 EXTCODESIZE ISZERO DUP1 ISZERO PUSH2 0x367 JUMPI PUSH0 DUP1 REVERT JUMPDEST POP GAS CALL ISZERO DUP1 ISZERO PUSH2 0x379 JUMPI RETURNDATASIZE PUSH0 DUP1 RETURNDATACOPY RETURNDATASIZE PUSH0 REVERT JUMPDEST POP POP PUSH1 0x4 DUP1 SLOAD PUSH1 0x6 SLOAD PUSH1 0x40 MLOAD PUSH4 0x39612D95 PUSH1 0xE2 SHL DUP2 MSTORE PUSH1 0x1 PUSH1 0x1 PUSH1 0xA0 SHL SUB SWAP2 DUP3 AND SWAP4 DUP2 ADD SWAP4 SWAP1 SWAP4 MSTORE PUSH1 0x1 PUSH1 0x24 DUP5 ADD MSTORE AND SWAP3 POP PUSH4 0xE584B654 SWAP2 POP PUSH1 0x44 ADD PUSH0 PUSH1 0x40 MLOAD DUP1 DUP4 SUB DUP2 PUSH0 DUP8 DUP1 EXTCODESIZE ISZERO DUP1 ISZERO PUSH2 0x3CC JUMPI PUSH0 DUP1 REVERT JUMPDEST POP GAS CALL ISZERO DUP1 ISZERO PUSH2 0x3DE JUMPI RETURNDATASIZE PUSH0 DUP1 RETURNDATACOPY RETURNDATASIZE PUSH0 REVERT JUMPDEST POP POP POP POP JUMP JUMPDEST PUSH0 SLOAD PUSH1 0x1 PUSH1 0x1 PUSH1 0xA0 SHL SUB AND CALLER EQ PUSH2 0x436 JUMPI PUSH1 0x40 MLOAD PUSH3 0x461BCD PUSH1 0xE5 SHL DUP2 MSTORE PUSH1 0x20 PUSH1 0x4 DUP3 ADD MSTORE PUSH1 0x16 PUSH1 0x24 DUP3 ADD MSTORE PUSH22 0x4F6E6C79206F776E65722063616E20646F2074686973 PUSH1 0x50 SHL PUSH1 0x44 DUP3 ADD MSTORE PUSH1 0x64 ADD PUSH2 0x266 JUMP JUMPDEST PUSH1 0x1 SSTORE JUMP JUMPDEST PUSH0 PUSH1 0xA SLOAD PUSH1 0x2 PUSH2 0x44B SWAP2 SWAP1 PUSH2 0x16BB JUMP JUMPDEST PUSH2 0x456 SWAP1 PUSH1 0x1 PUSH2 0x16D8 JUMP JUMPDEST SWAP1 POP PUSH0 PUSH1 0xA SLOAD PUSH1 0x1 SLOAD PUSH2 0x469 SWAP2 SWAP1 PUSH2 0x16EB JUMP JUMPDEST SWAP1 POP PUSH0 DUP3 PUSH1 0x1 PUSH1 0x1 PUSH1 0x40 SHL SUB DUP2 GT ISZERO PUSH2 0x484 JUMPI PUSH2 0x484 PUSH2 0x161A JUMP JUMPDEST PUSH1 0x40 MLOAD SWAP1 DUP1 DUP3 MSTORE DUP1 PUSH1 0x20 MUL PUSH1 0x20 ADD DUP3 ADD PUSH1 0x40 MSTORE DUP1 ISZERO PUSH2 0x4AD JUMPI DUP2 PUSH1 0x20 ADD PUSH1 0x20 DUP3 MUL DUP1 CALLDATASIZE DUP4 CALLDATACOPY ADD SWAP1 POP JUMPDEST POP SWAP1 POP PUSH0 JUMPDEST DUP4 DUP2 LT ISZERO PUSH2 0x4E9 JUMPI PUSH2 0x4C4 DUP2 DUP5 PUSH2 0x16D8 JUMP JUMPDEST DUP3 DUP3 DUP2 MLOAD DUP2 LT PUSH2 0x4D6 JUMPI PUSH2 0x4D6 PUSH2 0x162E JUMP JUMPDEST PUSH1 0x20 SWAP1 DUP2 MUL SWAP2 SWAP1 SWAP2 ADD ADD MSTORE PUSH1 0x1 ADD PUSH2 0x4B2 JUMP JUMPDEST POP PUSH1 0x6 SLOAD PUSH1 0x40 MLOAD PUSH4 0x8AE304F PUSH1 0xE3 SHL DUP2 MSTORE PUSH1 0x1 PUSH1 0x1 PUSH1 0xA0 SHL SUB SWAP1 SWAP2 AND SWAP1 PUSH4 0x45718278 SWAP1 PUSH2 0x2E6 SWAP1 ADDRESS SWAP1 DUP6 SWAP1 PUSH1 0x4 ADD PUSH2 0x167C JUMP JUMPDEST PUSH0 DUP1 PUSH1 0xA SLOAD PUSH1 0x1 PUSH1 0x1 PUSH1 0x40 SHL SUB DUP2 GT ISZERO PUSH2 0x538 JUMPI PUSH2 0x538 PUSH2 0x161A JUMP JUMPDEST PUSH1 0x40 MLOAD SWAP1 DUP1 DUP3 MSTORE DUP1 PUSH1 0x20 MUL PUSH1 0x20 ADD DUP3 ADD PUSH1 0x40 MSTORE DUP1 ISZERO PUSH2 0x561 JUMPI DUP2 PUSH1 0x20 ADD PUSH1 0x20 DUP3 MUL DUP1 CALLDATASIZE DUP4 CALLDATACOPY ADD SWAP1 POP JUMPDEST POP SWAP1 POP PUSH0 PUSH1 0xA SLOAD PUSH1 0x1 PUSH1 0x1 PUSH1 0x40 SHL SUB DUP2 GT ISZERO PUSH2 0x57F JUMPI PUSH2 0x57F PUSH2 0x161A JUMP JUMPDEST PUSH1 0x40 MLOAD SWAP1 DUP1 DUP3 MSTORE DUP1 PUSH1 0x20 MUL PUSH1 0x20 ADD DUP3 ADD PUSH1 0x40 MSTORE DUP1 ISZERO PUSH2 0x5A8 JUMPI DUP2 PUSH1 0x20 ADD PUSH1 0x20 DUP3 MUL DUP1 CALLDATASIZE DUP4 CALLDATACOPY ADD SWAP1 POP JUMPDEST POP SWAP1 POP PUSH0 JUMPDEST PUSH1 0x1 PUSH1 0xA SLOAD PUSH2 0x5BC SWAP2 SWAP1 PUSH2 0x16EB JUMP JUMPDEST DUP2 LT ISZERO PUSH2 0x6A6 JUMPI PUSH1 0x4 SLOAD PUSH1 0x1 SLOAD PUSH1 0x1 PUSH1 0x1 PUSH1 0xA0 SHL SUB SWAP1 SWAP2 AND SWAP1 PUSH3 0xFDD58E SWAP1 ADDRESS SWAP1 PUSH2 0x5E7 SWAP1 DUP6 SWAP1 PUSH2 0x16D8 JUMP JUMPDEST PUSH1 0x40 MLOAD PUSH1 0x1 PUSH1 0x1 PUSH1 0xE0 SHL SUB NOT PUSH1 0xE0 DUP6 SWAP1 SHL AND DUP2 MSTORE PUSH1 0x1 PUSH1 0x1 PUSH1 0xA0 SHL SUB SWAP1 SWAP3 AND PUSH1 0x4 DUP4 ADD MSTORE PUSH1 0x24 DUP3 ADD MSTORE PUSH1 0x44 ADD PUSH1 0x20 PUSH1 0x40 MLOAD DUP1 DUP4 SUB DUP2 DUP7 GAS STATICCALL ISZERO DUP1 ISZERO PUSH2 0x62E JUMPI RETURNDATASIZE PUSH0 DUP1 RETURNDATACOPY RETURNDATASIZE PUSH0 REVERT JUMPDEST POP POP POP POP PUSH1 0x40 MLOAD RETURNDATASIZE PUSH1 0x1F NOT PUSH1 0x1F DUP3 ADD AND DUP3 ADD DUP1 PUSH1 0x40 MSTORE POP DUP2 ADD SWAP1 PUSH2 0x652 SWAP2 SWAP1 PUSH2 0x16FE JUMP JUMPDEST SWAP4 POP DUP4 DUP4 DUP3 DUP2 MLOAD DUP2 LT PUSH2 0x667 JUMPI PUSH2 0x667 PUSH2 0x162E JUMP JUMPDEST PUSH1 0x20 MUL PUSH1 0x20 ADD ADD DUP2 DUP2 MSTORE POP POP DUP1 PUSH1 0x1 SLOAD PUSH2 0x681 SWAP2 SWAP1 PUSH2 0x16D8 JUMP JUMPDEST DUP3 DUP3 DUP2 MLOAD DUP2 LT PUSH2 0x693 JUMPI PUSH2 0x693 PUSH2 0x162E JUMP JUMPDEST PUSH1 0x20 SWAP1 DUP2 MUL SWAP2 SWAP1 SWAP2 ADD ADD MSTORE PUSH1 0x1 ADD PUSH2 0x5AD JUMP JUMPDEST POP PUSH1 0x5 SLOAD PUSH1 0x2 SLOAD PUSH1 0x3 SLOAD PUSH1 0xB SLOAD PUSH1 0x40 MLOAD PUSH4 0x6110ACDB PUSH1 0xE1 SHL DUP2 MSTORE PUSH1 0x1 PUSH1 0x1 PUSH1 0xA0 SHL SUB SWAP5 DUP6 AND SWAP5 PUSH4 0xC22159B6 SWAP5 PUSH2 0x6F8 SWAP5 SWAP1 DUP3 AND SWAP4 SWAP2 AND SWAP2 PUSH2 0xFFFF SWAP1 SWAP2 AND SWAP1 PUSH0 SWAP1 DUP2 SWAP1 DUP10 SWAP1 DUP12 SWAP1 ADDRESS SWAP1 TIMESTAMP SWAP1 PUSH1 0x4 ADD PUSH2 0x1715 JUMP JUMPDEST PUSH1 0x40 DUP1 MLOAD DUP1 DUP4 SUB DUP2 PUSH0 DUP8 GAS CALL ISZERO DUP1 ISZERO PUSH2 0x713 JUMPI RETURNDATASIZE PUSH0 DUP1 RETURNDATACOPY RETURNDATASIZE PUSH0 REVERT JUMPDEST POP POP POP POP PUSH1 0x40 MLOAD RETURNDATASIZE PUSH1 0x1F NOT PUSH1 0x1F DUP3 ADD AND DUP3 ADD DUP1 PUSH1 0x40 MSTORE POP DUP2 ADD SWAP1 PUSH2 0x737 SWAP2 SWAP1 PUSH2 0x178E JUMP JUMPDEST POP POP POP POP POP JUMP JUMPDEST PUSH0 DUP1 PUSH1 0xA SLOAD PUSH1 0x1 PUSH1 0x1 PUSH1 0x40 SHL SUB DUP2 GT ISZERO PUSH2 0x75A JUMPI PUSH2 0x75A PUSH2 0x161A JUMP JUMPDEST PUSH1 0x40 MLOAD SWAP1 DUP1 DUP3 MSTORE DUP1 PUSH1 0x20 MUL PUSH1 0x20 ADD DUP3 ADD PUSH1 0x40 MSTORE DUP1 ISZERO PUSH2 0x783 JUMPI DUP2 PUSH1 0x20 ADD PUSH1 0x20 DUP3 MUL DUP1 CALLDATASIZE DUP4 CALLDATACOPY ADD SWAP1 POP JUMPDEST POP SWAP1 POP PUSH0 JUMPDEST PUSH1 0x1 PUSH1 0xA SLOAD PUSH2 0x797 SWAP2 SWAP1 PUSH2 0x16EB JUMP JUMPDEST DUP2 LT ISZERO PUSH2 0x855 JUMPI PUSH1 0x4 SLOAD PUSH1 0x1 SLOAD PUSH1 0x1 PUSH1 0x1 PUSH1 0xA0 SHL SUB SWAP1 SWAP2 AND SWAP1 PUSH3 0xFDD58E SWAP1 ADDRESS SWAP1 PUSH2 0x7C2 SWAP1 DUP6 SWAP1 PUSH2 0x16EB JUMP JUMPDEST PUSH1 0x40 MLOAD PUSH1 0x1 PUSH1 0x1 PUSH1 0xE0 SHL SUB NOT PUSH1 0xE0 DUP6 SWAP1 SHL AND DUP2 MSTORE PUSH1 0x1 PUSH1 0x1 PUSH1 0xA0 SHL SUB SWAP1 SWAP3 AND PUSH1 0x4 DUP4 ADD MSTORE PUSH1 0x24 DUP3 ADD MSTORE PUSH1 0x44 ADD PUSH1 0x20 PUSH1 0x40 MLOAD DUP1 DUP4 SUB DUP2 DUP7 GAS STATICCALL ISZERO DUP1 ISZERO PUSH2 0x809 JUMPI RETURNDATASIZE PUSH0 DUP1 RETURNDATACOPY RETURNDATASIZE PUSH0 REVERT JUMPDEST POP POP POP POP PUSH1 0x40 MLOAD RETURNDATASIZE PUSH1 0x1F NOT PUSH1 0x1F DUP3 ADD AND DUP3 ADD DUP1 PUSH1 0x40 MSTORE POP DUP2 ADD SWAP1 PUSH2 0x82D SWAP2 SWAP1 PUSH2 0x16FE JUMP JUMPDEST SWAP3 POP DUP3 DUP3 DUP3 DUP2 MLOAD DUP2 LT PUSH2 0x842 JUMPI PUSH2 0x842 PUSH2 0x162E JUMP JUMPDEST PUSH1 0x20 SWAP1 DUP2 MUL SWAP2 SWAP1 SWAP2 ADD ADD MSTORE PUSH1 0x1 ADD PUSH2 0x788 JUMP JUMPDEST POP PUSH0 PUSH1 0xA SLOAD PUSH1 0x1 PUSH1 0x1 PUSH1 0x40 SHL SUB DUP2 GT ISZERO PUSH2 0x871 JUMPI PUSH2 0x871 PUSH2 0x161A JUMP JUMPDEST PUSH1 0x40 MLOAD SWAP1 DUP1 DUP3 MSTORE DUP1 PUSH1 0x20 MUL PUSH1 0x20 ADD DUP3 ADD PUSH1 0x40 MSTORE DUP1 ISZERO PUSH2 0x89A JUMPI DUP2 PUSH1 0x20 ADD PUSH1 0x20 DUP3 MUL DUP1 CALLDATASIZE DUP4 CALLDATACOPY ADD SWAP1 POP JUMPDEST POP SWAP1 POP PUSH0 JUMPDEST PUSH1 0x1 PUSH1 0xA SLOAD PUSH2 0x8AE SWAP2 SWAP1 PUSH2 0x16EB JUMP JUMPDEST DUP2 LT ISZERO PUSH2 0x8E8 JUMPI DUP1 PUSH1 0x1 SLOAD PUSH2 0x8C3 SWAP2 SWAP1 PUSH2 0x16EB JUMP JUMPDEST DUP3 DUP3 DUP2 MLOAD DUP2 LT PUSH2 0x8D5 JUMPI PUSH2 0x8D5 PUSH2 0x162E JUMP JUMPDEST PUSH1 0x20 SWAP1 DUP2 MUL SWAP2 SWAP1 SWAP2 ADD ADD MSTORE PUSH1 0x1 ADD PUSH2 0x89F JUMP JUMPDEST POP PUSH1 0x5 SLOAD PUSH1 0x2 SLOAD PUSH1 0x3 SLOAD PUSH1 0xB SLOAD PUSH1 0x1 PUSH1 0x1 PUSH1 0xA0 SHL SUB SWAP4 DUP5 AND SWAP4 PUSH4 0xC22159B6 SWAP4 DUP2 AND SWAP3 AND SWAP1 PUSH2 0xFFFF AND PUSH0 DUP1 DUP8 DUP10 ADDRESS PUSH2 0x921 TIMESTAMP PUSH2 0x12C PUSH2 0x16D8 JUMP JUMPDEST PUSH1 0x40 MLOAD DUP11 PUSH4 0xFFFFFFFF AND PUSH1 0xE0 SHL DUP2 MSTORE PUSH1 0x4 ADD PUSH2 0x6F8 SWAP10 SWAP9 SWAP8 SWAP7 SWAP6 SWAP5 SWAP4 SWAP3 SWAP2 SWAP1 PUSH2 0x1715 JUMP JUMPDEST PUSH1 0x40 MLOAD PUSH4 0x70A08231 PUSH1 0xE0 SHL DUP2 MSTORE ADDRESS PUSH1 0x4 DUP3 ADD MSTORE PUSH0 SWAP1 PUSH1 0x1 PUSH1 0x1 PUSH1 0xA0 SHL SUB DUP4 AND SWAP1 PUSH4 0x70A08231 SWAP1 PUSH1 0x24 ADD PUSH1 0x20 PUSH1 0x40 MLOAD DUP1 DUP4 SUB DUP2 DUP7 GAS STATICCALL ISZERO DUP1 ISZERO PUSH2 0x989 JUMPI RETURNDATASIZE PUSH0 DUP1 RETURNDATACOPY RETURNDATASIZE PUSH0 REVERT JUMPDEST POP POP POP POP PUSH1 0x40 MLOAD RETURNDATASIZE PUSH1 0x1F NOT PUSH1 0x1F DUP3 ADD AND DUP3 ADD DUP1 PUSH1 0x40 MSTORE POP DUP2 ADD SWAP1 PUSH2 0x9AD SWAP2 SWAP1 PUSH2 0x16FE JUMP JUMPDEST PUSH1 0x40 MLOAD PUSH4 0xA9059CBB PUSH1 0xE0 SHL DUP2 MSTORE PUSH20 0xB9BC785FD2BEA7BF9CB81065CFABA2FC5D0286B PUSH1 0x4 DUP3 ADD DUP2 SWAP1 MSTORE PUSH1 0x24 DUP3 ADD DUP4 SWAP1 MSTORE SWAP2 SWAP3 POP PUSH1 0x1 PUSH1 0x1 PUSH1 0xA0 SHL SUB DUP5 AND SWAP1 PUSH4 0xA9059CBB SWAP1 PUSH1 0x44 ADD PUSH1 0x20 PUSH1 0x40 MLOAD DUP1 DUP4 SUB DUP2 PUSH0 DUP8 GAS CALL ISZERO DUP1 ISZERO PUSH2 0xA10 JUMPI RETURNDATASIZE PUSH0 DUP1 RETURNDATACOPY RETURNDATASIZE PUSH0 REVERT JUMPDEST POP POP POP POP PUSH1 0x40 MLOAD RETURNDATASIZE PUSH1 0x1F NOT PUSH1 0x1F DUP3 ADD AND DUP3 ADD DUP1 PUSH1 0x40 MSTORE POP DUP2 ADD SWAP1 PUSH2 0x3DE SWAP2 SWAP1 PUSH2 0x17B0 JUMP JUMPDEST PUSH1 0x2 SLOAD PUSH1 0x40 MLOAD PUSH4 0x70A08231 PUSH1 0xE0 SHL DUP2 MSTORE ADDRESS PUSH1 0x4 DUP3 ADD MSTORE PUSH0 SWAP2 PUSH1 0x1 PUSH1 0x1 PUSH1 0xA0 SHL SUB AND SWAP1 PUSH4 0x70A08231 SWAP1 PUSH1 0x24 ADD PUSH1 0x20 PUSH1 0x40 MLOAD DUP1 DUP4 SUB DUP2 DUP7 GAS STATICCALL ISZERO DUP1 ISZERO PUSH2 0xA7A JUMPI RETURNDATASIZE PUSH0 DUP1 RETURNDATACOPY RETURNDATASIZE PUSH0 REVERT JUMPDEST POP POP POP POP PUSH1 0x40 MLOAD RETURNDATASIZE PUSH1 0x1F NOT PUSH1 0x1F DUP3 ADD AND DUP3 ADD DUP1 PUSH1 0x40 MSTORE POP DUP2 ADD SWAP1 PUSH2 0xA9E SWAP2 SWAP1 PUSH2 0x16FE JUMP JUMPDEST PUSH1 0x3 SLOAD PUSH1 0x40 MLOAD PUSH4 0x70A08231 PUSH1 0xE0 SHL DUP2 MSTORE ADDRESS PUSH1 0x4 DUP3 ADD MSTORE SWAP2 SWAP3 POP PUSH0 SWAP2 PUSH1 0x1 PUSH1 0x1 PUSH1 0xA0 SHL SUB SWAP1 SWAP2 AND SWAP1 PUSH4 0x70A08231 SWAP1 PUSH1 0x24 ADD PUSH1 0x20 PUSH1 0x40 MLOAD DUP1 DUP4 SUB DUP2 DUP7 GAS STATICCALL ISZERO DUP1 ISZERO PUSH2 0xAE9 JUMPI RETURNDATASIZE PUSH0 DUP1 RETURNDATACOPY RETURNDATASIZE PUSH0 REVERT JUMPDEST POP POP POP POP PUSH1 0x40 MLOAD RETURNDATASIZE PUSH1 0x1F NOT PUSH1 0x1F DUP3 ADD AND DUP3 ADD DUP1 PUSH1 0x40 MSTORE POP DUP2 ADD SWAP1 PUSH2 0xB0D SWAP2 SWAP1 PUSH2 0x16FE JUMP JUMPDEST PUSH1 0x4 DUP1 SLOAD PUSH1 0x40 DUP1 MLOAD PUSH4 0x36F997B7 PUSH1 0xE2 SHL DUP2 MSTORE SWAP1 MLOAD SWAP4 SWAP5 POP PUSH0 SWAP4 DUP5 SWAP4 DUP5 SWAP4 PUSH1 0x1 PUSH1 0x1 PUSH1 0xA0 SHL SUB AND SWAP3 PUSH4 0xDBE65EDC SWAP3 DUP2 DUP4 ADD SWAP3 PUSH1 0x20 SWAP3 DUP3 SWAP1 SUB ADD DUP2 DUP7 GAS STATICCALL ISZERO DUP1 ISZERO PUSH2 0xB58 JUMPI RETURNDATASIZE PUSH0 DUP1 RETURNDATACOPY RETURNDATASIZE PUSH0 REVERT JUMPDEST POP POP POP POP PUSH1 0x40 MLOAD RETURNDATASIZE PUSH1 0x1F NOT PUSH1 0x1F DUP3 ADD AND DUP3 ADD DUP1 PUSH1 0x40 MSTORE POP DUP2 ADD SWAP1 PUSH2 0xB7C SWAP2 SWAP1 PUSH2 0x17CF JUMP JUMPDEST PUSH1 0xA SLOAD SWAP1 SWAP2 POP PUSH3 0xFFFFFF DUP3 AND SWAP1 DUP2 SWAP1 PUSH2 0xB95 SWAP1 DUP3 PUSH2 0x17F1 JUMP JUMPDEST SWAP1 POP PUSH0 PUSH1 0xA SLOAD PUSH1 0x1 PUSH1 0x1 PUSH1 0x40 SHL SUB DUP2 GT ISZERO PUSH2 0xBB2 JUMPI PUSH2 0xBB2 PUSH2 0x161A JUMP JUMPDEST PUSH1 0x40 MLOAD SWAP1 DUP1 DUP3 MSTORE DUP1 PUSH1 0x20 MUL PUSH1 0x20 ADD DUP3 ADD PUSH1 0x40 MSTORE DUP1 ISZERO PUSH2 0xBDB JUMPI DUP2 PUSH1 0x20 ADD PUSH1 0x20 DUP3 MUL DUP1 CALLDATASIZE DUP4 CALLDATACOPY ADD SWAP1 POP JUMPDEST POP SWAP1 POP PUSH0 JUMPDEST PUSH1 0x1 PUSH1 0xA SLOAD PUSH2 0xBEF SWAP2 SWAP1 PUSH2 0x16EB JUMP JUMPDEST DUP2 LT ISZERO PUSH2 0xC25 JUMPI PUSH2 0xC00 DUP2 DUP5 PUSH2 0x1817 JUMP JUMPDEST DUP3 DUP3 DUP2 MLOAD DUP2 LT PUSH2 0xC12 JUMPI PUSH2 0xC12 PUSH2 0x162E JUMP JUMPDEST PUSH1 0x20 SWAP1 DUP2 MUL SWAP2 SWAP1 SWAP2 ADD ADD MSTORE PUSH1 0x1 ADD PUSH2 0xBE0 JUMP JUMPDEST POP PUSH0 PUSH1 0xA SLOAD PUSH8 0xDE0B6B3A7640000 PUSH2 0xC3D SWAP2 SWAP1 PUSH2 0x183E JUMP JUMPDEST SWAP1 POP PUSH0 PUSH1 0xA SLOAD PUSH1 0x1 PUSH1 0x1 PUSH1 0x40 SHL SUB DUP2 GT ISZERO PUSH2 0xC5A JUMPI PUSH2 0xC5A PUSH2 0x161A JUMP JUMPDEST PUSH1 0x40 MLOAD SWAP1 DUP1 DUP3 MSTORE DUP1 PUSH1 0x20 MUL PUSH1 0x20 ADD DUP3 ADD PUSH1 0x40 MSTORE DUP1 ISZERO PUSH2 0xC83 JUMPI DUP2 PUSH1 0x20 ADD PUSH1 0x20 DUP3 MUL DUP1 CALLDATASIZE DUP4 CALLDATACOPY ADD SWAP1 POP JUMPDEST POP SWAP1 POP PUSH0 JUMPDEST PUSH1 0x1 PUSH1 0xA SLOAD PUSH2 0xC97 SWAP2 SWAP1 PUSH2 0x16EB JUMP JUMPDEST DUP2 LT ISZERO PUSH2 0xCF4 JUMPI PUSH0 DUP3 DUP3 DUP2 MLOAD DUP2 LT PUSH2 0xCB1 JUMPI PUSH2 0xCB1 PUSH2 0x162E JUMP JUMPDEST PUSH1 0x20 MUL PUSH1 0x20 ADD ADD DUP2 DUP2 MSTORE POP POP DUP1 PUSH0 SUB PUSH2 0xCEC JUMPI PUSH8 0xDE0B6B3A7640000 DUP3 PUSH0 DUP2 MLOAD DUP2 LT PUSH2 0xCDF JUMPI PUSH2 0xCDF PUSH2 0x162E JUMP JUMPDEST PUSH1 0x20 MUL PUSH1 0x20 ADD ADD DUP2 DUP2 MSTORE POP POP JUMPDEST PUSH1 0x1 ADD PUSH2 0xC88 JUMP JUMPDEST POP PUSH0 PUSH1 0xA SLOAD PUSH1 0x1 PUSH1 0x1 PUSH1 0x40 SHL SUB DUP2 GT ISZERO PUSH2 0xD10 JUMPI PUSH2 0xD10 PUSH2 0x161A JUMP JUMPDEST PUSH1 0x40 MLOAD SWAP1 DUP1 DUP3 MSTORE DUP1 PUSH1 0x20 MUL PUSH1 0x20 ADD DUP3 ADD PUSH1 0x40 MSTORE DUP1 ISZERO PUSH2 0xD39 JUMPI DUP2 PUSH1 0x20 ADD PUSH1 0x20 DUP3 MUL DUP1 CALLDATASIZE DUP4 CALLDATACOPY ADD SWAP1 POP JUMPDEST POP SWAP1 POP PUSH0 JUMPDEST PUSH1 0x1 PUSH1 0xA SLOAD PUSH2 0xD4D SWAP2 SWAP1 PUSH2 0x16EB JUMP JUMPDEST DUP2 LT ISZERO PUSH2 0xD7A JUMPI DUP4 DUP3 DUP3 DUP2 MLOAD DUP2 LT PUSH2 0xD67 JUMPI PUSH2 0xD67 PUSH2 0x162E JUMP JUMPDEST PUSH1 0x20 SWAP1 DUP2 MUL SWAP2 SWAP1 SWAP2 ADD ADD MSTORE PUSH1 0x1 ADD PUSH2 0xD3E JUMP JUMPDEST POP PUSH1 0x2 SLOAD PUSH1 0x40 MLOAD PUSH4 0x95EA7B3 PUSH1 0xE0 SHL DUP2 MSTORE PUSH20 0x13E138EF6008AE5FDFDE29700E3F2BC61D21E3A PUSH1 0x4 DUP3 ADD MSTORE PUSH1 0x24 DUP2 ADD DUP14 SWAP1 MSTORE PUSH0 SWAP2 PUSH1 0x1 PUSH1 0x1 PUSH1 0xA0 SHL SUB AND SWAP1 PUSH4 0x95EA7B3 SWAP1 PUSH1 0x44 ADD PUSH1 0x20 PUSH1 0x40 MLOAD DUP1 DUP4 SUB DUP2 PUSH0 DUP8 GAS CALL ISZERO DUP1 ISZERO PUSH2 0xDDD JUMPI RETURNDATASIZE PUSH0 DUP1 RETURNDATACOPY RETURNDATASIZE PUSH0 REVERT JUMPDEST POP POP POP POP PUSH1 0x40 MLOAD RETURNDATASIZE PUSH1 0x1F NOT PUSH1 0x1F DUP3 ADD AND DUP3 ADD DUP1 PUSH1 0x40 MSTORE POP DUP2 ADD SWAP1 PUSH2 0xE01 SWAP2 SWAP1 PUSH2 0x17B0 JUMP JUMPDEST POP PUSH1 0x3 SLOAD PUSH1 0x40 MLOAD PUSH4 0x95EA7B3 PUSH1 0xE0 SHL DUP2 MSTORE PUSH20 0x13E138EF6008AE5FDFDE29700E3F2BC61D21E3A PUSH1 0x4 DUP3 ADD MSTORE PUSH1 0x24 DUP2 ADD DUP14 SWAP1 MSTORE PUSH1 0x1 PUSH1 0x1 PUSH1 0xA0 SHL SUB SWAP1 SWAP2 AND SWAP1 PUSH4 0x95EA7B3 SWAP1 PUSH1 0x44 ADD PUSH1 0x20 PUSH1 0x40 MLOAD DUP1 DUP4 SUB DUP2 PUSH0 DUP8 GAS CALL ISZERO DUP1 ISZERO PUSH2 0xE64 JUMPI RETURNDATASIZE PUSH0 DUP1 RETURNDATACOPY RETURNDATASIZE PUSH0 REVERT JUMPDEST POP POP POP POP PUSH1 0x40 MLOAD RETURNDATASIZE PUSH1 0x1F NOT PUSH1 0x1F DUP3 ADD AND DUP3 ADD DUP1 PUSH1 0x40 MSTORE POP DUP2 ADD SWAP1 PUSH2 0xE88 SWAP2 SWAP1 PUSH2 0x17B0 JUMP JUMPDEST POP PUSH1 0x40 DUP1 MLOAD PUSH2 0x1E0 DUP2 ADD DUP3 MSTORE PUSH20 0x78C1B0C915C4FAA5FFFA6CABF0219DA63D7F4CB8 DUP2 MSTORE PUSH20 0x201EBA5CC46D216CE6DC03F6A759E8E766E956AE PUSH1 0x20 DUP3 ADD MSTORE PUSH1 0xB SLOAD PUSH2 0xFFFF AND SWAP2 DUP2 ADD SWAP2 SWAP1 SWAP2 MSTORE PUSH1 0x60 DUP2 ADD DUP14 SWAP1 MSTORE PUSH1 0x80 DUP2 ADD DUP13 SWAP1 MSTORE PUSH1 0xA0 DUP2 ADD DUP12 SWAP1 MSTORE PUSH1 0xC0 DUP2 ADD DUP11 SWAP1 MSTORE PUSH1 0xE0 DUP2 ADD DUP9 SWAP1 MSTORE PUSH2 0x100 DUP2 ADD DUP3 SWAP1 MSTORE PUSH2 0x120 DUP2 ADD DUP7 SWAP1 MSTORE PUSH2 0x140 DUP2 ADD DUP5 SWAP1 MSTORE PUSH2 0x160 DUP2 ADD DUP4 SWAP1 MSTORE ADDRESS PUSH2 0x180 DUP3 ADD DUP2 SWAP1 MSTORE PUSH2 0x1A0 DUP3 ADD MSTORE PUSH0 SWAP1 PUSH2 0x1C0 DUP2 ADD PUSH2 0xF38 TIMESTAMP PUSH2 0x12C PUSH2 0x16D8 JUMP JUMPDEST SWAP1 MSTORE PUSH1 0x5 SLOAD PUSH1 0x40 MLOAD PUSH4 0x51E3938D PUSH1 0xE1 SHL DUP2 MSTORE SWAP2 SWAP3 POP PUSH1 0x1 PUSH1 0x1 PUSH1 0xA0 SHL SUB AND SWAP1 PUSH4 0xA3C7271A SWAP1 PUSH2 0xF6B SWAP1 DUP5 SWAP1 PUSH1 0x4 ADD PUSH2 0x185D JUMP JUMPDEST PUSH0 PUSH1 0x40 MLOAD DUP1 DUP4 SUB DUP2 PUSH0 DUP8 GAS CALL ISZERO DUP1 ISZERO PUSH2 0xF86 JUMPI RETURNDATASIZE PUSH0 DUP1 RETURNDATACOPY RETURNDATASIZE PUSH0 REVERT JUMPDEST POP POP POP POP PUSH1 0x40 MLOAD RETURNDATASIZE PUSH0 DUP3 RETURNDATACOPY PUSH1 0x1F RETURNDATASIZE SWAP1 DUP2 ADD PUSH1 0x1F NOT AND DUP3 ADD PUSH1 0x40 MSTORE PUSH2 0xFAD SWAP2 SWAP1 DUP2 ADD SWAP1 PUSH2 0x1A1F JUMP JUMPDEST POP POP POP PUSH1 0x1 SWAP11 SWAP1 SWAP11 SSTORE POP POP PUSH1 0xB DUP1 SLOAD PUSH3 0xFF0000 NOT AND SWAP1 SSTORE POP POP POP POP POP POP POP POP POP POP POP POP POP JUMP JUMPDEST PUSH1 0x4 DUP1 SLOAD PUSH1 0x40 DUP1 MLOAD PUSH4 0x36F997B7 PUSH1 0xE2 SHL DUP2 MSTORE SWAP1 MLOAD PUSH0 SWAP4 DUP5 SWAP4 PUSH1 0x1 PUSH1 0x1 PUSH1 0xA0 SHL SUB AND SWAP3 PUSH4 0xDBE65EDC SWAP3 DUP2 DUP4 ADD SWAP3 PUSH1 0x20 SWAP3 DUP3 SWAP1 SUB ADD DUP2 DUP7 GAS STATICCALL ISZERO DUP1 ISZERO PUSH2 0x1019 JUMPI RETURNDATASIZE PUSH0 DUP1 RETURNDATACOPY RETURNDATASIZE PUSH0 REVERT JUMPDEST POP POP POP POP PUSH1 0x40 MLOAD RETURNDATASIZE PUSH1 0x1F NOT PUSH1 0x1F DUP3 ADD AND DUP3 ADD DUP1 PUSH1 0x40 MSTORE POP DUP2 ADD SWAP1 PUSH2 0x103D SWAP2 SWAP1 PUSH2 0x17CF JUMP JUMPDEST PUSH3 0xFFFFFF AND SWAP3 SWAP2 POP POP JUMP JUMPDEST PUSH1 0x2 SLOAD PUSH1 0x40 MLOAD PUSH4 0x70A08231 PUSH1 0xE0 SHL DUP2 MSTORE ADDRESS PUSH1 0x4 DUP3 ADD MSTORE PUSH0 SWAP2 PUSH1 0x1 PUSH1 0x1 PUSH1 0xA0 SHL SUB AND SWAP1 PUSH4 0x70A08231 SWAP1 PUSH1 0x24 ADD PUSH1 0x20 PUSH1 0x40 MLOAD DUP1 DUP4 SUB DUP2 DUP7 GAS STATICCALL ISZERO DUP1 ISZERO PUSH2 0x108E JUMPI RETURNDATASIZE PUSH0 DUP1 RETURNDATACOPY RETURNDATASIZE PUSH0 REVERT JUMPDEST POP POP POP POP PUSH1 0x40 MLOAD RETURNDATASIZE PUSH1 0x1F NOT PUSH1 0x1F DUP3 ADD AND DUP3 ADD DUP1 PUSH1 0x40 MSTORE POP DUP2 ADD SWAP1 PUSH2 0x10B2 SWAP2 SWAP1 PUSH2 0x16FE JUMP JUMPDEST PUSH1 0x3 SLOAD PUSH1 0x40 MLOAD PUSH4 0x70A08231 PUSH1 0xE0 SHL DUP2 MSTORE ADDRESS PUSH1 0x4 DUP3 ADD MSTORE SWAP2 SWAP3 POP PUSH0 SWAP2 PUSH1 0x1 PUSH1 0x1 PUSH1 0xA0 SHL SUB SWAP1 SWAP2 AND SWAP1 PUSH4 0x70A08231 SWAP1 PUSH1 0x24 ADD PUSH1 0x20 PUSH1 0x40 MLOAD DUP1 DUP4 SUB DUP2 DUP7 GAS STATICCALL ISZERO DUP1 ISZERO PUSH2 0x10FD JUMPI RETURNDATASIZE PUSH0 DUP1 RETURNDATACOPY RETURNDATASIZE PUSH0 REVERT JUMPDEST POP POP POP POP PUSH1 0x40 MLOAD RETURNDATASIZE PUSH1 0x1F NOT PUSH1 0x1F DUP3 ADD AND DUP3 ADD DUP1 PUSH1 0x40 MSTORE POP DUP2 ADD SWAP1 PUSH2 0x1121 SWAP2 SWAP1 PUSH2 0x16FE JUMP JUMPDEST PUSH1 0x4 DUP1 SLOAD PUSH1 0x40 DUP1 MLOAD PUSH4 0x36F997B7 PUSH1 0xE2 SHL DUP2 MSTORE SWAP1 MLOAD SWAP4 SWAP5 POP PUSH0 SWAP4 DUP5 SWAP4 DUP5 SWAP4 PUSH1 0x1 PUSH1 0x1 PUSH1 0xA0 SHL SUB AND SWAP3 PUSH4 0xDBE65EDC SWAP3 DUP2 DUP4 ADD SWAP3 PUSH1 0x20 SWAP3 DUP3 SWAP1 SUB ADD DUP2 DUP7 GAS STATICCALL ISZERO DUP1 ISZERO PUSH2 0x116C JUMPI RETURNDATASIZE PUSH0 DUP1 RETURNDATACOPY RETURNDATASIZE PUSH0 REVERT JUMPDEST POP POP POP POP PUSH1 0x40 MLOAD RETURNDATASIZE PUSH1 0x1F NOT PUSH1 0x1F DUP3 ADD AND DUP3 ADD DUP1 PUSH1 0x40 MSTORE POP DUP2 ADD SWAP1 PUSH2 0x1190 SWAP2 SWAP1 PUSH2 0x17CF JUMP JUMPDEST PUSH1 0xA SLOAD SWAP1 SWAP2 POP PUSH3 0xFFFFFF DUP3 AND SWAP1 DUP2 SWAP1 PUSH0 SWAP1 PUSH1 0x1 PUSH1 0x1 PUSH1 0x40 SHL SUB DUP2 GT ISZERO PUSH2 0x11B8 JUMPI PUSH2 0x11B8 PUSH2 0x161A JUMP JUMPDEST PUSH1 0x40 MLOAD SWAP1 DUP1 DUP3 MSTORE DUP1 PUSH1 0x20 MUL PUSH1 0x20 ADD DUP3 ADD PUSH1 0x40 MSTORE DUP1 ISZERO PUSH2 0x11E1 JUMPI DUP2 PUSH1 0x20 ADD PUSH1 0x20 DUP3 MUL DUP1 CALLDATASIZE DUP4 CALLDATACOPY ADD SWAP1 POP JUMPDEST POP SWAP1 POP PUSH0 JUMPDEST PUSH1 0x1 PUSH1 0xA SLOAD PUSH2 0x11F5 SWAP2 SWAP1 PUSH2 0x16EB JUMP JUMPDEST DUP2 LT ISZERO PUSH2 0x122D JUMPI DUP1 PUSH2 0x1207 DUP2 DUP6 PUSH2 0x1817 JUMP JUMPDEST DUP4 DUP4 DUP2 MLOAD DUP2 LT PUSH2 0x1219 JUMPI PUSH2 0x1219 PUSH2 0x162E JUMP JUMPDEST PUSH1 0x20 SWAP1 DUP2 MUL SWAP2 SWAP1 SWAP2 ADD ADD MSTORE POP PUSH1 0x1 ADD PUSH2 0x11E6 JUMP JUMPDEST POP PUSH0 PUSH1 0xA SLOAD PUSH8 0xDE0B6B3A7640000 PUSH2 0x1245 SWAP2 SWAP1 PUSH2 0x183E JUMP JUMPDEST SWAP1 POP PUSH0 PUSH1 0xA SLOAD PUSH1 0x1 PUSH1 0x1 PUSH1 0x40 SHL SUB DUP2 GT ISZERO PUSH2 0x1262 JUMPI PUSH2 0x1262 PUSH2 0x161A JUMP JUMPDEST PUSH1 0x40 MLOAD SWAP1 DUP1 DUP3 MSTORE DUP1 PUSH1 0x20 MUL PUSH1 0x20 ADD DUP3 ADD PUSH1 0x40 MSTORE DUP1 ISZERO PUSH2 0x128B JUMPI DUP2 PUSH1 0x20 ADD PUSH1 0x20 DUP3 MUL DUP1 CALLDATASIZE DUP4 CALLDATACOPY ADD SWAP1 POP JUMPDEST POP SWAP1 POP PUSH0 JUMPDEST PUSH1 0x1 PUSH1 0xA SLOAD PUSH2 0x129F SWAP2 SWAP1 PUSH2 0x16EB JUMP JUMPDEST DUP2 LT ISZERO PUSH2 0x12CC JUMPI DUP3 DUP3 DUP3 DUP2 MLOAD DUP2 LT PUSH2 0x12B9 JUMPI PUSH2 0x12B9 PUSH2 0x162E JUMP JUMPDEST PUSH1 0x20 SWAP1 DUP2 MUL SWAP2 SWAP1 SWAP2 ADD ADD MSTORE PUSH1 0x1 ADD PUSH2 0x1290 JUMP JUMPDEST POP PUSH0 PUSH1 0xA SLOAD PUSH1 0x1 PUSH1 0x1 PUSH1 0x40 SHL SUB DUP2 GT ISZERO PUSH2 0x12E8 JUMPI PUSH2 0x12E8 PUSH2 0x161A JUMP JUMPDEST PUSH1 0x40 MLOAD SWAP1 DUP1 DUP3 MSTORE DUP1 PUSH1 0x20 MUL PUSH1 0x20 ADD DUP3 ADD PUSH1 0x40 MSTORE DUP1 ISZERO PUSH2 0x1311 JUMPI DUP2 PUSH1 0x20 ADD PUSH1 0x20 DUP3 MUL DUP1 CALLDATASIZE DUP4 CALLDATACOPY ADD SWAP1 POP JUMPDEST POP SWAP1 POP PUSH0 JUMPDEST PUSH1 0x1 PUSH1 0xA SLOAD PUSH2 0x1325 SWAP2 SWAP1 PUSH2 0x16EB JUMP JUMPDEST DUP2 LT ISZERO PUSH2 0x1352 JUMPI PUSH0 DUP3 DUP3 DUP2 MLOAD DUP2 LT PUSH2 0x133F JUMPI PUSH2 0x133F PUSH2 0x162E JUMP JUMPDEST PUSH1 0x20 SWAP1 DUP2 MUL SWAP2 SWAP1 SWAP2 ADD ADD MSTORE PUSH1 0x1 ADD PUSH2 0x1316 JUMP JUMPDEST POP PUSH8 0xDE0B6B3A7640000 DUP2 PUSH0 DUP2 MLOAD DUP2 LT PUSH2 0x136E JUMPI PUSH2 0x136E PUSH2 0x162E JUMP JUMPDEST PUSH1 0x20 SWAP1 DUP2 MUL SWAP2 SWAP1 SWAP2 ADD ADD MSTORE PUSH1 0x2 SLOAD PUSH1 0x40 MLOAD PUSH4 0x95EA7B3 PUSH1 0xE0 SHL DUP2 MSTORE PUSH20 0x13E138EF6008AE5FDFDE29700E3F2BC61D21E3A PUSH1 0x4 DUP3 ADD MSTORE PUSH1 0x24 DUP2 ADD DUP14 SWAP1 MSTORE PUSH0 SWAP2 PUSH1 0x1 PUSH1 0x1 PUSH1 0xA0 SHL SUB AND SWAP1 PUSH4 0x95EA7B3 SWAP1 PUSH1 0x44 ADD PUSH1 0x20 PUSH1 0x40 MLOAD DUP1 DUP4 SUB DUP2 PUSH0 DUP8 GAS CALL ISZERO DUP1 ISZERO PUSH2 0x13DB JUMPI RETURNDATASIZE PUSH0 DUP1 RETURNDATACOPY RETURNDATASIZE PUSH0 REVERT JUMPDEST POP POP POP POP PUSH1 0x40 MLOAD RETURNDATASIZE PUSH1 0x1F NOT PUSH1 0x1F DUP3 ADD AND DUP3 ADD DUP1 PUSH1 0x40 MSTORE POP DUP2 ADD SWAP1 PUSH2 0x13FF SWAP2 SWAP1 PUSH2 0x17B0 JUMP JUMPDEST POP PUSH1 0x3 SLOAD PUSH1 0x40 MLOAD PUSH4 0x95EA7B3 PUSH1 0xE0 SHL DUP2 MSTORE PUSH20 0x13E138EF6008AE5FDFDE29700E3F2BC61D21E3A PUSH1 0x4 DUP3 ADD MSTORE PUSH1 0x24 DUP2 ADD DUP14 SWAP1 MSTORE PUSH1 0x1 PUSH1 0x1 PUSH1 0xA0 SHL SUB SWAP1 SWAP2 AND SWAP1 PUSH4 0x95EA7B3 SWAP1 PUSH1 0x44 ADD PUSH1 0x20 PUSH1 0x40 MLOAD DUP1 DUP4 SUB DUP2 PUSH0 DUP8 GAS CALL ISZERO DUP1 ISZERO PUSH2 0x1462 JUMPI RETURNDATASIZE PUSH0 DUP1 RETURNDATACOPY RETURNDATASIZE PUSH0 REVERT JUMPDEST POP POP POP POP PUSH1 0x40 MLOAD RETURNDATASIZE PUSH1 0x1F NOT PUSH1 0x1F DUP3 ADD AND DUP3 ADD DUP1 PUSH1 0x40 MSTORE POP DUP2 ADD SWAP1 PUSH2 0x1486 SWAP2 SWAP1 PUSH2 0x17B0 JUMP JUMPDEST POP PUSH1 0x40 DUP1 MLOAD PUSH2 0x1E0 DUP2 ADD DUP3 MSTORE PUSH20 0x78C1B0C915C4FAA5FFFA6CABF0219DA63D7F4CB8 DUP2 MSTORE PUSH20 0x201EBA5CC46D216CE6DC03F6A759E8E766E956AE PUSH1 0x20 DUP3 ADD MSTORE PUSH1 0xB SLOAD PUSH2 0xFFFF AND SWAP2 DUP2 ADD SWAP2 SWAP1 SWAP2 MSTORE PUSH1 0x60 DUP2 ADD DUP14 SWAP1 MSTORE PUSH1 0x80 DUP2 ADD DUP13 SWAP1 MSTORE PUSH1 0xA0 DUP2 ADD DUP12 SWAP1 MSTORE PUSH1 0xC0 DUP2 ADD DUP11 SWAP1 MSTORE PUSH1 0xE0 DUP2 ADD DUP9 SWAP1 MSTORE PUSH2 0x100 DUP2 ADD DUP3 SWAP1 MSTORE PUSH2 0x120 DUP2 ADD DUP7 SWAP1 MSTORE PUSH2 0x140 DUP2 ADD DUP5 SWAP1 MSTORE PUSH2 0x160 DUP2 ADD DUP4 SWAP1 MSTORE ADDRESS PUSH2 0x180 DUP3 ADD DUP2 SWAP1 MSTORE PUSH2 0x1A0 DUP3 ADD MSTORE PUSH0 SWAP1 PUSH2 0x1C0 DUP2 ADD PUSH2 0x1536 TIMESTAMP PUSH2 0x12C PUSH2 0x16D8 JUMP JUMPDEST SWAP1 MSTORE PUSH1 0x5 SLOAD PUSH1 0x40 MLOAD PUSH4 0x51E3938D PUSH1 0xE1 SHL DUP2 MSTORE SWAP2 SWAP3 POP PUSH1 0x1 PUSH1 0x1 PUSH1 0xA0 SHL SUB AND SWAP1 PUSH4 0xA3C7271A SWAP1 PUSH2 0x1569 SWAP1 DUP5 SWAP1 PUSH1 0x4 ADD PUSH2 0x185D JUMP JUMPDEST PUSH0 PUSH1 0x40 MLOAD DUP1 DUP4 SUB DUP2 PUSH0 DUP8 GAS CALL ISZERO DUP1 ISZERO PUSH2 0x1584 JUMPI RETURNDATASIZE PUSH0 DUP1 RETURNDATACOPY RETURNDATASIZE PUSH0 REVERT JUMPDEST POP POP POP POP PUSH1 0x40 MLOAD RETURNDATASIZE PUSH0 DUP3 RETURNDATACOPY PUSH1 0x1F RETURNDATASIZE SWAP1 DUP2 ADD PUSH1 0x1F NOT AND DUP3 ADD PUSH1 0x40 MSTORE PUSH2 0x15AB SWAP2 SWAP1 DUP2 ADD SWAP1 PUSH2 0x1A1F JUMP JUMPDEST POP POP POP PUSH1 0x1 SWAP11 SWAP1 SWAP11 SSTORE POP POP PUSH1 0xB DUP1 SLOAD PUSH3 0xFF0000 NOT AND PUSH3 0x10000 OR SWAP1 SSTORE POP POP POP POP POP POP POP POP POP POP POP POP POP JUMP JUMPDEST PUSH0 PUSH1 0x20 DUP3 DUP5 SUB SLT ISZERO PUSH2 0x15E6 JUMPI PUSH0 DUP1 REVERT JUMPDEST POP CALLDATALOAD SWAP2 SWAP1 POP JUMP JUMPDEST PUSH0 PUSH1 0x20 DUP3 DUP5 SUB SLT ISZERO PUSH2 0x15FD JUMPI PUSH0 DUP1 REVERT JUMPDEST DUP2 CALLDATALOAD PUSH1 0x1 PUSH1 0x1 PUSH1 0xA0 SHL SUB DUP2 AND DUP2 EQ PUSH2 0x1613 JUMPI PUSH0 DUP1 REVERT JUMPDEST SWAP4 SWAP3 POP POP POP JUMP JUMPDEST PUSH4 0x4E487B71 PUSH1 0xE0 SHL PUSH0 MSTORE PUSH1 0x41 PUSH1 0x4 MSTORE PUSH1 0x24 PUSH0 REVERT JUMPDEST PUSH4 0x4E487B71 PUSH1 0xE0 SHL PUSH0 MSTORE PUSH1 0x32 PUSH1 0x4 MSTORE PUSH1 0x24 PUSH0 REVERT JUMPDEST PUSH0 DUP2 MLOAD DUP1 DUP5 MSTORE PUSH1 0x20 DUP5 ADD SWAP4 POP PUSH1 0x20 DUP4 ADD PUSH0 JUMPDEST DUP3 DUP2 LT ISZERO PUSH2 0x1672 JUMPI DUP2 MLOAD DUP7 MSTORE PUSH1 0x20 SWAP6 DUP7 ADD SWAP6 SWAP1 SWAP2 ADD SWAP1 PUSH1 0x1 ADD PUSH2 0x1654 JUMP JUMPDEST POP SWAP4 SWAP5 SWAP4 POP POP POP POP JUMP JUMPDEST PUSH1 0x1 PUSH1 0x1 PUSH1 0xA0 SHL SUB DUP4 AND DUP2 MSTORE PUSH1 0x40 PUSH1 0x20 DUP3 ADD DUP2 SWAP1 MSTORE PUSH0 SWAP1 PUSH2 0x169F SWAP1 DUP4 ADD DUP5 PUSH2 0x1642 JUMP JUMPDEST SWAP5 SWAP4 POP POP POP POP JUMP JUMPDEST PUSH4 0x4E487B71 PUSH1 0xE0 SHL PUSH0 MSTORE PUSH1 0x11 PUSH1 0x4 MSTORE PUSH1 0x24 PUSH0 REVERT JUMPDEST DUP1 DUP3 MUL DUP2 ISZERO DUP3 DUP3 DIV DUP5 EQ OR PUSH2 0x16D2 JUMPI PUSH2 0x16D2 PUSH2 0x16A7 JUMP JUMPDEST SWAP3 SWAP2 POP POP JUMP JUMPDEST DUP1 DUP3 ADD DUP1 DUP3 GT ISZERO PUSH2 0x16D2 JUMPI PUSH2 0x16D2 PUSH2 0x16A7 JUMP JUMPDEST DUP2 DUP2 SUB DUP2 DUP2 GT ISZERO PUSH2 0x16D2 JUMPI PUSH2 0x16D2 PUSH2 0x16A7 JUMP JUMPDEST PUSH0 PUSH1 0x20 DUP3 DUP5 SUB SLT ISZERO PUSH2 0x170E JUMPI PUSH0 DUP1 REVERT JUMPDEST POP MLOAD SWAP2 SWAP1 POP JUMP JUMPDEST PUSH1 0x1 PUSH1 0x1 PUSH1 0xA0 SHL SUB DUP11 DUP2 AND DUP3 MSTORE DUP10 AND PUSH1 0x20 DUP3 ADD MSTORE PUSH2 0xFFFF DUP9 AND PUSH1 0x40 DUP3 ADD MSTORE PUSH1 0x60 DUP2 ADD DUP8 SWAP1 MSTORE PUSH1 0x80 DUP2 ADD DUP7 SWAP1 MSTORE PUSH2 0x120 PUSH1 0xA0 DUP3 ADD DUP2 SWAP1 MSTORE PUSH0 SWAP1 PUSH2 0x1759 SWAP1 DUP4 ADD DUP8 PUSH2 0x1642 JUMP JUMPDEST DUP3 DUP2 SUB PUSH1 0xC0 DUP5 ADD MSTORE PUSH2 0x176B DUP2 DUP8 PUSH2 0x1642 JUMP JUMPDEST PUSH1 0x1 PUSH1 0x1 PUSH1 0xA0 SHL SUB SWAP6 SWAP1 SWAP6 AND PUSH1 0xE0 DUP5 ADD MSTORE POP POP PUSH2 0x100 ADD MSTORE SWAP8 SWAP7 POP POP POP POP POP POP POP JUMP JUMPDEST PUSH0 DUP1 PUSH1 0x40 DUP4 DUP6 SUB SLT ISZERO PUSH2 0x179F JUMPI PUSH0 DUP1 REVERT JUMPDEST POP POP DUP1 MLOAD PUSH1 0x20 SWAP1 SWAP2 ADD MLOAD SWAP1 SWAP3 SWAP1 SWAP2 POP JUMP JUMPDEST PUSH0 PUSH1 0x20 DUP3 DUP5 SUB SLT ISZERO PUSH2 0x17C0 JUMPI PUSH0 DUP1 REVERT JUMPDEST DUP2 MLOAD DUP1 ISZERO ISZERO DUP2 EQ PUSH2 0x1613 JUMPI PUSH0 DUP1 REVERT JUMPDEST PUSH0 PUSH1 0x20 DUP3 DUP5 SUB SLT ISZERO PUSH2 0x17DF JUMPI PUSH0 DUP1 REVERT JUMPDEST DUP2 MLOAD PUSH3 0xFFFFFF DUP2 AND DUP2 EQ PUSH2 0x1613 JUMPI PUSH0 DUP1 REVERT JUMPDEST DUP2 DUP2 SUB PUSH0 DUP4 SLT DUP1 ISZERO DUP4 DUP4 SGT AND DUP4 DUP4 SLT DUP3 AND OR ISZERO PUSH2 0x1810 JUMPI PUSH2 0x1810 PUSH2 0x16A7 JUMP JUMPDEST POP SWAP3 SWAP2 POP POP JUMP JUMPDEST DUP1 DUP3 ADD DUP3 DUP2 SLT PUSH0 DUP4 SLT DUP1 ISZERO DUP3 AND DUP3 ISZERO DUP3 AND OR ISZERO PUSH2 0x1836 JUMPI PUSH2 0x1836 PUSH2 0x16A7 JUMP JUMPDEST POP POP SWAP3 SWAP2 POP POP JUMP JUMPDEST PUSH0 DUP3 PUSH2 0x1858 JUMPI PUSH4 0x4E487B71 PUSH1 0xE0 SHL PUSH0 MSTORE PUSH1 0x12 PUSH1 0x4 MSTORE PUSH1 0x24 PUSH0 REVERT JUMPDEST POP DIV SWAP1 JUMP JUMPDEST PUSH1 0x20 DUP2 MSTORE PUSH2 0x1877 PUSH1 0x20 DUP3 ADD DUP4 MLOAD PUSH1 0x1 PUSH1 0x1 PUSH1 0xA0 SHL SUB AND SWAP1 MSTORE JUMP JUMPDEST PUSH0 PUSH1 0x20 DUP4 ADD MLOAD PUSH2 0x1892 PUSH1 0x40 DUP5 ADD DUP3 PUSH1 0x1 PUSH1 0x1 PUSH1 0xA0 SHL SUB AND SWAP1 MSTORE JUMP JUMPDEST POP PUSH1 0x40 DUP4 ADD MLOAD PUSH1 0x60 DUP4 ADD MSTORE PUSH1 0x60 DUP4 ADD MLOAD PUSH1 0x80 DUP4 ADD MSTORE PUSH1 0x80 DUP4 ADD MLOAD PUSH1 0xA0 DUP4 ADD MSTORE PUSH1 0xA0 DUP4 ADD MLOAD PUSH1 0xC0 DUP4 ADD MSTORE PUSH1 0xC0 DUP4 ADD MLOAD PUSH1 0xE0 DUP4 ADD MSTORE PUSH1 0xE0 DUP4 ADD MLOAD PUSH2 0x100 DUP4 ADD MSTORE PUSH2 0x100 DUP4 ADD MLOAD PUSH2 0x120 DUP4 ADD MSTORE PUSH2 0x120 DUP4 ADD MLOAD PUSH2 0x1E0 PUSH2 0x140 DUP5 ADD MSTORE PUSH2 0x18F9 PUSH2 0x200 DUP5 ADD DUP3 PUSH2 0x1642 JUMP JUMPDEST SWAP1 POP PUSH2 0x140 DUP5 ADD MLOAD PUSH1 0x1F NOT DUP5 DUP4 SUB ADD PUSH2 0x160 DUP6 ADD MSTORE PUSH2 0x1918 DUP3 DUP3 PUSH2 0x1642 JUMP JUMPDEST SWAP2 POP POP PUSH2 0x160 DUP5 ADD MLOAD PUSH1 0x1F NOT DUP5 DUP4 SUB ADD PUSH2 0x180 DUP6 ADD MSTORE PUSH2 0x1938 DUP3 DUP3 PUSH2 0x1642 JUMP JUMPDEST SWAP2 POP POP PUSH2 0x180 DUP5 ADD MLOAD PUSH2 0x1957 PUSH2 0x1A0 DUP6 ADD DUP3 PUSH1 0x1 PUSH1 0x1 PUSH1 0xA0 SHL SUB AND SWAP1 MSTORE JUMP JUMPDEST POP PUSH2 0x1A0 DUP5 ADD MLOAD PUSH1 0x1 PUSH1 0x1 PUSH1 0xA0 SHL SUB DUP2 AND PUSH2 0x1C0 DUP6 ADD MSTORE POP PUSH2 0x1C0 DUP5 ADD MLOAD PUSH2 0x1E0 DUP5 ADD MSTORE DUP1 SWAP2 POP POP SWAP3 SWAP2 POP POP JUMP JUMPDEST PUSH0 DUP3 PUSH1 0x1F DUP4 ADD SLT PUSH2 0x1994 JUMPI PUSH0 DUP1 REVERT JUMPDEST DUP2 MLOAD PUSH1 0x1 PUSH1 0x1 PUSH1 0x40 SHL SUB DUP2 GT ISZERO PUSH2 0x19AD JUMPI PUSH2 0x19AD PUSH2 0x161A JUMP JUMPDEST DUP1 PUSH1 0x5 SHL PUSH1 0x40 MLOAD PUSH1 0x1F NOT PUSH1 0x3F DUP4 ADD AND DUP2 ADD DUP2 DUP2 LT PUSH1 0x1 PUSH1 0x1 PUSH1 0x40 SHL SUB DUP3 GT OR ISZERO PUSH2 0x19D9 JUMPI PUSH2 0x19D9 PUSH2 0x161A JUMP JUMPDEST PUSH1 0x40 MSTORE SWAP2 DUP3 MSTORE PUSH1 0x20 DUP2 DUP6 ADD DUP2 ADD SWAP3 SWAP1 DUP2 ADD DUP7 DUP5 GT ISZERO PUSH2 0x19F6 JUMPI PUSH0 DUP1 REVERT JUMPDEST PUSH1 0x20 DUP7 ADD SWAP3 POP JUMPDEST DUP4 DUP4 LT ISZERO PUSH2 0x1A15 JUMPI DUP3 MLOAD DUP2 MSTORE PUSH1 0x20 SWAP3 DUP4 ADD SWAP3 ADD PUSH2 0x19FD JUMP JUMPDEST POP SWAP6 SWAP5 POP POP POP POP POP JUMP JUMPDEST PUSH0 DUP1 PUSH0 DUP1 PUSH0 DUP1 PUSH1 0xC0 DUP8 DUP10 SUB SLT ISZERO PUSH2 0x1A34 JUMPI PUSH0 DUP1 REVERT JUMPDEST DUP7 MLOAD PUSH1 0x20 DUP9 ADD MLOAD PUSH1 0x40 DUP10 ADD MLOAD PUSH1 0x60 DUP11 ADD MLOAD PUSH1 0x80 DUP12 ADD MLOAD SWAP4 SWAP10 POP SWAP2 SWAP8 POP SWAP6 POP SWAP4 POP PUSH1 0x1 PUSH1 0x1 PUSH1 0x40 SHL SUB DUP2 GT ISZERO PUSH2 0x1A67 JUMPI PUSH0 DUP1 REVERT JUMPDEST PUSH2 0x1A73 DUP10 DUP3 DUP11 ADD PUSH2 0x1985 JUMP JUMPDEST SWAP3 POP POP PUSH1 0xA0 DUP8 ADD MLOAD PUSH1 0x1 PUSH1 0x1 PUSH1 0x40 SHL SUB DUP2 GT ISZERO PUSH2 0x1A8E JUMPI PUSH0 DUP1 REVERT JUMPDEST PUSH2 0x1A9A DUP10 DUP3 DUP11 ADD PUSH2 0x1985 JUMP JUMPDEST SWAP2 POP POP SWAP3 SWAP6 POP SWAP3 SWAP6 POP SWAP3 SWAP6 JUMP INVALID LOG2 PUSH5 0x6970667358 0x22 SLT KECCAK256 0xD2 PUSH3 0x865F21 ORIGIN DUP1 PUSH18 0x9CAA8982BBFFF935A2CFC7F493175AEFBB03 NOT SWAP9 BYTE MSIZE DUP13 0xBA PUSH5 0x736F6C6343 STOP ADDMOD BYTE STOP CALLER "
		},
		"gasEstimates": {
			"creation": {
				"codeDepositCost": "1375400",
				"executionCost": "219461",
				"totalCost": "1594861"
			},
			"external": {
				"AddLiquiditytokenX()": "infinite",
				"AddLiquiditytokenY()": "infinite",
				"ViewBin()": "infinite",
				"approveTokenRewarder()": "infinite",
				"binsAmount()": "2327",
				"botController()": "2403",
				"collectRewards()": "infinite",
				"collectRewardsManual(uint256)": "infinite",
				"currentID()": "2337",
				"removeFarmtokenX()": "infinite",
				"removeFarmtokenY()": "infinite",
				"setDpositID(uint256)": "24482",
				"setNumberOfBins(uint256)": "24461",
				"tokenXDeposit()": "2342",
				"transferToAdmin(address)": "infinite"
			}
		},
		"methodIdentifiers": {
			"AddLiquiditytokenX()": "f5001870",
			"AddLiquiditytokenY()": "ab47ebc6",
			"ViewBin()": "ecbd4533",
			"approveTokenRewarder()": "25475a14",
			"binsAmount()": "be5449b8",
			"botController()": "941b380b",
			"collectRewards()": "70bb45b3",
			"collectRewardsManual(uint256)": "17ced34b",
			"currentID()": "1c75cfb4",
			"removeFarmtokenX()": "78ee22de",
			"removeFarmtokenY()": "8ca18187",
			"setDpositID(uint256)": "274e808b",
			"setNumberOfBins(uint256)": "1612944e",
			"tokenXDeposit()": "b2a65f1c",
			"transferToAdmin(address)": "8cbc5cff"
		}
	},
	"abi": [
		{
			"inputs": [],
			"stateMutability": "nonpayable",
			"type": "constructor"
		},
		{
			"inputs": [],
			"name": "AddLiquiditytokenX",
			"outputs": [],
			"stateMutability": "payable",
			"type": "function"
		},
		{
			"inputs": [],
			"name": "AddLiquiditytokenY",
			"outputs": [],
			"stateMutability": "payable",
			"type": "function"
		},
		{
			"inputs": [],
			"name": "ViewBin",
			"outputs": [
				{
					"internalType": "uint256",
					"name": "",
					"type": "uint256"
				}
			],
			"stateMutability": "view",
			"type": "function"
		},
		{
			"inputs": [],
			"name": "approveTokenRewarder",
			"outputs": [],
			"stateMutability": "payable",
			"type": "function"
		},
		{
			"inputs": [],
			"name": "binsAmount",
			"outputs": [
				{
					"internalType": "uint256",
					"name": "",
					"type": "uint256"
				}
			],
			"stateMutability": "view",
			"type": "function"
		},
		{
			"inputs": [],
			"name": "botController",
			"outputs": [
				{
					"internalType": "address",
					"name": "",
					"type": "address"
				}
			],
			"stateMutability": "view",
			"type": "function"
		},
		{
			"inputs": [],
			"name": "collectRewards",
			"outputs": [],
			"stateMutability": "payable",
			"type": "function"
		},
		{
			"inputs": [
				{
					"internalType": "uint256",
					"name": "ManualDepositID",
					"type": "uint256"
				}
			],
			"name": "collectRewardsManual",
			"outputs": [],
			"stateMutability": "payable",
			"type": "function"
		},
		{
			"inputs": [],
			"name": "currentID",
			"outputs": [
				{
					"internalType": "uint256",
					"name": "",
					"type": "uint256"
				}
			],
			"stateMutability": "view",
			"type": "function"
		},
		{
			"inputs": [],
			"name": "removeFarmtokenX",
			"outputs": [],
			"stateMutability": "payable",
			"type": "function"
		},
		{
			"inputs": [],
			"name": "removeFarmtokenY",
			"outputs": [],
			"stateMutability": "payable",
			"type": "function"
		},
		{
			"inputs": [
				{
					"internalType": "uint256",
					"name": "newDepositID",
					"type": "uint256"
				}
			],
			"name": "setDpositID",
			"outputs": [],
			"stateMutability": "payable",
			"type": "function"
		},
		{
			"inputs": [
				{
					"internalType": "uint256",
					"name": "setNumberBins",
					"type": "uint256"
				}
			],
			"name": "setNumberOfBins",
			"outputs": [],
			"stateMutability": "payable",
			"type": "function"
		},
		{
			"inputs": [],
			"name": "tokenXDeposit",
			"outputs": [
				{
					"internalType": "bool",
					"name": "",
					"type": "bool"
				}
			],
			"stateMutability": "view",
			"type": "function"
		},
		{
			"inputs": [
				{
					"internalType": "address",
					"name": "Token",
					"type": "address"
				}
			],
			"name": "transferToAdmin",
			"outputs": [],
			"stateMutability": "payable",
			"type": "function"
		}
	]
}