{
	"MERCHANT MOE/LBRouter/src/Bot.sol": {
		"BotController": {
			"abi": [
				{
					"inputs": [],
					"stateMutability": "nonpayable",
					"type": "constructor"
				},
				{
					"inputs": [],
					"name": "checkFarm",
					"outputs": [
						{
							"internalType": "bool",
							"name": "",
							"type": "bool"
						}
					],
					"stateMutability": "view",
					"type": "function"
				},
				{
					"inputs": [],
					"name": "rebalance",
					"outputs": [],
					"stateMutability": "payable",
					"type": "function"
				},
				{
					"stateMutability": "payable",
					"type": "receive"
				}
			],
			"devdoc": {
				"kind": "dev",
				"methods": {},
				"version": 1
			},
			"evm": {
				"assembly": "    /* \"MERCHANT MOE/LBRouter/src/Bot.sol\":434:1945  contract BotController{... */\n  mstore(0x40, 0x80)\n    /* \"MERCHANT MOE/LBRouter/src/Bot.sol\":567:624  address WMNT = 0x78c1b0C915c4FAA5FffA6CAbf0219DA63d7f4cb8 */\n  0x02\n  dup1\n  sload\n  not(sub(shl(0xa0, 0x01), 0x01))\n  swap1\n  dup2\n  and\n    /* \"MERCHANT MOE/LBRouter/src/Bot.sol\":582:624  0x78c1b0C915c4FAA5FffA6CAbf0219DA63d7f4cb8 */\n  0x78c1b0c915c4faa5fffa6cabf0219da63d7f4cb8\n    /* \"MERCHANT MOE/LBRouter/src/Bot.sol\":567:624  address WMNT = 0x78c1b0C915c4FAA5FffA6CAbf0219DA63d7f4cb8 */\n  or\n  swap1\n  swap2\n  sstore\n    /* \"MERCHANT MOE/LBRouter/src/Bot.sol\":636:694  address USDT = \t0x201EBa5CC46D216Ce6DC03F6a759e8E766e956aE */\n  0x03\n  dup1\n  sload\n  dup3\n  and\n    /* \"MERCHANT MOE/LBRouter/src/Bot.sol\":652:694  0x201EBa5CC46D216Ce6DC03F6a759e8E766e956aE */\n  0x201eba5cc46d216ce6dc03f6a759e8e766e956ae\n    /* \"MERCHANT MOE/LBRouter/src/Bot.sol\":636:694  address USDT = \t0x201EBa5CC46D216Ce6DC03F6a759e8E766e956aE */\n  or\n  swap1\n  sstore\n    /* \"MERCHANT MOE/LBRouter/src/Bot.sol\":706:765  address router = 0xeaEE7EE68874218c3558b40063c42B82D3E7232a */\n  0x04\n  dup1\n  sload\n  dup3\n  and\n    /* \"MERCHANT MOE/LBRouter/src/Bot.sol\":723:765  0xeaEE7EE68874218c3558b40063c42B82D3E7232a */\n  0xeaee7ee68874218c3558b40063c42b82d3e7232a\n    /* \"MERCHANT MOE/LBRouter/src/Bot.sol\":706:765  address router = 0xeaEE7EE68874218c3558b40063c42B82D3E7232a */\n  or\n  swap1\n  sstore\n    /* \"MERCHANT MOE/LBRouter/src/Bot.sol\":768:827  address LBPool = 0xf6C9020c9E915808481757779EDB53DACEaE2415 */\n  0x05\n  dup1\n  sload\n  dup3\n  and\n    /* \"MERCHANT MOE/LBRouter/src/Bot.sol\":785:827  0xf6C9020c9E915808481757779EDB53DACEaE2415 */\n  0xf6c9020c9e915808481757779edb53daceae2415\n    /* \"MERCHANT MOE/LBRouter/src/Bot.sol\":768:827  address LBPool = 0xf6C9020c9E915808481757779EDB53DACEaE2415 */\n  or\n  swap1\n  sstore\n    /* \"MERCHANT MOE/LBRouter/src/Bot.sol\":830:891  address LBrouter = 0x013e138EF6008ae5FDFDE29700e3f2Bc61d21E3a */\n  0x06\n  dup1\n  sload\n  dup3\n  and\n    /* \"MERCHANT MOE/LBRouter/src/Bot.sol\":849:891  0x013e138EF6008ae5FDFDE29700e3f2Bc61d21E3a */\n  0x013e138ef6008ae5fdfde29700e3f2bc61d21e3a\n    /* \"MERCHANT MOE/LBRouter/src/Bot.sol\":830:891  address LBrouter = 0x013e138EF6008ae5FDFDE29700e3f2Bc61d21E3a */\n  or\n  swap1\n  sstore\n    /* \"MERCHANT MOE/LBRouter/src/Bot.sol\":894:958  address MoeRewarder = 0x08A62Eb0ef6DbE762774ABF5e18F49671559285b */\n  0x07\n  dup1\n  sload\n  dup3\n  and\n    /* \"MERCHANT MOE/LBRouter/src/Bot.sol\":916:958  0x08A62Eb0ef6DbE762774ABF5e18F49671559285b */\n  0x08a62eb0ef6dbe762774abf5e18f49671559285b\n    /* \"MERCHANT MOE/LBRouter/src/Bot.sol\":894:958  address MoeRewarder = 0x08A62Eb0ef6DbE762774ABF5e18F49671559285b */\n  or\n  swap1\n  sstore\n    /* \"MERCHANT MOE/LBRouter/src/Bot.sol\":962:1018  address Moe = 0x4515A45337F461A11Ff0FE8aBF3c606AE5dC00c9 */\n  0x08\n  dup1\n  sload\n  dup3\n  and\n    /* \"MERCHANT MOE/LBRouter/src/Bot.sol\":976:1018  0x4515A45337F461A11Ff0FE8aBF3c606AE5dC00c9 */\n  0x4515a45337f461a11ff0fe8abf3c606ae5dc00c9\n    /* \"MERCHANT MOE/LBRouter/src/Bot.sol\":962:1018  address Moe = 0x4515A45337F461A11Ff0FE8aBF3c606AE5dC00c9 */\n  or\n  swap1\n  sstore\n    /* \"MERCHANT MOE/LBRouter/src/Bot.sol\":1021:1077  address Bot = 0xAf6D87DF518d6442937CffB1A005D25844520269 */\n  0x09\n  dup1\n  sload\n  swap1\n  swap2\n  and\n    /* \"MERCHANT MOE/LBRouter/src/Bot.sol\":1035:1077  0xAf6D87DF518d6442937CffB1A005D25844520269 */\n  0xaf6d87df518d6442937cffb1a005d25844520269\n    /* \"MERCHANT MOE/LBRouter/src/Bot.sol\":1021:1077  address Bot = 0xAf6D87DF518d6442937CffB1A005D25844520269 */\n  or\n  swap1\n  sstore\n    /* \"MERCHANT MOE/LBRouter/src/Bot.sol\":483:534  constructor() {... */\n  callvalue\n  dup1\n  iszero\n  tag_1\n  jumpi\n  0x00\n  dup1\n  revert\ntag_1:\n  pop\n    /* \"MERCHANT MOE/LBRouter/src/Bot.sol\":508:513  admin */\n  0x00\n    /* \"MERCHANT MOE/LBRouter/src/Bot.sol\":508:526  admin = msg.sender */\n  dup1\n  sload\n  not(sub(shl(0xa0, 0x01), 0x01))\n  and\n    /* \"MERCHANT MOE/LBRouter/src/Bot.sol\":516:526  msg.sender */\n  caller\n    /* \"MERCHANT MOE/LBRouter/src/Bot.sol\":508:526  admin = msg.sender */\n  or\n  swap1\n  sstore\n    /* \"MERCHANT MOE/LBRouter/src/Bot.sol\":434:1945  contract BotController{... */\n  dataSize(sub_0)\n  dup1\n  dataOffset(sub_0)\n  0x00\n  codecopy\n  0x00\n  return\nstop\n\nsub_0: assembly {\n        /* \"MERCHANT MOE/LBRouter/src/Bot.sol\":434:1945  contract BotController{... */\n      mstore(0x40, 0x80)\n      jumpi(tag_1, lt(calldatasize, 0x04))\n      shr(0xe0, calldataload(0x00))\n      dup1\n      0x7d7c2a1c\n      eq\n      tag_3\n      jumpi\n      dup1\n      0x85cd14ba\n      eq\n      tag_4\n      jumpi\n      0x00\n      dup1\n      revert\n    tag_1:\n      jumpi(tag_2, calldatasize)\n      stop\n    tag_2:\n      0x00\n      dup1\n      revert\n        /* \"MERCHANT MOE/LBRouter/src/Bot.sol\":1082:1576  function rebalance() public payable {... */\n    tag_3:\n      tag_7\n      tag_8\n      jump\t// in\n    tag_7:\n      stop\n        /* \"MERCHANT MOE/LBRouter/src/Bot.sol\":1580:1871  function checkFarm() external view returns (bool){... */\n    tag_4:\n      callvalue\n      dup1\n      iszero\n      tag_9\n      jumpi\n      0x00\n      dup1\n      revert\n    tag_9:\n      pop\n      tag_10\n      tag_11\n      jump\t// in\n    tag_10:\n      mload(0x40)\n        /* \"#utility.yul\":179:193   */\n      swap1\n      iszero\n        /* \"#utility.yul\":172:194   */\n      iszero\n        /* \"#utility.yul\":154:195   */\n      dup2\n      mstore\n        /* \"#utility.yul\":142:144   */\n      0x20\n        /* \"#utility.yul\":127:145   */\n      add\n        /* \"MERCHANT MOE/LBRouter/src/Bot.sol\":1580:1871  function checkFarm() external view returns (bool){... */\n      mload(0x40)\n      dup1\n      swap2\n      sub\n      swap1\n      return\n        /* \"MERCHANT MOE/LBRouter/src/Bot.sol\":1082:1576  function rebalance() public payable {... */\n    tag_8:\n        /* \"MERCHANT MOE/LBRouter/src/Bot.sol\":1140:1182  0xAf6D87DF518d6442937CffB1A005D25844520269 */\n      0xaf6d87df518d6442937cffb1a005d25844520269\n      sub(shl(0xa0, 0x01), 0x01)\n        /* \"MERCHANT MOE/LBRouter/src/Bot.sol\":1133:1194  IMMBot(0xAf6D87DF518d6442937CffB1A005D25844520269).removeFarm */\n      and\n      0xb298bcf5\n        /* \"MERCHANT MOE/LBRouter/src/Bot.sol\":1133:1196  IMMBot(0xAf6D87DF518d6442937CffB1A005D25844520269).removeFarm() */\n      mload(0x40)\n      dup2\n      0xffffffff\n      and\n      0xe0\n      shl\n      dup2\n      mstore\n      0x04\n      add\n      0x00\n      mload(0x40)\n      dup1\n      dup4\n      sub\n      dup2\n      0x00\n      dup8\n      dup1\n      extcodesize\n      iszero\n      dup1\n      iszero\n      tag_15\n      jumpi\n      0x00\n      dup1\n      revert\n    tag_15:\n      pop\n      gas\n      call\n      iszero\n      dup1\n      iszero\n      tag_17\n      jumpi\n      returndatasize\n      0x00\n      dup1\n      returndatacopy\n      revert(0x00, returndatasize)\n    tag_17:\n      pop\n      pop\n      pop\n      pop\n        /* \"MERCHANT MOE/LBRouter/src/Bot.sol\":1218:1260  0xAf6D87DF518d6442937CffB1A005D25844520269 */\n      0xaf6d87df518d6442937cffb1a005d25844520269\n      sub(shl(0xa0, 0x01), 0x01)\n        /* \"MERCHANT MOE/LBRouter/src/Bot.sol\":1211:1276  IMMBot(0xAf6D87DF518d6442937CffB1A005D25844520269).collectRewards */\n      and\n      0x70bb45b3\n        /* \"MERCHANT MOE/LBRouter/src/Bot.sol\":1211:1278  IMMBot(0xAf6D87DF518d6442937CffB1A005D25844520269).collectRewards() */\n      mload(0x40)\n      dup2\n      0xffffffff\n      and\n      0xe0\n      shl\n      dup2\n      mstore\n      0x04\n      add\n      0x00\n      mload(0x40)\n      dup1\n      dup4\n      sub\n      dup2\n      0x00\n      dup8\n      dup1\n      extcodesize\n      iszero\n      dup1\n      iszero\n      tag_18\n      jumpi\n      0x00\n      dup1\n      revert\n    tag_18:\n      pop\n      gas\n      call\n      iszero\n      dup1\n      iszero\n      tag_20\n      jumpi\n      returndatasize\n      0x00\n      dup1\n      returndatacopy\n      revert(0x00, returndatasize)\n    tag_20:\n      pop\n      pop\n        /* \"MERCHANT MOE/LBRouter/src/Bot.sol\":1293:1403  IMMBot(0xAf6D87DF518d6442937CffB1A005D25844520269).transferToAdmin(0x4515A45337F461A11Ff0FE8aBF3c606AE5dC00c9) */\n      mload(0x40)\n      shl(0xe0, 0x8cbc5cff)\n      dup2\n      mstore\n        /* \"MERCHANT MOE/LBRouter/src/Bot.sol\":1360:1402  0x4515A45337F461A11Ff0FE8aBF3c606AE5dC00c9 */\n      0x4515a45337f461a11ff0fe8abf3c606ae5dc00c9\n        /* \"MERCHANT MOE/LBRouter/src/Bot.sol\":1293:1403  IMMBot(0xAf6D87DF518d6442937CffB1A005D25844520269).transferToAdmin(0x4515A45337F461A11Ff0FE8aBF3c606AE5dC00c9) */\n      0x04\n      dup3\n      add\n        /* \"#utility.yul\":352:403   */\n      mstore\n        /* \"MERCHANT MOE/LBRouter/src/Bot.sol\":1300:1342  0xAf6D87DF518d6442937CffB1A005D25844520269 */\n      0xaf6d87df518d6442937cffb1a005d25844520269\n      swap3\n      pop\n        /* \"MERCHANT MOE/LBRouter/src/Bot.sol\":1293:1359  IMMBot(0xAf6D87DF518d6442937CffB1A005D25844520269).transferToAdmin */\n      0x8cbc5cff\n      swap2\n      pop\n        /* \"#utility.yul\":325:343   */\n      0x24\n      add\n        /* \"MERCHANT MOE/LBRouter/src/Bot.sol\":1293:1403  IMMBot(0xAf6D87DF518d6442937CffB1A005D25844520269).transferToAdmin(0x4515A45337F461A11Ff0FE8aBF3c606AE5dC00c9) */\n      0x00\n      mload(0x40)\n      dup1\n      dup4\n      sub\n      dup2\n      0x00\n      dup8\n      dup1\n      extcodesize\n      iszero\n      dup1\n      iszero\n      tag_23\n      jumpi\n      0x00\n      dup1\n      revert\n    tag_23:\n      pop\n      gas\n      call\n      iszero\n      dup1\n      iszero\n      tag_25\n      jumpi\n      returndatasize\n      0x00\n      dup1\n      returndatacopy\n      revert(0x00, returndatasize)\n    tag_25:\n      pop\n      pop\n      pop\n      pop\n        /* \"MERCHANT MOE/LBRouter/src/Bot.sol\":1425:1467  0xAf6D87DF518d6442937CffB1A005D25844520269 */\n      0xaf6d87df518d6442937cffb1a005d25844520269\n      sub(shl(0xa0, 0x01), 0x01)\n        /* \"MERCHANT MOE/LBRouter/src/Bot.sol\":1418:1490  IMMBot(0xAf6D87DF518d6442937CffB1A005D25844520269).rebalanceToEmptyToken */\n      and\n      0x03c7685c\n        /* \"MERCHANT MOE/LBRouter/src/Bot.sol\":1418:1492  IMMBot(0xAf6D87DF518d6442937CffB1A005D25844520269).rebalanceToEmptyToken() */\n      mload(0x40)\n      dup2\n      0xffffffff\n      and\n      0xe0\n      shl\n      dup2\n      mstore\n      0x04\n      add\n      0x00\n      mload(0x40)\n      dup1\n      dup4\n      sub\n      dup2\n      0x00\n      dup8\n      dup1\n      extcodesize\n      iszero\n      dup1\n      iszero\n      tag_26\n      jumpi\n      0x00\n      dup1\n      revert\n    tag_26:\n      pop\n      gas\n      call\n      iszero\n      dup1\n      iszero\n      tag_28\n      jumpi\n      returndatasize\n      0x00\n      dup1\n      returndatacopy\n      revert(0x00, returndatasize)\n    tag_28:\n      pop\n      pop\n      pop\n      pop\n        /* \"MERCHANT MOE/LBRouter/src/Bot.sol\":1514:1556  0xAf6D87DF518d6442937CffB1A005D25844520269 */\n      0xaf6d87df518d6442937cffb1a005d25844520269\n      sub(shl(0xa0, 0x01), 0x01)\n        /* \"MERCHANT MOE/LBRouter/src/Bot.sol\":1507:1570  IMMBot(0xAf6D87DF518d6442937CffB1A005D25844520269).AddLiquidity */\n      and\n      0x0bc488c5\n        /* \"MERCHANT MOE/LBRouter/src/Bot.sol\":1507:1572  IMMBot(0xAf6D87DF518d6442937CffB1A005D25844520269).AddLiquidity() */\n      mload(0x40)\n      dup2\n      0xffffffff\n      and\n      0xe0\n      shl\n      dup2\n      mstore\n      0x04\n      add\n      0x00\n      mload(0x40)\n      dup1\n      dup4\n      sub\n      dup2\n      0x00\n      dup8\n      dup1\n      extcodesize\n      iszero\n      dup1\n      iszero\n      tag_29\n      jumpi\n      0x00\n      dup1\n      revert\n    tag_29:\n      pop\n      gas\n      call\n      iszero\n      dup1\n      iszero\n      tag_31\n      jumpi\n      returndatasize\n      0x00\n      dup1\n      returndatacopy\n      revert(0x00, returndatasize)\n    tag_31:\n      pop\n      pop\n      pop\n      pop\n        /* \"MERCHANT MOE/LBRouter/src/Bot.sol\":1082:1576  function rebalance() public payable {... */\n      jump\t// out\n        /* \"MERCHANT MOE/LBRouter/src/Bot.sol\":1580:1871  function checkFarm() external view returns (bool){... */\n    tag_11:\n        /* \"MERCHANT MOE/LBRouter/src/Bot.sol\":1624:1628  bool */\n      0x00\n        /* \"MERCHANT MOE/LBRouter/src/Bot.sol\":1635:1651  uint256 ActiveID */\n      dup1\n        /* \"MERCHANT MOE/LBRouter/src/Bot.sol\":1661:1703  0xAf6D87DF518d6442937CffB1A005D25844520269 */\n      0xaf6d87df518d6442937cffb1a005d25844520269\n      sub(shl(0xa0, 0x01), 0x01)\n        /* \"MERCHANT MOE/LBRouter/src/Bot.sol\":1654:1712  IMMBot(0xAf6D87DF518d6442937CffB1A005D25844520269).ViewBin */\n      and\n      0xecbd4533\n        /* \"MERCHANT MOE/LBRouter/src/Bot.sol\":1654:1714  IMMBot(0xAf6D87DF518d6442937CffB1A005D25844520269).ViewBin() */\n      mload(0x40)\n      dup2\n      0xffffffff\n      and\n      0xe0\n      shl\n      dup2\n      mstore\n      0x04\n      add\n      0x20\n      mload(0x40)\n      dup1\n      dup4\n      sub\n      dup2\n      dup7\n      gas\n      staticcall\n      iszero\n      dup1\n      iszero\n      tag_34\n      jumpi\n      returndatasize\n      0x00\n      dup1\n      returndatacopy\n      revert(0x00, returndatasize)\n    tag_34:\n      pop\n      pop\n      pop\n      pop\n      mload(0x40)\n      returndatasize\n      not(0x1f)\n      0x1f\n      dup3\n      add\n      and\n      dup3\n      add\n      dup1\n      0x40\n      mstore\n      pop\n      dup2\n      add\n      swap1\n      tag_35\n      swap2\n      swap1\n      tag_36\n      jump\t// in\n    tag_35:\n        /* \"MERCHANT MOE/LBRouter/src/Bot.sol\":1635:1714  uint256 ActiveID = IMMBot(0xAf6D87DF518d6442937CffB1A005D25844520269).ViewBin() */\n      swap1\n      pop\n        /* \"MERCHANT MOE/LBRouter/src/Bot.sol\":1720:1734  uint256 FarmID */\n      0x00\n        /* \"MERCHANT MOE/LBRouter/src/Bot.sol\":1744:1786  0xAf6D87DF518d6442937CffB1A005D25844520269 */\n      0xaf6d87df518d6442937cffb1a005d25844520269\n      sub(shl(0xa0, 0x01), 0x01)\n        /* \"MERCHANT MOE/LBRouter/src/Bot.sol\":1737:1797  IMMBot(0xAf6D87DF518d6442937CffB1A005D25844520269).currentID */\n      and\n      0x1c75cfb4\n        /* \"MERCHANT MOE/LBRouter/src/Bot.sol\":1737:1799  IMMBot(0xAf6D87DF518d6442937CffB1A005D25844520269).currentID() */\n      mload(0x40)\n      dup2\n      0xffffffff\n      and\n      0xe0\n      shl\n      dup2\n      mstore\n      0x04\n      add\n      0x20\n      mload(0x40)\n      dup1\n      dup4\n      sub\n      dup2\n      dup7\n      gas\n      staticcall\n      iszero\n      dup1\n      iszero\n      tag_38\n      jumpi\n      returndatasize\n      0x00\n      dup1\n      returndatacopy\n      revert(0x00, returndatasize)\n    tag_38:\n      pop\n      pop\n      pop\n      pop\n      mload(0x40)\n      returndatasize\n      not(0x1f)\n      0x1f\n      dup3\n      add\n      and\n      dup3\n      add\n      dup1\n      0x40\n      mstore\n      pop\n      dup2\n      add\n      swap1\n      tag_39\n      swap2\n      swap1\n      tag_36\n      jump\t// in\n    tag_39:\n        /* \"MERCHANT MOE/LBRouter/src/Bot.sol\":1824:1842  ActiveID == FarmID */\n      swap2\n      swap1\n      swap2\n      eq\n      swap3\n        /* \"MERCHANT MOE/LBRouter/src/Bot.sol\":1580:1871  function checkFarm() external view returns (bool){... */\n      swap2\n      pop\n      pop\n      jump\t// out\n        /* \"#utility.yul\":414:598   */\n    tag_36:\n        /* \"#utility.yul\":484:490   */\n      0x00\n        /* \"#utility.yul\":537:539   */\n      0x20\n        /* \"#utility.yul\":525:534   */\n      dup3\n        /* \"#utility.yul\":516:523   */\n      dup5\n        /* \"#utility.yul\":512:535   */\n      sub\n        /* \"#utility.yul\":508:540   */\n      slt\n        /* \"#utility.yul\":505:557   */\n      iszero\n      tag_44\n      jumpi\n        /* \"#utility.yul\":553:554   */\n      0x00\n        /* \"#utility.yul\":550:551   */\n      dup1\n        /* \"#utility.yul\":543:555   */\n      revert\n        /* \"#utility.yul\":505:557   */\n    tag_44:\n      pop\n        /* \"#utility.yul\":576:592   */\n      mload\n      swap2\n        /* \"#utility.yul\":414:598   */\n      swap1\n      pop\n      jump\t// out\n\n    auxdata: 0xa26469706673582212201b8157828af2817d27e218f47d1d431a458d843265f0b740856f1e636c2e4e2e64736f6c634300081a0033\n}\n",
				"bytecode": {
					"linkReferences": {},
					"object": "6080604052600280546001600160a01b03199081167378c1b0c915c4faa5fffa6cabf0219da63d7f4cb81790915560038054821673201eba5cc46d216ce6dc03f6a759e8e766e956ae17905560048054821673eaee7ee68874218c3558b40063c42b82d3e7232a17905560058054821673f6c9020c9e915808481757779edb53daceae241517905560068054821673013e138ef6008ae5fdfde29700e3f2bc61d21e3a1790556007805482167308a62eb0ef6dbe762774abf5e18f49671559285b179055600880548216734515a45337f461a11ff0fe8abf3c606ae5dc00c91790556009805490911673af6d87df518d6442937cffb1a005d2584452026917905534801561010b575f80fd5b505f80546001600160a01b031916331790556103a98061012a5f395ff3fe60806040526004361061002b575f3560e01c80637d7c2a1c1461003657806385cd14ba14610040575f80fd5b3661003257005b5f80fd5b61003e610068565b005b34801561004b575f80fd5b50610054610265565b604051901515815260200160405180910390f35b73af6d87df518d6442937cffb1a005d258445202696001600160a01b031663b298bcf56040518163ffffffff1660e01b81526004015f604051808303815f87803b1580156100b4575f80fd5b505af11580156100c6573d5f803e3d5ffd5b5050505073af6d87df518d6442937cffb1a005d258445202696001600160a01b03166370bb45b36040518163ffffffff1660e01b81526004015f604051808303815f87803b158015610116575f80fd5b505af1158015610128573d5f803e3d5ffd5b5050604051638cbc5cff60e01b8152734515a45337f461a11ff0fe8abf3c606ae5dc00c9600482015273af6d87df518d6442937cffb1a005d258445202699250638cbc5cff91506024015f604051808303815f87803b158015610189575f80fd5b505af115801561019b573d5f803e3d5ffd5b5050505073af6d87df518d6442937cffb1a005d258445202696001600160a01b03166303c7685c6040518163ffffffff1660e01b81526004015f604051808303815f87803b1580156101eb575f80fd5b505af11580156101fd573d5f803e3d5ffd5b5050505073af6d87df518d6442937cffb1a005d258445202696001600160a01b0316630bc488c56040518163ffffffff1660e01b81526004015f604051808303815f87803b15801561024d575f80fd5b505af115801561025f573d5f803e3d5ffd5b50505050565b5f8073af6d87df518d6442937cffb1a005d258445202696001600160a01b031663ecbd45336040518163ffffffff1660e01b8152600401602060405180830381865afa1580156102b7573d5f803e3d5ffd5b505050506040513d601f19601f820116820180604052508101906102db919061035c565b90505f73af6d87df518d6442937cffb1a005d258445202696001600160a01b0316631c75cfb46040518163ffffffff1660e01b8152600401602060405180830381865afa15801561032e573d5f803e3d5ffd5b505050506040513d601f19601f82011682018060405250810190610352919061035c565b9190911492915050565b5f6020828403121561036c575f80fd5b505191905056fea26469706673582212201b8157828af2817d27e218f47d1d431a458d843265f0b740856f1e636c2e4e2e64736f6c634300081a0033",
					"opcodes": "PUSH1 0x80 PUSH1 0x40 MSTORE PUSH1 0x2 DUP1 SLOAD PUSH1 0x1 PUSH1 0x1 PUSH1 0xA0 SHL SUB NOT SWAP1 DUP2 AND PUSH20 0x78C1B0C915C4FAA5FFFA6CABF0219DA63D7F4CB8 OR SWAP1 SWAP2 SSTORE PUSH1 0x3 DUP1 SLOAD DUP3 AND PUSH20 0x201EBA5CC46D216CE6DC03F6A759E8E766E956AE OR SWAP1 SSTORE PUSH1 0x4 DUP1 SLOAD DUP3 AND PUSH20 0xEAEE7EE68874218C3558B40063C42B82D3E7232A OR SWAP1 SSTORE PUSH1 0x5 DUP1 SLOAD DUP3 AND PUSH20 0xF6C9020C9E915808481757779EDB53DACEAE2415 OR SWAP1 SSTORE PUSH1 0x6 DUP1 SLOAD DUP3 AND PUSH20 0x13E138EF6008AE5FDFDE29700E3F2BC61D21E3A OR SWAP1 SSTORE PUSH1 0x7 DUP1 SLOAD DUP3 AND PUSH20 0x8A62EB0EF6DBE762774ABF5E18F49671559285B OR SWAP1 SSTORE PUSH1 0x8 DUP1 SLOAD DUP3 AND PUSH20 0x4515A45337F461A11FF0FE8ABF3C606AE5DC00C9 OR SWAP1 SSTORE PUSH1 0x9 DUP1 SLOAD SWAP1 SWAP2 AND PUSH20 0xAF6D87DF518D6442937CFFB1A005D25844520269 OR SWAP1 SSTORE CALLVALUE DUP1 ISZERO PUSH2 0x10B JUMPI PUSH0 DUP1 REVERT JUMPDEST POP PUSH0 DUP1 SLOAD PUSH1 0x1 PUSH1 0x1 PUSH1 0xA0 SHL SUB NOT AND CALLER OR SWAP1 SSTORE PUSH2 0x3A9 DUP1 PUSH2 0x12A PUSH0 CODECOPY PUSH0 RETURN INVALID PUSH1 0x80 PUSH1 0x40 MSTORE PUSH1 0x4 CALLDATASIZE LT PUSH2 0x2B JUMPI PUSH0 CALLDATALOAD PUSH1 0xE0 SHR DUP1 PUSH4 0x7D7C2A1C EQ PUSH2 0x36 JUMPI DUP1 PUSH4 0x85CD14BA EQ PUSH2 0x40 JUMPI PUSH0 DUP1 REVERT JUMPDEST CALLDATASIZE PUSH2 0x32 JUMPI STOP JUMPDEST PUSH0 DUP1 REVERT JUMPDEST PUSH2 0x3E PUSH2 0x68 JUMP JUMPDEST STOP JUMPDEST CALLVALUE DUP1 ISZERO PUSH2 0x4B JUMPI PUSH0 DUP1 REVERT JUMPDEST POP PUSH2 0x54 PUSH2 0x265 JUMP JUMPDEST PUSH1 0x40 MLOAD SWAP1 ISZERO ISZERO DUP2 MSTORE PUSH1 0x20 ADD PUSH1 0x40 MLOAD DUP1 SWAP2 SUB SWAP1 RETURN JUMPDEST PUSH20 0xAF6D87DF518D6442937CFFB1A005D25844520269 PUSH1 0x1 PUSH1 0x1 PUSH1 0xA0 SHL SUB AND PUSH4 0xB298BCF5 PUSH1 0x40 MLOAD DUP2 PUSH4 0xFFFFFFFF AND PUSH1 0xE0 SHL DUP2 MSTORE PUSH1 0x4 ADD PUSH0 PUSH1 0x40 MLOAD DUP1 DUP4 SUB DUP2 PUSH0 DUP8 DUP1 EXTCODESIZE ISZERO DUP1 ISZERO PUSH2 0xB4 JUMPI PUSH0 DUP1 REVERT JUMPDEST POP GAS CALL ISZERO DUP1 ISZERO PUSH2 0xC6 JUMPI RETURNDATASIZE PUSH0 DUP1 RETURNDATACOPY RETURNDATASIZE PUSH0 REVERT JUMPDEST POP POP POP POP PUSH20 0xAF6D87DF518D6442937CFFB1A005D25844520269 PUSH1 0x1 PUSH1 0x1 PUSH1 0xA0 SHL SUB AND PUSH4 0x70BB45B3 PUSH1 0x40 MLOAD DUP2 PUSH4 0xFFFFFFFF AND PUSH1 0xE0 SHL DUP2 MSTORE PUSH1 0x4 ADD PUSH0 PUSH1 0x40 MLOAD DUP1 DUP4 SUB DUP2 PUSH0 DUP8 DUP1 EXTCODESIZE ISZERO DUP1 ISZERO PUSH2 0x116 JUMPI PUSH0 DUP1 REVERT JUMPDEST POP GAS CALL ISZERO DUP1 ISZERO PUSH2 0x128 JUMPI RETURNDATASIZE PUSH0 DUP1 RETURNDATACOPY RETURNDATASIZE PUSH0 REVERT JUMPDEST POP POP PUSH1 0x40 MLOAD PUSH4 0x8CBC5CFF PUSH1 0xE0 SHL DUP2 MSTORE PUSH20 0x4515A45337F461A11FF0FE8ABF3C606AE5DC00C9 PUSH1 0x4 DUP3 ADD MSTORE PUSH20 0xAF6D87DF518D6442937CFFB1A005D25844520269 SWAP3 POP PUSH4 0x8CBC5CFF SWAP2 POP PUSH1 0x24 ADD PUSH0 PUSH1 0x40 MLOAD DUP1 DUP4 SUB DUP2 PUSH0 DUP8 DUP1 EXTCODESIZE ISZERO DUP1 ISZERO PUSH2 0x189 JUMPI PUSH0 DUP1 REVERT JUMPDEST POP GAS CALL ISZERO DUP1 ISZERO PUSH2 0x19B JUMPI RETURNDATASIZE PUSH0 DUP1 RETURNDATACOPY RETURNDATASIZE PUSH0 REVERT JUMPDEST POP POP POP POP PUSH20 0xAF6D87DF518D6442937CFFB1A005D25844520269 PUSH1 0x1 PUSH1 0x1 PUSH1 0xA0 SHL SUB AND PUSH4 0x3C7685C PUSH1 0x40 MLOAD DUP2 PUSH4 0xFFFFFFFF AND PUSH1 0xE0 SHL DUP2 MSTORE PUSH1 0x4 ADD PUSH0 PUSH1 0x40 MLOAD DUP1 DUP4 SUB DUP2 PUSH0 DUP8 DUP1 EXTCODESIZE ISZERO DUP1 ISZERO PUSH2 0x1EB JUMPI PUSH0 DUP1 REVERT JUMPDEST POP GAS CALL ISZERO DUP1 ISZERO PUSH2 0x1FD JUMPI RETURNDATASIZE PUSH0 DUP1 RETURNDATACOPY RETURNDATASIZE PUSH0 REVERT JUMPDEST POP POP POP POP PUSH20 0xAF6D87DF518D6442937CFFB1A005D25844520269 PUSH1 0x1 PUSH1 0x1 PUSH1 0xA0 SHL SUB AND PUSH4 0xBC488C5 PUSH1 0x40 MLOAD DUP2 PUSH4 0xFFFFFFFF AND PUSH1 0xE0 SHL DUP2 MSTORE PUSH1 0x4 ADD PUSH0 PUSH1 0x40 MLOAD DUP1 DUP4 SUB DUP2 PUSH0 DUP8 DUP1 EXTCODESIZE ISZERO DUP1 ISZERO PUSH2 0x24D JUMPI PUSH0 DUP1 REVERT JUMPDEST POP GAS CALL ISZERO DUP1 ISZERO PUSH2 0x25F JUMPI RETURNDATASIZE PUSH0 DUP1 RETURNDATACOPY RETURNDATASIZE PUSH0 REVERT JUMPDEST POP POP POP POP JUMP JUMPDEST PUSH0 DUP1 PUSH20 0xAF6D87DF518D6442937CFFB1A005D25844520269 PUSH1 0x1 PUSH1 0x1 PUSH1 0xA0 SHL SUB AND PUSH4 0xECBD4533 PUSH1 0x40 MLOAD DUP2 PUSH4 0xFFFFFFFF AND PUSH1 0xE0 SHL DUP2 MSTORE PUSH1 0x4 ADD PUSH1 0x20 PUSH1 0x40 MLOAD DUP1 DUP4 SUB DUP2 DUP7 GAS STATICCALL ISZERO DUP1 ISZERO PUSH2 0x2B7 JUMPI RETURNDATASIZE PUSH0 DUP1 RETURNDATACOPY RETURNDATASIZE PUSH0 REVERT JUMPDEST POP POP POP POP PUSH1 0x40 MLOAD RETURNDATASIZE PUSH1 0x1F NOT PUSH1 0x1F DUP3 ADD AND DUP3 ADD DUP1 PUSH1 0x40 MSTORE POP DUP2 ADD SWAP1 PUSH2 0x2DB SWAP2 SWAP1 PUSH2 0x35C JUMP JUMPDEST SWAP1 POP PUSH0 PUSH20 0xAF6D87DF518D6442937CFFB1A005D25844520269 PUSH1 0x1 PUSH1 0x1 PUSH1 0xA0 SHL SUB AND PUSH4 0x1C75CFB4 PUSH1 0x40 MLOAD DUP2 PUSH4 0xFFFFFFFF AND PUSH1 0xE0 SHL DUP2 MSTORE PUSH1 0x4 ADD PUSH1 0x20 PUSH1 0x40 MLOAD DUP1 DUP4 SUB DUP2 DUP7 GAS STATICCALL ISZERO DUP1 ISZERO PUSH2 0x32E JUMPI RETURNDATASIZE PUSH0 DUP1 RETURNDATACOPY RETURNDATASIZE PUSH0 REVERT JUMPDEST POP POP POP POP PUSH1 0x40 MLOAD RETURNDATASIZE PUSH1 0x1F NOT PUSH1 0x1F DUP3 ADD AND DUP3 ADD DUP1 PUSH1 0x40 MSTORE POP DUP2 ADD SWAP1 PUSH2 0x352 SWAP2 SWAP1 PUSH2 0x35C JUMP JUMPDEST SWAP2 SWAP1 SWAP2 EQ SWAP3 SWAP2 POP POP JUMP JUMPDEST PUSH0 PUSH1 0x20 DUP3 DUP5 SUB SLT ISZERO PUSH2 0x36C JUMPI PUSH0 DUP1 REVERT JUMPDEST POP MLOAD SWAP2 SWAP1 POP JUMP INVALID LOG2 PUSH5 0x6970667358 0x22 SLT KECCAK256 SHL DUP2 JUMPI DUP3 DUP11 CALLCODE DUP2 PUSH30 0x27E218F47D1D431A458D843265F0B740856F1E636C2E4E2E64736F6C6343 STOP ADDMOD BYTE STOP CALLER "
				},
				"gasEstimates": {
					"creation": {
						"codeDepositCost": "187400",
						"executionCost": "218259",
						"totalCost": "405659"
					},
					"external": {
						"checkFarm()": "infinite",
						"rebalance()": "infinite"
					}
				},
				"methodIdentifiers": {
					"checkFarm()": "85cd14ba",
					"rebalance()": "7d7c2a1c"
				}
			},
			"storageLayout": {
				"storage": [
					{
						"astId": 31,
						"contract": "MERCHANT MOE/LBRouter/src/Bot.sol:BotController",
						"label": "admin",
						"offset": 0,
						"slot": "0",
						"type": "t_address"
					},
					{
						"astId": 42,
						"contract": "MERCHANT MOE/LBRouter/src/Bot.sol:BotController",
						"label": "CurrentDepositID",
						"offset": 0,
						"slot": "1",
						"type": "t_uint256"
					},
					{
						"astId": 45,
						"contract": "MERCHANT MOE/LBRouter/src/Bot.sol:BotController",
						"label": "WMNT",
						"offset": 0,
						"slot": "2",
						"type": "t_address"
					},
					{
						"astId": 48,
						"contract": "MERCHANT MOE/LBRouter/src/Bot.sol:BotController",
						"label": "USDT",
						"offset": 0,
						"slot": "3",
						"type": "t_address"
					},
					{
						"astId": 51,
						"contract": "MERCHANT MOE/LBRouter/src/Bot.sol:BotController",
						"label": "router",
						"offset": 0,
						"slot": "4",
						"type": "t_address"
					},
					{
						"astId": 54,
						"contract": "MERCHANT MOE/LBRouter/src/Bot.sol:BotController",
						"label": "LBPool",
						"offset": 0,
						"slot": "5",
						"type": "t_address"
					},
					{
						"astId": 57,
						"contract": "MERCHANT MOE/LBRouter/src/Bot.sol:BotController",
						"label": "LBrouter",
						"offset": 0,
						"slot": "6",
						"type": "t_address"
					},
					{
						"astId": 60,
						"contract": "MERCHANT MOE/LBRouter/src/Bot.sol:BotController",
						"label": "MoeRewarder",
						"offset": 0,
						"slot": "7",
						"type": "t_address"
					},
					{
						"astId": 63,
						"contract": "MERCHANT MOE/LBRouter/src/Bot.sol:BotController",
						"label": "Moe",
						"offset": 0,
						"slot": "8",
						"type": "t_address"
					},
					{
						"astId": 66,
						"contract": "MERCHANT MOE/LBRouter/src/Bot.sol:BotController",
						"label": "Bot",
						"offset": 0,
						"slot": "9",
						"type": "t_address"
					}
				],
				"types": {
					"t_address": {
						"encoding": "inplace",
						"label": "address",
						"numberOfBytes": "20"
					},
					"t_uint256": {
						"encoding": "inplace",
						"label": "uint256",
						"numberOfBytes": "32"
					}
				}
			},
			"userdoc": {
				"kind": "user",
				"methods": {},
				"version": 1
			}
		}
	}
}